{
	"contracts/Bank_System.sol": {
		"Bank_System": {
			"abi": [
				{
					"anonymous": false,
					"inputs": [
						{
							"indexed": true,
							"internalType": "address",
							"name": "cust_address",
							"type": "address"
						},
						{
							"indexed": false,
							"internalType": "uint256",
							"name": "_cust_Balanace",
							"type": "uint256"
						}
					],
					"name": "Evt_deposit",
					"type": "event"
				},
				{
					"inputs": [
						{
							"internalType": "string",
							"name": "_custName",
							"type": "string"
						},
						{
							"internalType": "uint256",
							"name": "_cust_Balanace",
							"type": "uint256"
						},
						{
							"internalType": "address",
							"name": "_cust_Address",
							"type": "address"
						}
					],
					"name": "AddCustomer",
					"outputs": [],
					"stateMutability": "view",
					"type": "function"
				},
				{
					"inputs": [
						{
							"internalType": "address",
							"name": "",
							"type": "address"
						}
					],
					"name": "Map_cust",
					"outputs": [
						{
							"internalType": "uint256",
							"name": "",
							"type": "uint256"
						}
					],
					"stateMutability": "view",
					"type": "function"
				},
				{
					"inputs": [
						{
							"internalType": "uint256",
							"name": "_amount",
							"type": "uint256"
						}
					],
					"name": "deposit_Money",
					"outputs": [],
					"stateMutability": "payable",
					"type": "function"
				},
				{
					"stateMutability": "payable",
					"type": "receive"
				}
			],
			"devdoc": {
				"kind": "dev",
				"methods": {},
				"version": 1
			},
			"evm": {
				"assembly": "    /* \"contracts/Bank_System.sol\":128:1085  contract Bank_System... */\n  mstore(0x40, 0x80)\n  callvalue\n  dup1\n  iszero\n  tag_1\n  jumpi\n  0x00\n  dup1\n  revert\ntag_1:\n  pop\n  dataSize(sub_0)\n  dup1\n  dataOffset(sub_0)\n  0x00\n  codecopy\n  0x00\n  return\nstop\n\nsub_0: assembly {\n        /* \"contracts/Bank_System.sol\":128:1085  contract Bank_System... */\n      mstore(0x40, 0x80)\n      jumpi(tag_1, lt(calldatasize, 0x04))\n      shr(0xe0, calldataload(0x00))\n      dup1\n      0x0b7d5609\n      eq\n      tag_3\n      jumpi\n      dup1\n      0x3dca1e76\n      eq\n      tag_4\n      jumpi\n      dup1\n      0xffa64cc6\n      eq\n      tag_5\n      jumpi\n      jump(tag_2)\n    tag_1:\n      jumpi(tag_2, calldatasize)\n        /* \"contracts/Bank_System.sol\":569:576  1 ether */\n      0x0de0b6b3a7640000\n        /* \"contracts/Bank_System.sol\":556:565  msg.value */\n      callvalue\n        /* \"contracts/Bank_System.sol\":556:576  msg.value >= 1 ether */\n      lt\n      iszero\n        /* \"contracts/Bank_System.sol\":548:616  require(msg.value >= 1 ether, \"The amount should be larger than 1 \") */\n      tag_8\n      jumpi\n      mload(0x40)\n      0x08c379a000000000000000000000000000000000000000000000000000000000\n      dup2\n      mstore\n      0x04\n      add\n      tag_9\n      swap1\n      tag_10\n      jump\t// in\n    tag_9:\n      mload(0x40)\n      dup1\n      swap2\n      sub\n      swap1\n      revert\n    tag_8:\n        /* \"contracts/Bank_System.sol\":627:651  deposit_Money(msg.value) */\n      tag_11\n        /* \"contracts/Bank_System.sol\":641:650  msg.value */\n      callvalue\n        /* \"contracts/Bank_System.sol\":627:640  deposit_Money */\n      tag_12\n        /* \"contracts/Bank_System.sol\":627:651  deposit_Money(msg.value) */\n      jump\t// in\n    tag_11:\n        /* \"contracts/Bank_System.sol\":684:693  msg.value */\n      callvalue\n        /* \"contracts/Bank_System.sol\":662:670  Map_cust */\n      0x00\n        /* \"contracts/Bank_System.sol\":662:682  Map_cust[msg.sender] */\n      dup1\n        /* \"contracts/Bank_System.sol\":671:681  msg.sender */\n      caller\n        /* \"contracts/Bank_System.sol\":662:682  Map_cust[msg.sender] */\n      0xffffffffffffffffffffffffffffffffffffffff\n      and\n      0xffffffffffffffffffffffffffffffffffffffff\n      and\n      dup2\n      mstore\n      0x20\n      add\n      swap1\n      dup2\n      mstore\n      0x20\n      add\n      0x00\n      keccak256\n      0x00\n        /* \"contracts/Bank_System.sol\":662:693  Map_cust[msg.sender]+=msg.value */\n      dup3\n      dup3\n      sload\n      tag_13\n      swap2\n      swap1\n      tag_14\n      jump\t// in\n    tag_13:\n      swap3\n      pop\n      pop\n      dup2\n      swap1\n      sstore\n      stop\n        /* \"contracts/Bank_System.sol\":128:1085  contract Bank_System... */\n    tag_2:\n      0x00\n      dup1\n      revert\n        /* \"contracts/Bank_System.sol\":336:378  mapping (address=>uint256) public Map_cust */\n    tag_3:\n      callvalue\n      dup1\n      iszero\n      tag_15\n      jumpi\n      0x00\n      dup1\n      revert\n    tag_15:\n      pop\n      tag_16\n      0x04\n      dup1\n      calldatasize\n      sub\n      dup2\n      add\n      swap1\n      tag_17\n      swap2\n      swap1\n      tag_18\n      jump\t// in\n    tag_17:\n      tag_19\n      jump\t// in\n    tag_16:\n      mload(0x40)\n      tag_20\n      swap2\n      swap1\n      tag_21\n      jump\t// in\n    tag_20:\n      mload(0x40)\n      dup1\n      swap2\n      sub\n      swap1\n      return\n        /* \"contracts/Bank_System.sol\":881:1029  function deposit_Money (uint256 _amount) public payable ... */\n    tag_4:\n      tag_22\n      0x04\n      dup1\n      calldatasize\n      sub\n      dup2\n      add\n      swap1\n      tag_23\n      swap2\n      swap1\n      tag_24\n      jump\t// in\n    tag_23:\n      tag_12\n      jump\t// in\n    tag_22:\n      stop\n        /* \"contracts/Bank_System.sol\":738:853  function AddCustomer(string memory _custName, uint256 _cust_Balanace,address _cust_Address) public view { ... */\n    tag_5:\n      callvalue\n      dup1\n      iszero\n      tag_25\n      jumpi\n      0x00\n      dup1\n      revert\n    tag_25:\n      pop\n      tag_26\n      0x04\n      dup1\n      calldatasize\n      sub\n      dup2\n      add\n      swap1\n      tag_27\n      swap2\n      swap1\n      tag_28\n      jump\t// in\n    tag_27:\n      tag_29\n      jump\t// in\n    tag_26:\n      stop\n        /* \"contracts/Bank_System.sol\":881:1029  function deposit_Money (uint256 _amount) public payable ... */\n    tag_12:\n        /* \"contracts/Bank_System.sol\":970:977  1 ether */\n      0x0de0b6b3a7640000\n        /* \"contracts/Bank_System.sol\":957:966  msg.value */\n      callvalue\n        /* \"contracts/Bank_System.sol\":957:977  msg.value >= 1 ether */\n      lt\n      iszero\n        /* \"contracts/Bank_System.sol\":949:1017  require(msg.value >= 1 ether, \"The amount should be larger than 1 \") */\n      tag_31\n      jumpi\n      mload(0x40)\n      0x08c379a000000000000000000000000000000000000000000000000000000000\n      dup2\n      mstore\n      0x04\n      add\n      tag_32\n      swap1\n      tag_10\n      jump\t// in\n    tag_32:\n      mload(0x40)\n      dup1\n      swap2\n      sub\n      swap1\n      revert\n    tag_31:\n        /* \"contracts/Bank_System.sol\":881:1029  function deposit_Money (uint256 _amount) public payable ... */\n      pop\n      jump\t// out\n        /* \"contracts/Bank_System.sol\":336:378  mapping (address=>uint256) public Map_cust */\n    tag_19:\n      mstore(0x20, 0x00)\n      dup1\n      0x00\n      mstore\n      keccak256(0x00, 0x40)\n      0x00\n      swap2\n      pop\n      swap1\n      pop\n      sload\n      dup2\n      jump\t// out\n        /* \"contracts/Bank_System.sol\":738:853  function AddCustomer(string memory _custName, uint256 _cust_Balanace,address _cust_Address) public view { ... */\n    tag_29:\n      pop\n      pop\n      pop\n      jump\t// out\n        /* \"#utility.yul\":7:176   */\n    tag_34:\n        /* \"#utility.yul\":91:102   */\n      0x00\n        /* \"#utility.yul\":125:131   */\n      dup3\n        /* \"#utility.yul\":120:123   */\n      dup3\n        /* \"#utility.yul\":113:132   */\n      mstore\n        /* \"#utility.yul\":165:169   */\n      0x20\n        /* \"#utility.yul\":160:163   */\n      dup3\n        /* \"#utility.yul\":156:170   */\n      add\n        /* \"#utility.yul\":141:170   */\n      swap1\n      pop\n        /* \"#utility.yul\":7:176   */\n      swap3\n      swap2\n      pop\n      pop\n      jump\t// out\n        /* \"#utility.yul\":182:404   */\n    tag_35:\n        /* \"#utility.yul\":322:356   */\n      0x54686520616d6f756e742073686f756c64206265206c6172676572207468616e\n        /* \"#utility.yul\":318:319   */\n      0x00\n        /* \"#utility.yul\":310:316   */\n      dup3\n        /* \"#utility.yul\":306:320   */\n      add\n        /* \"#utility.yul\":299:357   */\n      mstore\n        /* \"#utility.yul\":391:396   */\n      0x2031200000000000000000000000000000000000000000000000000000000000\n        /* \"#utility.yul\":386:388   */\n      0x20\n        /* \"#utility.yul\":378:384   */\n      dup3\n        /* \"#utility.yul\":374:389   */\n      add\n        /* \"#utility.yul\":367:397   */\n      mstore\n        /* \"#utility.yul\":182:404   */\n      pop\n      jump\t// out\n        /* \"#utility.yul\":410:776   */\n    tag_36:\n        /* \"#utility.yul\":552:555   */\n      0x00\n        /* \"#utility.yul\":573:640   */\n      tag_63\n        /* \"#utility.yul\":637:639   */\n      0x23\n        /* \"#utility.yul\":632:635   */\n      dup4\n        /* \"#utility.yul\":573:640   */\n      tag_34\n      jump\t// in\n    tag_63:\n        /* \"#utility.yul\":566:640   */\n      swap2\n      pop\n        /* \"#utility.yul\":649:742   */\n      tag_64\n        /* \"#utility.yul\":738:741   */\n      dup3\n        /* \"#utility.yul\":649:742   */\n      tag_35\n      jump\t// in\n    tag_64:\n        /* \"#utility.yul\":767:769   */\n      0x40\n        /* \"#utility.yul\":762:765   */\n      dup3\n        /* \"#utility.yul\":758:770   */\n      add\n        /* \"#utility.yul\":751:770   */\n      swap1\n      pop\n        /* \"#utility.yul\":410:776   */\n      swap2\n      swap1\n      pop\n      jump\t// out\n        /* \"#utility.yul\":782:1201   */\n    tag_10:\n        /* \"#utility.yul\":948:952   */\n      0x00\n        /* \"#utility.yul\":986:988   */\n      0x20\n        /* \"#utility.yul\":975:984   */\n      dup3\n        /* \"#utility.yul\":971:989   */\n      add\n        /* \"#utility.yul\":963:989   */\n      swap1\n      pop\n        /* \"#utility.yul\":1035:1044   */\n      dup2\n        /* \"#utility.yul\":1029:1033   */\n      dup2\n        /* \"#utility.yul\":1025:1045   */\n      sub\n        /* \"#utility.yul\":1021:1022   */\n      0x00\n        /* \"#utility.yul\":1010:1019   */\n      dup4\n        /* \"#utility.yul\":1006:1023   */\n      add\n        /* \"#utility.yul\":999:1046   */\n      mstore\n        /* \"#utility.yul\":1063:1194   */\n      tag_66\n        /* \"#utility.yul\":1189:1193   */\n      dup2\n        /* \"#utility.yul\":1063:1194   */\n      tag_36\n      jump\t// in\n    tag_66:\n        /* \"#utility.yul\":1055:1194   */\n      swap1\n      pop\n        /* \"#utility.yul\":782:1201   */\n      swap2\n      swap1\n      pop\n      jump\t// out\n        /* \"#utility.yul\":1207:1284   */\n    tag_37:\n        /* \"#utility.yul\":1244:1251   */\n      0x00\n        /* \"#utility.yul\":1273:1278   */\n      dup2\n        /* \"#utility.yul\":1262:1278   */\n      swap1\n      pop\n        /* \"#utility.yul\":1207:1284   */\n      swap2\n      swap1\n      pop\n      jump\t// out\n        /* \"#utility.yul\":1290:1470   */\n    tag_38:\n        /* \"#utility.yul\":1338:1415   */\n      0x4e487b7100000000000000000000000000000000000000000000000000000000\n        /* \"#utility.yul\":1335:1336   */\n      0x00\n        /* \"#utility.yul\":1328:1416   */\n      mstore\n        /* \"#utility.yul\":1435:1439   */\n      0x11\n        /* \"#utility.yul\":1432:1433   */\n      0x04\n        /* \"#utility.yul\":1425:1440   */\n      mstore\n        /* \"#utility.yul\":1459:1463   */\n      0x24\n        /* \"#utility.yul\":1456:1457   */\n      0x00\n        /* \"#utility.yul\":1449:1464   */\n      revert\n        /* \"#utility.yul\":1476:1667   */\n    tag_14:\n        /* \"#utility.yul\":1516:1519   */\n      0x00\n        /* \"#utility.yul\":1535:1555   */\n      tag_70\n        /* \"#utility.yul\":1553:1554   */\n      dup3\n        /* \"#utility.yul\":1535:1555   */\n      tag_37\n      jump\t// in\n    tag_70:\n        /* \"#utility.yul\":1530:1555   */\n      swap2\n      pop\n        /* \"#utility.yul\":1569:1589   */\n      tag_71\n        /* \"#utility.yul\":1587:1588   */\n      dup4\n        /* \"#utility.yul\":1569:1589   */\n      tag_37\n      jump\t// in\n    tag_71:\n        /* \"#utility.yul\":1564:1589   */\n      swap3\n      pop\n        /* \"#utility.yul\":1612:1613   */\n      dup3\n        /* \"#utility.yul\":1609:1610   */\n      dup3\n        /* \"#utility.yul\":1605:1614   */\n      add\n        /* \"#utility.yul\":1598:1614   */\n      swap1\n      pop\n        /* \"#utility.yul\":1633:1636   */\n      dup1\n        /* \"#utility.yul\":1630:1631   */\n      dup3\n        /* \"#utility.yul\":1627:1637   */\n      gt\n        /* \"#utility.yul\":1624:1660   */\n      iszero\n      tag_72\n      jumpi\n        /* \"#utility.yul\":1640:1658   */\n      tag_73\n      tag_38\n      jump\t// in\n    tag_73:\n        /* \"#utility.yul\":1624:1660   */\n    tag_72:\n        /* \"#utility.yul\":1476:1667   */\n      swap3\n      swap2\n      pop\n      pop\n      jump\t// out\n        /* \"#utility.yul\":1673:1748   */\n    tag_39:\n        /* \"#utility.yul\":1706:1712   */\n      0x00\n        /* \"#utility.yul\":1739:1741   */\n      0x40\n        /* \"#utility.yul\":1733:1742   */\n      mload\n        /* \"#utility.yul\":1723:1742   */\n      swap1\n      pop\n        /* \"#utility.yul\":1673:1748   */\n      swap1\n      jump\t// out\n        /* \"#utility.yul\":1754:1871   */\n    tag_40:\n        /* \"#utility.yul\":1863:1864   */\n      0x00\n        /* \"#utility.yul\":1860:1861   */\n      dup1\n        /* \"#utility.yul\":1853:1865   */\n      revert\n        /* \"#utility.yul\":1877:1994   */\n    tag_41:\n        /* \"#utility.yul\":1986:1987   */\n      0x00\n        /* \"#utility.yul\":1983:1984   */\n      dup1\n        /* \"#utility.yul\":1976:1988   */\n      revert\n        /* \"#utility.yul\":2000:2126   */\n    tag_42:\n        /* \"#utility.yul\":2037:2044   */\n      0x00\n        /* \"#utility.yul\":2077:2119   */\n      0xffffffffffffffffffffffffffffffffffffffff\n        /* \"#utility.yul\":2070:2075   */\n      dup3\n        /* \"#utility.yul\":2066:2120   */\n      and\n        /* \"#utility.yul\":2055:2120   */\n      swap1\n      pop\n        /* \"#utility.yul\":2000:2126   */\n      swap2\n      swap1\n      pop\n      jump\t// out\n        /* \"#utility.yul\":2132:2228   */\n    tag_43:\n        /* \"#utility.yul\":2169:2176   */\n      0x00\n        /* \"#utility.yul\":2198:2222   */\n      tag_79\n        /* \"#utility.yul\":2216:2221   */\n      dup3\n        /* \"#utility.yul\":2198:2222   */\n      tag_42\n      jump\t// in\n    tag_79:\n        /* \"#utility.yul\":2187:2222   */\n      swap1\n      pop\n        /* \"#utility.yul\":2132:2228   */\n      swap2\n      swap1\n      pop\n      jump\t// out\n        /* \"#utility.yul\":2234:2356   */\n    tag_44:\n        /* \"#utility.yul\":2307:2331   */\n      tag_81\n        /* \"#utility.yul\":2325:2330   */\n      dup2\n        /* \"#utility.yul\":2307:2331   */\n      tag_43\n      jump\t// in\n    tag_81:\n        /* \"#utility.yul\":2300:2305   */\n      dup2\n        /* \"#utility.yul\":2297:2332   */\n      eq\n        /* \"#utility.yul\":2287:2350   */\n      tag_82\n      jumpi\n        /* \"#utility.yul\":2346:2347   */\n      0x00\n        /* \"#utility.yul\":2343:2344   */\n      dup1\n        /* \"#utility.yul\":2336:2348   */\n      revert\n        /* \"#utility.yul\":2287:2350   */\n    tag_82:\n        /* \"#utility.yul\":2234:2356   */\n      pop\n      jump\t// out\n        /* \"#utility.yul\":2362:2501   */\n    tag_45:\n        /* \"#utility.yul\":2408:2413   */\n      0x00\n        /* \"#utility.yul\":2446:2452   */\n      dup2\n        /* \"#utility.yul\":2433:2453   */\n      calldataload\n        /* \"#utility.yul\":2424:2453   */\n      swap1\n      pop\n        /* \"#utility.yul\":2462:2495   */\n      tag_84\n        /* \"#utility.yul\":2489:2494   */\n      dup2\n        /* \"#utility.yul\":2462:2495   */\n      tag_44\n      jump\t// in\n    tag_84:\n        /* \"#utility.yul\":2362:2501   */\n      swap3\n      swap2\n      pop\n      pop\n      jump\t// out\n        /* \"#utility.yul\":2507:2836   */\n    tag_18:\n        /* \"#utility.yul\":2566:2572   */\n      0x00\n        /* \"#utility.yul\":2615:2617   */\n      0x20\n        /* \"#utility.yul\":2603:2612   */\n      dup3\n        /* \"#utility.yul\":2594:2601   */\n      dup5\n        /* \"#utility.yul\":2590:2613   */\n      sub\n        /* \"#utility.yul\":2586:2618   */\n      slt\n        /* \"#utility.yul\":2583:2702   */\n      iszero\n      tag_86\n      jumpi\n        /* \"#utility.yul\":2621:2700   */\n      tag_87\n      tag_40\n      jump\t// in\n    tag_87:\n        /* \"#utility.yul\":2583:2702   */\n    tag_86:\n        /* \"#utility.yul\":2741:2742   */\n      0x00\n        /* \"#utility.yul\":2766:2819   */\n      tag_88\n        /* \"#utility.yul\":2811:2818   */\n      dup5\n        /* \"#utility.yul\":2802:2808   */\n      dup3\n        /* \"#utility.yul\":2791:2800   */\n      dup6\n        /* \"#utility.yul\":2787:2809   */\n      add\n        /* \"#utility.yul\":2766:2819   */\n      tag_45\n      jump\t// in\n    tag_88:\n        /* \"#utility.yul\":2756:2819   */\n      swap2\n      pop\n        /* \"#utility.yul\":2712:2829   */\n      pop\n        /* \"#utility.yul\":2507:2836   */\n      swap3\n      swap2\n      pop\n      pop\n      jump\t// out\n        /* \"#utility.yul\":2842:2960   */\n    tag_46:\n        /* \"#utility.yul\":2929:2953   */\n      tag_90\n        /* \"#utility.yul\":2947:2952   */\n      dup2\n        /* \"#utility.yul\":2929:2953   */\n      tag_37\n      jump\t// in\n    tag_90:\n        /* \"#utility.yul\":2924:2927   */\n      dup3\n        /* \"#utility.yul\":2917:2954   */\n      mstore\n        /* \"#utility.yul\":2842:2960   */\n      pop\n      pop\n      jump\t// out\n        /* \"#utility.yul\":2966:3188   */\n    tag_21:\n        /* \"#utility.yul\":3059:3063   */\n      0x00\n        /* \"#utility.yul\":3097:3099   */\n      0x20\n        /* \"#utility.yul\":3086:3095   */\n      dup3\n        /* \"#utility.yul\":3082:3100   */\n      add\n        /* \"#utility.yul\":3074:3100   */\n      swap1\n      pop\n        /* \"#utility.yul\":3110:3181   */\n      tag_92\n        /* \"#utility.yul\":3178:3179   */\n      0x00\n        /* \"#utility.yul\":3167:3176   */\n      dup4\n        /* \"#utility.yul\":3163:3180   */\n      add\n        /* \"#utility.yul\":3154:3160   */\n      dup5\n        /* \"#utility.yul\":3110:3181   */\n      tag_46\n      jump\t// in\n    tag_92:\n        /* \"#utility.yul\":2966:3188   */\n      swap3\n      swap2\n      pop\n      pop\n      jump\t// out\n        /* \"#utility.yul\":3194:3316   */\n    tag_47:\n        /* \"#utility.yul\":3267:3291   */\n      tag_94\n        /* \"#utility.yul\":3285:3290   */\n      dup2\n        /* \"#utility.yul\":3267:3291   */\n      tag_37\n      jump\t// in\n    tag_94:\n        /* \"#utility.yul\":3260:3265   */\n      dup2\n        /* \"#utility.yul\":3257:3292   */\n      eq\n        /* \"#utility.yul\":3247:3310   */\n      tag_95\n      jumpi\n        /* \"#utility.yul\":3306:3307   */\n      0x00\n        /* \"#utility.yul\":3303:3304   */\n      dup1\n        /* \"#utility.yul\":3296:3308   */\n      revert\n        /* \"#utility.yul\":3247:3310   */\n    tag_95:\n        /* \"#utility.yul\":3194:3316   */\n      pop\n      jump\t// out\n        /* \"#utility.yul\":3322:3461   */\n    tag_48:\n        /* \"#utility.yul\":3368:3373   */\n      0x00\n        /* \"#utility.yul\":3406:3412   */\n      dup2\n        /* \"#utility.yul\":3393:3413   */\n      calldataload\n        /* \"#utility.yul\":3384:3413   */\n      swap1\n      pop\n        /* \"#utility.yul\":3422:3455   */\n      tag_97\n        /* \"#utility.yul\":3449:3454   */\n      dup2\n        /* \"#utility.yul\":3422:3455   */\n      tag_47\n      jump\t// in\n    tag_97:\n        /* \"#utility.yul\":3322:3461   */\n      swap3\n      swap2\n      pop\n      pop\n      jump\t// out\n        /* \"#utility.yul\":3467:3796   */\n    tag_24:\n        /* \"#utility.yul\":3526:3532   */\n      0x00\n        /* \"#utility.yul\":3575:3577   */\n      0x20\n        /* \"#utility.yul\":3563:3572   */\n      dup3\n        /* \"#utility.yul\":3554:3561   */\n      dup5\n        /* \"#utility.yul\":3550:3573   */\n      sub\n        /* \"#utility.yul\":3546:3578   */\n      slt\n        /* \"#utility.yul\":3543:3662   */\n      iszero\n      tag_99\n      jumpi\n        /* \"#utility.yul\":3581:3660   */\n      tag_100\n      tag_40\n      jump\t// in\n    tag_100:\n        /* \"#utility.yul\":3543:3662   */\n    tag_99:\n        /* \"#utility.yul\":3701:3702   */\n      0x00\n        /* \"#utility.yul\":3726:3779   */\n      tag_101\n        /* \"#utility.yul\":3771:3778   */\n      dup5\n        /* \"#utility.yul\":3762:3768   */\n      dup3\n        /* \"#utility.yul\":3751:3760   */\n      dup6\n        /* \"#utility.yul\":3747:3769   */\n      add\n        /* \"#utility.yul\":3726:3779   */\n      tag_48\n      jump\t// in\n    tag_101:\n        /* \"#utility.yul\":3716:3779   */\n      swap2\n      pop\n        /* \"#utility.yul\":3672:3789   */\n      pop\n        /* \"#utility.yul\":3467:3796   */\n      swap3\n      swap2\n      pop\n      pop\n      jump\t// out\n        /* \"#utility.yul\":3802:3919   */\n    tag_49:\n        /* \"#utility.yul\":3911:3912   */\n      0x00\n        /* \"#utility.yul\":3908:3909   */\n      dup1\n        /* \"#utility.yul\":3901:3913   */\n      revert\n        /* \"#utility.yul\":3925:4042   */\n    tag_50:\n        /* \"#utility.yul\":4034:4035   */\n      0x00\n        /* \"#utility.yul\":4031:4032   */\n      dup1\n        /* \"#utility.yul\":4024:4036   */\n      revert\n        /* \"#utility.yul\":4048:4150   */\n    tag_51:\n        /* \"#utility.yul\":4089:4095   */\n      0x00\n        /* \"#utility.yul\":4140:4142   */\n      0x1f\n        /* \"#utility.yul\":4136:4143   */\n      not\n        /* \"#utility.yul\":4131:4133   */\n      0x1f\n        /* \"#utility.yul\":4124:4129   */\n      dup4\n        /* \"#utility.yul\":4120:4134   */\n      add\n        /* \"#utility.yul\":4116:4144   */\n      and\n        /* \"#utility.yul\":4106:4144   */\n      swap1\n      pop\n        /* \"#utility.yul\":4048:4150   */\n      swap2\n      swap1\n      pop\n      jump\t// out\n        /* \"#utility.yul\":4156:4336   */\n    tag_52:\n        /* \"#utility.yul\":4204:4281   */\n      0x4e487b7100000000000000000000000000000000000000000000000000000000\n        /* \"#utility.yul\":4201:4202   */\n      0x00\n        /* \"#utility.yul\":4194:4282   */\n      mstore\n        /* \"#utility.yul\":4301:4305   */\n      0x41\n        /* \"#utility.yul\":4298:4299   */\n      0x04\n        /* \"#utility.yul\":4291:4306   */\n      mstore\n        /* \"#utility.yul\":4325:4329   */\n      0x24\n        /* \"#utility.yul\":4322:4323   */\n      0x00\n        /* \"#utility.yul\":4315:4330   */\n      revert\n        /* \"#utility.yul\":4342:4623   */\n    tag_53:\n        /* \"#utility.yul\":4425:4452   */\n      tag_107\n        /* \"#utility.yul\":4447:4451   */\n      dup3\n        /* \"#utility.yul\":4425:4452   */\n      tag_51\n      jump\t// in\n    tag_107:\n        /* \"#utility.yul\":4417:4423   */\n      dup2\n        /* \"#utility.yul\":4413:4453   */\n      add\n        /* \"#utility.yul\":4555:4561   */\n      dup2\n        /* \"#utility.yul\":4543:4553   */\n      dup2\n        /* \"#utility.yul\":4540:4562   */\n      lt\n        /* \"#utility.yul\":4519:4537   */\n      0xffffffffffffffff\n        /* \"#utility.yul\":4507:4517   */\n      dup3\n        /* \"#utility.yul\":4504:4538   */\n      gt\n        /* \"#utility.yul\":4501:4563   */\n      or\n        /* \"#utility.yul\":4498:4586   */\n      iszero\n      tag_108\n      jumpi\n        /* \"#utility.yul\":4566:4584   */\n      tag_109\n      tag_52\n      jump\t// in\n    tag_109:\n        /* \"#utility.yul\":4498:4586   */\n    tag_108:\n        /* \"#utility.yul\":4606:4616   */\n      dup1\n        /* \"#utility.yul\":4602:4604   */\n      0x40\n        /* \"#utility.yul\":4595:4617   */\n      mstore\n        /* \"#utility.yul\":4385:4623   */\n      pop\n        /* \"#utility.yul\":4342:4623   */\n      pop\n      pop\n      jump\t// out\n        /* \"#utility.yul\":4629:4758   */\n    tag_54:\n        /* \"#utility.yul\":4663:4669   */\n      0x00\n        /* \"#utility.yul\":4690:4710   */\n      tag_111\n      tag_39\n      jump\t// in\n    tag_111:\n        /* \"#utility.yul\":4680:4710   */\n      swap1\n      pop\n        /* \"#utility.yul\":4719:4752   */\n      tag_112\n        /* \"#utility.yul\":4747:4751   */\n      dup3\n        /* \"#utility.yul\":4739:4745   */\n      dup3\n        /* \"#utility.yul\":4719:4752   */\n      tag_53\n      jump\t// in\n    tag_112:\n        /* \"#utility.yul\":4629:4758   */\n      swap2\n      swap1\n      pop\n      jump\t// out\n        /* \"#utility.yul\":4764:5072   */\n    tag_55:\n        /* \"#utility.yul\":4826:4830   */\n      0x00\n        /* \"#utility.yul\":4916:4934   */\n      0xffffffffffffffff\n        /* \"#utility.yul\":4908:4914   */\n      dup3\n        /* \"#utility.yul\":4905:4935   */\n      gt\n        /* \"#utility.yul\":4902:4958   */\n      iszero\n      tag_114\n      jumpi\n        /* \"#utility.yul\":4938:4956   */\n      tag_115\n      tag_52\n      jump\t// in\n    tag_115:\n        /* \"#utility.yul\":4902:4958   */\n    tag_114:\n        /* \"#utility.yul\":4976:5005   */\n      tag_116\n        /* \"#utility.yul\":4998:5004   */\n      dup3\n        /* \"#utility.yul\":4976:5005   */\n      tag_51\n      jump\t// in\n    tag_116:\n        /* \"#utility.yul\":4968:5005   */\n      swap1\n      pop\n        /* \"#utility.yul\":5060:5064   */\n      0x20\n        /* \"#utility.yul\":5054:5058   */\n      dup2\n        /* \"#utility.yul\":5050:5065   */\n      add\n        /* \"#utility.yul\":5042:5065   */\n      swap1\n      pop\n        /* \"#utility.yul\":4764:5072   */\n      swap2\n      swap1\n      pop\n      jump\t// out\n        /* \"#utility.yul\":5078:5224   */\n    tag_56:\n        /* \"#utility.yul\":5175:5181   */\n      dup3\n        /* \"#utility.yul\":5170:5173   */\n      dup2\n        /* \"#utility.yul\":5165:5168   */\n      dup4\n        /* \"#utility.yul\":5152:5182   */\n      calldatacopy\n        /* \"#utility.yul\":5216:5217   */\n      0x00\n        /* \"#utility.yul\":5207:5213   */\n      dup4\n        /* \"#utility.yul\":5202:5205   */\n      dup4\n        /* \"#utility.yul\":5198:5214   */\n      add\n        /* \"#utility.yul\":5191:5218   */\n      mstore\n        /* \"#utility.yul\":5078:5224   */\n      pop\n      pop\n      pop\n      jump\t// out\n        /* \"#utility.yul\":5230:5655   */\n    tag_57:\n        /* \"#utility.yul\":5308:5313   */\n      0x00\n        /* \"#utility.yul\":5333:5399   */\n      tag_119\n        /* \"#utility.yul\":5349:5398   */\n      tag_120\n        /* \"#utility.yul\":5391:5397   */\n      dup5\n        /* \"#utility.yul\":5349:5398   */\n      tag_55\n      jump\t// in\n    tag_120:\n        /* \"#utility.yul\":5333:5399   */\n      tag_54\n      jump\t// in\n    tag_119:\n        /* \"#utility.yul\":5324:5399   */\n      swap1\n      pop\n        /* \"#utility.yul\":5422:5428   */\n      dup3\n        /* \"#utility.yul\":5415:5420   */\n      dup2\n        /* \"#utility.yul\":5408:5429   */\n      mstore\n        /* \"#utility.yul\":5460:5464   */\n      0x20\n        /* \"#utility.yul\":5453:5458   */\n      dup2\n        /* \"#utility.yul\":5449:5465   */\n      add\n        /* \"#utility.yul\":5498:5501   */\n      dup5\n        /* \"#utility.yul\":5489:5495   */\n      dup5\n        /* \"#utility.yul\":5484:5487   */\n      dup5\n        /* \"#utility.yul\":5480:5496   */\n      add\n        /* \"#utility.yul\":5477:5502   */\n      gt\n        /* \"#utility.yul\":5474:5586   */\n      iszero\n      tag_121\n      jumpi\n        /* \"#utility.yul\":5505:5584   */\n      tag_122\n      tag_50\n      jump\t// in\n    tag_122:\n        /* \"#utility.yul\":5474:5586   */\n    tag_121:\n        /* \"#utility.yul\":5595:5649   */\n      tag_123\n        /* \"#utility.yul\":5642:5648   */\n      dup5\n        /* \"#utility.yul\":5637:5640   */\n      dup3\n        /* \"#utility.yul\":5632:5635   */\n      dup6\n        /* \"#utility.yul\":5595:5649   */\n      tag_56\n      jump\t// in\n    tag_123:\n        /* \"#utility.yul\":5314:5655   */\n      pop\n        /* \"#utility.yul\":5230:5655   */\n      swap4\n      swap3\n      pop\n      pop\n      pop\n      jump\t// out\n        /* \"#utility.yul\":5675:6015   */\n    tag_58:\n        /* \"#utility.yul\":5731:5736   */\n      0x00\n        /* \"#utility.yul\":5780:5783   */\n      dup3\n        /* \"#utility.yul\":5773:5777   */\n      0x1f\n        /* \"#utility.yul\":5765:5771   */\n      dup4\n        /* \"#utility.yul\":5761:5778   */\n      add\n        /* \"#utility.yul\":5757:5784   */\n      slt\n        /* \"#utility.yul\":5747:5869   */\n      tag_125\n      jumpi\n        /* \"#utility.yul\":5788:5867   */\n      tag_126\n      tag_49\n      jump\t// in\n    tag_126:\n        /* \"#utility.yul\":5747:5869   */\n    tag_125:\n        /* \"#utility.yul\":5905:5911   */\n      dup2\n        /* \"#utility.yul\":5892:5912   */\n      calldataload\n        /* \"#utility.yul\":5930:6009   */\n      tag_127\n        /* \"#utility.yul\":6005:6008   */\n      dup5\n        /* \"#utility.yul\":5997:6003   */\n      dup3\n        /* \"#utility.yul\":5990:5994   */\n      0x20\n        /* \"#utility.yul\":5982:5988   */\n      dup7\n        /* \"#utility.yul\":5978:5995   */\n      add\n        /* \"#utility.yul\":5930:6009   */\n      tag_57\n      jump\t// in\n    tag_127:\n        /* \"#utility.yul\":5921:6009   */\n      swap2\n      pop\n        /* \"#utility.yul\":5737:6015   */\n      pop\n        /* \"#utility.yul\":5675:6015   */\n      swap3\n      swap2\n      pop\n      pop\n      jump\t// out\n        /* \"#utility.yul\":6021:6820   */\n    tag_28:\n        /* \"#utility.yul\":6108:6114   */\n      0x00\n        /* \"#utility.yul\":6116:6122   */\n      dup1\n        /* \"#utility.yul\":6124:6130   */\n      0x00\n        /* \"#utility.yul\":6173:6175   */\n      0x60\n        /* \"#utility.yul\":6161:6170   */\n      dup5\n        /* \"#utility.yul\":6152:6159   */\n      dup7\n        /* \"#utility.yul\":6148:6171   */\n      sub\n        /* \"#utility.yul\":6144:6176   */\n      slt\n        /* \"#utility.yul\":6141:6260   */\n      iszero\n      tag_129\n      jumpi\n        /* \"#utility.yul\":6179:6258   */\n      tag_130\n      tag_40\n      jump\t// in\n    tag_130:\n        /* \"#utility.yul\":6141:6260   */\n    tag_129:\n        /* \"#utility.yul\":6327:6328   */\n      0x00\n        /* \"#utility.yul\":6316:6325   */\n      dup5\n        /* \"#utility.yul\":6312:6329   */\n      add\n        /* \"#utility.yul\":6299:6330   */\n      calldataload\n        /* \"#utility.yul\":6357:6375   */\n      0xffffffffffffffff\n        /* \"#utility.yul\":6349:6355   */\n      dup2\n        /* \"#utility.yul\":6346:6376   */\n      gt\n        /* \"#utility.yul\":6343:6460   */\n      iszero\n      tag_131\n      jumpi\n        /* \"#utility.yul\":6379:6458   */\n      tag_132\n      tag_41\n      jump\t// in\n    tag_132:\n        /* \"#utility.yul\":6343:6460   */\n    tag_131:\n        /* \"#utility.yul\":6484:6547   */\n      tag_133\n        /* \"#utility.yul\":6539:6546   */\n      dup7\n        /* \"#utility.yul\":6530:6536   */\n      dup3\n        /* \"#utility.yul\":6519:6528   */\n      dup8\n        /* \"#utility.yul\":6515:6537   */\n      add\n        /* \"#utility.yul\":6484:6547   */\n      tag_58\n      jump\t// in\n    tag_133:\n        /* \"#utility.yul\":6474:6547   */\n      swap4\n      pop\n        /* \"#utility.yul\":6270:6557   */\n      pop\n        /* \"#utility.yul\":6596:6598   */\n      0x20\n        /* \"#utility.yul\":6622:6675   */\n      tag_134\n        /* \"#utility.yul\":6667:6674   */\n      dup7\n        /* \"#utility.yul\":6658:6664   */\n      dup3\n        /* \"#utility.yul\":6647:6656   */\n      dup8\n        /* \"#utility.yul\":6643:6665   */\n      add\n        /* \"#utility.yul\":6622:6675   */\n      tag_48\n      jump\t// in\n    tag_134:\n        /* \"#utility.yul\":6612:6675   */\n      swap3\n      pop\n        /* \"#utility.yul\":6567:6685   */\n      pop\n        /* \"#utility.yul\":6724:6726   */\n      0x40\n        /* \"#utility.yul\":6750:6803   */\n      tag_135\n        /* \"#utility.yul\":6795:6802   */\n      dup7\n        /* \"#utility.yul\":6786:6792   */\n      dup3\n        /* \"#utility.yul\":6775:6784   */\n      dup8\n        /* \"#utility.yul\":6771:6793   */\n      add\n        /* \"#utility.yul\":6750:6803   */\n      tag_45\n      jump\t// in\n    tag_135:\n        /* \"#utility.yul\":6740:6803   */\n      swap2\n      pop\n        /* \"#utility.yul\":6695:6813   */\n      pop\n        /* \"#utility.yul\":6021:6820   */\n      swap3\n      pop\n      swap3\n      pop\n      swap3\n      jump\t// out\n\n    auxdata: 0xa264697066735822122005f76ba31f6c0b2af98f78fa241a8b146eb725affd3e64cddf7998d141f5559e64736f6c63430008160033\n}\n",
				"bytecode": {
					"linkReferences": {},
					"object": "608060405234801561000f575f80fd5b506105c68061001d5f395ff3fe608060405260043610610037575f3560e01c80630b7d5609146100e75780633dca1e7614610123578063ffa64cc61461013f576100e3565b366100e357670de0b6b3a7640000341015610087576040517f08c379a000000000000000000000000000000000000000000000000000000000815260040161007e9061024e565b60405180910390fd5b61009034610167565b345f803373ffffffffffffffffffffffffffffffffffffffff1673ffffffffffffffffffffffffffffffffffffffff1681526020019081526020015f205f8282546100db91906102a2565b925050819055005b5f80fd5b3480156100f2575f80fd5b5061010d60048036038101906101089190610340565b6101b5565b60405161011a919061037a565b60405180910390f35b61013d600480360381019061013891906103bd565b610167565b005b34801561014a575f80fd5b5061016560048036038101906101609190610524565b6101c9565b005b670de0b6b3a76400003410156101b2576040517f08c379a00000000000000000000000000000000000000000000000000000000081526004016101a99061024e565b60405180910390fd5b50565b5f602052805f5260405f205f915090505481565b505050565b5f82825260208201905092915050565b7f54686520616d6f756e742073686f756c64206265206c6172676572207468616e5f8201527f2031200000000000000000000000000000000000000000000000000000000000602082015250565b5f6102386023836101ce565b9150610243826101de565b604082019050919050565b5f6020820190508181035f8301526102658161022c565b9050919050565b5f819050919050565b7f4e487b71000000000000000000000000000000000000000000000000000000005f52601160045260245ffd5b5f6102ac8261026c565b91506102b78361026c565b92508282019050808211156102cf576102ce610275565b5b92915050565b5f604051905090565b5f80fd5b5f80fd5b5f73ffffffffffffffffffffffffffffffffffffffff82169050919050565b5f61030f826102e6565b9050919050565b61031f81610305565b8114610329575f80fd5b50565b5f8135905061033a81610316565b92915050565b5f60208284031215610355576103546102de565b5b5f6103628482850161032c565b91505092915050565b6103748161026c565b82525050565b5f60208201905061038d5f83018461036b565b92915050565b61039c8161026c565b81146103a6575f80fd5b50565b5f813590506103b781610393565b92915050565b5f602082840312156103d2576103d16102de565b5b5f6103df848285016103a9565b91505092915050565b5f80fd5b5f80fd5b5f601f19601f8301169050919050565b7f4e487b71000000000000000000000000000000000000000000000000000000005f52604160045260245ffd5b610436826103f0565b810181811067ffffffffffffffff8211171561045557610454610400565b5b80604052505050565b5f6104676102d5565b9050610473828261042d565b919050565b5f67ffffffffffffffff82111561049257610491610400565b5b61049b826103f0565b9050602081019050919050565b828183375f83830152505050565b5f6104c86104c384610478565b61045e565b9050828152602081018484840111156104e4576104e36103ec565b5b6104ef8482856104a8565b509392505050565b5f82601f83011261050b5761050a6103e8565b5b813561051b8482602086016104b6565b91505092915050565b5f805f6060848603121561053b5761053a6102de565b5b5f84013567ffffffffffffffff811115610558576105576102e2565b5b610564868287016104f7565b9350506020610575868287016103a9565b92505060406105868682870161032c565b915050925092509256fea264697066735822122005f76ba31f6c0b2af98f78fa241a8b146eb725affd3e64cddf7998d141f5559e64736f6c63430008160033",
					"opcodes": "PUSH1 0x80 PUSH1 0x40 MSTORE CALLVALUE DUP1 ISZERO PUSH2 0xF JUMPI PUSH0 DUP1 REVERT JUMPDEST POP PUSH2 0x5C6 DUP1 PUSH2 0x1D PUSH0 CODECOPY PUSH0 RETURN INVALID PUSH1 0x80 PUSH1 0x40 MSTORE PUSH1 0x4 CALLDATASIZE LT PUSH2 0x37 JUMPI PUSH0 CALLDATALOAD PUSH1 0xE0 SHR DUP1 PUSH4 0xB7D5609 EQ PUSH2 0xE7 JUMPI DUP1 PUSH4 0x3DCA1E76 EQ PUSH2 0x123 JUMPI DUP1 PUSH4 0xFFA64CC6 EQ PUSH2 0x13F JUMPI PUSH2 0xE3 JUMP JUMPDEST CALLDATASIZE PUSH2 0xE3 JUMPI PUSH8 0xDE0B6B3A7640000 CALLVALUE LT ISZERO PUSH2 0x87 JUMPI PUSH1 0x40 MLOAD PUSH32 0x8C379A000000000000000000000000000000000000000000000000000000000 DUP2 MSTORE PUSH1 0x4 ADD PUSH2 0x7E SWAP1 PUSH2 0x24E JUMP JUMPDEST PUSH1 0x40 MLOAD DUP1 SWAP2 SUB SWAP1 REVERT JUMPDEST PUSH2 0x90 CALLVALUE PUSH2 0x167 JUMP JUMPDEST CALLVALUE PUSH0 DUP1 CALLER PUSH20 0xFFFFFFFFFFFFFFFFFFFFFFFFFFFFFFFFFFFFFFFF AND PUSH20 0xFFFFFFFFFFFFFFFFFFFFFFFFFFFFFFFFFFFFFFFF AND DUP2 MSTORE PUSH1 0x20 ADD SWAP1 DUP2 MSTORE PUSH1 0x20 ADD PUSH0 KECCAK256 PUSH0 DUP3 DUP3 SLOAD PUSH2 0xDB SWAP2 SWAP1 PUSH2 0x2A2 JUMP JUMPDEST SWAP3 POP POP DUP2 SWAP1 SSTORE STOP JUMPDEST PUSH0 DUP1 REVERT JUMPDEST CALLVALUE DUP1 ISZERO PUSH2 0xF2 JUMPI PUSH0 DUP1 REVERT JUMPDEST POP PUSH2 0x10D PUSH1 0x4 DUP1 CALLDATASIZE SUB DUP2 ADD SWAP1 PUSH2 0x108 SWAP2 SWAP1 PUSH2 0x340 JUMP JUMPDEST PUSH2 0x1B5 JUMP JUMPDEST PUSH1 0x40 MLOAD PUSH2 0x11A SWAP2 SWAP1 PUSH2 0x37A JUMP JUMPDEST PUSH1 0x40 MLOAD DUP1 SWAP2 SUB SWAP1 RETURN JUMPDEST PUSH2 0x13D PUSH1 0x4 DUP1 CALLDATASIZE SUB DUP2 ADD SWAP1 PUSH2 0x138 SWAP2 SWAP1 PUSH2 0x3BD JUMP JUMPDEST PUSH2 0x167 JUMP JUMPDEST STOP JUMPDEST CALLVALUE DUP1 ISZERO PUSH2 0x14A JUMPI PUSH0 DUP1 REVERT JUMPDEST POP PUSH2 0x165 PUSH1 0x4 DUP1 CALLDATASIZE SUB DUP2 ADD SWAP1 PUSH2 0x160 SWAP2 SWAP1 PUSH2 0x524 JUMP JUMPDEST PUSH2 0x1C9 JUMP JUMPDEST STOP JUMPDEST PUSH8 0xDE0B6B3A7640000 CALLVALUE LT ISZERO PUSH2 0x1B2 JUMPI PUSH1 0x40 MLOAD PUSH32 0x8C379A000000000000000000000000000000000000000000000000000000000 DUP2 MSTORE PUSH1 0x4 ADD PUSH2 0x1A9 SWAP1 PUSH2 0x24E JUMP JUMPDEST PUSH1 0x40 MLOAD DUP1 SWAP2 SUB SWAP1 REVERT JUMPDEST POP JUMP JUMPDEST PUSH0 PUSH1 0x20 MSTORE DUP1 PUSH0 MSTORE PUSH1 0x40 PUSH0 KECCAK256 PUSH0 SWAP2 POP SWAP1 POP SLOAD DUP2 JUMP JUMPDEST POP POP POP JUMP JUMPDEST PUSH0 DUP3 DUP3 MSTORE PUSH1 0x20 DUP3 ADD SWAP1 POP SWAP3 SWAP2 POP POP JUMP JUMPDEST PUSH32 0x54686520616D6F756E742073686F756C64206265206C6172676572207468616E PUSH0 DUP3 ADD MSTORE PUSH32 0x2031200000000000000000000000000000000000000000000000000000000000 PUSH1 0x20 DUP3 ADD MSTORE POP JUMP JUMPDEST PUSH0 PUSH2 0x238 PUSH1 0x23 DUP4 PUSH2 0x1CE JUMP JUMPDEST SWAP2 POP PUSH2 0x243 DUP3 PUSH2 0x1DE JUMP JUMPDEST PUSH1 0x40 DUP3 ADD SWAP1 POP SWAP2 SWAP1 POP JUMP JUMPDEST PUSH0 PUSH1 0x20 DUP3 ADD SWAP1 POP DUP2 DUP2 SUB PUSH0 DUP4 ADD MSTORE PUSH2 0x265 DUP2 PUSH2 0x22C JUMP JUMPDEST SWAP1 POP SWAP2 SWAP1 POP JUMP JUMPDEST PUSH0 DUP2 SWAP1 POP SWAP2 SWAP1 POP JUMP JUMPDEST PUSH32 0x4E487B7100000000000000000000000000000000000000000000000000000000 PUSH0 MSTORE PUSH1 0x11 PUSH1 0x4 MSTORE PUSH1 0x24 PUSH0 REVERT JUMPDEST PUSH0 PUSH2 0x2AC DUP3 PUSH2 0x26C JUMP JUMPDEST SWAP2 POP PUSH2 0x2B7 DUP4 PUSH2 0x26C JUMP JUMPDEST SWAP3 POP DUP3 DUP3 ADD SWAP1 POP DUP1 DUP3 GT ISZERO PUSH2 0x2CF JUMPI PUSH2 0x2CE PUSH2 0x275 JUMP JUMPDEST JUMPDEST SWAP3 SWAP2 POP POP JUMP JUMPDEST PUSH0 PUSH1 0x40 MLOAD SWAP1 POP SWAP1 JUMP JUMPDEST PUSH0 DUP1 REVERT JUMPDEST PUSH0 DUP1 REVERT JUMPDEST PUSH0 PUSH20 0xFFFFFFFFFFFFFFFFFFFFFFFFFFFFFFFFFFFFFFFF DUP3 AND SWAP1 POP SWAP2 SWAP1 POP JUMP JUMPDEST PUSH0 PUSH2 0x30F DUP3 PUSH2 0x2E6 JUMP JUMPDEST SWAP1 POP SWAP2 SWAP1 POP JUMP JUMPDEST PUSH2 0x31F DUP2 PUSH2 0x305 JUMP JUMPDEST DUP2 EQ PUSH2 0x329 JUMPI PUSH0 DUP1 REVERT JUMPDEST POP JUMP JUMPDEST PUSH0 DUP2 CALLDATALOAD SWAP1 POP PUSH2 0x33A DUP2 PUSH2 0x316 JUMP JUMPDEST SWAP3 SWAP2 POP POP JUMP JUMPDEST PUSH0 PUSH1 0x20 DUP3 DUP5 SUB SLT ISZERO PUSH2 0x355 JUMPI PUSH2 0x354 PUSH2 0x2DE JUMP JUMPDEST JUMPDEST PUSH0 PUSH2 0x362 DUP5 DUP3 DUP6 ADD PUSH2 0x32C JUMP JUMPDEST SWAP2 POP POP SWAP3 SWAP2 POP POP JUMP JUMPDEST PUSH2 0x374 DUP2 PUSH2 0x26C JUMP JUMPDEST DUP3 MSTORE POP POP JUMP JUMPDEST PUSH0 PUSH1 0x20 DUP3 ADD SWAP1 POP PUSH2 0x38D PUSH0 DUP4 ADD DUP5 PUSH2 0x36B JUMP JUMPDEST SWAP3 SWAP2 POP POP JUMP JUMPDEST PUSH2 0x39C DUP2 PUSH2 0x26C JUMP JUMPDEST DUP2 EQ PUSH2 0x3A6 JUMPI PUSH0 DUP1 REVERT JUMPDEST POP JUMP JUMPDEST PUSH0 DUP2 CALLDATALOAD SWAP1 POP PUSH2 0x3B7 DUP2 PUSH2 0x393 JUMP JUMPDEST SWAP3 SWAP2 POP POP JUMP JUMPDEST PUSH0 PUSH1 0x20 DUP3 DUP5 SUB SLT ISZERO PUSH2 0x3D2 JUMPI PUSH2 0x3D1 PUSH2 0x2DE JUMP JUMPDEST JUMPDEST PUSH0 PUSH2 0x3DF DUP5 DUP3 DUP6 ADD PUSH2 0x3A9 JUMP JUMPDEST SWAP2 POP POP SWAP3 SWAP2 POP POP JUMP JUMPDEST PUSH0 DUP1 REVERT JUMPDEST PUSH0 DUP1 REVERT JUMPDEST PUSH0 PUSH1 0x1F NOT PUSH1 0x1F DUP4 ADD AND SWAP1 POP SWAP2 SWAP1 POP JUMP JUMPDEST PUSH32 0x4E487B7100000000000000000000000000000000000000000000000000000000 PUSH0 MSTORE PUSH1 0x41 PUSH1 0x4 MSTORE PUSH1 0x24 PUSH0 REVERT JUMPDEST PUSH2 0x436 DUP3 PUSH2 0x3F0 JUMP JUMPDEST DUP2 ADD DUP2 DUP2 LT PUSH8 0xFFFFFFFFFFFFFFFF DUP3 GT OR ISZERO PUSH2 0x455 JUMPI PUSH2 0x454 PUSH2 0x400 JUMP JUMPDEST JUMPDEST DUP1 PUSH1 0x40 MSTORE POP POP POP JUMP JUMPDEST PUSH0 PUSH2 0x467 PUSH2 0x2D5 JUMP JUMPDEST SWAP1 POP PUSH2 0x473 DUP3 DUP3 PUSH2 0x42D JUMP JUMPDEST SWAP2 SWAP1 POP JUMP JUMPDEST PUSH0 PUSH8 0xFFFFFFFFFFFFFFFF DUP3 GT ISZERO PUSH2 0x492 JUMPI PUSH2 0x491 PUSH2 0x400 JUMP JUMPDEST JUMPDEST PUSH2 0x49B DUP3 PUSH2 0x3F0 JUMP JUMPDEST SWAP1 POP PUSH1 0x20 DUP2 ADD SWAP1 POP SWAP2 SWAP1 POP JUMP JUMPDEST DUP3 DUP2 DUP4 CALLDATACOPY PUSH0 DUP4 DUP4 ADD MSTORE POP POP POP JUMP JUMPDEST PUSH0 PUSH2 0x4C8 PUSH2 0x4C3 DUP5 PUSH2 0x478 JUMP JUMPDEST PUSH2 0x45E JUMP JUMPDEST SWAP1 POP DUP3 DUP2 MSTORE PUSH1 0x20 DUP2 ADD DUP5 DUP5 DUP5 ADD GT ISZERO PUSH2 0x4E4 JUMPI PUSH2 0x4E3 PUSH2 0x3EC JUMP JUMPDEST JUMPDEST PUSH2 0x4EF DUP5 DUP3 DUP6 PUSH2 0x4A8 JUMP JUMPDEST POP SWAP4 SWAP3 POP POP POP JUMP JUMPDEST PUSH0 DUP3 PUSH1 0x1F DUP4 ADD SLT PUSH2 0x50B JUMPI PUSH2 0x50A PUSH2 0x3E8 JUMP JUMPDEST JUMPDEST DUP2 CALLDATALOAD PUSH2 0x51B DUP5 DUP3 PUSH1 0x20 DUP7 ADD PUSH2 0x4B6 JUMP JUMPDEST SWAP2 POP POP SWAP3 SWAP2 POP POP JUMP JUMPDEST PUSH0 DUP1 PUSH0 PUSH1 0x60 DUP5 DUP7 SUB SLT ISZERO PUSH2 0x53B JUMPI PUSH2 0x53A PUSH2 0x2DE JUMP JUMPDEST JUMPDEST PUSH0 DUP5 ADD CALLDATALOAD PUSH8 0xFFFFFFFFFFFFFFFF DUP2 GT ISZERO PUSH2 0x558 JUMPI PUSH2 0x557 PUSH2 0x2E2 JUMP JUMPDEST JUMPDEST PUSH2 0x564 DUP7 DUP3 DUP8 ADD PUSH2 0x4F7 JUMP JUMPDEST SWAP4 POP POP PUSH1 0x20 PUSH2 0x575 DUP7 DUP3 DUP8 ADD PUSH2 0x3A9 JUMP JUMPDEST SWAP3 POP POP PUSH1 0x40 PUSH2 0x586 DUP7 DUP3 DUP8 ADD PUSH2 0x32C JUMP JUMPDEST SWAP2 POP POP SWAP3 POP SWAP3 POP SWAP3 JUMP INVALID LOG2 PUSH5 0x6970667358 0x22 SLT KECCAK256 SDIV 0xF7 PUSH12 0xA31F6C0B2AF98F78FA241A8B EQ PUSH15 0xB725AFFD3E64CDDF7998D141F5559E PUSH5 0x736F6C6343 STOP ADDMOD AND STOP CALLER "
				},
				"gasEstimates": {
					"creation": {
						"codeDepositCost": "295600",
						"executionCost": "335",
						"totalCost": "295935"
					},
					"external": {
						"AddCustomer(string,uint256,address)": "infinite",
						"Map_cust(address)": "2779",
						"deposit_Money(uint256)": "702"
					}
				},
				"methodIdentifiers": {
					"AddCustomer(string,uint256,address)": "ffa64cc6",
					"Map_cust(address)": "0b7d5609",
					"deposit_Money(uint256)": "3dca1e76"
				}
			},
			"storageLayout": {
				"storage": [
					{
						"astId": 91,
						"contract": "contracts/Bank_System.sol:Bank_System",
						"label": "Map_cust",
						"offset": 0,
						"slot": "0",
						"type": "t_mapping(t_address,t_uint256)"
					},
					{
						"astId": 94,
						"contract": "contracts/Bank_System.sol:Bank_System",
						"label": "_CurrentCarID",
						"offset": 0,
						"slot": "1",
						"type": "t_struct(Counter)5_storage"
					}
				],
				"types": {
					"t_address": {
						"encoding": "inplace",
						"label": "address",
						"numberOfBytes": "20"
					},
					"t_mapping(t_address,t_uint256)": {
						"encoding": "mapping",
						"key": "t_address",
						"label": "mapping(address => uint256)",
						"numberOfBytes": "32",
						"value": "t_uint256"
					},
					"t_struct(Counter)5_storage": {
						"encoding": "inplace",
						"label": "struct Counters.Counter",
						"members": [
							{
								"astId": 4,
								"contract": "contracts/Bank_System.sol:Bank_System",
								"label": "_value",
								"offset": 0,
								"slot": "0",
								"type": "t_uint256"
							}
						],
						"numberOfBytes": "32"
					},
					"t_uint256": {
						"encoding": "inplace",
						"label": "uint256",
						"numberOfBytes": "32"
					}
				}
			},
			"userdoc": {
				"kind": "user",
				"methods": {},
				"version": 1
			}
		}
	}
}