{
	"contracts/Cars.sol": {
		"CarAgency": {
			"abi": [
				{
					"inputs": [],
					"stateMutability": "nonpayable",
					"type": "constructor"
				},
				{
					"anonymous": false,
					"inputs": [
						{
							"indexed": false,
							"internalType": "uint256",
							"name": "Car_id",
							"type": "uint256"
						},
						{
							"indexed": false,
							"internalType": "uint256",
							"name": "Car_model",
							"type": "uint256"
						},
						{
							"indexed": false,
							"internalType": "string",
							"name": "Car_color",
							"type": "string"
						},
						{
							"indexed": false,
							"internalType": "uint256",
							"name": "Car_Price",
							"type": "uint256"
						},
						{
							"indexed": false,
							"internalType": "string",
							"name": "Car_Name",
							"type": "string"
						},
						{
							"indexed": false,
							"internalType": "address payable",
							"name": "OwnedBy",
							"type": "address"
						},
						{
							"indexed": false,
							"internalType": "bool",
							"name": "Car_State",
							"type": "bool"
						}
					],
					"name": "EvntNewCarAdd",
					"type": "event"
				},
				{
					"anonymous": false,
					"inputs": [
						{
							"indexed": false,
							"internalType": "uint256",
							"name": "CarID",
							"type": "uint256"
						},
						{
							"indexed": false,
							"internalType": "address",
							"name": "Newowner",
							"type": "address"
						},
						{
							"indexed": false,
							"internalType": "uint256",
							"name": "CarPrice",
							"type": "uint256"
						}
					],
					"name": "EvntSellingCar",
					"type": "event"
				},
				{
					"inputs": [
						{
							"internalType": "uint256",
							"name": "_Car_model",
							"type": "uint256"
						},
						{
							"internalType": "string",
							"name": "_Car_color",
							"type": "string"
						},
						{
							"internalType": "uint256",
							"name": "_Car_Price",
							"type": "uint256"
						},
						{
							"internalType": "string",
							"name": "_Car_Name",
							"type": "string"
						},
						{
							"internalType": "address",
							"name": "",
							"type": "address"
						},
						{
							"internalType": "bool",
							"name": "",
							"type": "bool"
						}
					],
					"name": "AddCar",
					"outputs": [],
					"stateMutability": "nonpayable",
					"type": "function"
				},
				{
					"inputs": [],
					"name": "AllCars",
					"outputs": [
						{
							"components": [
								{
									"internalType": "uint256",
									"name": "Car_id",
									"type": "uint256"
								},
								{
									"internalType": "uint256",
									"name": "Car_model",
									"type": "uint256"
								},
								{
									"internalType": "string",
									"name": "Car_color",
									"type": "string"
								},
								{
									"internalType": "uint256",
									"name": "Car_Price",
									"type": "uint256"
								},
								{
									"internalType": "string",
									"name": "Car_Name",
									"type": "string"
								},
								{
									"internalType": "address payable",
									"name": "OwnedBy",
									"type": "address"
								},
								{
									"internalType": "bool",
									"name": "Car_State",
									"type": "bool"
								}
							],
							"internalType": "struct CarAgency.Struct_Car[]",
							"name": "",
							"type": "tuple[]"
						}
					],
					"stateMutability": "view",
					"type": "function"
				},
				{
					"inputs": [
						{
							"internalType": "uint256",
							"name": "",
							"type": "uint256"
						}
					],
					"name": "ListCars",
					"outputs": [
						{
							"internalType": "uint256",
							"name": "",
							"type": "uint256"
						}
					],
					"stateMutability": "view",
					"type": "function"
				},
				{
					"inputs": [
						{
							"internalType": "uint256",
							"name": "",
							"type": "uint256"
						}
					],
					"name": "MapCars",
					"outputs": [
						{
							"internalType": "uint256",
							"name": "Car_id",
							"type": "uint256"
						},
						{
							"internalType": "uint256",
							"name": "Car_model",
							"type": "uint256"
						},
						{
							"internalType": "string",
							"name": "Car_color",
							"type": "string"
						},
						{
							"internalType": "uint256",
							"name": "Car_Price",
							"type": "uint256"
						},
						{
							"internalType": "string",
							"name": "Car_Name",
							"type": "string"
						},
						{
							"internalType": "address payable",
							"name": "OwnedBy",
							"type": "address"
						},
						{
							"internalType": "bool",
							"name": "Car_State",
							"type": "bool"
						}
					],
					"stateMutability": "view",
					"type": "function"
				},
				{
					"inputs": [
						{
							"internalType": "uint256",
							"name": "_CarID",
							"type": "uint256"
						},
						{
							"internalType": "address payable",
							"name": "_NewOwner",
							"type": "address"
						},
						{
							"internalType": "uint256",
							"name": "_CarPrice",
							"type": "uint256"
						}
					],
					"name": "SellCar",
					"outputs": [],
					"stateMutability": "payable",
					"type": "function"
				}
			],
			"devdoc": {
				"kind": "dev",
				"methods": {},
				"version": 1
			},
			"evm": {
				"assembly": "    /* \"contracts/Cars.sol\":128:3629  contract CarAgency {... */\n  mstore(0x40, 0x80)\n    /* \"contracts/Cars.sol\":1092:1163  constructor()... */\n  callvalue\n  dup1\n  iszero\n  tag_1\n  jumpi\n  0x00\n  dup1\n  revert\ntag_1:\n  pop\n    /* \"contracts/Cars.sol\":1144:1154  msg.sender */\n  caller\n    /* \"contracts/Cars.sol\":1122:1133  AgencyOwner */\n  0x01\n  0x00\n    /* \"contracts/Cars.sol\":1122:1155  AgencyOwner= payable (msg.sender) */\n  0x0100\n  exp\n  dup2\n  sload\n  dup2\n  0xffffffffffffffffffffffffffffffffffffffff\n  mul\n  not\n  and\n  swap1\n  dup4\n  0xffffffffffffffffffffffffffffffffffffffff\n  and\n  mul\n  or\n  swap1\n  sstore\n  pop\n    /* \"contracts/Cars.sol\":128:3629  contract CarAgency {... */\n  dataSize(sub_0)\n  dup1\n  dataOffset(sub_0)\n  0x00\n  codecopy\n  0x00\n  return\nstop\n\nsub_0: assembly {\n        /* \"contracts/Cars.sol\":128:3629  contract CarAgency {... */\n      mstore(0x40, 0x80)\n      jumpi(tag_1, lt(calldatasize, 0x04))\n      shr(0xe0, calldataload(0x00))\n      dup1\n      0x3b3bdd10\n      eq\n      tag_2\n      jumpi\n      dup1\n      0x9537d6cf\n      eq\n      tag_3\n      jumpi\n      dup1\n      0x9abb94d4\n      eq\n      tag_4\n      jumpi\n      dup1\n      0xd923b3d8\n      eq\n      tag_5\n      jumpi\n      dup1\n      0xe98d8383\n      eq\n      tag_6\n      jumpi\n    tag_1:\n      0x00\n      dup1\n      revert\n        /* \"contracts/Cars.sol\":2793:3624  function SellCar (uint256 _CarID, address payable _NewOwner, uint256 _CarPrice) public payable ... */\n    tag_2:\n      tag_7\n      0x04\n      dup1\n      calldatasize\n      sub\n      dup2\n      add\n      swap1\n      tag_8\n      swap2\n      swap1\n      tag_9\n      jump\t// in\n    tag_8:\n      tag_10\n      jump\t// in\n    tag_7:\n      stop\n        /* \"contracts/Cars.sol\":2328:2684  function AllCars() public view returns (Struct_Car[] memory) {... */\n    tag_3:\n      callvalue\n      dup1\n      iszero\n      tag_11\n      jumpi\n      0x00\n      dup1\n      revert\n    tag_11:\n      pop\n      tag_12\n      tag_13\n      jump\t// in\n    tag_12:\n      mload(0x40)\n      tag_14\n      swap2\n      swap1\n      tag_15\n      jump\t// in\n    tag_14:\n      mload(0x40)\n      dup1\n      swap2\n      sub\n      swap1\n      return\n        /* \"contracts/Cars.sol\":1171:1216  mapping(uint256 => Struct_Car) public MapCars */\n    tag_4:\n      callvalue\n      dup1\n      iszero\n      tag_16\n      jumpi\n      0x00\n      dup1\n      revert\n    tag_16:\n      pop\n      tag_17\n      0x04\n      dup1\n      calldatasize\n      sub\n      dup2\n      add\n      swap1\n      tag_18\n      swap2\n      swap1\n      tag_19\n      jump\t// in\n    tag_18:\n      tag_20\n      jump\t// in\n    tag_17:\n      mload(0x40)\n      tag_21\n      swap8\n      swap7\n      swap6\n      swap5\n      swap4\n      swap3\n      swap2\n      swap1\n      tag_22\n      jump\t// in\n    tag_21:\n      mload(0x40)\n      dup1\n      swap2\n      sub\n      swap1\n      return\n        /* \"contracts/Cars.sol\":1223:1248  uint256[] public ListCars */\n    tag_5:\n      callvalue\n      dup1\n      iszero\n      tag_23\n      jumpi\n      0x00\n      dup1\n      revert\n    tag_23:\n      pop\n      tag_24\n      0x04\n      dup1\n      calldatasize\n      sub\n      dup2\n      add\n      swap1\n      tag_25\n      swap2\n      swap1\n      tag_19\n      jump\t// in\n    tag_25:\n      tag_26\n      jump\t// in\n    tag_24:\n      mload(0x40)\n      tag_27\n      swap2\n      swap1\n      tag_28\n      jump\t// in\n    tag_27:\n      mload(0x40)\n      dup1\n      swap2\n      sub\n      swap1\n      return\n        /* \"contracts/Cars.sol\":1546:2222  function AddCar(uint256 _Car_model,string memory _Car_color,uint256 _Car_Price,string memory _Car_Name, address,bool) public OnlyAgencyOwner {... */\n    tag_6:\n      callvalue\n      dup1\n      iszero\n      tag_29\n      jumpi\n      0x00\n      dup1\n      revert\n    tag_29:\n      pop\n      tag_30\n      0x04\n      dup1\n      calldatasize\n      sub\n      dup2\n      add\n      swap1\n      tag_31\n      swap2\n      swap1\n      tag_32\n      jump\t// in\n    tag_31:\n      tag_33\n      jump\t// in\n    tag_30:\n      stop\n        /* \"contracts/Cars.sol\":2793:3624  function SellCar (uint256 _CarID, address payable _NewOwner, uint256 _CarPrice) public payable ... */\n    tag_10:\n        /* \"contracts/Cars.sol\":3018:3045  Struct_Car memory CarToSold */\n      0x00\n        /* \"contracts/Cars.sol\":3048:3055  MapCars */\n      0x02\n        /* \"contracts/Cars.sol\":3048:3063  MapCars[_CarID] */\n      0x00\n        /* \"contracts/Cars.sol\":3056:3062  _CarID */\n      dup6\n        /* \"contracts/Cars.sol\":3048:3063  MapCars[_CarID] */\n      dup2\n      mstore\n      0x20\n      add\n      swap1\n      dup2\n      mstore\n      0x20\n      add\n      0x00\n      keccak256\n        /* \"contracts/Cars.sol\":3018:3063  Struct_Car memory CarToSold = MapCars[_CarID] */\n      mload(0x40)\n      dup1\n      0xe0\n      add\n      0x40\n      mstore\n      swap1\n      dup2\n      0x00\n      dup3\n      add\n      sload\n      dup2\n      mstore\n      0x20\n      add\n      0x01\n      dup3\n      add\n      sload\n      dup2\n      mstore\n      0x20\n      add\n      0x02\n      dup3\n      add\n      dup1\n      sload\n      tag_35\n      swap1\n      tag_36\n      jump\t// in\n    tag_35:\n      dup1\n      0x1f\n      add\n      0x20\n      dup1\n      swap2\n      div\n      mul\n      0x20\n      add\n      mload(0x40)\n      swap1\n      dup2\n      add\n      0x40\n      mstore\n      dup1\n      swap3\n      swap2\n      swap1\n      dup2\n      dup2\n      mstore\n      0x20\n      add\n      dup3\n      dup1\n      sload\n      tag_37\n      swap1\n      tag_36\n      jump\t// in\n    tag_37:\n      dup1\n      iszero\n      tag_38\n      jumpi\n      dup1\n      0x1f\n      lt\n      tag_39\n      jumpi\n      0x0100\n      dup1\n      dup4\n      sload\n      div\n      mul\n      dup4\n      mstore\n      swap2\n      0x20\n      add\n      swap2\n      jump(tag_38)\n    tag_39:\n      dup3\n      add\n      swap2\n      swap1\n      0x00\n      mstore\n      keccak256(0x00, 0x20)\n      swap1\n    tag_40:\n      dup2\n      sload\n      dup2\n      mstore\n      swap1\n      0x01\n      add\n      swap1\n      0x20\n      add\n      dup1\n      dup4\n      gt\n      tag_40\n      jumpi\n      dup3\n      swap1\n      sub\n      0x1f\n      and\n      dup3\n      add\n      swap2\n    tag_38:\n      pop\n      pop\n      pop\n      pop\n      pop\n      dup2\n      mstore\n      0x20\n      add\n      0x03\n      dup3\n      add\n      sload\n      dup2\n      mstore\n      0x20\n      add\n      0x04\n      dup3\n      add\n      dup1\n      sload\n      tag_41\n      swap1\n      tag_36\n      jump\t// in\n    tag_41:\n      dup1\n      0x1f\n      add\n      0x20\n      dup1\n      swap2\n      div\n      mul\n      0x20\n      add\n      mload(0x40)\n      swap1\n      dup2\n      add\n      0x40\n      mstore\n      dup1\n      swap3\n      swap2\n      swap1\n      dup2\n      dup2\n      mstore\n      0x20\n      add\n      dup3\n      dup1\n      sload\n      tag_42\n      swap1\n      tag_36\n      jump\t// in\n    tag_42:\n      dup1\n      iszero\n      tag_43\n      jumpi\n      dup1\n      0x1f\n      lt\n      tag_44\n      jumpi\n      0x0100\n      dup1\n      dup4\n      sload\n      div\n      mul\n      dup4\n      mstore\n      swap2\n      0x20\n      add\n      swap2\n      jump(tag_43)\n    tag_44:\n      dup3\n      add\n      swap2\n      swap1\n      0x00\n      mstore\n      keccak256(0x00, 0x20)\n      swap1\n    tag_45:\n      dup2\n      sload\n      dup2\n      mstore\n      swap1\n      0x01\n      add\n      swap1\n      0x20\n      add\n      dup1\n      dup4\n      gt\n      tag_45\n      jumpi\n      dup3\n      swap1\n      sub\n      0x1f\n      and\n      dup3\n      add\n      swap2\n    tag_43:\n      pop\n      pop\n      pop\n      pop\n      pop\n      dup2\n      mstore\n      0x20\n      add\n      0x05\n      dup3\n      add\n      0x00\n      swap1\n      sload\n      swap1\n      0x0100\n      exp\n      swap1\n      div\n      0xffffffffffffffffffffffffffffffffffffffff\n      and\n      0xffffffffffffffffffffffffffffffffffffffff\n      and\n      0xffffffffffffffffffffffffffffffffffffffff\n      and\n      dup2\n      mstore\n      0x20\n      add\n      0x05\n      dup3\n      add\n      0x14\n      swap1\n      sload\n      swap1\n      0x0100\n      exp\n      swap1\n      div\n      0xff\n      and\n      iszero\n      iszero\n      iszero\n      iszero\n      dup2\n      mstore\n      pop\n      pop\n      swap1\n      pop\n        /* \"contracts/Cars.sol\":3082:3091  CarToSold */\n      dup1\n        /* \"contracts/Cars.sol\":3082:3101  CarToSold.Car_State */\n      0xc0\n      add\n      mload\n        /* \"contracts/Cars.sol\":3074:3125  require(CarToSold.Car_State, \"Car is already Sold\") */\n      tag_46\n      jumpi\n      mload(0x40)\n      0x08c379a000000000000000000000000000000000000000000000000000000000\n      dup2\n      mstore\n      0x04\n      add\n      tag_47\n      swap1\n      tag_48\n      jump\t// in\n    tag_47:\n      mload(0x40)\n      dup1\n      swap2\n      sub\n      swap1\n      revert\n    tag_46:\n        /* \"contracts/Cars.sol\":3167:3176  _CarPrice */\n      dup2\n        /* \"contracts/Cars.sol\":3144:3153  CarToSold */\n      dup2\n        /* \"contracts/Cars.sol\":3144:3163  CarToSold.Car_Price */\n      0x60\n      add\n      mload\n        /* \"contracts/Cars.sol\":3144:3176  CarToSold.Car_Price == _CarPrice */\n      eq\n        /* \"contracts/Cars.sol\":3136:3196  require(CarToSold.Car_Price == _CarPrice, \"Wrong Car price\") */\n      tag_49\n      jumpi\n      mload(0x40)\n      0x08c379a000000000000000000000000000000000000000000000000000000000\n      dup2\n      mstore\n      0x04\n      add\n      tag_50\n      swap1\n      tag_51\n      jump\t// in\n    tag_50:\n      mload(0x40)\n      dup1\n      swap2\n      sub\n      swap1\n      revert\n    tag_49:\n        /* \"contracts/Cars.sol\":3336:3345  CarToSold */\n      dup1\n        /* \"contracts/Cars.sol\":3336:3353  CarToSold.OwnedBy */\n      0xa0\n      add\n      mload\n        /* \"contracts/Cars.sol\":3336:3362  CarToSold.OwnedBy.transfer */\n      0xffffffffffffffffffffffffffffffffffffffff\n      and\n        /* \"contracts/Cars.sol\":3336:3373  CarToSold.OwnedBy.transfer(msg.value) */\n      0x08fc\n        /* \"contracts/Cars.sol\":3363:3372  msg.value */\n      callvalue\n        /* \"contracts/Cars.sol\":3336:3373  CarToSold.OwnedBy.transfer(msg.value) */\n      swap1\n      dup2\n      iszero\n      mul\n      swap1\n      mload(0x40)\n      0x00\n      mload(0x40)\n      dup1\n      dup4\n      sub\n      dup2\n      dup6\n      dup9\n      dup9\n      call\n      swap4\n      pop\n      pop\n      pop\n      pop\n      iszero\n      dup1\n      iszero\n      tag_53\n      jumpi\n      returndatasize\n      0x00\n      dup1\n      returndatacopy\n      revert(0x00, returndatasize)\n    tag_53:\n      pop\n        /* \"contracts/Cars.sol\":3404:3413  _NewOwner */\n      dup3\n        /* \"contracts/Cars.sol\":3386:3395  CarToSold */\n      dup2\n        /* \"contracts/Cars.sol\":3386:3403  CarToSold.OwnedBy */\n      0xa0\n      add\n        /* \"contracts/Cars.sol\":3386:3413  CarToSold.OwnedBy=_NewOwner */\n      swap1\n      0xffffffffffffffffffffffffffffffffffffffff\n      and\n      swap1\n      dup2\n      0xffffffffffffffffffffffffffffffffffffffff\n      and\n      dup2\n      mstore\n      pop\n      pop\n        /* \"contracts/Cars.sol\":3456:3461  false */\n      0x00\n        /* \"contracts/Cars.sol\":3436:3445  CarToSold */\n      dup2\n        /* \"contracts/Cars.sol\":3436:3455  CarToSold.Car_State */\n      0xc0\n      add\n        /* \"contracts/Cars.sol\":3436:3461  CarToSold.Car_State=false */\n      swap1\n      iszero\n      iszero\n      swap1\n      dup2\n      iszero\n      iszero\n      dup2\n      mstore\n      pop\n      pop\n        /* \"contracts/Cars.sol\":3570:3616  EvntSellingCar(_CarID , _NewOwner , _CarPrice) */\n      0x66262d29b39f82a7838ea037c521cd5b4821f21fb16fe0aa690dd7270e1cb971\n        /* \"contracts/Cars.sol\":3585:3591  _CarID */\n      dup5\n        /* \"contracts/Cars.sol\":3594:3603  _NewOwner */\n      dup5\n        /* \"contracts/Cars.sol\":3606:3615  _CarPrice */\n      dup5\n        /* \"contracts/Cars.sol\":3570:3616  EvntSellingCar(_CarID , _NewOwner , _CarPrice) */\n      mload(0x40)\n      tag_54\n      swap4\n      swap3\n      swap2\n      swap1\n      tag_55\n      jump\t// in\n    tag_54:\n      mload(0x40)\n      dup1\n      swap2\n      sub\n      swap1\n      log1\n        /* \"contracts/Cars.sol\":2894:3624  {... */\n      pop\n        /* \"contracts/Cars.sol\":2793:3624  function SellCar (uint256 _CarID, address payable _NewOwner, uint256 _CarPrice) public payable ... */\n      pop\n      pop\n      pop\n      jump\t// out\n        /* \"contracts/Cars.sol\":2328:2684  function AllCars() public view returns (Struct_Car[] memory) {... */\n    tag_13:\n        /* \"contracts/Cars.sol\":2368:2387  Struct_Car[] memory */\n      0x60\n        /* \"contracts/Cars.sol\":2400:2416  uint SizeOfArrat */\n      0x00\n        /* \"contracts/Cars.sol\":2419:2427  ListCars */\n      0x03\n        /* \"contracts/Cars.sol\":2419:2434  ListCars.length */\n      dup1\n      sload\n      swap1\n      pop\n        /* \"contracts/Cars.sol\":2400:2434  uint SizeOfArrat = ListCars.length */\n      swap1\n      pop\n        /* \"contracts/Cars.sol\":2445:2472  Struct_Car[] memory GetCars */\n      0x00\n        /* \"contracts/Cars.sol\":2492:2503  SizeOfArrat */\n      dup2\n        /* \"contracts/Cars.sol\":2475:2504  new Struct_Car[](SizeOfArrat) */\n      0xffffffffffffffff\n      dup2\n      gt\n      iszero\n      tag_57\n      jumpi\n      tag_58\n      tag_59\n      jump\t// in\n    tag_58:\n    tag_57:\n      mload(0x40)\n      swap1\n      dup1\n      dup3\n      mstore\n      dup1\n      0x20\n      mul\n      0x20\n      add\n      dup3\n      add\n      0x40\n      mstore\n      dup1\n      iszero\n      tag_60\n      jumpi\n      dup2\n      0x20\n      add\n    tag_61:\n      tag_62\n      tag_63\n      jump\t// in\n    tag_62:\n      dup2\n      mstore\n      0x20\n      add\n      swap1\n      0x01\n      swap1\n      sub\n      swap1\n      dup2\n      tag_61\n      jumpi\n      swap1\n      pop\n    tag_60:\n      pop\n        /* \"contracts/Cars.sol\":2445:2504  Struct_Car[] memory GetCars = new Struct_Car[](SizeOfArrat) */\n      swap1\n      pop\n        /* \"contracts/Cars.sol\":2520:2526  uint i */\n      0x00\n        /* \"contracts/Cars.sol\":2515:2652  for (uint i = 0; i < SizeOfArrat; i++) {... */\n    tag_64:\n        /* \"contracts/Cars.sol\":2536:2547  SizeOfArrat */\n      dup3\n        /* \"contracts/Cars.sol\":2532:2533  i */\n      dup2\n        /* \"contracts/Cars.sol\":2532:2547  i < SizeOfArrat */\n      lt\n        /* \"contracts/Cars.sol\":2515:2652  for (uint i = 0; i < SizeOfArrat; i++) {... */\n      iszero\n      tag_65\n      jumpi\n        /* \"contracts/Cars.sol\":2569:2583  uint256 CarIDs */\n      0x00\n        /* \"contracts/Cars.sol\":2586:2594  ListCars */\n      0x03\n        /* \"contracts/Cars.sol\":2595:2596  i */\n      dup3\n        /* \"contracts/Cars.sol\":2586:2597  ListCars[i] */\n      dup2\n      sload\n      dup2\n      lt\n      tag_67\n      jumpi\n      tag_68\n      tag_69\n      jump\t// in\n    tag_68:\n    tag_67:\n      swap1\n      0x00\n      mstore\n      keccak256(0x00, 0x20)\n      add\n      sload\n        /* \"contracts/Cars.sol\":2569:2597  uint256 CarIDs = ListCars[i] */\n      swap1\n      pop\n        /* \"contracts/Cars.sol\":2625:2632  MapCars */\n      0x02\n        /* \"contracts/Cars.sol\":2625:2640  MapCars[CarIDs] */\n      0x00\n        /* \"contracts/Cars.sol\":2633:2639  CarIDs */\n      dup3\n        /* \"contracts/Cars.sol\":2625:2640  MapCars[CarIDs] */\n      dup2\n      mstore\n      0x20\n      add\n      swap1\n      dup2\n      mstore\n      0x20\n      add\n      0x00\n      keccak256\n        /* \"contracts/Cars.sol\":2612:2640  GetCars[i] = MapCars[CarIDs] */\n      mload(0x40)\n      dup1\n      0xe0\n      add\n      0x40\n      mstore\n      swap1\n      dup2\n      0x00\n      dup3\n      add\n      sload\n      dup2\n      mstore\n      0x20\n      add\n      0x01\n      dup3\n      add\n      sload\n      dup2\n      mstore\n      0x20\n      add\n      0x02\n      dup3\n      add\n      dup1\n      sload\n      tag_71\n      swap1\n      tag_36\n      jump\t// in\n    tag_71:\n      dup1\n      0x1f\n      add\n      0x20\n      dup1\n      swap2\n      div\n      mul\n      0x20\n      add\n      mload(0x40)\n      swap1\n      dup2\n      add\n      0x40\n      mstore\n      dup1\n      swap3\n      swap2\n      swap1\n      dup2\n      dup2\n      mstore\n      0x20\n      add\n      dup3\n      dup1\n      sload\n      tag_72\n      swap1\n      tag_36\n      jump\t// in\n    tag_72:\n      dup1\n      iszero\n      tag_73\n      jumpi\n      dup1\n      0x1f\n      lt\n      tag_74\n      jumpi\n      0x0100\n      dup1\n      dup4\n      sload\n      div\n      mul\n      dup4\n      mstore\n      swap2\n      0x20\n      add\n      swap2\n      jump(tag_73)\n    tag_74:\n      dup3\n      add\n      swap2\n      swap1\n      0x00\n      mstore\n      keccak256(0x00, 0x20)\n      swap1\n    tag_75:\n      dup2\n      sload\n      dup2\n      mstore\n      swap1\n      0x01\n      add\n      swap1\n      0x20\n      add\n      dup1\n      dup4\n      gt\n      tag_75\n      jumpi\n      dup3\n      swap1\n      sub\n      0x1f\n      and\n      dup3\n      add\n      swap2\n    tag_73:\n      pop\n      pop\n      pop\n      pop\n      pop\n      dup2\n      mstore\n      0x20\n      add\n      0x03\n      dup3\n      add\n      sload\n      dup2\n      mstore\n      0x20\n      add\n      0x04\n      dup3\n      add\n      dup1\n      sload\n      tag_76\n      swap1\n      tag_36\n      jump\t// in\n    tag_76:\n      dup1\n      0x1f\n      add\n      0x20\n      dup1\n      swap2\n      div\n      mul\n      0x20\n      add\n      mload(0x40)\n      swap1\n      dup2\n      add\n      0x40\n      mstore\n      dup1\n      swap3\n      swap2\n      swap1\n      dup2\n      dup2\n      mstore\n      0x20\n      add\n      dup3\n      dup1\n      sload\n      tag_77\n      swap1\n      tag_36\n      jump\t// in\n    tag_77:\n      dup1\n      iszero\n      tag_78\n      jumpi\n      dup1\n      0x1f\n      lt\n      tag_79\n      jumpi\n      0x0100\n      dup1\n      dup4\n      sload\n      div\n      mul\n      dup4\n      mstore\n      swap2\n      0x20\n      add\n      swap2\n      jump(tag_78)\n    tag_79:\n      dup3\n      add\n      swap2\n      swap1\n      0x00\n      mstore\n      keccak256(0x00, 0x20)\n      swap1\n    tag_80:\n      dup2\n      sload\n      dup2\n      mstore\n      swap1\n      0x01\n      add\n      swap1\n      0x20\n      add\n      dup1\n      dup4\n      gt\n      tag_80\n      jumpi\n      dup3\n      swap1\n      sub\n      0x1f\n      and\n      dup3\n      add\n      swap2\n    tag_78:\n      pop\n      pop\n      pop\n      pop\n      pop\n      dup2\n      mstore\n      0x20\n      add\n      0x05\n      dup3\n      add\n      0x00\n      swap1\n      sload\n      swap1\n      0x0100\n      exp\n      swap1\n      div\n      0xffffffffffffffffffffffffffffffffffffffff\n      and\n      0xffffffffffffffffffffffffffffffffffffffff\n      and\n      0xffffffffffffffffffffffffffffffffffffffff\n      and\n      dup2\n      mstore\n      0x20\n      add\n      0x05\n      dup3\n      add\n      0x14\n      swap1\n      sload\n      swap1\n      0x0100\n      exp\n      swap1\n      div\n      0xff\n      and\n      iszero\n      iszero\n      iszero\n      iszero\n      dup2\n      mstore\n      pop\n      pop\n        /* \"contracts/Cars.sol\":2612:2619  GetCars */\n      dup4\n        /* \"contracts/Cars.sol\":2620:2621  i */\n      dup4\n        /* \"contracts/Cars.sol\":2612:2622  GetCars[i] */\n      dup2\n      mload\n      dup2\n      lt\n      tag_81\n      jumpi\n      tag_82\n      tag_69\n      jump\t// in\n    tag_82:\n    tag_81:\n      0x20\n      mul\n      0x20\n      add\n      add\n        /* \"contracts/Cars.sol\":2612:2640  GetCars[i] = MapCars[CarIDs] */\n      dup2\n      swap1\n      mstore\n      pop\n        /* \"contracts/Cars.sol\":2554:2652  {... */\n      pop\n        /* \"contracts/Cars.sol\":2549:2552  i++ */\n      dup1\n      dup1\n      0x01\n      add\n      swap2\n      pop\n      pop\n        /* \"contracts/Cars.sol\":2515:2652  for (uint i = 0; i < SizeOfArrat; i++) {... */\n      jump(tag_64)\n    tag_65:\n      pop\n        /* \"contracts/Cars.sol\":2669:2676  GetCars */\n      dup1\n        /* \"contracts/Cars.sol\":2662:2676  return GetCars */\n      swap3\n      pop\n      pop\n      pop\n        /* \"contracts/Cars.sol\":2328:2684  function AllCars() public view returns (Struct_Car[] memory) {... */\n      swap1\n      jump\t// out\n        /* \"contracts/Cars.sol\":1171:1216  mapping(uint256 => Struct_Car) public MapCars */\n    tag_20:\n      mstore(0x20, 0x02)\n      dup1\n      0x00\n      mstore\n      keccak256(0x00, 0x40)\n      0x00\n      swap2\n      pop\n      swap1\n      pop\n      dup1\n      0x00\n      add\n      sload\n      swap1\n      dup1\n      0x01\n      add\n      sload\n      swap1\n      dup1\n      0x02\n      add\n      dup1\n      sload\n      tag_83\n      swap1\n      tag_36\n      jump\t// in\n    tag_83:\n      dup1\n      0x1f\n      add\n      0x20\n      dup1\n      swap2\n      div\n      mul\n      0x20\n      add\n      mload(0x40)\n      swap1\n      dup2\n      add\n      0x40\n      mstore\n      dup1\n      swap3\n      swap2\n      swap1\n      dup2\n      dup2\n      mstore\n      0x20\n      add\n      dup3\n      dup1\n      sload\n      tag_84\n      swap1\n      tag_36\n      jump\t// in\n    tag_84:\n      dup1\n      iszero\n      tag_85\n      jumpi\n      dup1\n      0x1f\n      lt\n      tag_86\n      jumpi\n      0x0100\n      dup1\n      dup4\n      sload\n      div\n      mul\n      dup4\n      mstore\n      swap2\n      0x20\n      add\n      swap2\n      jump(tag_85)\n    tag_86:\n      dup3\n      add\n      swap2\n      swap1\n      0x00\n      mstore\n      keccak256(0x00, 0x20)\n      swap1\n    tag_87:\n      dup2\n      sload\n      dup2\n      mstore\n      swap1\n      0x01\n      add\n      swap1\n      0x20\n      add\n      dup1\n      dup4\n      gt\n      tag_87\n      jumpi\n      dup3\n      swap1\n      sub\n      0x1f\n      and\n      dup3\n      add\n      swap2\n    tag_85:\n      pop\n      pop\n      pop\n      pop\n      pop\n      swap1\n      dup1\n      0x03\n      add\n      sload\n      swap1\n      dup1\n      0x04\n      add\n      dup1\n      sload\n      tag_88\n      swap1\n      tag_36\n      jump\t// in\n    tag_88:\n      dup1\n      0x1f\n      add\n      0x20\n      dup1\n      swap2\n      div\n      mul\n      0x20\n      add\n      mload(0x40)\n      swap1\n      dup2\n      add\n      0x40\n      mstore\n      dup1\n      swap3\n      swap2\n      swap1\n      dup2\n      dup2\n      mstore\n      0x20\n      add\n      dup3\n      dup1\n      sload\n      tag_89\n      swap1\n      tag_36\n      jump\t// in\n    tag_89:\n      dup1\n      iszero\n      tag_90\n      jumpi\n      dup1\n      0x1f\n      lt\n      tag_91\n      jumpi\n      0x0100\n      dup1\n      dup4\n      sload\n      div\n      mul\n      dup4\n      mstore\n      swap2\n      0x20\n      add\n      swap2\n      jump(tag_90)\n    tag_91:\n      dup3\n      add\n      swap2\n      swap1\n      0x00\n      mstore\n      keccak256(0x00, 0x20)\n      swap1\n    tag_92:\n      dup2\n      sload\n      dup2\n      mstore\n      swap1\n      0x01\n      add\n      swap1\n      0x20\n      add\n      dup1\n      dup4\n      gt\n      tag_92\n      jumpi\n      dup3\n      swap1\n      sub\n      0x1f\n      and\n      dup3\n      add\n      swap2\n    tag_90:\n      pop\n      pop\n      pop\n      pop\n      pop\n      swap1\n      dup1\n      0x05\n      add\n      0x00\n      swap1\n      sload\n      swap1\n      0x0100\n      exp\n      swap1\n      div\n      0xffffffffffffffffffffffffffffffffffffffff\n      and\n      swap1\n      dup1\n      0x05\n      add\n      0x14\n      swap1\n      sload\n      swap1\n      0x0100\n      exp\n      swap1\n      div\n      0xff\n      and\n      swap1\n      pop\n      dup8\n      jump\t// out\n        /* \"contracts/Cars.sol\":1223:1248  uint256[] public ListCars */\n    tag_26:\n      0x03\n      dup2\n      dup2\n      sload\n      dup2\n      lt\n      tag_93\n      jumpi\n      0x00\n      dup1\n      revert\n    tag_93:\n      swap1\n      0x00\n      mstore\n      keccak256(0x00, 0x20)\n      add\n      0x00\n      swap2\n      pop\n      swap1\n      pop\n      sload\n      dup2\n      jump\t// out\n        /* \"contracts/Cars.sol\":1546:2222  function AddCar(uint256 _Car_model,string memory _Car_color,uint256 _Car_Price,string memory _Car_Name, address,bool) public OnlyAgencyOwner {... */\n    tag_33:\n        /* \"contracts/Cars.sol\":1365:1376  AgencyOwner */\n      0x01\n      0x00\n      swap1\n      sload\n      swap1\n      0x0100\n      exp\n      swap1\n      div\n      0xffffffffffffffffffffffffffffffffffffffff\n      and\n        /* \"contracts/Cars.sol\":1351:1376  msg.sender == AgencyOwner */\n      0xffffffffffffffffffffffffffffffffffffffff\n      and\n        /* \"contracts/Cars.sol\":1351:1361  msg.sender */\n      caller\n        /* \"contracts/Cars.sol\":1351:1376  msg.sender == AgencyOwner */\n      0xffffffffffffffffffffffffffffffffffffffff\n      and\n      eq\n        /* \"contracts/Cars.sol\":1343:1417  require(msg.sender == AgencyOwner,\"Only The Agency Owner Can Add cars!!!\") */\n      tag_96\n      jumpi\n      mload(0x40)\n      0x08c379a000000000000000000000000000000000000000000000000000000000\n      dup2\n      mstore\n      0x04\n      add\n      tag_97\n      swap1\n      tag_98\n      jump\t// in\n    tag_97:\n      mload(0x40)\n      dup1\n      swap2\n      sub\n      swap1\n      revert\n    tag_96:\n        /* \"contracts/Cars.sol\":1698:1723  _CurrentCarID.increment() */\n      tag_100\n        /* \"contracts/Cars.sol\":1698:1711  _CurrentCarID */\n      0x00\n        /* \"contracts/Cars.sol\":1698:1721  _CurrentCarID.increment */\n      tag_101\n        /* \"contracts/Cars.sol\":1698:1723  _CurrentCarID.increment() */\n      jump\t// in\n    tag_100:\n        /* \"contracts/Cars.sol\":1850:1874  Struct_Car memory newCar */\n      0x00\n        /* \"contracts/Cars.sol\":1877:1983  Struct_Car(_CurrentCarID.current(),_Car_model,_Car_color,_Car_Price,_Car_Name,payable(address(this)),true) */\n      mload(0x40)\n      dup1\n      0xe0\n      add\n      0x40\n      mstore\n      dup1\n        /* \"contracts/Cars.sol\":1888:1911  _CurrentCarID.current() */\n      tag_102\n        /* \"contracts/Cars.sol\":1888:1901  _CurrentCarID */\n      0x00\n        /* \"contracts/Cars.sol\":1888:1909  _CurrentCarID.current */\n      tag_103\n        /* \"contracts/Cars.sol\":1888:1911  _CurrentCarID.current() */\n      jump\t// in\n    tag_102:\n        /* \"contracts/Cars.sol\":1877:1983  Struct_Car(_CurrentCarID.current(),_Car_model,_Car_color,_Car_Price,_Car_Name,payable(address(this)),true) */\n      dup2\n      mstore\n      0x20\n      add\n        /* \"contracts/Cars.sol\":1912:1922  _Car_model */\n      dup9\n        /* \"contracts/Cars.sol\":1877:1983  Struct_Car(_CurrentCarID.current(),_Car_model,_Car_color,_Car_Price,_Car_Name,payable(address(this)),true) */\n      dup2\n      mstore\n      0x20\n      add\n        /* \"contracts/Cars.sol\":1923:1933  _Car_color */\n      dup8\n        /* \"contracts/Cars.sol\":1877:1983  Struct_Car(_CurrentCarID.current(),_Car_model,_Car_color,_Car_Price,_Car_Name,payable(address(this)),true) */\n      dup2\n      mstore\n      0x20\n      add\n        /* \"contracts/Cars.sol\":1934:1944  _Car_Price */\n      dup7\n        /* \"contracts/Cars.sol\":1877:1983  Struct_Car(_CurrentCarID.current(),_Car_model,_Car_color,_Car_Price,_Car_Name,payable(address(this)),true) */\n      dup2\n      mstore\n      0x20\n      add\n        /* \"contracts/Cars.sol\":1945:1954  _Car_Name */\n      dup6\n        /* \"contracts/Cars.sol\":1877:1983  Struct_Car(_CurrentCarID.current(),_Car_model,_Car_color,_Car_Price,_Car_Name,payable(address(this)),true) */\n      dup2\n      mstore\n      0x20\n      add\n        /* \"contracts/Cars.sol\":1971:1975  this */\n      address\n        /* \"contracts/Cars.sol\":1877:1983  Struct_Car(_CurrentCarID.current(),_Car_model,_Car_color,_Car_Price,_Car_Name,payable(address(this)),true) */\n      0xffffffffffffffffffffffffffffffffffffffff\n      and\n      dup2\n      mstore\n      0x20\n      add\n        /* \"contracts/Cars.sol\":1978:1982  true */\n      0x01\n        /* \"contracts/Cars.sol\":1877:1983  Struct_Car(_CurrentCarID.current(),_Car_model,_Car_color,_Car_Price,_Car_Name,payable(address(this)),true) */\n      iszero\n      iszero\n      dup2\n      mstore\n      pop\n        /* \"contracts/Cars.sol\":1850:1983  Struct_Car memory newCar = Struct_Car(_CurrentCarID.current(),_Car_model,_Car_color,_Car_Price,_Car_Name,payable(address(this)),true) */\n      swap1\n      pop\n        /* \"contracts/Cars.sol\":2029:2035  newCar */\n      dup1\n        /* \"contracts/Cars.sol\":1994:2001  MapCars */\n      0x02\n        /* \"contracts/Cars.sol\":1994:2026  MapCars[_CurrentCarID.current()] */\n      0x00\n        /* \"contracts/Cars.sol\":2002:2025  _CurrentCarID.current() */\n      tag_104\n        /* \"contracts/Cars.sol\":2002:2015  _CurrentCarID */\n      0x00\n        /* \"contracts/Cars.sol\":2002:2023  _CurrentCarID.current */\n      tag_103\n        /* \"contracts/Cars.sol\":2002:2025  _CurrentCarID.current() */\n      jump\t// in\n    tag_104:\n        /* \"contracts/Cars.sol\":1994:2026  MapCars[_CurrentCarID.current()] */\n      dup2\n      mstore\n      0x20\n      add\n      swap1\n      dup2\n      mstore\n      0x20\n      add\n      0x00\n      keccak256\n        /* \"contracts/Cars.sol\":1994:2035  MapCars[_CurrentCarID.current()] = newCar */\n      0x00\n      dup3\n      add\n      mload\n      dup2\n      0x00\n      add\n      sstore\n      0x20\n      dup3\n      add\n      mload\n      dup2\n      0x01\n      add\n      sstore\n      0x40\n      dup3\n      add\n      mload\n      dup2\n      0x02\n      add\n      swap1\n      dup2\n      tag_105\n      swap2\n      swap1\n      tag_106\n      jump\t// in\n    tag_105:\n      pop\n      0x60\n      dup3\n      add\n      mload\n      dup2\n      0x03\n      add\n      sstore\n      0x80\n      dup3\n      add\n      mload\n      dup2\n      0x04\n      add\n      swap1\n      dup2\n      tag_107\n      swap2\n      swap1\n      tag_106\n      jump\t// in\n    tag_107:\n      pop\n      0xa0\n      dup3\n      add\n      mload\n      dup2\n      0x05\n      add\n      exp(0x0100, 0x00)\n      dup2\n      sload\n      dup2\n      0xffffffffffffffffffffffffffffffffffffffff\n      mul\n      not\n      and\n      swap1\n      dup4\n      0xffffffffffffffffffffffffffffffffffffffff\n      and\n      mul\n      or\n      swap1\n      sstore\n      pop\n      0xc0\n      dup3\n      add\n      mload\n      dup2\n      0x05\n      add\n      exp(0x0100, 0x14)\n      dup2\n      sload\n      dup2\n      0xff\n      mul\n      not\n      and\n      swap1\n      dup4\n      iszero\n      iszero\n      mul\n      or\n      swap1\n      sstore\n      pop\n      swap1\n      pop\n      pop\n        /* \"contracts/Cars.sol\":2046:2054  ListCars */\n      0x03\n        /* \"contracts/Cars.sol\":2060:2083  _CurrentCarID.current() */\n      tag_108\n        /* \"contracts/Cars.sol\":2060:2073  _CurrentCarID */\n      0x00\n        /* \"contracts/Cars.sol\":2060:2081  _CurrentCarID.current */\n      tag_103\n        /* \"contracts/Cars.sol\":2060:2083  _CurrentCarID.current() */\n      jump\t// in\n    tag_108:\n        /* \"contracts/Cars.sol\":2046:2084  ListCars.push(_CurrentCarID.current()) */\n      swap1\n      dup1\n      0x01\n      dup2\n      sload\n      add\n      dup1\n      dup3\n      sstore\n      dup1\n      swap2\n      pop\n      pop\n      0x01\n      swap1\n      sub\n      swap1\n      0x00\n      mstore\n      keccak256(0x00, 0x20)\n      add\n      0x00\n      swap1\n      swap2\n      swap1\n      swap2\n      swap1\n      swap2\n      pop\n      sstore\n        /* \"contracts/Cars.sol\":2100:2213  EvntNewCarAdd(_CurrentCarID.current(), _Car_model, _Car_color, _Car_Price, _Car_Name,payable(address(this)),true) */\n      0xd37f8caa8cbf6ba249a853b50d83a4b0916cb52d083755767c3d4d086f9e3df4\n        /* \"contracts/Cars.sol\":2114:2137  _CurrentCarID.current() */\n      tag_110\n        /* \"contracts/Cars.sol\":2114:2127  _CurrentCarID */\n      0x00\n        /* \"contracts/Cars.sol\":2114:2135  _CurrentCarID.current */\n      tag_103\n        /* \"contracts/Cars.sol\":2114:2137  _CurrentCarID.current() */\n      jump\t// in\n    tag_110:\n        /* \"contracts/Cars.sol\":2139:2149  _Car_model */\n      dup9\n        /* \"contracts/Cars.sol\":2151:2161  _Car_color */\n      dup9\n        /* \"contracts/Cars.sol\":2163:2173  _Car_Price */\n      dup9\n        /* \"contracts/Cars.sol\":2175:2184  _Car_Name */\n      dup9\n        /* \"contracts/Cars.sol\":2201:2205  this */\n      address\n        /* \"contracts/Cars.sol\":2208:2212  true */\n      0x01\n        /* \"contracts/Cars.sol\":2100:2213  EvntNewCarAdd(_CurrentCarID.current(), _Car_model, _Car_color, _Car_Price, _Car_Name,payable(address(this)),true) */\n      mload(0x40)\n      tag_111\n      swap8\n      swap7\n      swap6\n      swap5\n      swap4\n      swap3\n      swap2\n      swap1\n      tag_22\n      jump\t// in\n    tag_111:\n      mload(0x40)\n      dup1\n      swap2\n      sub\n      swap1\n      log1\n        /* \"contracts/Cars.sol\":1687:2222  {... */\n      pop\n        /* \"contracts/Cars.sol\":1546:2222  function AddCar(uint256 _Car_model,string memory _Car_color,uint256 _Car_Price,string memory _Car_Name, address,bool) public OnlyAgencyOwner {... */\n      pop\n      pop\n      pop\n      pop\n      pop\n      pop\n      jump\t// out\n        /* \"@openzeppelin/contracts/utils/Counters.sol\":945:1068  function increment(Counter storage counter) internal {... */\n    tag_101:\n        /* \"@openzeppelin/contracts/utils/Counters.sol\":1050:1051  1 */\n      0x01\n        /* \"@openzeppelin/contracts/utils/Counters.sol\":1032:1039  counter */\n      dup2\n        /* \"@openzeppelin/contracts/utils/Counters.sol\":1032:1046  counter._value */\n      0x00\n      add\n      0x00\n        /* \"@openzeppelin/contracts/utils/Counters.sol\":1032:1051  counter._value += 1 */\n      dup3\n      dup3\n      sload\n      add\n      swap3\n      pop\n      pop\n      dup2\n      swap1\n      sstore\n      pop\n        /* \"@openzeppelin/contracts/utils/Counters.sol\":945:1068  function increment(Counter storage counter) internal {... */\n      pop\n      jump\t// out\n        /* \"@openzeppelin/contracts/utils/Counters.sol\":827:939  function current(Counter storage counter) internal view returns (uint256) {... */\n    tag_103:\n        /* \"@openzeppelin/contracts/utils/Counters.sol\":892:899  uint256 */\n      0x00\n        /* \"@openzeppelin/contracts/utils/Counters.sol\":918:925  counter */\n      dup2\n        /* \"@openzeppelin/contracts/utils/Counters.sol\":918:932  counter._value */\n      0x00\n      add\n      sload\n        /* \"@openzeppelin/contracts/utils/Counters.sol\":911:932  return counter._value */\n      swap1\n      pop\n        /* \"@openzeppelin/contracts/utils/Counters.sol\":827:939  function current(Counter storage counter) internal view returns (uint256) {... */\n      swap2\n      swap1\n      pop\n      jump\t// out\n    tag_63:\n      mload(0x40)\n      dup1\n      0xe0\n      add\n      0x40\n      mstore\n      dup1\n      0x00\n      dup2\n      mstore\n      0x20\n      add\n      0x00\n      dup2\n      mstore\n      0x20\n      add\n      0x60\n      dup2\n      mstore\n      0x20\n      add\n      0x00\n      dup2\n      mstore\n      0x20\n      add\n      0x60\n      dup2\n      mstore\n      0x20\n      add\n      and(0xffffffffffffffffffffffffffffffffffffffff, 0x00)\n      dup2\n      mstore\n      0x20\n      add\n      iszero(iszero(0x00))\n      dup2\n      mstore\n      pop\n      swap1\n      jump\t// out\n        /* \"#utility.yul\":7:82   */\n    tag_114:\n        /* \"#utility.yul\":40:46   */\n      0x00\n        /* \"#utility.yul\":73:75   */\n      0x40\n        /* \"#utility.yul\":67:76   */\n      mload\n        /* \"#utility.yul\":57:76   */\n      swap1\n      pop\n        /* \"#utility.yul\":7:82   */\n      swap1\n      jump\t// out\n        /* \"#utility.yul\":88:205   */\n    tag_115:\n        /* \"#utility.yul\":197:198   */\n      0x00\n        /* \"#utility.yul\":194:195   */\n      dup1\n        /* \"#utility.yul\":187:199   */\n      revert\n        /* \"#utility.yul\":211:328   */\n    tag_116:\n        /* \"#utility.yul\":320:321   */\n      0x00\n        /* \"#utility.yul\":317:318   */\n      dup1\n        /* \"#utility.yul\":310:322   */\n      revert\n        /* \"#utility.yul\":334:411   */\n    tag_117:\n        /* \"#utility.yul\":371:378   */\n      0x00\n        /* \"#utility.yul\":400:405   */\n      dup2\n        /* \"#utility.yul\":389:405   */\n      swap1\n      pop\n        /* \"#utility.yul\":334:411   */\n      swap2\n      swap1\n      pop\n      jump\t// out\n        /* \"#utility.yul\":417:539   */\n    tag_118:\n        /* \"#utility.yul\":490:514   */\n      tag_190\n        /* \"#utility.yul\":508:513   */\n      dup2\n        /* \"#utility.yul\":490:514   */\n      tag_117\n      jump\t// in\n    tag_190:\n        /* \"#utility.yul\":483:488   */\n      dup2\n        /* \"#utility.yul\":480:515   */\n      eq\n        /* \"#utility.yul\":470:533   */\n      tag_191\n      jumpi\n        /* \"#utility.yul\":529:530   */\n      0x00\n        /* \"#utility.yul\":526:527   */\n      dup1\n        /* \"#utility.yul\":519:531   */\n      revert\n        /* \"#utility.yul\":470:533   */\n    tag_191:\n        /* \"#utility.yul\":417:539   */\n      pop\n      jump\t// out\n        /* \"#utility.yul\":545:684   */\n    tag_119:\n        /* \"#utility.yul\":591:596   */\n      0x00\n        /* \"#utility.yul\":629:635   */\n      dup2\n        /* \"#utility.yul\":616:636   */\n      calldataload\n        /* \"#utility.yul\":607:636   */\n      swap1\n      pop\n        /* \"#utility.yul\":645:678   */\n      tag_193\n        /* \"#utility.yul\":672:677   */\n      dup2\n        /* \"#utility.yul\":645:678   */\n      tag_118\n      jump\t// in\n    tag_193:\n        /* \"#utility.yul\":545:684   */\n      swap3\n      swap2\n      pop\n      pop\n      jump\t// out\n        /* \"#utility.yul\":690:816   */\n    tag_120:\n        /* \"#utility.yul\":727:734   */\n      0x00\n        /* \"#utility.yul\":767:809   */\n      0xffffffffffffffffffffffffffffffffffffffff\n        /* \"#utility.yul\":760:765   */\n      dup3\n        /* \"#utility.yul\":756:810   */\n      and\n        /* \"#utility.yul\":745:810   */\n      swap1\n      pop\n        /* \"#utility.yul\":690:816   */\n      swap2\n      swap1\n      pop\n      jump\t// out\n        /* \"#utility.yul\":822:926   */\n    tag_121:\n        /* \"#utility.yul\":867:874   */\n      0x00\n        /* \"#utility.yul\":896:920   */\n      tag_196\n        /* \"#utility.yul\":914:919   */\n      dup3\n        /* \"#utility.yul\":896:920   */\n      tag_120\n      jump\t// in\n    tag_196:\n        /* \"#utility.yul\":885:920   */\n      swap1\n      pop\n        /* \"#utility.yul\":822:926   */\n      swap2\n      swap1\n      pop\n      jump\t// out\n        /* \"#utility.yul\":932:1070   */\n    tag_122:\n        /* \"#utility.yul\":1013:1045   */\n      tag_198\n        /* \"#utility.yul\":1039:1044   */\n      dup2\n        /* \"#utility.yul\":1013:1045   */\n      tag_121\n      jump\t// in\n    tag_198:\n        /* \"#utility.yul\":1006:1011   */\n      dup2\n        /* \"#utility.yul\":1003:1046   */\n      eq\n        /* \"#utility.yul\":993:1064   */\n      tag_199\n      jumpi\n        /* \"#utility.yul\":1060:1061   */\n      0x00\n        /* \"#utility.yul\":1057:1058   */\n      dup1\n        /* \"#utility.yul\":1050:1062   */\n      revert\n        /* \"#utility.yul\":993:1064   */\n    tag_199:\n        /* \"#utility.yul\":932:1070   */\n      pop\n      jump\t// out\n        /* \"#utility.yul\":1076:1231   */\n    tag_123:\n        /* \"#utility.yul\":1130:1135   */\n      0x00\n        /* \"#utility.yul\":1168:1174   */\n      dup2\n        /* \"#utility.yul\":1155:1175   */\n      calldataload\n        /* \"#utility.yul\":1146:1175   */\n      swap1\n      pop\n        /* \"#utility.yul\":1184:1225   */\n      tag_201\n        /* \"#utility.yul\":1219:1224   */\n      dup2\n        /* \"#utility.yul\":1184:1225   */\n      tag_122\n      jump\t// in\n    tag_201:\n        /* \"#utility.yul\":1076:1231   */\n      swap3\n      swap2\n      pop\n      pop\n      jump\t// out\n        /* \"#utility.yul\":1237:1872   */\n    tag_9:\n        /* \"#utility.yul\":1322:1328   */\n      0x00\n        /* \"#utility.yul\":1330:1336   */\n      dup1\n        /* \"#utility.yul\":1338:1344   */\n      0x00\n        /* \"#utility.yul\":1387:1389   */\n      0x60\n        /* \"#utility.yul\":1375:1384   */\n      dup5\n        /* \"#utility.yul\":1366:1373   */\n      dup7\n        /* \"#utility.yul\":1362:1385   */\n      sub\n        /* \"#utility.yul\":1358:1390   */\n      slt\n        /* \"#utility.yul\":1355:1474   */\n      iszero\n      tag_203\n      jumpi\n        /* \"#utility.yul\":1393:1472   */\n      tag_204\n      tag_115\n      jump\t// in\n    tag_204:\n        /* \"#utility.yul\":1355:1474   */\n    tag_203:\n        /* \"#utility.yul\":1513:1514   */\n      0x00\n        /* \"#utility.yul\":1538:1591   */\n      tag_205\n        /* \"#utility.yul\":1583:1590   */\n      dup7\n        /* \"#utility.yul\":1574:1580   */\n      dup3\n        /* \"#utility.yul\":1563:1572   */\n      dup8\n        /* \"#utility.yul\":1559:1581   */\n      add\n        /* \"#utility.yul\":1538:1591   */\n      tag_119\n      jump\t// in\n    tag_205:\n        /* \"#utility.yul\":1528:1591   */\n      swap4\n      pop\n        /* \"#utility.yul\":1484:1601   */\n      pop\n        /* \"#utility.yul\":1640:1642   */\n      0x20\n        /* \"#utility.yul\":1666:1727   */\n      tag_206\n        /* \"#utility.yul\":1719:1726   */\n      dup7\n        /* \"#utility.yul\":1710:1716   */\n      dup3\n        /* \"#utility.yul\":1699:1708   */\n      dup8\n        /* \"#utility.yul\":1695:1717   */\n      add\n        /* \"#utility.yul\":1666:1727   */\n      tag_123\n      jump\t// in\n    tag_206:\n        /* \"#utility.yul\":1656:1727   */\n      swap3\n      pop\n        /* \"#utility.yul\":1611:1737   */\n      pop\n        /* \"#utility.yul\":1776:1778   */\n      0x40\n        /* \"#utility.yul\":1802:1855   */\n      tag_207\n        /* \"#utility.yul\":1847:1854   */\n      dup7\n        /* \"#utility.yul\":1838:1844   */\n      dup3\n        /* \"#utility.yul\":1827:1836   */\n      dup8\n        /* \"#utility.yul\":1823:1845   */\n      add\n        /* \"#utility.yul\":1802:1855   */\n      tag_119\n      jump\t// in\n    tag_207:\n        /* \"#utility.yul\":1792:1855   */\n      swap2\n      pop\n        /* \"#utility.yul\":1747:1865   */\n      pop\n        /* \"#utility.yul\":1237:1872   */\n      swap3\n      pop\n      swap3\n      pop\n      swap3\n      jump\t// out\n        /* \"#utility.yul\":1878:2018   */\n    tag_124:\n        /* \"#utility.yul\":1971:1977   */\n      0x00\n        /* \"#utility.yul\":2005:2010   */\n      dup2\n        /* \"#utility.yul\":1999:2011   */\n      mload\n        /* \"#utility.yul\":1989:2011   */\n      swap1\n      pop\n        /* \"#utility.yul\":1878:2018   */\n      swap2\n      swap1\n      pop\n      jump\t// out\n        /* \"#utility.yul\":2024:2234   */\n    tag_125:\n        /* \"#utility.yul\":2149:2160   */\n      0x00\n        /* \"#utility.yul\":2183:2189   */\n      dup3\n        /* \"#utility.yul\":2178:2181   */\n      dup3\n        /* \"#utility.yul\":2171:2190   */\n      mstore\n        /* \"#utility.yul\":2223:2227   */\n      0x20\n        /* \"#utility.yul\":2218:2221   */\n      dup3\n        /* \"#utility.yul\":2214:2228   */\n      add\n        /* \"#utility.yul\":2199:2228   */\n      swap1\n      pop\n        /* \"#utility.yul\":2024:2234   */\n      swap3\n      swap2\n      pop\n      pop\n      jump\t// out\n        /* \"#utility.yul\":2240:2398   */\n    tag_126:\n        /* \"#utility.yul\":2333:2337   */\n      0x00\n        /* \"#utility.yul\":2356:2359   */\n      dup2\n        /* \"#utility.yul\":2348:2359   */\n      swap1\n      pop\n        /* \"#utility.yul\":2386:2390   */\n      0x20\n        /* \"#utility.yul\":2381:2384   */\n      dup3\n        /* \"#utility.yul\":2377:2391   */\n      add\n        /* \"#utility.yul\":2369:2391   */\n      swap1\n      pop\n        /* \"#utility.yul\":2240:2398   */\n      swap2\n      swap1\n      pop\n      jump\t// out\n        /* \"#utility.yul\":2404:2512   */\n    tag_127:\n        /* \"#utility.yul\":2481:2505   */\n      tag_212\n        /* \"#utility.yul\":2499:2504   */\n      dup2\n        /* \"#utility.yul\":2481:2505   */\n      tag_117\n      jump\t// in\n    tag_212:\n        /* \"#utility.yul\":2476:2479   */\n      dup3\n        /* \"#utility.yul\":2469:2506   */\n      mstore\n        /* \"#utility.yul\":2404:2512   */\n      pop\n      pop\n      jump\t// out\n        /* \"#utility.yul\":2518:2617   */\n    tag_128:\n        /* \"#utility.yul\":2570:2576   */\n      0x00\n        /* \"#utility.yul\":2604:2609   */\n      dup2\n        /* \"#utility.yul\":2598:2610   */\n      mload\n        /* \"#utility.yul\":2588:2610   */\n      swap1\n      pop\n        /* \"#utility.yul\":2518:2617   */\n      swap2\n      swap1\n      pop\n      jump\t// out\n        /* \"#utility.yul\":2623:2782   */\n    tag_129:\n        /* \"#utility.yul\":2697:2708   */\n      0x00\n        /* \"#utility.yul\":2731:2737   */\n      dup3\n        /* \"#utility.yul\":2726:2729   */\n      dup3\n        /* \"#utility.yul\":2719:2738   */\n      mstore\n        /* \"#utility.yul\":2771:2775   */\n      0x20\n        /* \"#utility.yul\":2766:2769   */\n      dup3\n        /* \"#utility.yul\":2762:2776   */\n      add\n        /* \"#utility.yul\":2747:2776   */\n      swap1\n      pop\n        /* \"#utility.yul\":2623:2782   */\n      swap3\n      swap2\n      pop\n      pop\n      jump\t// out\n        /* \"#utility.yul\":2788:3034   */\n    tag_130:\n        /* \"#utility.yul\":2869:2870   */\n      0x00\n        /* \"#utility.yul\":2879:2992   */\n    tag_216:\n        /* \"#utility.yul\":2893:2899   */\n      dup4\n        /* \"#utility.yul\":2890:2891   */\n      dup2\n        /* \"#utility.yul\":2887:2900   */\n      lt\n        /* \"#utility.yul\":2879:2992   */\n      iszero\n      tag_218\n      jumpi\n        /* \"#utility.yul\":2978:2979   */\n      dup1\n        /* \"#utility.yul\":2973:2976   */\n      dup3\n        /* \"#utility.yul\":2969:2980   */\n      add\n        /* \"#utility.yul\":2963:2981   */\n      mload\n        /* \"#utility.yul\":2959:2960   */\n      dup2\n        /* \"#utility.yul\":2954:2957   */\n      dup5\n        /* \"#utility.yul\":2950:2961   */\n      add\n        /* \"#utility.yul\":2943:2982   */\n      mstore\n        /* \"#utility.yul\":2915:2917   */\n      0x20\n        /* \"#utility.yul\":2912:2913   */\n      dup2\n        /* \"#utility.yul\":2908:2918   */\n      add\n        /* \"#utility.yul\":2903:2918   */\n      swap1\n      pop\n        /* \"#utility.yul\":2879:2992   */\n      jump(tag_216)\n    tag_218:\n        /* \"#utility.yul\":3026:3027   */\n      0x00\n        /* \"#utility.yul\":3017:3023   */\n      dup5\n        /* \"#utility.yul\":3012:3015   */\n      dup5\n        /* \"#utility.yul\":3008:3024   */\n      add\n        /* \"#utility.yul\":3001:3028   */\n      mstore\n        /* \"#utility.yul\":2850:3034   */\n      pop\n        /* \"#utility.yul\":2788:3034   */\n      pop\n      pop\n      pop\n      jump\t// out\n        /* \"#utility.yul\":3040:3142   */\n    tag_131:\n        /* \"#utility.yul\":3081:3087   */\n      0x00\n        /* \"#utility.yul\":3132:3134   */\n      0x1f\n        /* \"#utility.yul\":3128:3135   */\n      not\n        /* \"#utility.yul\":3123:3125   */\n      0x1f\n        /* \"#utility.yul\":3116:3121   */\n      dup4\n        /* \"#utility.yul\":3112:3126   */\n      add\n        /* \"#utility.yul\":3108:3136   */\n      and\n        /* \"#utility.yul\":3098:3136   */\n      swap1\n      pop\n        /* \"#utility.yul\":3040:3142   */\n      swap2\n      swap1\n      pop\n      jump\t// out\n        /* \"#utility.yul\":3148:3505   */\n    tag_132:\n        /* \"#utility.yul\":3226:3229   */\n      0x00\n        /* \"#utility.yul\":3254:3293   */\n      tag_221\n        /* \"#utility.yul\":3287:3292   */\n      dup3\n        /* \"#utility.yul\":3254:3293   */\n      tag_128\n      jump\t// in\n    tag_221:\n        /* \"#utility.yul\":3309:3370   */\n      tag_222\n        /* \"#utility.yul\":3363:3369   */\n      dup2\n        /* \"#utility.yul\":3358:3361   */\n      dup6\n        /* \"#utility.yul\":3309:3370   */\n      tag_129\n      jump\t// in\n    tag_222:\n        /* \"#utility.yul\":3302:3370   */\n      swap4\n      pop\n        /* \"#utility.yul\":3379:3444   */\n      tag_223\n        /* \"#utility.yul\":3437:3443   */\n      dup2\n        /* \"#utility.yul\":3432:3435   */\n      dup6\n        /* \"#utility.yul\":3425:3429   */\n      0x20\n        /* \"#utility.yul\":3418:3423   */\n      dup7\n        /* \"#utility.yul\":3414:3430   */\n      add\n        /* \"#utility.yul\":3379:3444   */\n      tag_130\n      jump\t// in\n    tag_223:\n        /* \"#utility.yul\":3469:3498   */\n      tag_224\n        /* \"#utility.yul\":3491:3497   */\n      dup2\n        /* \"#utility.yul\":3469:3498   */\n      tag_131\n      jump\t// in\n    tag_224:\n        /* \"#utility.yul\":3464:3467   */\n      dup5\n        /* \"#utility.yul\":3460:3499   */\n      add\n        /* \"#utility.yul\":3453:3499   */\n      swap2\n      pop\n        /* \"#utility.yul\":3230:3505   */\n      pop\n        /* \"#utility.yul\":3148:3505   */\n      swap3\n      swap2\n      pop\n      pop\n      jump\t// out\n        /* \"#utility.yul\":3511:3643   */\n    tag_133:\n        /* \"#utility.yul\":3604:3636   */\n      tag_226\n        /* \"#utility.yul\":3630:3635   */\n      dup2\n        /* \"#utility.yul\":3604:3636   */\n      tag_121\n      jump\t// in\n    tag_226:\n        /* \"#utility.yul\":3599:3602   */\n      dup3\n        /* \"#utility.yul\":3592:3637   */\n      mstore\n        /* \"#utility.yul\":3511:3643   */\n      pop\n      pop\n      jump\t// out\n        /* \"#utility.yul\":3649:3739   */\n    tag_134:\n        /* \"#utility.yul\":3683:3690   */\n      0x00\n        /* \"#utility.yul\":3726:3731   */\n      dup2\n        /* \"#utility.yul\":3719:3732   */\n      iszero\n        /* \"#utility.yul\":3712:3733   */\n      iszero\n        /* \"#utility.yul\":3701:3733   */\n      swap1\n      pop\n        /* \"#utility.yul\":3649:3739   */\n      swap2\n      swap1\n      pop\n      jump\t// out\n        /* \"#utility.yul\":3745:3844   */\n    tag_135:\n        /* \"#utility.yul\":3816:3837   */\n      tag_229\n        /* \"#utility.yul\":3831:3836   */\n      dup2\n        /* \"#utility.yul\":3816:3837   */\n      tag_134\n      jump\t// in\n    tag_229:\n        /* \"#utility.yul\":3811:3814   */\n      dup3\n        /* \"#utility.yul\":3804:3838   */\n      mstore\n        /* \"#utility.yul\":3745:3844   */\n      pop\n      pop\n      jump\t// out\n        /* \"#utility.yul\":3916:5494   */\n    tag_136:\n        /* \"#utility.yul\":4027:4030   */\n      0x00\n        /* \"#utility.yul\":4063:4067   */\n      0xe0\n        /* \"#utility.yul\":4058:4061   */\n      dup4\n        /* \"#utility.yul\":4054:4068   */\n      add\n        /* \"#utility.yul\":4152:4156   */\n      0x00\n        /* \"#utility.yul\":4145:4150   */\n      dup4\n        /* \"#utility.yul\":4141:4157   */\n      add\n        /* \"#utility.yul\":4135:4158   */\n      mload\n        /* \"#utility.yul\":4171:4234   */\n      tag_231\n        /* \"#utility.yul\":4228:4232   */\n      0x00\n        /* \"#utility.yul\":4223:4226   */\n      dup7\n        /* \"#utility.yul\":4219:4233   */\n      add\n        /* \"#utility.yul\":4205:4217   */\n      dup3\n        /* \"#utility.yul\":4171:4234   */\n      tag_127\n      jump\t// in\n    tag_231:\n        /* \"#utility.yul\":4078:4244   */\n      pop\n        /* \"#utility.yul\":4331:4335   */\n      0x20\n        /* \"#utility.yul\":4324:4329   */\n      dup4\n        /* \"#utility.yul\":4320:4336   */\n      add\n        /* \"#utility.yul\":4314:4337   */\n      mload\n        /* \"#utility.yul\":4350:4413   */\n      tag_232\n        /* \"#utility.yul\":4407:4411   */\n      0x20\n        /* \"#utility.yul\":4402:4405   */\n      dup7\n        /* \"#utility.yul\":4398:4412   */\n      add\n        /* \"#utility.yul\":4384:4396   */\n      dup3\n        /* \"#utility.yul\":4350:4413   */\n      tag_127\n      jump\t// in\n    tag_232:\n        /* \"#utility.yul\":4254:4423   */\n      pop\n        /* \"#utility.yul\":4510:4514   */\n      0x40\n        /* \"#utility.yul\":4503:4508   */\n      dup4\n        /* \"#utility.yul\":4499:4515   */\n      add\n        /* \"#utility.yul\":4493:4516   */\n      mload\n        /* \"#utility.yul\":4563:4566   */\n      dup5\n        /* \"#utility.yul\":4557:4561   */\n      dup3\n        /* \"#utility.yul\":4553:4567   */\n      sub\n        /* \"#utility.yul\":4546:4550   */\n      0x40\n        /* \"#utility.yul\":4541:4544   */\n      dup7\n        /* \"#utility.yul\":4537:4551   */\n      add\n        /* \"#utility.yul\":4530:4568   */\n      mstore\n        /* \"#utility.yul\":4589:4662   */\n      tag_233\n        /* \"#utility.yul\":4657:4661   */\n      dup3\n        /* \"#utility.yul\":4643:4655   */\n      dup3\n        /* \"#utility.yul\":4589:4662   */\n      tag_132\n      jump\t// in\n    tag_233:\n        /* \"#utility.yul\":4581:4662   */\n      swap2\n      pop\n        /* \"#utility.yul\":4433:4673   */\n      pop\n        /* \"#utility.yul\":4760:4764   */\n      0x60\n        /* \"#utility.yul\":4753:4758   */\n      dup4\n        /* \"#utility.yul\":4749:4765   */\n      add\n        /* \"#utility.yul\":4743:4766   */\n      mload\n        /* \"#utility.yul\":4779:4842   */\n      tag_234\n        /* \"#utility.yul\":4836:4840   */\n      0x60\n        /* \"#utility.yul\":4831:4834   */\n      dup7\n        /* \"#utility.yul\":4827:4841   */\n      add\n        /* \"#utility.yul\":4813:4825   */\n      dup3\n        /* \"#utility.yul\":4779:4842   */\n      tag_127\n      jump\t// in\n    tag_234:\n        /* \"#utility.yul\":4683:4852   */\n      pop\n        /* \"#utility.yul\":4938:4942   */\n      0x80\n        /* \"#utility.yul\":4931:4936   */\n      dup4\n        /* \"#utility.yul\":4927:4943   */\n      add\n        /* \"#utility.yul\":4921:4944   */\n      mload\n        /* \"#utility.yul\":4991:4994   */\n      dup5\n        /* \"#utility.yul\":4985:4989   */\n      dup3\n        /* \"#utility.yul\":4981:4995   */\n      sub\n        /* \"#utility.yul\":4974:4978   */\n      0x80\n        /* \"#utility.yul\":4969:4972   */\n      dup7\n        /* \"#utility.yul\":4965:4979   */\n      add\n        /* \"#utility.yul\":4958:4996   */\n      mstore\n        /* \"#utility.yul\":5017:5090   */\n      tag_235\n        /* \"#utility.yul\":5085:5089   */\n      dup3\n        /* \"#utility.yul\":5071:5083   */\n      dup3\n        /* \"#utility.yul\":5017:5090   */\n      tag_132\n      jump\t// in\n    tag_235:\n        /* \"#utility.yul\":5009:5090   */\n      swap2\n      pop\n        /* \"#utility.yul\":4862:5101   */\n      pop\n        /* \"#utility.yul\":5186:5190   */\n      0xa0\n        /* \"#utility.yul\":5179:5184   */\n      dup4\n        /* \"#utility.yul\":5175:5191   */\n      add\n        /* \"#utility.yul\":5169:5192   */\n      mload\n        /* \"#utility.yul\":5205:5284   */\n      tag_236\n        /* \"#utility.yul\":5278:5282   */\n      0xa0\n        /* \"#utility.yul\":5273:5276   */\n      dup7\n        /* \"#utility.yul\":5269:5283   */\n      add\n        /* \"#utility.yul\":5255:5267   */\n      dup3\n        /* \"#utility.yul\":5205:5284   */\n      tag_133\n      jump\t// in\n    tag_236:\n        /* \"#utility.yul\":5111:5294   */\n      pop\n        /* \"#utility.yul\":5381:5385   */\n      0xc0\n        /* \"#utility.yul\":5374:5379   */\n      dup4\n        /* \"#utility.yul\":5370:5386   */\n      add\n        /* \"#utility.yul\":5364:5387   */\n      mload\n        /* \"#utility.yul\":5400:5457   */\n      tag_237\n        /* \"#utility.yul\":5451:5455   */\n      0xc0\n        /* \"#utility.yul\":5446:5449   */\n      dup7\n        /* \"#utility.yul\":5442:5456   */\n      add\n        /* \"#utility.yul\":5428:5440   */\n      dup3\n        /* \"#utility.yul\":5400:5457   */\n      tag_135\n      jump\t// in\n    tag_237:\n        /* \"#utility.yul\":5304:5467   */\n      pop\n        /* \"#utility.yul\":5484:5488   */\n      dup1\n        /* \"#utility.yul\":5477:5488   */\n      swap2\n      pop\n        /* \"#utility.yul\":4032:5494   */\n      pop\n        /* \"#utility.yul\":3916:5494   */\n      swap3\n      swap2\n      pop\n      pop\n      jump\t// out\n        /* \"#utility.yul\":5500:5760   */\n    tag_137:\n        /* \"#utility.yul\":5621:5631   */\n      0x00\n        /* \"#utility.yul\":5656:5754   */\n      tag_239\n        /* \"#utility.yul\":5750:5753   */\n      dup4\n        /* \"#utility.yul\":5742:5748   */\n      dup4\n        /* \"#utility.yul\":5656:5754   */\n      tag_136\n      jump\t// in\n    tag_239:\n        /* \"#utility.yul\":5642:5754   */\n      swap1\n      pop\n        /* \"#utility.yul\":5500:5760   */\n      swap3\n      swap2\n      pop\n      pop\n      jump\t// out\n        /* \"#utility.yul\":5766:5905   */\n    tag_138:\n        /* \"#utility.yul\":5862:5866   */\n      0x00\n        /* \"#utility.yul\":5894:5898   */\n      0x20\n        /* \"#utility.yul\":5889:5892   */\n      dup3\n        /* \"#utility.yul\":5885:5899   */\n      add\n        /* \"#utility.yul\":5877:5899   */\n      swap1\n      pop\n        /* \"#utility.yul\":5766:5905   */\n      swap2\n      swap1\n      pop\n      jump\t// out\n        /* \"#utility.yul\":5981:7100   */\n    tag_139:\n        /* \"#utility.yul\":6152:6155   */\n      0x00\n        /* \"#utility.yul\":6181:6261   */\n      tag_242\n        /* \"#utility.yul\":6255:6260   */\n      dup3\n        /* \"#utility.yul\":6181:6261   */\n      tag_124\n      jump\t// in\n    tag_242:\n        /* \"#utility.yul\":6277:6389   */\n      tag_243\n        /* \"#utility.yul\":6382:6388   */\n      dup2\n        /* \"#utility.yul\":6377:6380   */\n      dup6\n        /* \"#utility.yul\":6277:6389   */\n      tag_125\n      jump\t// in\n    tag_243:\n        /* \"#utility.yul\":6270:6389   */\n      swap4\n      pop\n        /* \"#utility.yul\":6415:6418   */\n      dup4\n        /* \"#utility.yul\":6460:6464   */\n      0x20\n        /* \"#utility.yul\":6452:6458   */\n      dup3\n        /* \"#utility.yul\":6448:6465   */\n      mul\n        /* \"#utility.yul\":6443:6446   */\n      dup6\n        /* \"#utility.yul\":6439:6466   */\n      add\n        /* \"#utility.yul\":6490:6572   */\n      tag_244\n        /* \"#utility.yul\":6566:6571   */\n      dup6\n        /* \"#utility.yul\":6490:6572   */\n      tag_126\n      jump\t// in\n    tag_244:\n        /* \"#utility.yul\":6595:6602   */\n      dup1\n        /* \"#utility.yul\":6626:6627   */\n      0x00\n        /* \"#utility.yul\":6611:7055   */\n    tag_245:\n        /* \"#utility.yul\":6636:6642   */\n      dup6\n        /* \"#utility.yul\":6633:6634   */\n      dup2\n        /* \"#utility.yul\":6630:6643   */\n      lt\n        /* \"#utility.yul\":6611:7055   */\n      iszero\n      tag_247\n      jumpi\n        /* \"#utility.yul\":6707:6716   */\n      dup5\n        /* \"#utility.yul\":6701:6705   */\n      dup5\n        /* \"#utility.yul\":6697:6717   */\n      sub\n        /* \"#utility.yul\":6692:6695   */\n      dup10\n        /* \"#utility.yul\":6685:6718   */\n      mstore\n        /* \"#utility.yul\":6758:6764   */\n      dup2\n        /* \"#utility.yul\":6752:6765   */\n      mload\n        /* \"#utility.yul\":6786:6902   */\n      tag_248\n        /* \"#utility.yul\":6897:6901   */\n      dup6\n        /* \"#utility.yul\":6882:6895   */\n      dup3\n        /* \"#utility.yul\":6786:6902   */\n      tag_137\n      jump\t// in\n    tag_248:\n        /* \"#utility.yul\":6778:6902   */\n      swap5\n      pop\n        /* \"#utility.yul\":6925:7011   */\n      tag_249\n        /* \"#utility.yul\":7004:7010   */\n      dup4\n        /* \"#utility.yul\":6925:7011   */\n      tag_138\n      jump\t// in\n    tag_249:\n        /* \"#utility.yul\":6915:7011   */\n      swap3\n      pop\n        /* \"#utility.yul\":7040:7044   */\n      0x20\n        /* \"#utility.yul\":7035:7038   */\n      dup11\n        /* \"#utility.yul\":7031:7045   */\n      add\n        /* \"#utility.yul\":7024:7045   */\n      swap10\n      pop\n        /* \"#utility.yul\":6671:7055   */\n      pop\n        /* \"#utility.yul\":6658:6659   */\n      0x01\n        /* \"#utility.yul\":6655:6656   */\n      dup2\n        /* \"#utility.yul\":6651:6660   */\n      add\n        /* \"#utility.yul\":6646:6660   */\n      swap1\n      pop\n        /* \"#utility.yul\":6611:7055   */\n      jump(tag_245)\n    tag_247:\n        /* \"#utility.yul\":6615:6629   */\n      pop\n        /* \"#utility.yul\":7071:7075   */\n      dup3\n        /* \"#utility.yul\":7064:7075   */\n      swap8\n      pop\n        /* \"#utility.yul\":7091:7094   */\n      dup8\n        /* \"#utility.yul\":7084:7094   */\n      swap6\n      pop\n        /* \"#utility.yul\":6157:7100   */\n      pop\n      pop\n      pop\n      pop\n      pop\n        /* \"#utility.yul\":5981:7100   */\n      swap3\n      swap2\n      pop\n      pop\n      jump\t// out\n        /* \"#utility.yul\":7106:7583   */\n    tag_15:\n        /* \"#utility.yul\":7301:7305   */\n      0x00\n        /* \"#utility.yul\":7339:7341   */\n      0x20\n        /* \"#utility.yul\":7328:7337   */\n      dup3\n        /* \"#utility.yul\":7324:7342   */\n      add\n        /* \"#utility.yul\":7316:7342   */\n      swap1\n      pop\n        /* \"#utility.yul\":7388:7397   */\n      dup2\n        /* \"#utility.yul\":7382:7386   */\n      dup2\n        /* \"#utility.yul\":7378:7398   */\n      sub\n        /* \"#utility.yul\":7374:7375   */\n      0x00\n        /* \"#utility.yul\":7363:7372   */\n      dup4\n        /* \"#utility.yul\":7359:7376   */\n      add\n        /* \"#utility.yul\":7352:7399   */\n      mstore\n        /* \"#utility.yul\":7416:7576   */\n      tag_251\n        /* \"#utility.yul\":7571:7575   */\n      dup2\n        /* \"#utility.yul\":7562:7568   */\n      dup5\n        /* \"#utility.yul\":7416:7576   */\n      tag_139\n      jump\t// in\n    tag_251:\n        /* \"#utility.yul\":7408:7576   */\n      swap1\n      pop\n        /* \"#utility.yul\":7106:7583   */\n      swap3\n      swap2\n      pop\n      pop\n      jump\t// out\n        /* \"#utility.yul\":7589:7918   */\n    tag_19:\n        /* \"#utility.yul\":7648:7654   */\n      0x00\n        /* \"#utility.yul\":7697:7699   */\n      0x20\n        /* \"#utility.yul\":7685:7694   */\n      dup3\n        /* \"#utility.yul\":7676:7683   */\n      dup5\n        /* \"#utility.yul\":7672:7695   */\n      sub\n        /* \"#utility.yul\":7668:7700   */\n      slt\n        /* \"#utility.yul\":7665:7784   */\n      iszero\n      tag_253\n      jumpi\n        /* \"#utility.yul\":7703:7782   */\n      tag_254\n      tag_115\n      jump\t// in\n    tag_254:\n        /* \"#utility.yul\":7665:7784   */\n    tag_253:\n        /* \"#utility.yul\":7823:7824   */\n      0x00\n        /* \"#utility.yul\":7848:7901   */\n      tag_255\n        /* \"#utility.yul\":7893:7900   */\n      dup5\n        /* \"#utility.yul\":7884:7890   */\n      dup3\n        /* \"#utility.yul\":7873:7882   */\n      dup6\n        /* \"#utility.yul\":7869:7891   */\n      add\n        /* \"#utility.yul\":7848:7901   */\n      tag_119\n      jump\t// in\n    tag_255:\n        /* \"#utility.yul\":7838:7901   */\n      swap2\n      pop\n        /* \"#utility.yul\":7794:7911   */\n      pop\n        /* \"#utility.yul\":7589:7918   */\n      swap3\n      swap2\n      pop\n      pop\n      jump\t// out\n        /* \"#utility.yul\":7924:8042   */\n    tag_140:\n        /* \"#utility.yul\":8011:8035   */\n      tag_257\n        /* \"#utility.yul\":8029:8034   */\n      dup2\n        /* \"#utility.yul\":8011:8035   */\n      tag_117\n      jump\t// in\n    tag_257:\n        /* \"#utility.yul\":8006:8009   */\n      dup3\n        /* \"#utility.yul\":7999:8036   */\n      mstore\n        /* \"#utility.yul\":7924:8042   */\n      pop\n      pop\n      jump\t// out\n        /* \"#utility.yul\":8048:8217   */\n    tag_141:\n        /* \"#utility.yul\":8132:8143   */\n      0x00\n        /* \"#utility.yul\":8166:8172   */\n      dup3\n        /* \"#utility.yul\":8161:8164   */\n      dup3\n        /* \"#utility.yul\":8154:8173   */\n      mstore\n        /* \"#utility.yul\":8206:8210   */\n      0x20\n        /* \"#utility.yul\":8201:8204   */\n      dup3\n        /* \"#utility.yul\":8197:8211   */\n      add\n        /* \"#utility.yul\":8182:8211   */\n      swap1\n      pop\n        /* \"#utility.yul\":8048:8217   */\n      swap3\n      swap2\n      pop\n      pop\n      jump\t// out\n        /* \"#utility.yul\":8223:8600   */\n    tag_142:\n        /* \"#utility.yul\":8311:8314   */\n      0x00\n        /* \"#utility.yul\":8339:8378   */\n      tag_260\n        /* \"#utility.yul\":8372:8377   */\n      dup3\n        /* \"#utility.yul\":8339:8378   */\n      tag_128\n      jump\t// in\n    tag_260:\n        /* \"#utility.yul\":8394:8465   */\n      tag_261\n        /* \"#utility.yul\":8458:8464   */\n      dup2\n        /* \"#utility.yul\":8453:8456   */\n      dup6\n        /* \"#utility.yul\":8394:8465   */\n      tag_141\n      jump\t// in\n    tag_261:\n        /* \"#utility.yul\":8387:8465   */\n      swap4\n      pop\n        /* \"#utility.yul\":8474:8539   */\n      tag_262\n        /* \"#utility.yul\":8532:8538   */\n      dup2\n        /* \"#utility.yul\":8527:8530   */\n      dup6\n        /* \"#utility.yul\":8520:8524   */\n      0x20\n        /* \"#utility.yul\":8513:8518   */\n      dup7\n        /* \"#utility.yul\":8509:8525   */\n      add\n        /* \"#utility.yul\":8474:8539   */\n      tag_130\n      jump\t// in\n    tag_262:\n        /* \"#utility.yul\":8564:8593   */\n      tag_263\n        /* \"#utility.yul\":8586:8592   */\n      dup2\n        /* \"#utility.yul\":8564:8593   */\n      tag_131\n      jump\t// in\n    tag_263:\n        /* \"#utility.yul\":8559:8562   */\n      dup5\n        /* \"#utility.yul\":8555:8594   */\n      add\n        /* \"#utility.yul\":8548:8594   */\n      swap2\n      pop\n        /* \"#utility.yul\":8315:8600   */\n      pop\n        /* \"#utility.yul\":8223:8600   */\n      swap3\n      swap2\n      pop\n      pop\n      jump\t// out\n        /* \"#utility.yul\":8606:8748   */\n    tag_143:\n        /* \"#utility.yul\":8709:8741   */\n      tag_265\n        /* \"#utility.yul\":8735:8740   */\n      dup2\n        /* \"#utility.yul\":8709:8741   */\n      tag_121\n      jump\t// in\n    tag_265:\n        /* \"#utility.yul\":8704:8707   */\n      dup3\n        /* \"#utility.yul\":8697:8742   */\n      mstore\n        /* \"#utility.yul\":8606:8748   */\n      pop\n      pop\n      jump\t// out\n        /* \"#utility.yul\":8754:8863   */\n    tag_144:\n        /* \"#utility.yul\":8835:8856   */\n      tag_267\n        /* \"#utility.yul\":8850:8855   */\n      dup2\n        /* \"#utility.yul\":8835:8856   */\n      tag_134\n      jump\t// in\n    tag_267:\n        /* \"#utility.yul\":8830:8833   */\n      dup3\n        /* \"#utility.yul\":8823:8857   */\n      mstore\n        /* \"#utility.yul\":8754:8863   */\n      pop\n      pop\n      jump\t// out\n        /* \"#utility.yul\":8869:9957   */\n    tag_22:\n        /* \"#utility.yul\":9180:9184   */\n      0x00\n        /* \"#utility.yul\":9218:9221   */\n      0xe0\n        /* \"#utility.yul\":9207:9216   */\n      dup3\n        /* \"#utility.yul\":9203:9222   */\n      add\n        /* \"#utility.yul\":9195:9222   */\n      swap1\n      pop\n        /* \"#utility.yul\":9232:9303   */\n      tag_269\n        /* \"#utility.yul\":9300:9301   */\n      0x00\n        /* \"#utility.yul\":9289:9298   */\n      dup4\n        /* \"#utility.yul\":9285:9302   */\n      add\n        /* \"#utility.yul\":9276:9282   */\n      dup11\n        /* \"#utility.yul\":9232:9303   */\n      tag_140\n      jump\t// in\n    tag_269:\n        /* \"#utility.yul\":9313:9385   */\n      tag_270\n        /* \"#utility.yul\":9381:9383   */\n      0x20\n        /* \"#utility.yul\":9370:9379   */\n      dup4\n        /* \"#utility.yul\":9366:9384   */\n      add\n        /* \"#utility.yul\":9357:9363   */\n      dup10\n        /* \"#utility.yul\":9313:9385   */\n      tag_140\n      jump\t// in\n    tag_270:\n        /* \"#utility.yul\":9432:9441   */\n      dup2\n        /* \"#utility.yul\":9426:9430   */\n      dup2\n        /* \"#utility.yul\":9422:9442   */\n      sub\n        /* \"#utility.yul\":9417:9419   */\n      0x40\n        /* \"#utility.yul\":9406:9415   */\n      dup4\n        /* \"#utility.yul\":9402:9420   */\n      add\n        /* \"#utility.yul\":9395:9443   */\n      mstore\n        /* \"#utility.yul\":9460:9538   */\n      tag_271\n        /* \"#utility.yul\":9533:9537   */\n      dup2\n        /* \"#utility.yul\":9524:9530   */\n      dup9\n        /* \"#utility.yul\":9460:9538   */\n      tag_142\n      jump\t// in\n    tag_271:\n        /* \"#utility.yul\":9452:9538   */\n      swap1\n      pop\n        /* \"#utility.yul\":9548:9620   */\n      tag_272\n        /* \"#utility.yul\":9616:9618   */\n      0x60\n        /* \"#utility.yul\":9605:9614   */\n      dup4\n        /* \"#utility.yul\":9601:9619   */\n      add\n        /* \"#utility.yul\":9592:9598   */\n      dup8\n        /* \"#utility.yul\":9548:9620   */\n      tag_140\n      jump\t// in\n    tag_272:\n        /* \"#utility.yul\":9668:9677   */\n      dup2\n        /* \"#utility.yul\":9662:9666   */\n      dup2\n        /* \"#utility.yul\":9658:9678   */\n      sub\n        /* \"#utility.yul\":9652:9655   */\n      0x80\n        /* \"#utility.yul\":9641:9650   */\n      dup4\n        /* \"#utility.yul\":9637:9656   */\n      add\n        /* \"#utility.yul\":9630:9679   */\n      mstore\n        /* \"#utility.yul\":9696:9774   */\n      tag_273\n        /* \"#utility.yul\":9769:9773   */\n      dup2\n        /* \"#utility.yul\":9760:9766   */\n      dup7\n        /* \"#utility.yul\":9696:9774   */\n      tag_142\n      jump\t// in\n    tag_273:\n        /* \"#utility.yul\":9688:9774   */\n      swap1\n      pop\n        /* \"#utility.yul\":9784:9873   */\n      tag_274\n        /* \"#utility.yul\":9868:9871   */\n      0xa0\n        /* \"#utility.yul\":9857:9866   */\n      dup4\n        /* \"#utility.yul\":9853:9872   */\n      add\n        /* \"#utility.yul\":9844:9850   */\n      dup6\n        /* \"#utility.yul\":9784:9873   */\n      tag_143\n      jump\t// in\n    tag_274:\n        /* \"#utility.yul\":9883:9950   */\n      tag_275\n        /* \"#utility.yul\":9945:9948   */\n      0xc0\n        /* \"#utility.yul\":9934:9943   */\n      dup4\n        /* \"#utility.yul\":9930:9949   */\n      add\n        /* \"#utility.yul\":9921:9927   */\n      dup5\n        /* \"#utility.yul\":9883:9950   */\n      tag_144\n      jump\t// in\n    tag_275:\n        /* \"#utility.yul\":8869:9957   */\n      swap9\n      swap8\n      pop\n      pop\n      pop\n      pop\n      pop\n      pop\n      pop\n      pop\n      jump\t// out\n        /* \"#utility.yul\":9963:10185   */\n    tag_28:\n        /* \"#utility.yul\":10056:10060   */\n      0x00\n        /* \"#utility.yul\":10094:10096   */\n      0x20\n        /* \"#utility.yul\":10083:10092   */\n      dup3\n        /* \"#utility.yul\":10079:10097   */\n      add\n        /* \"#utility.yul\":10071:10097   */\n      swap1\n      pop\n        /* \"#utility.yul\":10107:10178   */\n      tag_277\n        /* \"#utility.yul\":10175:10176   */\n      0x00\n        /* \"#utility.yul\":10164:10173   */\n      dup4\n        /* \"#utility.yul\":10160:10177   */\n      add\n        /* \"#utility.yul\":10151:10157   */\n      dup5\n        /* \"#utility.yul\":10107:10178   */\n      tag_140\n      jump\t// in\n    tag_277:\n        /* \"#utility.yul\":9963:10185   */\n      swap3\n      swap2\n      pop\n      pop\n      jump\t// out\n        /* \"#utility.yul\":10191:10308   */\n    tag_145:\n        /* \"#utility.yul\":10300:10301   */\n      0x00\n        /* \"#utility.yul\":10297:10298   */\n      dup1\n        /* \"#utility.yul\":10290:10302   */\n      revert\n        /* \"#utility.yul\":10314:10431   */\n    tag_146:\n        /* \"#utility.yul\":10423:10424   */\n      0x00\n        /* \"#utility.yul\":10420:10421   */\n      dup1\n        /* \"#utility.yul\":10413:10425   */\n      revert\n        /* \"#utility.yul\":10437:10617   */\n    tag_59:\n        /* \"#utility.yul\":10485:10562   */\n      0x4e487b7100000000000000000000000000000000000000000000000000000000\n        /* \"#utility.yul\":10482:10483   */\n      0x00\n        /* \"#utility.yul\":10475:10563   */\n      mstore\n        /* \"#utility.yul\":10582:10586   */\n      0x41\n        /* \"#utility.yul\":10579:10580   */\n      0x04\n        /* \"#utility.yul\":10572:10587   */\n      mstore\n        /* \"#utility.yul\":10606:10610   */\n      0x24\n        /* \"#utility.yul\":10603:10604   */\n      0x00\n        /* \"#utility.yul\":10596:10611   */\n      revert\n        /* \"#utility.yul\":10623:10904   */\n    tag_147:\n        /* \"#utility.yul\":10706:10733   */\n      tag_282\n        /* \"#utility.yul\":10728:10732   */\n      dup3\n        /* \"#utility.yul\":10706:10733   */\n      tag_131\n      jump\t// in\n    tag_282:\n        /* \"#utility.yul\":10698:10704   */\n      dup2\n        /* \"#utility.yul\":10694:10734   */\n      add\n        /* \"#utility.yul\":10836:10842   */\n      dup2\n        /* \"#utility.yul\":10824:10834   */\n      dup2\n        /* \"#utility.yul\":10821:10843   */\n      lt\n        /* \"#utility.yul\":10800:10818   */\n      0xffffffffffffffff\n        /* \"#utility.yul\":10788:10798   */\n      dup3\n        /* \"#utility.yul\":10785:10819   */\n      gt\n        /* \"#utility.yul\":10782:10844   */\n      or\n        /* \"#utility.yul\":10779:10867   */\n      iszero\n      tag_283\n      jumpi\n        /* \"#utility.yul\":10847:10865   */\n      tag_284\n      tag_59\n      jump\t// in\n    tag_284:\n        /* \"#utility.yul\":10779:10867   */\n    tag_283:\n        /* \"#utility.yul\":10887:10897   */\n      dup1\n        /* \"#utility.yul\":10883:10885   */\n      0x40\n        /* \"#utility.yul\":10876:10898   */\n      mstore\n        /* \"#utility.yul\":10666:10904   */\n      pop\n        /* \"#utility.yul\":10623:10904   */\n      pop\n      pop\n      jump\t// out\n        /* \"#utility.yul\":10910:11039   */\n    tag_148:\n        /* \"#utility.yul\":10944:10950   */\n      0x00\n        /* \"#utility.yul\":10971:10991   */\n      tag_286\n      tag_114\n      jump\t// in\n    tag_286:\n        /* \"#utility.yul\":10961:10991   */\n      swap1\n      pop\n        /* \"#utility.yul\":11000:11033   */\n      tag_287\n        /* \"#utility.yul\":11028:11032   */\n      dup3\n        /* \"#utility.yul\":11020:11026   */\n      dup3\n        /* \"#utility.yul\":11000:11033   */\n      tag_147\n      jump\t// in\n    tag_287:\n        /* \"#utility.yul\":10910:11039   */\n      swap2\n      swap1\n      pop\n      jump\t// out\n        /* \"#utility.yul\":11045:11353   */\n    tag_149:\n        /* \"#utility.yul\":11107:11111   */\n      0x00\n        /* \"#utility.yul\":11197:11215   */\n      0xffffffffffffffff\n        /* \"#utility.yul\":11189:11195   */\n      dup3\n        /* \"#utility.yul\":11186:11216   */\n      gt\n        /* \"#utility.yul\":11183:11239   */\n      iszero\n      tag_289\n      jumpi\n        /* \"#utility.yul\":11219:11237   */\n      tag_290\n      tag_59\n      jump\t// in\n    tag_290:\n        /* \"#utility.yul\":11183:11239   */\n    tag_289:\n        /* \"#utility.yul\":11257:11286   */\n      tag_291\n        /* \"#utility.yul\":11279:11285   */\n      dup3\n        /* \"#utility.yul\":11257:11286   */\n      tag_131\n      jump\t// in\n    tag_291:\n        /* \"#utility.yul\":11249:11286   */\n      swap1\n      pop\n        /* \"#utility.yul\":11341:11345   */\n      0x20\n        /* \"#utility.yul\":11335:11339   */\n      dup2\n        /* \"#utility.yul\":11331:11346   */\n      add\n        /* \"#utility.yul\":11323:11346   */\n      swap1\n      pop\n        /* \"#utility.yul\":11045:11353   */\n      swap2\n      swap1\n      pop\n      jump\t// out\n        /* \"#utility.yul\":11359:11505   */\n    tag_150:\n        /* \"#utility.yul\":11456:11462   */\n      dup3\n        /* \"#utility.yul\":11451:11454   */\n      dup2\n        /* \"#utility.yul\":11446:11449   */\n      dup4\n        /* \"#utility.yul\":11433:11463   */\n      calldatacopy\n        /* \"#utility.yul\":11497:11498   */\n      0x00\n        /* \"#utility.yul\":11488:11494   */\n      dup4\n        /* \"#utility.yul\":11483:11486   */\n      dup4\n        /* \"#utility.yul\":11479:11495   */\n      add\n        /* \"#utility.yul\":11472:11499   */\n      mstore\n        /* \"#utility.yul\":11359:11505   */\n      pop\n      pop\n      pop\n      jump\t// out\n        /* \"#utility.yul\":11511:11936   */\n    tag_151:\n        /* \"#utility.yul\":11589:11594   */\n      0x00\n        /* \"#utility.yul\":11614:11680   */\n      tag_294\n        /* \"#utility.yul\":11630:11679   */\n      tag_295\n        /* \"#utility.yul\":11672:11678   */\n      dup5\n        /* \"#utility.yul\":11630:11679   */\n      tag_149\n      jump\t// in\n    tag_295:\n        /* \"#utility.yul\":11614:11680   */\n      tag_148\n      jump\t// in\n    tag_294:\n        /* \"#utility.yul\":11605:11680   */\n      swap1\n      pop\n        /* \"#utility.yul\":11703:11709   */\n      dup3\n        /* \"#utility.yul\":11696:11701   */\n      dup2\n        /* \"#utility.yul\":11689:11710   */\n      mstore\n        /* \"#utility.yul\":11741:11745   */\n      0x20\n        /* \"#utility.yul\":11734:11739   */\n      dup2\n        /* \"#utility.yul\":11730:11746   */\n      add\n        /* \"#utility.yul\":11779:11782   */\n      dup5\n        /* \"#utility.yul\":11770:11776   */\n      dup5\n        /* \"#utility.yul\":11765:11768   */\n      dup5\n        /* \"#utility.yul\":11761:11777   */\n      add\n        /* \"#utility.yul\":11758:11783   */\n      gt\n        /* \"#utility.yul\":11755:11867   */\n      iszero\n      tag_296\n      jumpi\n        /* \"#utility.yul\":11786:11865   */\n      tag_297\n      tag_146\n      jump\t// in\n    tag_297:\n        /* \"#utility.yul\":11755:11867   */\n    tag_296:\n        /* \"#utility.yul\":11876:11930   */\n      tag_298\n        /* \"#utility.yul\":11923:11929   */\n      dup5\n        /* \"#utility.yul\":11918:11921   */\n      dup3\n        /* \"#utility.yul\":11913:11916   */\n      dup6\n        /* \"#utility.yul\":11876:11930   */\n      tag_150\n      jump\t// in\n    tag_298:\n        /* \"#utility.yul\":11595:11936   */\n      pop\n        /* \"#utility.yul\":11511:11936   */\n      swap4\n      swap3\n      pop\n      pop\n      pop\n      jump\t// out\n        /* \"#utility.yul\":11956:12296   */\n    tag_152:\n        /* \"#utility.yul\":12012:12017   */\n      0x00\n        /* \"#utility.yul\":12061:12064   */\n      dup3\n        /* \"#utility.yul\":12054:12058   */\n      0x1f\n        /* \"#utility.yul\":12046:12052   */\n      dup4\n        /* \"#utility.yul\":12042:12059   */\n      add\n        /* \"#utility.yul\":12038:12065   */\n      slt\n        /* \"#utility.yul\":12028:12150   */\n      tag_300\n      jumpi\n        /* \"#utility.yul\":12069:12148   */\n      tag_301\n      tag_145\n      jump\t// in\n    tag_301:\n        /* \"#utility.yul\":12028:12150   */\n    tag_300:\n        /* \"#utility.yul\":12186:12192   */\n      dup2\n        /* \"#utility.yul\":12173:12193   */\n      calldataload\n        /* \"#utility.yul\":12211:12290   */\n      tag_302\n        /* \"#utility.yul\":12286:12289   */\n      dup5\n        /* \"#utility.yul\":12278:12284   */\n      dup3\n        /* \"#utility.yul\":12271:12275   */\n      0x20\n        /* \"#utility.yul\":12263:12269   */\n      dup7\n        /* \"#utility.yul\":12259:12276   */\n      add\n        /* \"#utility.yul\":12211:12290   */\n      tag_151\n      jump\t// in\n    tag_302:\n        /* \"#utility.yul\":12202:12290   */\n      swap2\n      pop\n        /* \"#utility.yul\":12018:12296   */\n      pop\n        /* \"#utility.yul\":11956:12296   */\n      swap3\n      swap2\n      pop\n      pop\n      jump\t// out\n        /* \"#utility.yul\":12302:12398   */\n    tag_153:\n        /* \"#utility.yul\":12339:12346   */\n      0x00\n        /* \"#utility.yul\":12368:12392   */\n      tag_304\n        /* \"#utility.yul\":12386:12391   */\n      dup3\n        /* \"#utility.yul\":12368:12392   */\n      tag_120\n      jump\t// in\n    tag_304:\n        /* \"#utility.yul\":12357:12392   */\n      swap1\n      pop\n        /* \"#utility.yul\":12302:12398   */\n      swap2\n      swap1\n      pop\n      jump\t// out\n        /* \"#utility.yul\":12404:12526   */\n    tag_154:\n        /* \"#utility.yul\":12477:12501   */\n      tag_306\n        /* \"#utility.yul\":12495:12500   */\n      dup2\n        /* \"#utility.yul\":12477:12501   */\n      tag_153\n      jump\t// in\n    tag_306:\n        /* \"#utility.yul\":12470:12475   */\n      dup2\n        /* \"#utility.yul\":12467:12502   */\n      eq\n        /* \"#utility.yul\":12457:12520   */\n      tag_307\n      jumpi\n        /* \"#utility.yul\":12516:12517   */\n      0x00\n        /* \"#utility.yul\":12513:12514   */\n      dup1\n        /* \"#utility.yul\":12506:12518   */\n      revert\n        /* \"#utility.yul\":12457:12520   */\n    tag_307:\n        /* \"#utility.yul\":12404:12526   */\n      pop\n      jump\t// out\n        /* \"#utility.yul\":12532:12671   */\n    tag_155:\n        /* \"#utility.yul\":12578:12583   */\n      0x00\n        /* \"#utility.yul\":12616:12622   */\n      dup2\n        /* \"#utility.yul\":12603:12623   */\n      calldataload\n        /* \"#utility.yul\":12594:12623   */\n      swap1\n      pop\n        /* \"#utility.yul\":12632:12665   */\n      tag_309\n        /* \"#utility.yul\":12659:12664   */\n      dup2\n        /* \"#utility.yul\":12632:12665   */\n      tag_154\n      jump\t// in\n    tag_309:\n        /* \"#utility.yul\":12532:12671   */\n      swap3\n      swap2\n      pop\n      pop\n      jump\t// out\n        /* \"#utility.yul\":12677:12793   */\n    tag_156:\n        /* \"#utility.yul\":12747:12768   */\n      tag_311\n        /* \"#utility.yul\":12762:12767   */\n      dup2\n        /* \"#utility.yul\":12747:12768   */\n      tag_134\n      jump\t// in\n    tag_311:\n        /* \"#utility.yul\":12740:12745   */\n      dup2\n        /* \"#utility.yul\":12737:12769   */\n      eq\n        /* \"#utility.yul\":12727:12787   */\n      tag_312\n      jumpi\n        /* \"#utility.yul\":12783:12784   */\n      0x00\n        /* \"#utility.yul\":12780:12781   */\n      dup1\n        /* \"#utility.yul\":12773:12785   */\n      revert\n        /* \"#utility.yul\":12727:12787   */\n    tag_312:\n        /* \"#utility.yul\":12677:12793   */\n      pop\n      jump\t// out\n        /* \"#utility.yul\":12799:12932   */\n    tag_157:\n        /* \"#utility.yul\":12842:12847   */\n      0x00\n        /* \"#utility.yul\":12880:12886   */\n      dup2\n        /* \"#utility.yul\":12867:12887   */\n      calldataload\n        /* \"#utility.yul\":12858:12887   */\n      swap1\n      pop\n        /* \"#utility.yul\":12896:12926   */\n      tag_314\n        /* \"#utility.yul\":12920:12925   */\n      dup2\n        /* \"#utility.yul\":12896:12926   */\n      tag_156\n      jump\t// in\n    tag_314:\n        /* \"#utility.yul\":12799:12932   */\n      swap3\n      swap2\n      pop\n      pop\n      jump\t// out\n        /* \"#utility.yul\":12938:14349   */\n    tag_32:\n        /* \"#utility.yul\":13059:13065   */\n      0x00\n        /* \"#utility.yul\":13067:13073   */\n      dup1\n        /* \"#utility.yul\":13075:13081   */\n      0x00\n        /* \"#utility.yul\":13083:13089   */\n      dup1\n        /* \"#utility.yul\":13091:13097   */\n      0x00\n        /* \"#utility.yul\":13099:13105   */\n      dup1\n        /* \"#utility.yul\":13148:13151   */\n      0xc0\n        /* \"#utility.yul\":13136:13145   */\n      dup8\n        /* \"#utility.yul\":13127:13134   */\n      dup10\n        /* \"#utility.yul\":13123:13146   */\n      sub\n        /* \"#utility.yul\":13119:13152   */\n      slt\n        /* \"#utility.yul\":13116:13236   */\n      iszero\n      tag_316\n      jumpi\n        /* \"#utility.yul\":13155:13234   */\n      tag_317\n      tag_115\n      jump\t// in\n    tag_317:\n        /* \"#utility.yul\":13116:13236   */\n    tag_316:\n        /* \"#utility.yul\":13275:13276   */\n      0x00\n        /* \"#utility.yul\":13300:13353   */\n      tag_318\n        /* \"#utility.yul\":13345:13352   */\n      dup10\n        /* \"#utility.yul\":13336:13342   */\n      dup3\n        /* \"#utility.yul\":13325:13334   */\n      dup11\n        /* \"#utility.yul\":13321:13343   */\n      add\n        /* \"#utility.yul\":13300:13353   */\n      tag_119\n      jump\t// in\n    tag_318:\n        /* \"#utility.yul\":13290:13353   */\n      swap7\n      pop\n        /* \"#utility.yul\":13246:13363   */\n      pop\n        /* \"#utility.yul\":13430:13432   */\n      0x20\n        /* \"#utility.yul\":13419:13428   */\n      dup8\n        /* \"#utility.yul\":13415:13433   */\n      add\n        /* \"#utility.yul\":13402:13434   */\n      calldataload\n        /* \"#utility.yul\":13461:13479   */\n      0xffffffffffffffff\n        /* \"#utility.yul\":13453:13459   */\n      dup2\n        /* \"#utility.yul\":13450:13480   */\n      gt\n        /* \"#utility.yul\":13447:13564   */\n      iszero\n      tag_319\n      jumpi\n        /* \"#utility.yul\":13483:13562   */\n      tag_320\n      tag_116\n      jump\t// in\n    tag_320:\n        /* \"#utility.yul\":13447:13564   */\n    tag_319:\n        /* \"#utility.yul\":13588:13651   */\n      tag_321\n        /* \"#utility.yul\":13643:13650   */\n      dup10\n        /* \"#utility.yul\":13634:13640   */\n      dup3\n        /* \"#utility.yul\":13623:13632   */\n      dup11\n        /* \"#utility.yul\":13619:13641   */\n      add\n        /* \"#utility.yul\":13588:13651   */\n      tag_152\n      jump\t// in\n    tag_321:\n        /* \"#utility.yul\":13578:13651   */\n      swap6\n      pop\n        /* \"#utility.yul\":13373:13661   */\n      pop\n        /* \"#utility.yul\":13700:13702   */\n      0x40\n        /* \"#utility.yul\":13726:13779   */\n      tag_322\n        /* \"#utility.yul\":13771:13778   */\n      dup10\n        /* \"#utility.yul\":13762:13768   */\n      dup3\n        /* \"#utility.yul\":13751:13760   */\n      dup11\n        /* \"#utility.yul\":13747:13769   */\n      add\n        /* \"#utility.yul\":13726:13779   */\n      tag_119\n      jump\t// in\n    tag_322:\n        /* \"#utility.yul\":13716:13779   */\n      swap5\n      pop\n        /* \"#utility.yul\":13671:13789   */\n      pop\n        /* \"#utility.yul\":13856:13858   */\n      0x60\n        /* \"#utility.yul\":13845:13854   */\n      dup8\n        /* \"#utility.yul\":13841:13859   */\n      add\n        /* \"#utility.yul\":13828:13860   */\n      calldataload\n        /* \"#utility.yul\":13887:13905   */\n      0xffffffffffffffff\n        /* \"#utility.yul\":13879:13885   */\n      dup2\n        /* \"#utility.yul\":13876:13906   */\n      gt\n        /* \"#utility.yul\":13873:13990   */\n      iszero\n      tag_323\n      jumpi\n        /* \"#utility.yul\":13909:13988   */\n      tag_324\n      tag_116\n      jump\t// in\n    tag_324:\n        /* \"#utility.yul\":13873:13990   */\n    tag_323:\n        /* \"#utility.yul\":14014:14077   */\n      tag_325\n        /* \"#utility.yul\":14069:14076   */\n      dup10\n        /* \"#utility.yul\":14060:14066   */\n      dup3\n        /* \"#utility.yul\":14049:14058   */\n      dup11\n        /* \"#utility.yul\":14045:14067   */\n      add\n        /* \"#utility.yul\":14014:14077   */\n      tag_152\n      jump\t// in\n    tag_325:\n        /* \"#utility.yul\":14004:14077   */\n      swap4\n      pop\n        /* \"#utility.yul\":13799:14087   */\n      pop\n        /* \"#utility.yul\":14126:14129   */\n      0x80\n        /* \"#utility.yul\":14153:14206   */\n      tag_326\n        /* \"#utility.yul\":14198:14205   */\n      dup10\n        /* \"#utility.yul\":14189:14195   */\n      dup3\n        /* \"#utility.yul\":14178:14187   */\n      dup11\n        /* \"#utility.yul\":14174:14196   */\n      add\n        /* \"#utility.yul\":14153:14206   */\n      tag_155\n      jump\t// in\n    tag_326:\n        /* \"#utility.yul\":14143:14206   */\n      swap3\n      pop\n        /* \"#utility.yul\":14097:14216   */\n      pop\n        /* \"#utility.yul\":14255:14258   */\n      0xa0\n        /* \"#utility.yul\":14282:14332   */\n      tag_327\n        /* \"#utility.yul\":14324:14331   */\n      dup10\n        /* \"#utility.yul\":14315:14321   */\n      dup3\n        /* \"#utility.yul\":14304:14313   */\n      dup11\n        /* \"#utility.yul\":14300:14322   */\n      add\n        /* \"#utility.yul\":14282:14332   */\n      tag_157\n      jump\t// in\n    tag_327:\n        /* \"#utility.yul\":14272:14332   */\n      swap2\n      pop\n        /* \"#utility.yul\":14226:14342   */\n      pop\n        /* \"#utility.yul\":12938:14349   */\n      swap3\n      swap6\n      pop\n      swap3\n      swap6\n      pop\n      swap3\n      swap6\n      jump\t// out\n        /* \"#utility.yul\":14355:14535   */\n    tag_158:\n        /* \"#utility.yul\":14403:14480   */\n      0x4e487b7100000000000000000000000000000000000000000000000000000000\n        /* \"#utility.yul\":14400:14401   */\n      0x00\n        /* \"#utility.yul\":14393:14481   */\n      mstore\n        /* \"#utility.yul\":14500:14504   */\n      0x22\n        /* \"#utility.yul\":14497:14498   */\n      0x04\n        /* \"#utility.yul\":14490:14505   */\n      mstore\n        /* \"#utility.yul\":14524:14528   */\n      0x24\n        /* \"#utility.yul\":14521:14522   */\n      0x00\n        /* \"#utility.yul\":14514:14529   */\n      revert\n        /* \"#utility.yul\":14541:14861   */\n    tag_36:\n        /* \"#utility.yul\":14585:14591   */\n      0x00\n        /* \"#utility.yul\":14622:14623   */\n      0x02\n        /* \"#utility.yul\":14616:14620   */\n      dup3\n        /* \"#utility.yul\":14612:14624   */\n      div\n        /* \"#utility.yul\":14602:14624   */\n      swap1\n      pop\n        /* \"#utility.yul\":14669:14670   */\n      0x01\n        /* \"#utility.yul\":14663:14667   */\n      dup3\n        /* \"#utility.yul\":14659:14671   */\n      and\n        /* \"#utility.yul\":14690:14708   */\n      dup1\n        /* \"#utility.yul\":14680:14761   */\n      tag_330\n      jumpi\n        /* \"#utility.yul\":14746:14750   */\n      0x7f\n        /* \"#utility.yul\":14738:14744   */\n      dup3\n        /* \"#utility.yul\":14734:14751   */\n      and\n        /* \"#utility.yul\":14724:14751   */\n      swap2\n      pop\n        /* \"#utility.yul\":14680:14761   */\n    tag_330:\n        /* \"#utility.yul\":14808:14810   */\n      0x20\n        /* \"#utility.yul\":14800:14806   */\n      dup3\n        /* \"#utility.yul\":14797:14811   */\n      lt\n        /* \"#utility.yul\":14777:14795   */\n      dup2\n        /* \"#utility.yul\":14774:14812   */\n      sub\n        /* \"#utility.yul\":14771:14855   */\n      tag_331\n      jumpi\n        /* \"#utility.yul\":14827:14845   */\n      tag_332\n      tag_158\n      jump\t// in\n    tag_332:\n        /* \"#utility.yul\":14771:14855   */\n    tag_331:\n        /* \"#utility.yul\":14592:14861   */\n      pop\n        /* \"#utility.yul\":14541:14861   */\n      swap2\n      swap1\n      pop\n      jump\t// out\n        /* \"#utility.yul\":14867:15036   */\n    tag_159:\n        /* \"#utility.yul\":15007:15028   */\n      0x43617220697320616c726561647920536f6c6400000000000000000000000000\n        /* \"#utility.yul\":15003:15004   */\n      0x00\n        /* \"#utility.yul\":14995:15001   */\n      dup3\n        /* \"#utility.yul\":14991:15005   */\n      add\n        /* \"#utility.yul\":14984:15029   */\n      mstore\n        /* \"#utility.yul\":14867:15036   */\n      pop\n      jump\t// out\n        /* \"#utility.yul\":15042:15408   */\n    tag_160:\n        /* \"#utility.yul\":15184:15187   */\n      0x00\n        /* \"#utility.yul\":15205:15272   */\n      tag_335\n        /* \"#utility.yul\":15269:15271   */\n      0x13\n        /* \"#utility.yul\":15264:15267   */\n      dup4\n        /* \"#utility.yul\":15205:15272   */\n      tag_141\n      jump\t// in\n    tag_335:\n        /* \"#utility.yul\":15198:15272   */\n      swap2\n      pop\n        /* \"#utility.yul\":15281:15374   */\n      tag_336\n        /* \"#utility.yul\":15370:15373   */\n      dup3\n        /* \"#utility.yul\":15281:15374   */\n      tag_159\n      jump\t// in\n    tag_336:\n        /* \"#utility.yul\":15399:15401   */\n      0x20\n        /* \"#utility.yul\":15394:15397   */\n      dup3\n        /* \"#utility.yul\":15390:15402   */\n      add\n        /* \"#utility.yul\":15383:15402   */\n      swap1\n      pop\n        /* \"#utility.yul\":15042:15408   */\n      swap2\n      swap1\n      pop\n      jump\t// out\n        /* \"#utility.yul\":15414:15833   */\n    tag_48:\n        /* \"#utility.yul\":15580:15584   */\n      0x00\n        /* \"#utility.yul\":15618:15620   */\n      0x20\n        /* \"#utility.yul\":15607:15616   */\n      dup3\n        /* \"#utility.yul\":15603:15621   */\n      add\n        /* \"#utility.yul\":15595:15621   */\n      swap1\n      pop\n        /* \"#utility.yul\":15667:15676   */\n      dup2\n        /* \"#utility.yul\":15661:15665   */\n      dup2\n        /* \"#utility.yul\":15657:15677   */\n      sub\n        /* \"#utility.yul\":15653:15654   */\n      0x00\n        /* \"#utility.yul\":15642:15651   */\n      dup4\n        /* \"#utility.yul\":15638:15655   */\n      add\n        /* \"#utility.yul\":15631:15678   */\n      mstore\n        /* \"#utility.yul\":15695:15826   */\n      tag_338\n        /* \"#utility.yul\":15821:15825   */\n      dup2\n        /* \"#utility.yul\":15695:15826   */\n      tag_160\n      jump\t// in\n    tag_338:\n        /* \"#utility.yul\":15687:15826   */\n      swap1\n      pop\n        /* \"#utility.yul\":15414:15833   */\n      swap2\n      swap1\n      pop\n      jump\t// out\n        /* \"#utility.yul\":15839:16004   */\n    tag_161:\n        /* \"#utility.yul\":15979:15996   */\n      0x57726f6e67204361722070726963650000000000000000000000000000000000\n        /* \"#utility.yul\":15975:15976   */\n      0x00\n        /* \"#utility.yul\":15967:15973   */\n      dup3\n        /* \"#utility.yul\":15963:15977   */\n      add\n        /* \"#utility.yul\":15956:15997   */\n      mstore\n        /* \"#utility.yul\":15839:16004   */\n      pop\n      jump\t// out\n        /* \"#utility.yul\":16010:16376   */\n    tag_162:\n        /* \"#utility.yul\":16152:16155   */\n      0x00\n        /* \"#utility.yul\":16173:16240   */\n      tag_341\n        /* \"#utility.yul\":16237:16239   */\n      0x0f\n        /* \"#utility.yul\":16232:16235   */\n      dup4\n        /* \"#utility.yul\":16173:16240   */\n      tag_141\n      jump\t// in\n    tag_341:\n        /* \"#utility.yul\":16166:16240   */\n      swap2\n      pop\n        /* \"#utility.yul\":16249:16342   */\n      tag_342\n        /* \"#utility.yul\":16338:16341   */\n      dup3\n        /* \"#utility.yul\":16249:16342   */\n      tag_161\n      jump\t// in\n    tag_342:\n        /* \"#utility.yul\":16367:16369   */\n      0x20\n        /* \"#utility.yul\":16362:16365   */\n      dup3\n        /* \"#utility.yul\":16358:16370   */\n      add\n        /* \"#utility.yul\":16351:16370   */\n      swap1\n      pop\n        /* \"#utility.yul\":16010:16376   */\n      swap2\n      swap1\n      pop\n      jump\t// out\n        /* \"#utility.yul\":16382:16801   */\n    tag_51:\n        /* \"#utility.yul\":16548:16552   */\n      0x00\n        /* \"#utility.yul\":16586:16588   */\n      0x20\n        /* \"#utility.yul\":16575:16584   */\n      dup3\n        /* \"#utility.yul\":16571:16589   */\n      add\n        /* \"#utility.yul\":16563:16589   */\n      swap1\n      pop\n        /* \"#utility.yul\":16635:16644   */\n      dup2\n        /* \"#utility.yul\":16629:16633   */\n      dup2\n        /* \"#utility.yul\":16625:16645   */\n      sub\n        /* \"#utility.yul\":16621:16622   */\n      0x00\n        /* \"#utility.yul\":16610:16619   */\n      dup4\n        /* \"#utility.yul\":16606:16623   */\n      add\n        /* \"#utility.yul\":16599:16646   */\n      mstore\n        /* \"#utility.yul\":16663:16794   */\n      tag_344\n        /* \"#utility.yul\":16789:16793   */\n      dup2\n        /* \"#utility.yul\":16663:16794   */\n      tag_162\n      jump\t// in\n    tag_344:\n        /* \"#utility.yul\":16655:16794   */\n      swap1\n      pop\n        /* \"#utility.yul\":16382:16801   */\n      swap2\n      swap1\n      pop\n      jump\t// out\n        /* \"#utility.yul\":16807:16867   */\n    tag_163:\n        /* \"#utility.yul\":16835:16838   */\n      0x00\n        /* \"#utility.yul\":16856:16861   */\n      dup2\n        /* \"#utility.yul\":16849:16861   */\n      swap1\n      pop\n        /* \"#utility.yul\":16807:16867   */\n      swap2\n      swap1\n      pop\n      jump\t// out\n        /* \"#utility.yul\":16873:17015   */\n    tag_164:\n        /* \"#utility.yul\":16923:16932   */\n      0x00\n        /* \"#utility.yul\":16956:17009   */\n      tag_347\n        /* \"#utility.yul\":16974:17008   */\n      tag_348\n        /* \"#utility.yul\":16983:17007   */\n      tag_349\n        /* \"#utility.yul\":17001:17006   */\n      dup5\n        /* \"#utility.yul\":16983:17007   */\n      tag_120\n      jump\t// in\n    tag_349:\n        /* \"#utility.yul\":16974:17008   */\n      tag_163\n      jump\t// in\n    tag_348:\n        /* \"#utility.yul\":16956:17009   */\n      tag_120\n      jump\t// in\n    tag_347:\n        /* \"#utility.yul\":16943:17009   */\n      swap1\n      pop\n        /* \"#utility.yul\":16873:17015   */\n      swap2\n      swap1\n      pop\n      jump\t// out\n        /* \"#utility.yul\":17021:17147   */\n    tag_165:\n        /* \"#utility.yul\":17071:17080   */\n      0x00\n        /* \"#utility.yul\":17104:17141   */\n      tag_351\n        /* \"#utility.yul\":17135:17140   */\n      dup3\n        /* \"#utility.yul\":17104:17141   */\n      tag_164\n      jump\t// in\n    tag_351:\n        /* \"#utility.yul\":17091:17141   */\n      swap1\n      pop\n        /* \"#utility.yul\":17021:17147   */\n      swap2\n      swap1\n      pop\n      jump\t// out\n        /* \"#utility.yul\":17153:17287   */\n    tag_166:\n        /* \"#utility.yul\":17211:17220   */\n      0x00\n        /* \"#utility.yul\":17244:17281   */\n      tag_353\n        /* \"#utility.yul\":17275:17280   */\n      dup3\n        /* \"#utility.yul\":17244:17281   */\n      tag_165\n      jump\t// in\n    tag_353:\n        /* \"#utility.yul\":17231:17281   */\n      swap1\n      pop\n        /* \"#utility.yul\":17153:17287   */\n      swap2\n      swap1\n      pop\n      jump\t// out\n        /* \"#utility.yul\":17293:17440   */\n    tag_167:\n        /* \"#utility.yul\":17388:17433   */\n      tag_355\n        /* \"#utility.yul\":17427:17432   */\n      dup2\n        /* \"#utility.yul\":17388:17433   */\n      tag_166\n      jump\t// in\n    tag_355:\n        /* \"#utility.yul\":17383:17386   */\n      dup3\n        /* \"#utility.yul\":17376:17434   */\n      mstore\n        /* \"#utility.yul\":17293:17440   */\n      pop\n      pop\n      jump\t// out\n        /* \"#utility.yul\":17446:17904   */\n    tag_55:\n        /* \"#utility.yul\":17603:17607   */\n      0x00\n        /* \"#utility.yul\":17641:17643   */\n      0x60\n        /* \"#utility.yul\":17630:17639   */\n      dup3\n        /* \"#utility.yul\":17626:17644   */\n      add\n        /* \"#utility.yul\":17618:17644   */\n      swap1\n      pop\n        /* \"#utility.yul\":17654:17725   */\n      tag_357\n        /* \"#utility.yul\":17722:17723   */\n      0x00\n        /* \"#utility.yul\":17711:17720   */\n      dup4\n        /* \"#utility.yul\":17707:17724   */\n      add\n        /* \"#utility.yul\":17698:17704   */\n      dup7\n        /* \"#utility.yul\":17654:17725   */\n      tag_140\n      jump\t// in\n    tag_357:\n        /* \"#utility.yul\":17735:17815   */\n      tag_358\n        /* \"#utility.yul\":17811:17813   */\n      0x20\n        /* \"#utility.yul\":17800:17809   */\n      dup4\n        /* \"#utility.yul\":17796:17814   */\n      add\n        /* \"#utility.yul\":17787:17793   */\n      dup6\n        /* \"#utility.yul\":17735:17815   */\n      tag_167\n      jump\t// in\n    tag_358:\n        /* \"#utility.yul\":17825:17897   */\n      tag_359\n        /* \"#utility.yul\":17893:17895   */\n      0x40\n        /* \"#utility.yul\":17882:17891   */\n      dup4\n        /* \"#utility.yul\":17878:17896   */\n      add\n        /* \"#utility.yul\":17869:17875   */\n      dup5\n        /* \"#utility.yul\":17825:17897   */\n      tag_140\n      jump\t// in\n    tag_359:\n        /* \"#utility.yul\":17446:17904   */\n      swap5\n      swap4\n      pop\n      pop\n      pop\n      pop\n      jump\t// out\n        /* \"#utility.yul\":17910:18090   */\n    tag_69:\n        /* \"#utility.yul\":17958:18035   */\n      0x4e487b7100000000000000000000000000000000000000000000000000000000\n        /* \"#utility.yul\":17955:17956   */\n      0x00\n        /* \"#utility.yul\":17948:18036   */\n      mstore\n        /* \"#utility.yul\":18055:18059   */\n      0x32\n        /* \"#utility.yul\":18052:18053   */\n      0x04\n        /* \"#utility.yul\":18045:18060   */\n      mstore\n        /* \"#utility.yul\":18079:18083   */\n      0x24\n        /* \"#utility.yul\":18076:18077   */\n      0x00\n        /* \"#utility.yul\":18069:18084   */\n      revert\n        /* \"#utility.yul\":18096:18320   */\n    tag_168:\n        /* \"#utility.yul\":18236:18270   */\n      0x4f6e6c7920546865204167656e6379204f776e65722043616e20416464206361\n        /* \"#utility.yul\":18232:18233   */\n      0x00\n        /* \"#utility.yul\":18224:18230   */\n      dup3\n        /* \"#utility.yul\":18220:18234   */\n      add\n        /* \"#utility.yul\":18213:18271   */\n      mstore\n        /* \"#utility.yul\":18305:18312   */\n      0x7273212121000000000000000000000000000000000000000000000000000000\n        /* \"#utility.yul\":18300:18302   */\n      0x20\n        /* \"#utility.yul\":18292:18298   */\n      dup3\n        /* \"#utility.yul\":18288:18303   */\n      add\n        /* \"#utility.yul\":18281:18313   */\n      mstore\n        /* \"#utility.yul\":18096:18320   */\n      pop\n      jump\t// out\n        /* \"#utility.yul\":18326:18692   */\n    tag_169:\n        /* \"#utility.yul\":18468:18471   */\n      0x00\n        /* \"#utility.yul\":18489:18556   */\n      tag_363\n        /* \"#utility.yul\":18553:18555   */\n      0x25\n        /* \"#utility.yul\":18548:18551   */\n      dup4\n        /* \"#utility.yul\":18489:18556   */\n      tag_141\n      jump\t// in\n    tag_363:\n        /* \"#utility.yul\":18482:18556   */\n      swap2\n      pop\n        /* \"#utility.yul\":18565:18658   */\n      tag_364\n        /* \"#utility.yul\":18654:18657   */\n      dup3\n        /* \"#utility.yul\":18565:18658   */\n      tag_168\n      jump\t// in\n    tag_364:\n        /* \"#utility.yul\":18683:18685   */\n      0x40\n        /* \"#utility.yul\":18678:18681   */\n      dup3\n        /* \"#utility.yul\":18674:18686   */\n      add\n        /* \"#utility.yul\":18667:18686   */\n      swap1\n      pop\n        /* \"#utility.yul\":18326:18692   */\n      swap2\n      swap1\n      pop\n      jump\t// out\n        /* \"#utility.yul\":18698:19117   */\n    tag_98:\n        /* \"#utility.yul\":18864:18868   */\n      0x00\n        /* \"#utility.yul\":18902:18904   */\n      0x20\n        /* \"#utility.yul\":18891:18900   */\n      dup3\n        /* \"#utility.yul\":18887:18905   */\n      add\n        /* \"#utility.yul\":18879:18905   */\n      swap1\n      pop\n        /* \"#utility.yul\":18951:18960   */\n      dup2\n        /* \"#utility.yul\":18945:18949   */\n      dup2\n        /* \"#utility.yul\":18941:18961   */\n      sub\n        /* \"#utility.yul\":18937:18938   */\n      0x00\n        /* \"#utility.yul\":18926:18935   */\n      dup4\n        /* \"#utility.yul\":18922:18939   */\n      add\n        /* \"#utility.yul\":18915:18962   */\n      mstore\n        /* \"#utility.yul\":18979:19110   */\n      tag_366\n        /* \"#utility.yul\":19105:19109   */\n      dup2\n        /* \"#utility.yul\":18979:19110   */\n      tag_169\n      jump\t// in\n    tag_366:\n        /* \"#utility.yul\":18971:19110   */\n      swap1\n      pop\n        /* \"#utility.yul\":18698:19117   */\n      swap2\n      swap1\n      pop\n      jump\t// out\n        /* \"#utility.yul\":19123:19264   */\n    tag_170:\n        /* \"#utility.yul\":19172:19176   */\n      0x00\n        /* \"#utility.yul\":19195:19198   */\n      dup2\n        /* \"#utility.yul\":19187:19198   */\n      swap1\n      pop\n        /* \"#utility.yul\":19218:19221   */\n      dup2\n        /* \"#utility.yul\":19215:19216   */\n      0x00\n        /* \"#utility.yul\":19208:19222   */\n      mstore\n        /* \"#utility.yul\":19252:19256   */\n      0x20\n        /* \"#utility.yul\":19249:19250   */\n      0x00\n        /* \"#utility.yul\":19239:19257   */\n      keccak256\n        /* \"#utility.yul\":19231:19257   */\n      swap1\n      pop\n        /* \"#utility.yul\":19123:19264   */\n      swap2\n      swap1\n      pop\n      jump\t// out\n        /* \"#utility.yul\":19270:19363   */\n    tag_171:\n        /* \"#utility.yul\":19307:19313   */\n      0x00\n        /* \"#utility.yul\":19354:19356   */\n      0x20\n        /* \"#utility.yul\":19349:19351   */\n      0x1f\n        /* \"#utility.yul\":19342:19347   */\n      dup4\n        /* \"#utility.yul\":19338:19352   */\n      add\n        /* \"#utility.yul\":19334:19357   */\n      div\n        /* \"#utility.yul\":19324:19357   */\n      swap1\n      pop\n        /* \"#utility.yul\":19270:19363   */\n      swap2\n      swap1\n      pop\n      jump\t// out\n        /* \"#utility.yul\":19369:19476   */\n    tag_172:\n        /* \"#utility.yul\":19413:19421   */\n      0x00\n        /* \"#utility.yul\":19463:19468   */\n      dup3\n        /* \"#utility.yul\":19457:19461   */\n      dup3\n        /* \"#utility.yul\":19453:19469   */\n      shl\n        /* \"#utility.yul\":19432:19469   */\n      swap1\n      pop\n        /* \"#utility.yul\":19369:19476   */\n      swap3\n      swap2\n      pop\n      pop\n      jump\t// out\n        /* \"#utility.yul\":19482:19875   */\n    tag_173:\n        /* \"#utility.yul\":19551:19557   */\n      0x00\n        /* \"#utility.yul\":19601:19602   */\n      0x08\n        /* \"#utility.yul\":19589:19599   */\n      dup4\n        /* \"#utility.yul\":19585:19603   */\n      mul\n        /* \"#utility.yul\":19624:19721   */\n      tag_371\n        /* \"#utility.yul\":19654:19720   */\n      0xffffffffffffffffffffffffffffffffffffffffffffffffffffffffffffffff\n        /* \"#utility.yul\":19643:19652   */\n      dup3\n        /* \"#utility.yul\":19624:19721   */\n      tag_172\n      jump\t// in\n    tag_371:\n        /* \"#utility.yul\":19742:19781   */\n      tag_372\n        /* \"#utility.yul\":19772:19780   */\n      dup7\n        /* \"#utility.yul\":19761:19770   */\n      dup4\n        /* \"#utility.yul\":19742:19781   */\n      tag_172\n      jump\t// in\n    tag_372:\n        /* \"#utility.yul\":19730:19781   */\n      swap6\n      pop\n        /* \"#utility.yul\":19814:19818   */\n      dup1\n        /* \"#utility.yul\":19810:19819   */\n      not\n        /* \"#utility.yul\":19803:19808   */\n      dup5\n        /* \"#utility.yul\":19799:19820   */\n      and\n        /* \"#utility.yul\":19790:19820   */\n      swap4\n      pop\n        /* \"#utility.yul\":19863:19867   */\n      dup1\n        /* \"#utility.yul\":19853:19861   */\n      dup7\n        /* \"#utility.yul\":19849:19868   */\n      and\n        /* \"#utility.yul\":19842:19847   */\n      dup5\n        /* \"#utility.yul\":19839:19869   */\n      or\n        /* \"#utility.yul\":19829:19869   */\n      swap3\n      pop\n        /* \"#utility.yul\":19558:19875   */\n      pop\n      pop\n        /* \"#utility.yul\":19482:19875   */\n      swap4\n      swap3\n      pop\n      pop\n      pop\n      jump\t// out\n        /* \"#utility.yul\":19881:20023   */\n    tag_174:\n        /* \"#utility.yul\":19931:19940   */\n      0x00\n        /* \"#utility.yul\":19964:20017   */\n      tag_374\n        /* \"#utility.yul\":19982:20016   */\n      tag_375\n        /* \"#utility.yul\":19991:20015   */\n      tag_376\n        /* \"#utility.yul\":20009:20014   */\n      dup5\n        /* \"#utility.yul\":19991:20015   */\n      tag_117\n      jump\t// in\n    tag_376:\n        /* \"#utility.yul\":19982:20016   */\n      tag_163\n      jump\t// in\n    tag_375:\n        /* \"#utility.yul\":19964:20017   */\n      tag_117\n      jump\t// in\n    tag_374:\n        /* \"#utility.yul\":19951:20017   */\n      swap1\n      pop\n        /* \"#utility.yul\":19881:20023   */\n      swap2\n      swap1\n      pop\n      jump\t// out\n        /* \"#utility.yul\":20029:20104   */\n    tag_175:\n        /* \"#utility.yul\":20072:20075   */\n      0x00\n        /* \"#utility.yul\":20093:20098   */\n      dup2\n        /* \"#utility.yul\":20086:20098   */\n      swap1\n      pop\n        /* \"#utility.yul\":20029:20104   */\n      swap2\n      swap1\n      pop\n      jump\t// out\n        /* \"#utility.yul\":20110:20379   */\n    tag_176:\n        /* \"#utility.yul\":20220:20259   */\n      tag_379\n        /* \"#utility.yul\":20251:20258   */\n      dup4\n        /* \"#utility.yul\":20220:20259   */\n      tag_174\n      jump\t// in\n    tag_379:\n        /* \"#utility.yul\":20281:20372   */\n      tag_380\n        /* \"#utility.yul\":20330:20371   */\n      tag_381\n        /* \"#utility.yul\":20354:20370   */\n      dup3\n        /* \"#utility.yul\":20330:20371   */\n      tag_175\n      jump\t// in\n    tag_381:\n        /* \"#utility.yul\":20322:20328   */\n      dup5\n        /* \"#utility.yul\":20315:20319   */\n      dup5\n        /* \"#utility.yul\":20309:20320   */\n      sload\n        /* \"#utility.yul\":20281:20372   */\n      tag_173\n      jump\t// in\n    tag_380:\n        /* \"#utility.yul\":20275:20279   */\n      dup3\n        /* \"#utility.yul\":20268:20373   */\n      sstore\n        /* \"#utility.yul\":20186:20379   */\n      pop\n        /* \"#utility.yul\":20110:20379   */\n      pop\n      pop\n      pop\n      jump\t// out\n        /* \"#utility.yul\":20385:20458   */\n    tag_177:\n        /* \"#utility.yul\":20430:20433   */\n      0x00\n        /* \"#utility.yul\":20385:20458   */\n      swap1\n      jump\t// out\n        /* \"#utility.yul\":20464:20653   */\n    tag_178:\n        /* \"#utility.yul\":20541:20573   */\n      tag_384\n      tag_177\n      jump\t// in\n    tag_384:\n        /* \"#utility.yul\":20582:20647   */\n      tag_385\n        /* \"#utility.yul\":20640:20646   */\n      dup2\n        /* \"#utility.yul\":20632:20638   */\n      dup5\n        /* \"#utility.yul\":20626:20630   */\n      dup5\n        /* \"#utility.yul\":20582:20647   */\n      tag_176\n      jump\t// in\n    tag_385:\n        /* \"#utility.yul\":20517:20653   */\n      pop\n        /* \"#utility.yul\":20464:20653   */\n      pop\n      pop\n      jump\t// out\n        /* \"#utility.yul\":20659:20845   */\n    tag_179:\n        /* \"#utility.yul\":20719:20839   */\n    tag_387:\n        /* \"#utility.yul\":20736:20739   */\n      dup2\n        /* \"#utility.yul\":20729:20734   */\n      dup2\n        /* \"#utility.yul\":20726:20740   */\n      lt\n        /* \"#utility.yul\":20719:20839   */\n      iszero\n      tag_389\n      jumpi\n        /* \"#utility.yul\":20790:20829   */\n      tag_390\n        /* \"#utility.yul\":20827:20828   */\n      0x00\n        /* \"#utility.yul\":20820:20825   */\n      dup3\n        /* \"#utility.yul\":20790:20829   */\n      tag_178\n      jump\t// in\n    tag_390:\n        /* \"#utility.yul\":20763:20764   */\n      0x01\n        /* \"#utility.yul\":20756:20761   */\n      dup2\n        /* \"#utility.yul\":20752:20765   */\n      add\n        /* \"#utility.yul\":20743:20765   */\n      swap1\n      pop\n        /* \"#utility.yul\":20719:20839   */\n      jump(tag_387)\n    tag_389:\n        /* \"#utility.yul\":20659:20845   */\n      pop\n      pop\n      jump\t// out\n        /* \"#utility.yul\":20851:21394   */\n    tag_180:\n        /* \"#utility.yul\":20952:20954   */\n      0x1f\n        /* \"#utility.yul\":20947:20950   */\n      dup3\n        /* \"#utility.yul\":20944:20955   */\n      gt\n        /* \"#utility.yul\":20941:21387   */\n      iszero\n      tag_392\n      jumpi\n        /* \"#utility.yul\":20986:21024   */\n      tag_393\n        /* \"#utility.yul\":21018:21023   */\n      dup2\n        /* \"#utility.yul\":20986:21024   */\n      tag_170\n      jump\t// in\n    tag_393:\n        /* \"#utility.yul\":21070:21099   */\n      tag_394\n        /* \"#utility.yul\":21088:21098   */\n      dup5\n        /* \"#utility.yul\":21070:21099   */\n      tag_171\n      jump\t// in\n    tag_394:\n        /* \"#utility.yul\":21060:21068   */\n      dup2\n        /* \"#utility.yul\":21056:21100   */\n      add\n        /* \"#utility.yul\":21253:21255   */\n      0x20\n        /* \"#utility.yul\":21241:21251   */\n      dup6\n        /* \"#utility.yul\":21238:21256   */\n      lt\n        /* \"#utility.yul\":21235:21284   */\n      iszero\n      tag_395\n      jumpi\n        /* \"#utility.yul\":21274:21282   */\n      dup2\n        /* \"#utility.yul\":21259:21282   */\n      swap1\n      pop\n        /* \"#utility.yul\":21235:21284   */\n    tag_395:\n        /* \"#utility.yul\":21297:21377   */\n      tag_396\n        /* \"#utility.yul\":21353:21375   */\n      tag_397\n        /* \"#utility.yul\":21371:21374   */\n      dup6\n        /* \"#utility.yul\":21353:21375   */\n      tag_171\n      jump\t// in\n    tag_397:\n        /* \"#utility.yul\":21343:21351   */\n      dup4\n        /* \"#utility.yul\":21339:21376   */\n      add\n        /* \"#utility.yul\":21326:21337   */\n      dup3\n        /* \"#utility.yul\":21297:21377   */\n      tag_179\n      jump\t// in\n    tag_396:\n        /* \"#utility.yul\":20956:21387   */\n      pop\n      pop\n        /* \"#utility.yul\":20941:21387   */\n    tag_392:\n        /* \"#utility.yul\":20851:21394   */\n      pop\n      pop\n      pop\n      jump\t// out\n        /* \"#utility.yul\":21400:21517   */\n    tag_181:\n        /* \"#utility.yul\":21454:21462   */\n      0x00\n        /* \"#utility.yul\":21504:21509   */\n      dup3\n        /* \"#utility.yul\":21498:21502   */\n      dup3\n        /* \"#utility.yul\":21494:21510   */\n      shr\n        /* \"#utility.yul\":21473:21510   */\n      swap1\n      pop\n        /* \"#utility.yul\":21400:21517   */\n      swap3\n      swap2\n      pop\n      pop\n      jump\t// out\n        /* \"#utility.yul\":21523:21692   */\n    tag_182:\n        /* \"#utility.yul\":21567:21573   */\n      0x00\n        /* \"#utility.yul\":21600:21651   */\n      tag_400\n        /* \"#utility.yul\":21648:21649   */\n      0x00\n        /* \"#utility.yul\":21644:21650   */\n      not\n        /* \"#utility.yul\":21636:21641   */\n      dup5\n        /* \"#utility.yul\":21633:21634   */\n      0x08\n        /* \"#utility.yul\":21629:21642   */\n      mul\n        /* \"#utility.yul\":21600:21651   */\n      tag_181\n      jump\t// in\n    tag_400:\n        /* \"#utility.yul\":21596:21652   */\n      not\n        /* \"#utility.yul\":21681:21685   */\n      dup1\n        /* \"#utility.yul\":21675:21679   */\n      dup4\n        /* \"#utility.yul\":21671:21686   */\n      and\n        /* \"#utility.yul\":21661:21686   */\n      swap2\n      pop\n        /* \"#utility.yul\":21574:21692   */\n      pop\n        /* \"#utility.yul\":21523:21692   */\n      swap3\n      swap2\n      pop\n      pop\n      jump\t// out\n        /* \"#utility.yul\":21697:21992   */\n    tag_183:\n        /* \"#utility.yul\":21773:21777   */\n      0x00\n        /* \"#utility.yul\":21919:21948   */\n      tag_402\n        /* \"#utility.yul\":21944:21947   */\n      dup4\n        /* \"#utility.yul\":21938:21942   */\n      dup4\n        /* \"#utility.yul\":21919:21948   */\n      tag_182\n      jump\t// in\n    tag_402:\n        /* \"#utility.yul\":21911:21948   */\n      swap2\n      pop\n        /* \"#utility.yul\":21981:21984   */\n      dup3\n        /* \"#utility.yul\":21978:21979   */\n      0x02\n        /* \"#utility.yul\":21974:21985   */\n      mul\n        /* \"#utility.yul\":21968:21972   */\n      dup3\n        /* \"#utility.yul\":21965:21986   */\n      or\n        /* \"#utility.yul\":21957:21986   */\n      swap1\n      pop\n        /* \"#utility.yul\":21697:21992   */\n      swap3\n      swap2\n      pop\n      pop\n      jump\t// out\n        /* \"#utility.yul\":21997:23392   */\n    tag_106:\n        /* \"#utility.yul\":22114:22151   */\n      tag_404\n        /* \"#utility.yul\":22147:22150   */\n      dup3\n        /* \"#utility.yul\":22114:22151   */\n      tag_128\n      jump\t// in\n    tag_404:\n        /* \"#utility.yul\":22216:22234   */\n      0xffffffffffffffff\n        /* \"#utility.yul\":22208:22214   */\n      dup2\n        /* \"#utility.yul\":22205:22235   */\n      gt\n        /* \"#utility.yul\":22202:22258   */\n      iszero\n      tag_405\n      jumpi\n        /* \"#utility.yul\":22238:22256   */\n      tag_406\n      tag_59\n      jump\t// in\n    tag_406:\n        /* \"#utility.yul\":22202:22258   */\n    tag_405:\n        /* \"#utility.yul\":22282:22320   */\n      tag_407\n        /* \"#utility.yul\":22314:22318   */\n      dup3\n        /* \"#utility.yul\":22308:22319   */\n      sload\n        /* \"#utility.yul\":22282:22320   */\n      tag_36\n      jump\t// in\n    tag_407:\n        /* \"#utility.yul\":22367:22434   */\n      tag_408\n        /* \"#utility.yul\":22427:22433   */\n      dup3\n        /* \"#utility.yul\":22419:22425   */\n      dup3\n        /* \"#utility.yul\":22413:22417   */\n      dup6\n        /* \"#utility.yul\":22367:22434   */\n      tag_180\n      jump\t// in\n    tag_408:\n        /* \"#utility.yul\":22461:22462   */\n      0x00\n        /* \"#utility.yul\":22485:22489   */\n      0x20\n        /* \"#utility.yul\":22472:22489   */\n      swap1\n      pop\n        /* \"#utility.yul\":22517:22519   */\n      0x1f\n        /* \"#utility.yul\":22509:22515   */\n      dup4\n        /* \"#utility.yul\":22506:22520   */\n      gt\n        /* \"#utility.yul\":22534:22535   */\n      0x01\n        /* \"#utility.yul\":22529:23147   */\n      dup2\n      eq\n      tag_410\n      jumpi\n        /* \"#utility.yul\":23191:23192   */\n      0x00\n        /* \"#utility.yul\":23208:23214   */\n      dup5\n        /* \"#utility.yul\":23205:23282   */\n      iszero\n      tag_411\n      jumpi\n        /* \"#utility.yul\":23257:23266   */\n      dup3\n        /* \"#utility.yul\":23252:23255   */\n      dup8\n        /* \"#utility.yul\":23248:23267   */\n      add\n        /* \"#utility.yul\":23242:23268   */\n      mload\n        /* \"#utility.yul\":23233:23268   */\n      swap1\n      pop\n        /* \"#utility.yul\":23205:23282   */\n    tag_411:\n        /* \"#utility.yul\":23308:23375   */\n      tag_412\n        /* \"#utility.yul\":23368:23374   */\n      dup6\n        /* \"#utility.yul\":23361:23366   */\n      dup3\n        /* \"#utility.yul\":23308:23375   */\n      tag_183\n      jump\t// in\n    tag_412:\n        /* \"#utility.yul\":23302:23306   */\n      dup7\n        /* \"#utility.yul\":23295:23376   */\n      sstore\n        /* \"#utility.yul\":23164:23386   */\n      pop\n        /* \"#utility.yul\":22499:23386   */\n      jump(tag_409)\n        /* \"#utility.yul\":22529:23147   */\n    tag_410:\n        /* \"#utility.yul\":22581:22585   */\n      0x1f\n        /* \"#utility.yul\":22577:22586   */\n      not\n        /* \"#utility.yul\":22569:22575   */\n      dup5\n        /* \"#utility.yul\":22565:22587   */\n      and\n        /* \"#utility.yul\":22615:22652   */\n      tag_413\n        /* \"#utility.yul\":22647:22651   */\n      dup7\n        /* \"#utility.yul\":22615:22652   */\n      tag_170\n      jump\t// in\n    tag_413:\n        /* \"#utility.yul\":22674:22675   */\n      0x00\n        /* \"#utility.yul\":22688:22896   */\n    tag_414:\n        /* \"#utility.yul\":22702:22709   */\n      dup3\n        /* \"#utility.yul\":22699:22700   */\n      dup2\n        /* \"#utility.yul\":22696:22710   */\n      lt\n        /* \"#utility.yul\":22688:22896   */\n      iszero\n      tag_416\n      jumpi\n        /* \"#utility.yul\":22781:22790   */\n      dup5\n        /* \"#utility.yul\":22776:22779   */\n      dup10\n        /* \"#utility.yul\":22772:22791   */\n      add\n        /* \"#utility.yul\":22766:22792   */\n      mload\n        /* \"#utility.yul\":22758:22764   */\n      dup3\n        /* \"#utility.yul\":22751:22793   */\n      sstore\n        /* \"#utility.yul\":22832:22833   */\n      0x01\n        /* \"#utility.yul\":22824:22830   */\n      dup3\n        /* \"#utility.yul\":22820:22834   */\n      add\n        /* \"#utility.yul\":22810:22834   */\n      swap2\n      pop\n        /* \"#utility.yul\":22879:22881   */\n      0x20\n        /* \"#utility.yul\":22868:22877   */\n      dup6\n        /* \"#utility.yul\":22864:22882   */\n      add\n        /* \"#utility.yul\":22851:22882   */\n      swap5\n      pop\n        /* \"#utility.yul\":22725:22729   */\n      0x20\n        /* \"#utility.yul\":22722:22723   */\n      dup2\n        /* \"#utility.yul\":22718:22730   */\n      add\n        /* \"#utility.yul\":22713:22730   */\n      swap1\n      pop\n        /* \"#utility.yul\":22688:22896   */\n      jump(tag_414)\n    tag_416:\n        /* \"#utility.yul\":22924:22930   */\n      dup7\n        /* \"#utility.yul\":22915:22922   */\n      dup4\n        /* \"#utility.yul\":22912:22931   */\n      lt\n        /* \"#utility.yul\":22909:23088   */\n      iszero\n      tag_417\n      jumpi\n        /* \"#utility.yul\":22982:22991   */\n      dup5\n        /* \"#utility.yul\":22977:22980   */\n      dup10\n        /* \"#utility.yul\":22973:22992   */\n      add\n        /* \"#utility.yul\":22967:22993   */\n      mload\n        /* \"#utility.yul\":23025:23073   */\n      tag_418\n        /* \"#utility.yul\":23067:23071   */\n      0x1f\n        /* \"#utility.yul\":23059:23065   */\n      dup10\n        /* \"#utility.yul\":23055:23072   */\n      and\n        /* \"#utility.yul\":23044:23053   */\n      dup3\n        /* \"#utility.yul\":23025:23073   */\n      tag_182\n      jump\t// in\n    tag_418:\n        /* \"#utility.yul\":23017:23023   */\n      dup4\n        /* \"#utility.yul\":23010:23074   */\n      sstore\n        /* \"#utility.yul\":22932:23088   */\n      pop\n        /* \"#utility.yul\":22909:23088   */\n    tag_417:\n        /* \"#utility.yul\":23134:23135   */\n      0x01\n        /* \"#utility.yul\":23130:23131   */\n      0x02\n        /* \"#utility.yul\":23122:23128   */\n      dup9\n        /* \"#utility.yul\":23118:23132   */\n      mul\n        /* \"#utility.yul\":23114:23136   */\n      add\n        /* \"#utility.yul\":23108:23112   */\n      dup9\n        /* \"#utility.yul\":23101:23137   */\n      sstore\n        /* \"#utility.yul\":22536:23147   */\n      pop\n      pop\n      pop\n        /* \"#utility.yul\":22499:23386   */\n    tag_409:\n      pop\n        /* \"#utility.yul\":22089:23392   */\n      pop\n      pop\n      pop\n        /* \"#utility.yul\":21997:23392   */\n      pop\n      pop\n      jump\t// out\n\n    auxdata: 0xa2646970667358221220020cd4833b96e07e829603c768d8f104c39eec708465726f23f9328f98a3528a64736f6c63430008160033\n}\n",
				"bytecode": {
					"linkReferences": {},
					"object": "608060405234801561000f575f80fd5b503360015f6101000a81548173ffffffffffffffffffffffffffffffffffffffff021916908373ffffffffffffffffffffffffffffffffffffffff1602179055506116ef8061005d5f395ff3fe608060405260043610610049575f3560e01c80633b3bdd101461004d5780639537d6cf146100695780639abb94d414610093578063d923b3d8146100d5578063e98d838314610111575b5f80fd5b61006760048036038101906100629190610bcb565b610139565b005b348015610074575f80fd5b5061007d610460565b60405161008a9190610e38565b60405180910390f35b34801561009e575f80fd5b506100b960048036038101906100b49190610e58565b6106ea565b6040516100cc9796959493929190610ef8565b60405180910390f35b3480156100e0575f80fd5b506100fb60048036038101906100f69190610e58565b610860565b6040516101089190610f73565b60405180910390f35b34801561011c575f80fd5b506101376004803603810190610132919061111d565b610880565b005b5f60025f8581526020019081526020015f206040518060e00160405290815f8201548152602001600182015481526020016002820180546101799061120b565b80601f01602080910402602001604051908101604052809291908181526020018280546101a59061120b565b80156101f05780601f106101c7576101008083540402835291602001916101f0565b820191905f5260205f20905b8154815290600101906020018083116101d357829003601f168201915b50505050508152602001600382015481526020016004820180546102139061120b565b80601f016020809104026020016040519081016040528092919081815260200182805461023f9061120b565b801561028a5780601f106102615761010080835404028352916020019161028a565b820191905f5260205f20905b81548152906001019060200180831161026d57829003601f168201915b50505050508152602001600582015f9054906101000a900473ffffffffffffffffffffffffffffffffffffffff1673ffffffffffffffffffffffffffffffffffffffff1673ffffffffffffffffffffffffffffffffffffffff1681526020016005820160149054906101000a900460ff16151515158152505090508060c00151610349576040517f08c379a000000000000000000000000000000000000000000000000000000000815260040161034090611285565b60405180910390fd5b8181606001511461038f576040517f08c379a0000000000000000000000000000000000000000000000000000000008152600401610386906112ed565b60405180910390fd5b8060a0015173ffffffffffffffffffffffffffffffffffffffff166108fc3490811502906040515f60405180830381858888f193505050501580156103d6573d5f803e3d5ffd5b50828160a0019073ffffffffffffffffffffffffffffffffffffffff16908173ffffffffffffffffffffffffffffffffffffffff16815250505f8160c00190151590811515815250507f66262d29b39f82a7838ea037c521cd5b4821f21fb16fe0aa690dd7270e1cb97184848460405161045293929190611366565b60405180910390a150505050565b60605f60038054905090505f8167ffffffffffffffff81111561048657610485610f94565b5b6040519080825280602002602001820160405280156104bf57816020015b6104ac610add565b8152602001906001900390816104a45790505b5090505f5b828110156106e1575f600382815481106104e1576104e061139b565b5b905f5260205f200154905060025f8281526020019081526020015f206040518060e00160405290815f82015481526020016001820154815260200160028201805461052b9061120b565b80601f01602080910402602001604051908101604052809291908181526020018280546105579061120b565b80156105a25780601f10610579576101008083540402835291602001916105a2565b820191905f5260205f20905b81548152906001019060200180831161058557829003601f168201915b50505050508152602001600382015481526020016004820180546105c59061120b565b80601f01602080910402602001604051908101604052809291908181526020018280546105f19061120b565b801561063c5780601f106106135761010080835404028352916020019161063c565b820191905f5260205f20905b81548152906001019060200180831161061f57829003601f168201915b50505050508152602001600582015f9054906101000a900473ffffffffffffffffffffffffffffffffffffffff1673ffffffffffffffffffffffffffffffffffffffff1673ffffffffffffffffffffffffffffffffffffffff1681526020016005820160149054906101000a900460ff1615151515815250508383815181106106c8576106c761139b565b5b60200260200101819052505080806001019150506104c4565b50809250505090565b6002602052805f5260405f205f91509050805f0154908060010154908060020180546107159061120b565b80601f01602080910402602001604051908101604052809291908181526020018280546107419061120b565b801561078c5780601f106107635761010080835404028352916020019161078c565b820191905f5260205f20905b81548152906001019060200180831161076f57829003601f168201915b5050505050908060030154908060040180546107a79061120b565b80601f01602080910402602001604051908101604052809291908181526020018280546107d39061120b565b801561081e5780601f106107f55761010080835404028352916020019161081e565b820191905f5260205f20905b81548152906001019060200180831161080157829003601f168201915b505050505090806005015f9054906101000a900473ffffffffffffffffffffffffffffffffffffffff16908060050160149054906101000a900460ff16905087565b6003818154811061086f575f80fd5b905f5260205f20015f915090505481565b60015f9054906101000a900473ffffffffffffffffffffffffffffffffffffffff1673ffffffffffffffffffffffffffffffffffffffff163373ffffffffffffffffffffffffffffffffffffffff161461090f576040517f08c379a000000000000000000000000000000000000000000000000000000000815260040161090690611438565b60405180910390fd5b6109185f610abd565b5f6040518060e0016040528061092d5f610ad1565b81526020018881526020018781526020018681526020018581526020013073ffffffffffffffffffffffffffffffffffffffff1681526020016001151581525090508060025f61097c5f610ad1565b81526020019081526020015f205f820151815f01556020820151816001015560408201518160020190816109b091906115ea565b506060820151816003015560808201518160040190816109d091906115ea565b5060a0820151816005015f6101000a81548173ffffffffffffffffffffffffffffffffffffffff021916908373ffffffffffffffffffffffffffffffffffffffff16021790555060c08201518160050160146101000a81548160ff0219169083151502179055509050506003610a455f610ad1565b908060018154018082558091505060019003905f5260205f20015f90919091909150557fd37f8caa8cbf6ba249a853b50d83a4b0916cb52d083755767c3d4d086f9e3df4610a925f610ad1565b88888888306001604051610aac9796959493929190610ef8565b60405180910390a150505050505050565b6001815f015f828254019250508190555050565b5f815f01549050919050565b6040518060e001604052805f81526020015f8152602001606081526020015f8152602001606081526020015f73ffffffffffffffffffffffffffffffffffffffff1681526020015f151581525090565b5f604051905090565b5f80fd5b5f80fd5b5f819050919050565b610b5081610b3e565b8114610b5a575f80fd5b50565b5f81359050610b6b81610b47565b92915050565b5f73ffffffffffffffffffffffffffffffffffffffff82169050919050565b5f610b9a82610b71565b9050919050565b610baa81610b90565b8114610bb4575f80fd5b50565b5f81359050610bc581610ba1565b92915050565b5f805f60608486031215610be257610be1610b36565b5b5f610bef86828701610b5d565b9350506020610c0086828701610bb7565b9250506040610c1186828701610b5d565b9150509250925092565b5f81519050919050565b5f82825260208201905092915050565b5f819050602082019050919050565b610c4d81610b3e565b82525050565b5f81519050919050565b5f82825260208201905092915050565b5f5b83811015610c8a578082015181840152602081019050610c6f565b5f8484015250505050565b5f601f19601f8301169050919050565b5f610caf82610c53565b610cb98185610c5d565b9350610cc9818560208601610c6d565b610cd281610c95565b840191505092915050565b610ce681610b90565b82525050565b5f8115159050919050565b610d0081610cec565b82525050565b5f60e083015f830151610d1b5f860182610c44565b506020830151610d2e6020860182610c44565b5060408301518482036040860152610d468282610ca5565b9150506060830151610d5b6060860182610c44565b5060808301518482036080860152610d738282610ca5565b91505060a0830151610d8860a0860182610cdd565b5060c0830151610d9b60c0860182610cf7565b508091505092915050565b5f610db18383610d06565b905092915050565b5f602082019050919050565b5f610dcf82610c1b565b610dd98185610c25565b935083602082028501610deb85610c35565b805f5b85811015610e265784840389528151610e078582610da6565b9450610e1283610db9565b925060208a01995050600181019050610dee565b50829750879550505050505092915050565b5f6020820190508181035f830152610e508184610dc5565b905092915050565b5f60208284031215610e6d57610e6c610b36565b5b5f610e7a84828501610b5d565b91505092915050565b610e8c81610b3e565b82525050565b5f82825260208201905092915050565b5f610eac82610c53565b610eb68185610e92565b9350610ec6818560208601610c6d565b610ecf81610c95565b840191505092915050565b610ee381610b90565b82525050565b610ef281610cec565b82525050565b5f60e082019050610f0b5f83018a610e83565b610f186020830189610e83565b8181036040830152610f2a8188610ea2565b9050610f396060830187610e83565b8181036080830152610f4b8186610ea2565b9050610f5a60a0830185610eda565b610f6760c0830184610ee9565b98975050505050505050565b5f602082019050610f865f830184610e83565b92915050565b5f80fd5b5f80fd5b7f4e487b71000000000000000000000000000000000000000000000000000000005f52604160045260245ffd5b610fca82610c95565b810181811067ffffffffffffffff82111715610fe957610fe8610f94565b5b80604052505050565b5f610ffb610b2d565b90506110078282610fc1565b919050565b5f67ffffffffffffffff82111561102657611025610f94565b5b61102f82610c95565b9050602081019050919050565b828183375f83830152505050565b5f61105c6110578461100c565b610ff2565b90508281526020810184848401111561107857611077610f90565b5b61108384828561103c565b509392505050565b5f82601f83011261109f5761109e610f8c565b5b81356110af84826020860161104a565b91505092915050565b5f6110c282610b71565b9050919050565b6110d2816110b8565b81146110dc575f80fd5b50565b5f813590506110ed816110c9565b92915050565b6110fc81610cec565b8114611106575f80fd5b50565b5f81359050611117816110f3565b92915050565b5f805f805f8060c0878903121561113757611136610b36565b5b5f61114489828a01610b5d565b965050602087013567ffffffffffffffff81111561116557611164610b3a565b5b61117189828a0161108b565b955050604061118289828a01610b5d565b945050606087013567ffffffffffffffff8111156111a3576111a2610b3a565b5b6111af89828a0161108b565b93505060806111c089828a016110df565b92505060a06111d189828a01611109565b9150509295509295509295565b7f4e487b71000000000000000000000000000000000000000000000000000000005f52602260045260245ffd5b5f600282049050600182168061122257607f821691505b602082108103611235576112346111de565b5b50919050565b7f43617220697320616c726561647920536f6c64000000000000000000000000005f82015250565b5f61126f601383610e92565b915061127a8261123b565b602082019050919050565b5f6020820190508181035f83015261129c81611263565b9050919050565b7f57726f6e672043617220707269636500000000000000000000000000000000005f82015250565b5f6112d7600f83610e92565b91506112e2826112a3565b602082019050919050565b5f6020820190508181035f830152611304816112cb565b9050919050565b5f819050919050565b5f61132e61132961132484610b71565b61130b565b610b71565b9050919050565b5f61133f82611314565b9050919050565b5f61135082611335565b9050919050565b61136081611346565b82525050565b5f6060820190506113795f830186610e83565b6113866020830185611357565b6113936040830184610e83565b949350505050565b7f4e487b71000000000000000000000000000000000000000000000000000000005f52603260045260245ffd5b7f4f6e6c7920546865204167656e6379204f776e65722043616e204164642063615f8201527f7273212121000000000000000000000000000000000000000000000000000000602082015250565b5f611422602583610e92565b915061142d826113c8565b604082019050919050565b5f6020820190508181035f83015261144f81611416565b9050919050565b5f819050815f5260205f209050919050565b5f6020601f8301049050919050565b5f82821b905092915050565b5f600883026114b27fffffffffffffffffffffffffffffffffffffffffffffffffffffffffffffffff82611477565b6114bc8683611477565b95508019841693508086168417925050509392505050565b5f6114ee6114e96114e484610b3e565b61130b565b610b3e565b9050919050565b5f819050919050565b611507836114d4565b61151b611513826114f5565b848454611483565b825550505050565b5f90565b61152f611523565b61153a8184846114fe565b505050565b5b8181101561155d576115525f82611527565b600181019050611540565b5050565b601f8211156115a25761157381611456565b61157c84611468565b8101602085101561158b578190505b61159f61159785611468565b83018261153f565b50505b505050565b5f82821c905092915050565b5f6115c25f19846008026115a7565b1980831691505092915050565b5f6115da83836115b3565b9150826002028217905092915050565b6115f382610c53565b67ffffffffffffffff81111561160c5761160b610f94565b5b611616825461120b565b611621828285611561565b5f60209050601f831160018114611652575f8415611640578287015190505b61164a85826115cf565b8655506116b1565b601f19841661166086611456565b5f5b8281101561168757848901518255600182019150602085019450602081019050611662565b868310156116a457848901516116a0601f8916826115b3565b8355505b6001600288020188555050505b50505050505056fea2646970667358221220020cd4833b96e07e829603c768d8f104c39eec708465726f23f9328f98a3528a64736f6c63430008160033",
					"opcodes": "PUSH1 0x80 PUSH1 0x40 MSTORE CALLVALUE DUP1 ISZERO PUSH2 0xF JUMPI PUSH0 DUP1 REVERT JUMPDEST POP CALLER PUSH1 0x1 PUSH0 PUSH2 0x100 EXP DUP2 SLOAD DUP2 PUSH20 0xFFFFFFFFFFFFFFFFFFFFFFFFFFFFFFFFFFFFFFFF MUL NOT AND SWAP1 DUP4 PUSH20 0xFFFFFFFFFFFFFFFFFFFFFFFFFFFFFFFFFFFFFFFF AND MUL OR SWAP1 SSTORE POP PUSH2 0x16EF DUP1 PUSH2 0x5D PUSH0 CODECOPY PUSH0 RETURN INVALID PUSH1 0x80 PUSH1 0x40 MSTORE PUSH1 0x4 CALLDATASIZE LT PUSH2 0x49 JUMPI PUSH0 CALLDATALOAD PUSH1 0xE0 SHR DUP1 PUSH4 0x3B3BDD10 EQ PUSH2 0x4D JUMPI DUP1 PUSH4 0x9537D6CF EQ PUSH2 0x69 JUMPI DUP1 PUSH4 0x9ABB94D4 EQ PUSH2 0x93 JUMPI DUP1 PUSH4 0xD923B3D8 EQ PUSH2 0xD5 JUMPI DUP1 PUSH4 0xE98D8383 EQ PUSH2 0x111 JUMPI JUMPDEST PUSH0 DUP1 REVERT JUMPDEST PUSH2 0x67 PUSH1 0x4 DUP1 CALLDATASIZE SUB DUP2 ADD SWAP1 PUSH2 0x62 SWAP2 SWAP1 PUSH2 0xBCB JUMP JUMPDEST PUSH2 0x139 JUMP JUMPDEST STOP JUMPDEST CALLVALUE DUP1 ISZERO PUSH2 0x74 JUMPI PUSH0 DUP1 REVERT JUMPDEST POP PUSH2 0x7D PUSH2 0x460 JUMP JUMPDEST PUSH1 0x40 MLOAD PUSH2 0x8A SWAP2 SWAP1 PUSH2 0xE38 JUMP JUMPDEST PUSH1 0x40 MLOAD DUP1 SWAP2 SUB SWAP1 RETURN JUMPDEST CALLVALUE DUP1 ISZERO PUSH2 0x9E JUMPI PUSH0 DUP1 REVERT JUMPDEST POP PUSH2 0xB9 PUSH1 0x4 DUP1 CALLDATASIZE SUB DUP2 ADD SWAP1 PUSH2 0xB4 SWAP2 SWAP1 PUSH2 0xE58 JUMP JUMPDEST PUSH2 0x6EA JUMP JUMPDEST PUSH1 0x40 MLOAD PUSH2 0xCC SWAP8 SWAP7 SWAP6 SWAP5 SWAP4 SWAP3 SWAP2 SWAP1 PUSH2 0xEF8 JUMP JUMPDEST PUSH1 0x40 MLOAD DUP1 SWAP2 SUB SWAP1 RETURN JUMPDEST CALLVALUE DUP1 ISZERO PUSH2 0xE0 JUMPI PUSH0 DUP1 REVERT JUMPDEST POP PUSH2 0xFB PUSH1 0x4 DUP1 CALLDATASIZE SUB DUP2 ADD SWAP1 PUSH2 0xF6 SWAP2 SWAP1 PUSH2 0xE58 JUMP JUMPDEST PUSH2 0x860 JUMP JUMPDEST PUSH1 0x40 MLOAD PUSH2 0x108 SWAP2 SWAP1 PUSH2 0xF73 JUMP JUMPDEST PUSH1 0x40 MLOAD DUP1 SWAP2 SUB SWAP1 RETURN JUMPDEST CALLVALUE DUP1 ISZERO PUSH2 0x11C JUMPI PUSH0 DUP1 REVERT JUMPDEST POP PUSH2 0x137 PUSH1 0x4 DUP1 CALLDATASIZE SUB DUP2 ADD SWAP1 PUSH2 0x132 SWAP2 SWAP1 PUSH2 0x111D JUMP JUMPDEST PUSH2 0x880 JUMP JUMPDEST STOP JUMPDEST PUSH0 PUSH1 0x2 PUSH0 DUP6 DUP2 MSTORE PUSH1 0x20 ADD SWAP1 DUP2 MSTORE PUSH1 0x20 ADD PUSH0 KECCAK256 PUSH1 0x40 MLOAD DUP1 PUSH1 0xE0 ADD PUSH1 0x40 MSTORE SWAP1 DUP2 PUSH0 DUP3 ADD SLOAD DUP2 MSTORE PUSH1 0x20 ADD PUSH1 0x1 DUP3 ADD SLOAD DUP2 MSTORE PUSH1 0x20 ADD PUSH1 0x2 DUP3 ADD DUP1 SLOAD PUSH2 0x179 SWAP1 PUSH2 0x120B JUMP JUMPDEST DUP1 PUSH1 0x1F ADD PUSH1 0x20 DUP1 SWAP2 DIV MUL PUSH1 0x20 ADD PUSH1 0x40 MLOAD SWAP1 DUP2 ADD PUSH1 0x40 MSTORE DUP1 SWAP3 SWAP2 SWAP1 DUP2 DUP2 MSTORE PUSH1 0x20 ADD DUP3 DUP1 SLOAD PUSH2 0x1A5 SWAP1 PUSH2 0x120B JUMP JUMPDEST DUP1 ISZERO PUSH2 0x1F0 JUMPI DUP1 PUSH1 0x1F LT PUSH2 0x1C7 JUMPI PUSH2 0x100 DUP1 DUP4 SLOAD DIV MUL DUP4 MSTORE SWAP2 PUSH1 0x20 ADD SWAP2 PUSH2 0x1F0 JUMP JUMPDEST DUP3 ADD SWAP2 SWAP1 PUSH0 MSTORE PUSH1 0x20 PUSH0 KECCAK256 SWAP1 JUMPDEST DUP2 SLOAD DUP2 MSTORE SWAP1 PUSH1 0x1 ADD SWAP1 PUSH1 0x20 ADD DUP1 DUP4 GT PUSH2 0x1D3 JUMPI DUP3 SWAP1 SUB PUSH1 0x1F AND DUP3 ADD SWAP2 JUMPDEST POP POP POP POP POP DUP2 MSTORE PUSH1 0x20 ADD PUSH1 0x3 DUP3 ADD SLOAD DUP2 MSTORE PUSH1 0x20 ADD PUSH1 0x4 DUP3 ADD DUP1 SLOAD PUSH2 0x213 SWAP1 PUSH2 0x120B JUMP JUMPDEST DUP1 PUSH1 0x1F ADD PUSH1 0x20 DUP1 SWAP2 DIV MUL PUSH1 0x20 ADD PUSH1 0x40 MLOAD SWAP1 DUP2 ADD PUSH1 0x40 MSTORE DUP1 SWAP3 SWAP2 SWAP1 DUP2 DUP2 MSTORE PUSH1 0x20 ADD DUP3 DUP1 SLOAD PUSH2 0x23F SWAP1 PUSH2 0x120B JUMP JUMPDEST DUP1 ISZERO PUSH2 0x28A JUMPI DUP1 PUSH1 0x1F LT PUSH2 0x261 JUMPI PUSH2 0x100 DUP1 DUP4 SLOAD DIV MUL DUP4 MSTORE SWAP2 PUSH1 0x20 ADD SWAP2 PUSH2 0x28A JUMP JUMPDEST DUP3 ADD SWAP2 SWAP1 PUSH0 MSTORE PUSH1 0x20 PUSH0 KECCAK256 SWAP1 JUMPDEST DUP2 SLOAD DUP2 MSTORE SWAP1 PUSH1 0x1 ADD SWAP1 PUSH1 0x20 ADD DUP1 DUP4 GT PUSH2 0x26D JUMPI DUP3 SWAP1 SUB PUSH1 0x1F AND DUP3 ADD SWAP2 JUMPDEST POP POP POP POP POP DUP2 MSTORE PUSH1 0x20 ADD PUSH1 0x5 DUP3 ADD PUSH0 SWAP1 SLOAD SWAP1 PUSH2 0x100 EXP SWAP1 DIV PUSH20 0xFFFFFFFFFFFFFFFFFFFFFFFFFFFFFFFFFFFFFFFF AND PUSH20 0xFFFFFFFFFFFFFFFFFFFFFFFFFFFFFFFFFFFFFFFF AND PUSH20 0xFFFFFFFFFFFFFFFFFFFFFFFFFFFFFFFFFFFFFFFF AND DUP2 MSTORE PUSH1 0x20 ADD PUSH1 0x5 DUP3 ADD PUSH1 0x14 SWAP1 SLOAD SWAP1 PUSH2 0x100 EXP SWAP1 DIV PUSH1 0xFF AND ISZERO ISZERO ISZERO ISZERO DUP2 MSTORE POP POP SWAP1 POP DUP1 PUSH1 0xC0 ADD MLOAD PUSH2 0x349 JUMPI PUSH1 0x40 MLOAD PUSH32 0x8C379A000000000000000000000000000000000000000000000000000000000 DUP2 MSTORE PUSH1 0x4 ADD PUSH2 0x340 SWAP1 PUSH2 0x1285 JUMP JUMPDEST PUSH1 0x40 MLOAD DUP1 SWAP2 SUB SWAP1 REVERT JUMPDEST DUP2 DUP2 PUSH1 0x60 ADD MLOAD EQ PUSH2 0x38F JUMPI PUSH1 0x40 MLOAD PUSH32 0x8C379A000000000000000000000000000000000000000000000000000000000 DUP2 MSTORE PUSH1 0x4 ADD PUSH2 0x386 SWAP1 PUSH2 0x12ED JUMP JUMPDEST PUSH1 0x40 MLOAD DUP1 SWAP2 SUB SWAP1 REVERT JUMPDEST DUP1 PUSH1 0xA0 ADD MLOAD PUSH20 0xFFFFFFFFFFFFFFFFFFFFFFFFFFFFFFFFFFFFFFFF AND PUSH2 0x8FC CALLVALUE SWAP1 DUP2 ISZERO MUL SWAP1 PUSH1 0x40 MLOAD PUSH0 PUSH1 0x40 MLOAD DUP1 DUP4 SUB DUP2 DUP6 DUP9 DUP9 CALL SWAP4 POP POP POP POP ISZERO DUP1 ISZERO PUSH2 0x3D6 JUMPI RETURNDATASIZE PUSH0 DUP1 RETURNDATACOPY RETURNDATASIZE PUSH0 REVERT JUMPDEST POP DUP3 DUP2 PUSH1 0xA0 ADD SWAP1 PUSH20 0xFFFFFFFFFFFFFFFFFFFFFFFFFFFFFFFFFFFFFFFF AND SWAP1 DUP2 PUSH20 0xFFFFFFFFFFFFFFFFFFFFFFFFFFFFFFFFFFFFFFFF AND DUP2 MSTORE POP POP PUSH0 DUP2 PUSH1 0xC0 ADD SWAP1 ISZERO ISZERO SWAP1 DUP2 ISZERO ISZERO DUP2 MSTORE POP POP PUSH32 0x66262D29B39F82A7838EA037C521CD5B4821F21FB16FE0AA690DD7270E1CB971 DUP5 DUP5 DUP5 PUSH1 0x40 MLOAD PUSH2 0x452 SWAP4 SWAP3 SWAP2 SWAP1 PUSH2 0x1366 JUMP JUMPDEST PUSH1 0x40 MLOAD DUP1 SWAP2 SUB SWAP1 LOG1 POP POP POP POP JUMP JUMPDEST PUSH1 0x60 PUSH0 PUSH1 0x3 DUP1 SLOAD SWAP1 POP SWAP1 POP PUSH0 DUP2 PUSH8 0xFFFFFFFFFFFFFFFF DUP2 GT ISZERO PUSH2 0x486 JUMPI PUSH2 0x485 PUSH2 0xF94 JUMP JUMPDEST JUMPDEST PUSH1 0x40 MLOAD SWAP1 DUP1 DUP3 MSTORE DUP1 PUSH1 0x20 MUL PUSH1 0x20 ADD DUP3 ADD PUSH1 0x40 MSTORE DUP1 ISZERO PUSH2 0x4BF JUMPI DUP2 PUSH1 0x20 ADD JUMPDEST PUSH2 0x4AC PUSH2 0xADD JUMP JUMPDEST DUP2 MSTORE PUSH1 0x20 ADD SWAP1 PUSH1 0x1 SWAP1 SUB SWAP1 DUP2 PUSH2 0x4A4 JUMPI SWAP1 POP JUMPDEST POP SWAP1 POP PUSH0 JUMPDEST DUP3 DUP2 LT ISZERO PUSH2 0x6E1 JUMPI PUSH0 PUSH1 0x3 DUP3 DUP2 SLOAD DUP2 LT PUSH2 0x4E1 JUMPI PUSH2 0x4E0 PUSH2 0x139B JUMP JUMPDEST JUMPDEST SWAP1 PUSH0 MSTORE PUSH1 0x20 PUSH0 KECCAK256 ADD SLOAD SWAP1 POP PUSH1 0x2 PUSH0 DUP3 DUP2 MSTORE PUSH1 0x20 ADD SWAP1 DUP2 MSTORE PUSH1 0x20 ADD PUSH0 KECCAK256 PUSH1 0x40 MLOAD DUP1 PUSH1 0xE0 ADD PUSH1 0x40 MSTORE SWAP1 DUP2 PUSH0 DUP3 ADD SLOAD DUP2 MSTORE PUSH1 0x20 ADD PUSH1 0x1 DUP3 ADD SLOAD DUP2 MSTORE PUSH1 0x20 ADD PUSH1 0x2 DUP3 ADD DUP1 SLOAD PUSH2 0x52B SWAP1 PUSH2 0x120B JUMP JUMPDEST DUP1 PUSH1 0x1F ADD PUSH1 0x20 DUP1 SWAP2 DIV MUL PUSH1 0x20 ADD PUSH1 0x40 MLOAD SWAP1 DUP2 ADD PUSH1 0x40 MSTORE DUP1 SWAP3 SWAP2 SWAP1 DUP2 DUP2 MSTORE PUSH1 0x20 ADD DUP3 DUP1 SLOAD PUSH2 0x557 SWAP1 PUSH2 0x120B JUMP JUMPDEST DUP1 ISZERO PUSH2 0x5A2 JUMPI DUP1 PUSH1 0x1F LT PUSH2 0x579 JUMPI PUSH2 0x100 DUP1 DUP4 SLOAD DIV MUL DUP4 MSTORE SWAP2 PUSH1 0x20 ADD SWAP2 PUSH2 0x5A2 JUMP JUMPDEST DUP3 ADD SWAP2 SWAP1 PUSH0 MSTORE PUSH1 0x20 PUSH0 KECCAK256 SWAP1 JUMPDEST DUP2 SLOAD DUP2 MSTORE SWAP1 PUSH1 0x1 ADD SWAP1 PUSH1 0x20 ADD DUP1 DUP4 GT PUSH2 0x585 JUMPI DUP3 SWAP1 SUB PUSH1 0x1F AND DUP3 ADD SWAP2 JUMPDEST POP POP POP POP POP DUP2 MSTORE PUSH1 0x20 ADD PUSH1 0x3 DUP3 ADD SLOAD DUP2 MSTORE PUSH1 0x20 ADD PUSH1 0x4 DUP3 ADD DUP1 SLOAD PUSH2 0x5C5 SWAP1 PUSH2 0x120B JUMP JUMPDEST DUP1 PUSH1 0x1F ADD PUSH1 0x20 DUP1 SWAP2 DIV MUL PUSH1 0x20 ADD PUSH1 0x40 MLOAD SWAP1 DUP2 ADD PUSH1 0x40 MSTORE DUP1 SWAP3 SWAP2 SWAP1 DUP2 DUP2 MSTORE PUSH1 0x20 ADD DUP3 DUP1 SLOAD PUSH2 0x5F1 SWAP1 PUSH2 0x120B JUMP JUMPDEST DUP1 ISZERO PUSH2 0x63C JUMPI DUP1 PUSH1 0x1F LT PUSH2 0x613 JUMPI PUSH2 0x100 DUP1 DUP4 SLOAD DIV MUL DUP4 MSTORE SWAP2 PUSH1 0x20 ADD SWAP2 PUSH2 0x63C JUMP JUMPDEST DUP3 ADD SWAP2 SWAP1 PUSH0 MSTORE PUSH1 0x20 PUSH0 KECCAK256 SWAP1 JUMPDEST DUP2 SLOAD DUP2 MSTORE SWAP1 PUSH1 0x1 ADD SWAP1 PUSH1 0x20 ADD DUP1 DUP4 GT PUSH2 0x61F JUMPI DUP3 SWAP1 SUB PUSH1 0x1F AND DUP3 ADD SWAP2 JUMPDEST POP POP POP POP POP DUP2 MSTORE PUSH1 0x20 ADD PUSH1 0x5 DUP3 ADD PUSH0 SWAP1 SLOAD SWAP1 PUSH2 0x100 EXP SWAP1 DIV PUSH20 0xFFFFFFFFFFFFFFFFFFFFFFFFFFFFFFFFFFFFFFFF AND PUSH20 0xFFFFFFFFFFFFFFFFFFFFFFFFFFFFFFFFFFFFFFFF AND PUSH20 0xFFFFFFFFFFFFFFFFFFFFFFFFFFFFFFFFFFFFFFFF AND DUP2 MSTORE PUSH1 0x20 ADD PUSH1 0x5 DUP3 ADD PUSH1 0x14 SWAP1 SLOAD SWAP1 PUSH2 0x100 EXP SWAP1 DIV PUSH1 0xFF AND ISZERO ISZERO ISZERO ISZERO DUP2 MSTORE POP POP DUP4 DUP4 DUP2 MLOAD DUP2 LT PUSH2 0x6C8 JUMPI PUSH2 0x6C7 PUSH2 0x139B JUMP JUMPDEST JUMPDEST PUSH1 0x20 MUL PUSH1 0x20 ADD ADD DUP2 SWAP1 MSTORE POP POP DUP1 DUP1 PUSH1 0x1 ADD SWAP2 POP POP PUSH2 0x4C4 JUMP JUMPDEST POP DUP1 SWAP3 POP POP POP SWAP1 JUMP JUMPDEST PUSH1 0x2 PUSH1 0x20 MSTORE DUP1 PUSH0 MSTORE PUSH1 0x40 PUSH0 KECCAK256 PUSH0 SWAP2 POP SWAP1 POP DUP1 PUSH0 ADD SLOAD SWAP1 DUP1 PUSH1 0x1 ADD SLOAD SWAP1 DUP1 PUSH1 0x2 ADD DUP1 SLOAD PUSH2 0x715 SWAP1 PUSH2 0x120B JUMP JUMPDEST DUP1 PUSH1 0x1F ADD PUSH1 0x20 DUP1 SWAP2 DIV MUL PUSH1 0x20 ADD PUSH1 0x40 MLOAD SWAP1 DUP2 ADD PUSH1 0x40 MSTORE DUP1 SWAP3 SWAP2 SWAP1 DUP2 DUP2 MSTORE PUSH1 0x20 ADD DUP3 DUP1 SLOAD PUSH2 0x741 SWAP1 PUSH2 0x120B JUMP JUMPDEST DUP1 ISZERO PUSH2 0x78C JUMPI DUP1 PUSH1 0x1F LT PUSH2 0x763 JUMPI PUSH2 0x100 DUP1 DUP4 SLOAD DIV MUL DUP4 MSTORE SWAP2 PUSH1 0x20 ADD SWAP2 PUSH2 0x78C JUMP JUMPDEST DUP3 ADD SWAP2 SWAP1 PUSH0 MSTORE PUSH1 0x20 PUSH0 KECCAK256 SWAP1 JUMPDEST DUP2 SLOAD DUP2 MSTORE SWAP1 PUSH1 0x1 ADD SWAP1 PUSH1 0x20 ADD DUP1 DUP4 GT PUSH2 0x76F JUMPI DUP3 SWAP1 SUB PUSH1 0x1F AND DUP3 ADD SWAP2 JUMPDEST POP POP POP POP POP SWAP1 DUP1 PUSH1 0x3 ADD SLOAD SWAP1 DUP1 PUSH1 0x4 ADD DUP1 SLOAD PUSH2 0x7A7 SWAP1 PUSH2 0x120B JUMP JUMPDEST DUP1 PUSH1 0x1F ADD PUSH1 0x20 DUP1 SWAP2 DIV MUL PUSH1 0x20 ADD PUSH1 0x40 MLOAD SWAP1 DUP2 ADD PUSH1 0x40 MSTORE DUP1 SWAP3 SWAP2 SWAP1 DUP2 DUP2 MSTORE PUSH1 0x20 ADD DUP3 DUP1 SLOAD PUSH2 0x7D3 SWAP1 PUSH2 0x120B JUMP JUMPDEST DUP1 ISZERO PUSH2 0x81E JUMPI DUP1 PUSH1 0x1F LT PUSH2 0x7F5 JUMPI PUSH2 0x100 DUP1 DUP4 SLOAD DIV MUL DUP4 MSTORE SWAP2 PUSH1 0x20 ADD SWAP2 PUSH2 0x81E JUMP JUMPDEST DUP3 ADD SWAP2 SWAP1 PUSH0 MSTORE PUSH1 0x20 PUSH0 KECCAK256 SWAP1 JUMPDEST DUP2 SLOAD DUP2 MSTORE SWAP1 PUSH1 0x1 ADD SWAP1 PUSH1 0x20 ADD DUP1 DUP4 GT PUSH2 0x801 JUMPI DUP3 SWAP1 SUB PUSH1 0x1F AND DUP3 ADD SWAP2 JUMPDEST POP POP POP POP POP SWAP1 DUP1 PUSH1 0x5 ADD PUSH0 SWAP1 SLOAD SWAP1 PUSH2 0x100 EXP SWAP1 DIV PUSH20 0xFFFFFFFFFFFFFFFFFFFFFFFFFFFFFFFFFFFFFFFF AND SWAP1 DUP1 PUSH1 0x5 ADD PUSH1 0x14 SWAP1 SLOAD SWAP1 PUSH2 0x100 EXP SWAP1 DIV PUSH1 0xFF AND SWAP1 POP DUP8 JUMP JUMPDEST PUSH1 0x3 DUP2 DUP2 SLOAD DUP2 LT PUSH2 0x86F JUMPI PUSH0 DUP1 REVERT JUMPDEST SWAP1 PUSH0 MSTORE PUSH1 0x20 PUSH0 KECCAK256 ADD PUSH0 SWAP2 POP SWAP1 POP SLOAD DUP2 JUMP JUMPDEST PUSH1 0x1 PUSH0 SWAP1 SLOAD SWAP1 PUSH2 0x100 EXP SWAP1 DIV PUSH20 0xFFFFFFFFFFFFFFFFFFFFFFFFFFFFFFFFFFFFFFFF AND PUSH20 0xFFFFFFFFFFFFFFFFFFFFFFFFFFFFFFFFFFFFFFFF AND CALLER PUSH20 0xFFFFFFFFFFFFFFFFFFFFFFFFFFFFFFFFFFFFFFFF AND EQ PUSH2 0x90F JUMPI PUSH1 0x40 MLOAD PUSH32 0x8C379A000000000000000000000000000000000000000000000000000000000 DUP2 MSTORE PUSH1 0x4 ADD PUSH2 0x906 SWAP1 PUSH2 0x1438 JUMP JUMPDEST PUSH1 0x40 MLOAD DUP1 SWAP2 SUB SWAP1 REVERT JUMPDEST PUSH2 0x918 PUSH0 PUSH2 0xABD JUMP JUMPDEST PUSH0 PUSH1 0x40 MLOAD DUP1 PUSH1 0xE0 ADD PUSH1 0x40 MSTORE DUP1 PUSH2 0x92D PUSH0 PUSH2 0xAD1 JUMP JUMPDEST DUP2 MSTORE PUSH1 0x20 ADD DUP9 DUP2 MSTORE PUSH1 0x20 ADD DUP8 DUP2 MSTORE PUSH1 0x20 ADD DUP7 DUP2 MSTORE PUSH1 0x20 ADD DUP6 DUP2 MSTORE PUSH1 0x20 ADD ADDRESS PUSH20 0xFFFFFFFFFFFFFFFFFFFFFFFFFFFFFFFFFFFFFFFF AND DUP2 MSTORE PUSH1 0x20 ADD PUSH1 0x1 ISZERO ISZERO DUP2 MSTORE POP SWAP1 POP DUP1 PUSH1 0x2 PUSH0 PUSH2 0x97C PUSH0 PUSH2 0xAD1 JUMP JUMPDEST DUP2 MSTORE PUSH1 0x20 ADD SWAP1 DUP2 MSTORE PUSH1 0x20 ADD PUSH0 KECCAK256 PUSH0 DUP3 ADD MLOAD DUP2 PUSH0 ADD SSTORE PUSH1 0x20 DUP3 ADD MLOAD DUP2 PUSH1 0x1 ADD SSTORE PUSH1 0x40 DUP3 ADD MLOAD DUP2 PUSH1 0x2 ADD SWAP1 DUP2 PUSH2 0x9B0 SWAP2 SWAP1 PUSH2 0x15EA JUMP JUMPDEST POP PUSH1 0x60 DUP3 ADD MLOAD DUP2 PUSH1 0x3 ADD SSTORE PUSH1 0x80 DUP3 ADD MLOAD DUP2 PUSH1 0x4 ADD SWAP1 DUP2 PUSH2 0x9D0 SWAP2 SWAP1 PUSH2 0x15EA JUMP JUMPDEST POP PUSH1 0xA0 DUP3 ADD MLOAD DUP2 PUSH1 0x5 ADD PUSH0 PUSH2 0x100 EXP DUP2 SLOAD DUP2 PUSH20 0xFFFFFFFFFFFFFFFFFFFFFFFFFFFFFFFFFFFFFFFF MUL NOT AND SWAP1 DUP4 PUSH20 0xFFFFFFFFFFFFFFFFFFFFFFFFFFFFFFFFFFFFFFFF AND MUL OR SWAP1 SSTORE POP PUSH1 0xC0 DUP3 ADD MLOAD DUP2 PUSH1 0x5 ADD PUSH1 0x14 PUSH2 0x100 EXP DUP2 SLOAD DUP2 PUSH1 0xFF MUL NOT AND SWAP1 DUP4 ISZERO ISZERO MUL OR SWAP1 SSTORE POP SWAP1 POP POP PUSH1 0x3 PUSH2 0xA45 PUSH0 PUSH2 0xAD1 JUMP JUMPDEST SWAP1 DUP1 PUSH1 0x1 DUP2 SLOAD ADD DUP1 DUP3 SSTORE DUP1 SWAP2 POP POP PUSH1 0x1 SWAP1 SUB SWAP1 PUSH0 MSTORE PUSH1 0x20 PUSH0 KECCAK256 ADD PUSH0 SWAP1 SWAP2 SWAP1 SWAP2 SWAP1 SWAP2 POP SSTORE PUSH32 0xD37F8CAA8CBF6BA249A853B50D83A4B0916CB52D083755767C3D4D086F9E3DF4 PUSH2 0xA92 PUSH0 PUSH2 0xAD1 JUMP JUMPDEST DUP9 DUP9 DUP9 DUP9 ADDRESS PUSH1 0x1 PUSH1 0x40 MLOAD PUSH2 0xAAC SWAP8 SWAP7 SWAP6 SWAP5 SWAP4 SWAP3 SWAP2 SWAP1 PUSH2 0xEF8 JUMP JUMPDEST PUSH1 0x40 MLOAD DUP1 SWAP2 SUB SWAP1 LOG1 POP POP POP POP POP POP POP JUMP JUMPDEST PUSH1 0x1 DUP2 PUSH0 ADD PUSH0 DUP3 DUP3 SLOAD ADD SWAP3 POP POP DUP2 SWAP1 SSTORE POP POP JUMP JUMPDEST PUSH0 DUP2 PUSH0 ADD SLOAD SWAP1 POP SWAP2 SWAP1 POP JUMP JUMPDEST PUSH1 0x40 MLOAD DUP1 PUSH1 0xE0 ADD PUSH1 0x40 MSTORE DUP1 PUSH0 DUP2 MSTORE PUSH1 0x20 ADD PUSH0 DUP2 MSTORE PUSH1 0x20 ADD PUSH1 0x60 DUP2 MSTORE PUSH1 0x20 ADD PUSH0 DUP2 MSTORE PUSH1 0x20 ADD PUSH1 0x60 DUP2 MSTORE PUSH1 0x20 ADD PUSH0 PUSH20 0xFFFFFFFFFFFFFFFFFFFFFFFFFFFFFFFFFFFFFFFF AND DUP2 MSTORE PUSH1 0x20 ADD PUSH0 ISZERO ISZERO DUP2 MSTORE POP SWAP1 JUMP JUMPDEST PUSH0 PUSH1 0x40 MLOAD SWAP1 POP SWAP1 JUMP JUMPDEST PUSH0 DUP1 REVERT JUMPDEST PUSH0 DUP1 REVERT JUMPDEST PUSH0 DUP2 SWAP1 POP SWAP2 SWAP1 POP JUMP JUMPDEST PUSH2 0xB50 DUP2 PUSH2 0xB3E JUMP JUMPDEST DUP2 EQ PUSH2 0xB5A JUMPI PUSH0 DUP1 REVERT JUMPDEST POP JUMP JUMPDEST PUSH0 DUP2 CALLDATALOAD SWAP1 POP PUSH2 0xB6B DUP2 PUSH2 0xB47 JUMP JUMPDEST SWAP3 SWAP2 POP POP JUMP JUMPDEST PUSH0 PUSH20 0xFFFFFFFFFFFFFFFFFFFFFFFFFFFFFFFFFFFFFFFF DUP3 AND SWAP1 POP SWAP2 SWAP1 POP JUMP JUMPDEST PUSH0 PUSH2 0xB9A DUP3 PUSH2 0xB71 JUMP JUMPDEST SWAP1 POP SWAP2 SWAP1 POP JUMP JUMPDEST PUSH2 0xBAA DUP2 PUSH2 0xB90 JUMP JUMPDEST DUP2 EQ PUSH2 0xBB4 JUMPI PUSH0 DUP1 REVERT JUMPDEST POP JUMP JUMPDEST PUSH0 DUP2 CALLDATALOAD SWAP1 POP PUSH2 0xBC5 DUP2 PUSH2 0xBA1 JUMP JUMPDEST SWAP3 SWAP2 POP POP JUMP JUMPDEST PUSH0 DUP1 PUSH0 PUSH1 0x60 DUP5 DUP7 SUB SLT ISZERO PUSH2 0xBE2 JUMPI PUSH2 0xBE1 PUSH2 0xB36 JUMP JUMPDEST JUMPDEST PUSH0 PUSH2 0xBEF DUP7 DUP3 DUP8 ADD PUSH2 0xB5D JUMP JUMPDEST SWAP4 POP POP PUSH1 0x20 PUSH2 0xC00 DUP7 DUP3 DUP8 ADD PUSH2 0xBB7 JUMP JUMPDEST SWAP3 POP POP PUSH1 0x40 PUSH2 0xC11 DUP7 DUP3 DUP8 ADD PUSH2 0xB5D JUMP JUMPDEST SWAP2 POP POP SWAP3 POP SWAP3 POP SWAP3 JUMP JUMPDEST PUSH0 DUP2 MLOAD SWAP1 POP SWAP2 SWAP1 POP JUMP JUMPDEST PUSH0 DUP3 DUP3 MSTORE PUSH1 0x20 DUP3 ADD SWAP1 POP SWAP3 SWAP2 POP POP JUMP JUMPDEST PUSH0 DUP2 SWAP1 POP PUSH1 0x20 DUP3 ADD SWAP1 POP SWAP2 SWAP1 POP JUMP JUMPDEST PUSH2 0xC4D DUP2 PUSH2 0xB3E JUMP JUMPDEST DUP3 MSTORE POP POP JUMP JUMPDEST PUSH0 DUP2 MLOAD SWAP1 POP SWAP2 SWAP1 POP JUMP JUMPDEST PUSH0 DUP3 DUP3 MSTORE PUSH1 0x20 DUP3 ADD SWAP1 POP SWAP3 SWAP2 POP POP JUMP JUMPDEST PUSH0 JUMPDEST DUP4 DUP2 LT ISZERO PUSH2 0xC8A JUMPI DUP1 DUP3 ADD MLOAD DUP2 DUP5 ADD MSTORE PUSH1 0x20 DUP2 ADD SWAP1 POP PUSH2 0xC6F JUMP JUMPDEST PUSH0 DUP5 DUP5 ADD MSTORE POP POP POP POP JUMP JUMPDEST PUSH0 PUSH1 0x1F NOT PUSH1 0x1F DUP4 ADD AND SWAP1 POP SWAP2 SWAP1 POP JUMP JUMPDEST PUSH0 PUSH2 0xCAF DUP3 PUSH2 0xC53 JUMP JUMPDEST PUSH2 0xCB9 DUP2 DUP6 PUSH2 0xC5D JUMP JUMPDEST SWAP4 POP PUSH2 0xCC9 DUP2 DUP6 PUSH1 0x20 DUP7 ADD PUSH2 0xC6D JUMP JUMPDEST PUSH2 0xCD2 DUP2 PUSH2 0xC95 JUMP JUMPDEST DUP5 ADD SWAP2 POP POP SWAP3 SWAP2 POP POP JUMP JUMPDEST PUSH2 0xCE6 DUP2 PUSH2 0xB90 JUMP JUMPDEST DUP3 MSTORE POP POP JUMP JUMPDEST PUSH0 DUP2 ISZERO ISZERO SWAP1 POP SWAP2 SWAP1 POP JUMP JUMPDEST PUSH2 0xD00 DUP2 PUSH2 0xCEC JUMP JUMPDEST DUP3 MSTORE POP POP JUMP JUMPDEST PUSH0 PUSH1 0xE0 DUP4 ADD PUSH0 DUP4 ADD MLOAD PUSH2 0xD1B PUSH0 DUP7 ADD DUP3 PUSH2 0xC44 JUMP JUMPDEST POP PUSH1 0x20 DUP4 ADD MLOAD PUSH2 0xD2E PUSH1 0x20 DUP7 ADD DUP3 PUSH2 0xC44 JUMP JUMPDEST POP PUSH1 0x40 DUP4 ADD MLOAD DUP5 DUP3 SUB PUSH1 0x40 DUP7 ADD MSTORE PUSH2 0xD46 DUP3 DUP3 PUSH2 0xCA5 JUMP JUMPDEST SWAP2 POP POP PUSH1 0x60 DUP4 ADD MLOAD PUSH2 0xD5B PUSH1 0x60 DUP7 ADD DUP3 PUSH2 0xC44 JUMP JUMPDEST POP PUSH1 0x80 DUP4 ADD MLOAD DUP5 DUP3 SUB PUSH1 0x80 DUP7 ADD MSTORE PUSH2 0xD73 DUP3 DUP3 PUSH2 0xCA5 JUMP JUMPDEST SWAP2 POP POP PUSH1 0xA0 DUP4 ADD MLOAD PUSH2 0xD88 PUSH1 0xA0 DUP7 ADD DUP3 PUSH2 0xCDD JUMP JUMPDEST POP PUSH1 0xC0 DUP4 ADD MLOAD PUSH2 0xD9B PUSH1 0xC0 DUP7 ADD DUP3 PUSH2 0xCF7 JUMP JUMPDEST POP DUP1 SWAP2 POP POP SWAP3 SWAP2 POP POP JUMP JUMPDEST PUSH0 PUSH2 0xDB1 DUP4 DUP4 PUSH2 0xD06 JUMP JUMPDEST SWAP1 POP SWAP3 SWAP2 POP POP JUMP JUMPDEST PUSH0 PUSH1 0x20 DUP3 ADD SWAP1 POP SWAP2 SWAP1 POP JUMP JUMPDEST PUSH0 PUSH2 0xDCF DUP3 PUSH2 0xC1B JUMP JUMPDEST PUSH2 0xDD9 DUP2 DUP6 PUSH2 0xC25 JUMP JUMPDEST SWAP4 POP DUP4 PUSH1 0x20 DUP3 MUL DUP6 ADD PUSH2 0xDEB DUP6 PUSH2 0xC35 JUMP JUMPDEST DUP1 PUSH0 JUMPDEST DUP6 DUP2 LT ISZERO PUSH2 0xE26 JUMPI DUP5 DUP5 SUB DUP10 MSTORE DUP2 MLOAD PUSH2 0xE07 DUP6 DUP3 PUSH2 0xDA6 JUMP JUMPDEST SWAP5 POP PUSH2 0xE12 DUP4 PUSH2 0xDB9 JUMP JUMPDEST SWAP3 POP PUSH1 0x20 DUP11 ADD SWAP10 POP POP PUSH1 0x1 DUP2 ADD SWAP1 POP PUSH2 0xDEE JUMP JUMPDEST POP DUP3 SWAP8 POP DUP8 SWAP6 POP POP POP POP POP POP SWAP3 SWAP2 POP POP JUMP JUMPDEST PUSH0 PUSH1 0x20 DUP3 ADD SWAP1 POP DUP2 DUP2 SUB PUSH0 DUP4 ADD MSTORE PUSH2 0xE50 DUP2 DUP5 PUSH2 0xDC5 JUMP JUMPDEST SWAP1 POP SWAP3 SWAP2 POP POP JUMP JUMPDEST PUSH0 PUSH1 0x20 DUP3 DUP5 SUB SLT ISZERO PUSH2 0xE6D JUMPI PUSH2 0xE6C PUSH2 0xB36 JUMP JUMPDEST JUMPDEST PUSH0 PUSH2 0xE7A DUP5 DUP3 DUP6 ADD PUSH2 0xB5D JUMP JUMPDEST SWAP2 POP POP SWAP3 SWAP2 POP POP JUMP JUMPDEST PUSH2 0xE8C DUP2 PUSH2 0xB3E JUMP JUMPDEST DUP3 MSTORE POP POP JUMP JUMPDEST PUSH0 DUP3 DUP3 MSTORE PUSH1 0x20 DUP3 ADD SWAP1 POP SWAP3 SWAP2 POP POP JUMP JUMPDEST PUSH0 PUSH2 0xEAC DUP3 PUSH2 0xC53 JUMP JUMPDEST PUSH2 0xEB6 DUP2 DUP6 PUSH2 0xE92 JUMP JUMPDEST SWAP4 POP PUSH2 0xEC6 DUP2 DUP6 PUSH1 0x20 DUP7 ADD PUSH2 0xC6D JUMP JUMPDEST PUSH2 0xECF DUP2 PUSH2 0xC95 JUMP JUMPDEST DUP5 ADD SWAP2 POP POP SWAP3 SWAP2 POP POP JUMP JUMPDEST PUSH2 0xEE3 DUP2 PUSH2 0xB90 JUMP JUMPDEST DUP3 MSTORE POP POP JUMP JUMPDEST PUSH2 0xEF2 DUP2 PUSH2 0xCEC JUMP JUMPDEST DUP3 MSTORE POP POP JUMP JUMPDEST PUSH0 PUSH1 0xE0 DUP3 ADD SWAP1 POP PUSH2 0xF0B PUSH0 DUP4 ADD DUP11 PUSH2 0xE83 JUMP JUMPDEST PUSH2 0xF18 PUSH1 0x20 DUP4 ADD DUP10 PUSH2 0xE83 JUMP JUMPDEST DUP2 DUP2 SUB PUSH1 0x40 DUP4 ADD MSTORE PUSH2 0xF2A DUP2 DUP9 PUSH2 0xEA2 JUMP JUMPDEST SWAP1 POP PUSH2 0xF39 PUSH1 0x60 DUP4 ADD DUP8 PUSH2 0xE83 JUMP JUMPDEST DUP2 DUP2 SUB PUSH1 0x80 DUP4 ADD MSTORE PUSH2 0xF4B DUP2 DUP7 PUSH2 0xEA2 JUMP JUMPDEST SWAP1 POP PUSH2 0xF5A PUSH1 0xA0 DUP4 ADD DUP6 PUSH2 0xEDA JUMP JUMPDEST PUSH2 0xF67 PUSH1 0xC0 DUP4 ADD DUP5 PUSH2 0xEE9 JUMP JUMPDEST SWAP9 SWAP8 POP POP POP POP POP POP POP POP JUMP JUMPDEST PUSH0 PUSH1 0x20 DUP3 ADD SWAP1 POP PUSH2 0xF86 PUSH0 DUP4 ADD DUP5 PUSH2 0xE83 JUMP JUMPDEST SWAP3 SWAP2 POP POP JUMP JUMPDEST PUSH0 DUP1 REVERT JUMPDEST PUSH0 DUP1 REVERT JUMPDEST PUSH32 0x4E487B7100000000000000000000000000000000000000000000000000000000 PUSH0 MSTORE PUSH1 0x41 PUSH1 0x4 MSTORE PUSH1 0x24 PUSH0 REVERT JUMPDEST PUSH2 0xFCA DUP3 PUSH2 0xC95 JUMP JUMPDEST DUP2 ADD DUP2 DUP2 LT PUSH8 0xFFFFFFFFFFFFFFFF DUP3 GT OR ISZERO PUSH2 0xFE9 JUMPI PUSH2 0xFE8 PUSH2 0xF94 JUMP JUMPDEST JUMPDEST DUP1 PUSH1 0x40 MSTORE POP POP POP JUMP JUMPDEST PUSH0 PUSH2 0xFFB PUSH2 0xB2D JUMP JUMPDEST SWAP1 POP PUSH2 0x1007 DUP3 DUP3 PUSH2 0xFC1 JUMP JUMPDEST SWAP2 SWAP1 POP JUMP JUMPDEST PUSH0 PUSH8 0xFFFFFFFFFFFFFFFF DUP3 GT ISZERO PUSH2 0x1026 JUMPI PUSH2 0x1025 PUSH2 0xF94 JUMP JUMPDEST JUMPDEST PUSH2 0x102F DUP3 PUSH2 0xC95 JUMP JUMPDEST SWAP1 POP PUSH1 0x20 DUP2 ADD SWAP1 POP SWAP2 SWAP1 POP JUMP JUMPDEST DUP3 DUP2 DUP4 CALLDATACOPY PUSH0 DUP4 DUP4 ADD MSTORE POP POP POP JUMP JUMPDEST PUSH0 PUSH2 0x105C PUSH2 0x1057 DUP5 PUSH2 0x100C JUMP JUMPDEST PUSH2 0xFF2 JUMP JUMPDEST SWAP1 POP DUP3 DUP2 MSTORE PUSH1 0x20 DUP2 ADD DUP5 DUP5 DUP5 ADD GT ISZERO PUSH2 0x1078 JUMPI PUSH2 0x1077 PUSH2 0xF90 JUMP JUMPDEST JUMPDEST PUSH2 0x1083 DUP5 DUP3 DUP6 PUSH2 0x103C JUMP JUMPDEST POP SWAP4 SWAP3 POP POP POP JUMP JUMPDEST PUSH0 DUP3 PUSH1 0x1F DUP4 ADD SLT PUSH2 0x109F JUMPI PUSH2 0x109E PUSH2 0xF8C JUMP JUMPDEST JUMPDEST DUP2 CALLDATALOAD PUSH2 0x10AF DUP5 DUP3 PUSH1 0x20 DUP7 ADD PUSH2 0x104A JUMP JUMPDEST SWAP2 POP POP SWAP3 SWAP2 POP POP JUMP JUMPDEST PUSH0 PUSH2 0x10C2 DUP3 PUSH2 0xB71 JUMP JUMPDEST SWAP1 POP SWAP2 SWAP1 POP JUMP JUMPDEST PUSH2 0x10D2 DUP2 PUSH2 0x10B8 JUMP JUMPDEST DUP2 EQ PUSH2 0x10DC JUMPI PUSH0 DUP1 REVERT JUMPDEST POP JUMP JUMPDEST PUSH0 DUP2 CALLDATALOAD SWAP1 POP PUSH2 0x10ED DUP2 PUSH2 0x10C9 JUMP JUMPDEST SWAP3 SWAP2 POP POP JUMP JUMPDEST PUSH2 0x10FC DUP2 PUSH2 0xCEC JUMP JUMPDEST DUP2 EQ PUSH2 0x1106 JUMPI PUSH0 DUP1 REVERT JUMPDEST POP JUMP JUMPDEST PUSH0 DUP2 CALLDATALOAD SWAP1 POP PUSH2 0x1117 DUP2 PUSH2 0x10F3 JUMP JUMPDEST SWAP3 SWAP2 POP POP JUMP JUMPDEST PUSH0 DUP1 PUSH0 DUP1 PUSH0 DUP1 PUSH1 0xC0 DUP8 DUP10 SUB SLT ISZERO PUSH2 0x1137 JUMPI PUSH2 0x1136 PUSH2 0xB36 JUMP JUMPDEST JUMPDEST PUSH0 PUSH2 0x1144 DUP10 DUP3 DUP11 ADD PUSH2 0xB5D JUMP JUMPDEST SWAP7 POP POP PUSH1 0x20 DUP8 ADD CALLDATALOAD PUSH8 0xFFFFFFFFFFFFFFFF DUP2 GT ISZERO PUSH2 0x1165 JUMPI PUSH2 0x1164 PUSH2 0xB3A JUMP JUMPDEST JUMPDEST PUSH2 0x1171 DUP10 DUP3 DUP11 ADD PUSH2 0x108B JUMP JUMPDEST SWAP6 POP POP PUSH1 0x40 PUSH2 0x1182 DUP10 DUP3 DUP11 ADD PUSH2 0xB5D JUMP JUMPDEST SWAP5 POP POP PUSH1 0x60 DUP8 ADD CALLDATALOAD PUSH8 0xFFFFFFFFFFFFFFFF DUP2 GT ISZERO PUSH2 0x11A3 JUMPI PUSH2 0x11A2 PUSH2 0xB3A JUMP JUMPDEST JUMPDEST PUSH2 0x11AF DUP10 DUP3 DUP11 ADD PUSH2 0x108B JUMP JUMPDEST SWAP4 POP POP PUSH1 0x80 PUSH2 0x11C0 DUP10 DUP3 DUP11 ADD PUSH2 0x10DF JUMP JUMPDEST SWAP3 POP POP PUSH1 0xA0 PUSH2 0x11D1 DUP10 DUP3 DUP11 ADD PUSH2 0x1109 JUMP JUMPDEST SWAP2 POP POP SWAP3 SWAP6 POP SWAP3 SWAP6 POP SWAP3 SWAP6 JUMP JUMPDEST PUSH32 0x4E487B7100000000000000000000000000000000000000000000000000000000 PUSH0 MSTORE PUSH1 0x22 PUSH1 0x4 MSTORE PUSH1 0x24 PUSH0 REVERT JUMPDEST PUSH0 PUSH1 0x2 DUP3 DIV SWAP1 POP PUSH1 0x1 DUP3 AND DUP1 PUSH2 0x1222 JUMPI PUSH1 0x7F DUP3 AND SWAP2 POP JUMPDEST PUSH1 0x20 DUP3 LT DUP2 SUB PUSH2 0x1235 JUMPI PUSH2 0x1234 PUSH2 0x11DE JUMP JUMPDEST JUMPDEST POP SWAP2 SWAP1 POP JUMP JUMPDEST PUSH32 0x43617220697320616C726561647920536F6C6400000000000000000000000000 PUSH0 DUP3 ADD MSTORE POP JUMP JUMPDEST PUSH0 PUSH2 0x126F PUSH1 0x13 DUP4 PUSH2 0xE92 JUMP JUMPDEST SWAP2 POP PUSH2 0x127A DUP3 PUSH2 0x123B JUMP JUMPDEST PUSH1 0x20 DUP3 ADD SWAP1 POP SWAP2 SWAP1 POP JUMP JUMPDEST PUSH0 PUSH1 0x20 DUP3 ADD SWAP1 POP DUP2 DUP2 SUB PUSH0 DUP4 ADD MSTORE PUSH2 0x129C DUP2 PUSH2 0x1263 JUMP JUMPDEST SWAP1 POP SWAP2 SWAP1 POP JUMP JUMPDEST PUSH32 0x57726F6E67204361722070726963650000000000000000000000000000000000 PUSH0 DUP3 ADD MSTORE POP JUMP JUMPDEST PUSH0 PUSH2 0x12D7 PUSH1 0xF DUP4 PUSH2 0xE92 JUMP JUMPDEST SWAP2 POP PUSH2 0x12E2 DUP3 PUSH2 0x12A3 JUMP JUMPDEST PUSH1 0x20 DUP3 ADD SWAP1 POP SWAP2 SWAP1 POP JUMP JUMPDEST PUSH0 PUSH1 0x20 DUP3 ADD SWAP1 POP DUP2 DUP2 SUB PUSH0 DUP4 ADD MSTORE PUSH2 0x1304 DUP2 PUSH2 0x12CB JUMP JUMPDEST SWAP1 POP SWAP2 SWAP1 POP JUMP JUMPDEST PUSH0 DUP2 SWAP1 POP SWAP2 SWAP1 POP JUMP JUMPDEST PUSH0 PUSH2 0x132E PUSH2 0x1329 PUSH2 0x1324 DUP5 PUSH2 0xB71 JUMP JUMPDEST PUSH2 0x130B JUMP JUMPDEST PUSH2 0xB71 JUMP JUMPDEST SWAP1 POP SWAP2 SWAP1 POP JUMP JUMPDEST PUSH0 PUSH2 0x133F DUP3 PUSH2 0x1314 JUMP JUMPDEST SWAP1 POP SWAP2 SWAP1 POP JUMP JUMPDEST PUSH0 PUSH2 0x1350 DUP3 PUSH2 0x1335 JUMP JUMPDEST SWAP1 POP SWAP2 SWAP1 POP JUMP JUMPDEST PUSH2 0x1360 DUP2 PUSH2 0x1346 JUMP JUMPDEST DUP3 MSTORE POP POP JUMP JUMPDEST PUSH0 PUSH1 0x60 DUP3 ADD SWAP1 POP PUSH2 0x1379 PUSH0 DUP4 ADD DUP7 PUSH2 0xE83 JUMP JUMPDEST PUSH2 0x1386 PUSH1 0x20 DUP4 ADD DUP6 PUSH2 0x1357 JUMP JUMPDEST PUSH2 0x1393 PUSH1 0x40 DUP4 ADD DUP5 PUSH2 0xE83 JUMP JUMPDEST SWAP5 SWAP4 POP POP POP POP JUMP JUMPDEST PUSH32 0x4E487B7100000000000000000000000000000000000000000000000000000000 PUSH0 MSTORE PUSH1 0x32 PUSH1 0x4 MSTORE PUSH1 0x24 PUSH0 REVERT JUMPDEST PUSH32 0x4F6E6C7920546865204167656E6379204F776E65722043616E20416464206361 PUSH0 DUP3 ADD MSTORE PUSH32 0x7273212121000000000000000000000000000000000000000000000000000000 PUSH1 0x20 DUP3 ADD MSTORE POP JUMP JUMPDEST PUSH0 PUSH2 0x1422 PUSH1 0x25 DUP4 PUSH2 0xE92 JUMP JUMPDEST SWAP2 POP PUSH2 0x142D DUP3 PUSH2 0x13C8 JUMP JUMPDEST PUSH1 0x40 DUP3 ADD SWAP1 POP SWAP2 SWAP1 POP JUMP JUMPDEST PUSH0 PUSH1 0x20 DUP3 ADD SWAP1 POP DUP2 DUP2 SUB PUSH0 DUP4 ADD MSTORE PUSH2 0x144F DUP2 PUSH2 0x1416 JUMP JUMPDEST SWAP1 POP SWAP2 SWAP1 POP JUMP JUMPDEST PUSH0 DUP2 SWAP1 POP DUP2 PUSH0 MSTORE PUSH1 0x20 PUSH0 KECCAK256 SWAP1 POP SWAP2 SWAP1 POP JUMP JUMPDEST PUSH0 PUSH1 0x20 PUSH1 0x1F DUP4 ADD DIV SWAP1 POP SWAP2 SWAP1 POP JUMP JUMPDEST PUSH0 DUP3 DUP3 SHL SWAP1 POP SWAP3 SWAP2 POP POP JUMP JUMPDEST PUSH0 PUSH1 0x8 DUP4 MUL PUSH2 0x14B2 PUSH32 0xFFFFFFFFFFFFFFFFFFFFFFFFFFFFFFFFFFFFFFFFFFFFFFFFFFFFFFFFFFFFFFFF DUP3 PUSH2 0x1477 JUMP JUMPDEST PUSH2 0x14BC DUP7 DUP4 PUSH2 0x1477 JUMP JUMPDEST SWAP6 POP DUP1 NOT DUP5 AND SWAP4 POP DUP1 DUP7 AND DUP5 OR SWAP3 POP POP POP SWAP4 SWAP3 POP POP POP JUMP JUMPDEST PUSH0 PUSH2 0x14EE PUSH2 0x14E9 PUSH2 0x14E4 DUP5 PUSH2 0xB3E JUMP JUMPDEST PUSH2 0x130B JUMP JUMPDEST PUSH2 0xB3E JUMP JUMPDEST SWAP1 POP SWAP2 SWAP1 POP JUMP JUMPDEST PUSH0 DUP2 SWAP1 POP SWAP2 SWAP1 POP JUMP JUMPDEST PUSH2 0x1507 DUP4 PUSH2 0x14D4 JUMP JUMPDEST PUSH2 0x151B PUSH2 0x1513 DUP3 PUSH2 0x14F5 JUMP JUMPDEST DUP5 DUP5 SLOAD PUSH2 0x1483 JUMP JUMPDEST DUP3 SSTORE POP POP POP POP JUMP JUMPDEST PUSH0 SWAP1 JUMP JUMPDEST PUSH2 0x152F PUSH2 0x1523 JUMP JUMPDEST PUSH2 0x153A DUP2 DUP5 DUP5 PUSH2 0x14FE JUMP JUMPDEST POP POP POP JUMP JUMPDEST JUMPDEST DUP2 DUP2 LT ISZERO PUSH2 0x155D JUMPI PUSH2 0x1552 PUSH0 DUP3 PUSH2 0x1527 JUMP JUMPDEST PUSH1 0x1 DUP2 ADD SWAP1 POP PUSH2 0x1540 JUMP JUMPDEST POP POP JUMP JUMPDEST PUSH1 0x1F DUP3 GT ISZERO PUSH2 0x15A2 JUMPI PUSH2 0x1573 DUP2 PUSH2 0x1456 JUMP JUMPDEST PUSH2 0x157C DUP5 PUSH2 0x1468 JUMP JUMPDEST DUP2 ADD PUSH1 0x20 DUP6 LT ISZERO PUSH2 0x158B JUMPI DUP2 SWAP1 POP JUMPDEST PUSH2 0x159F PUSH2 0x1597 DUP6 PUSH2 0x1468 JUMP JUMPDEST DUP4 ADD DUP3 PUSH2 0x153F JUMP JUMPDEST POP POP JUMPDEST POP POP POP JUMP JUMPDEST PUSH0 DUP3 DUP3 SHR SWAP1 POP SWAP3 SWAP2 POP POP JUMP JUMPDEST PUSH0 PUSH2 0x15C2 PUSH0 NOT DUP5 PUSH1 0x8 MUL PUSH2 0x15A7 JUMP JUMPDEST NOT DUP1 DUP4 AND SWAP2 POP POP SWAP3 SWAP2 POP POP JUMP JUMPDEST PUSH0 PUSH2 0x15DA DUP4 DUP4 PUSH2 0x15B3 JUMP JUMPDEST SWAP2 POP DUP3 PUSH1 0x2 MUL DUP3 OR SWAP1 POP SWAP3 SWAP2 POP POP JUMP JUMPDEST PUSH2 0x15F3 DUP3 PUSH2 0xC53 JUMP JUMPDEST PUSH8 0xFFFFFFFFFFFFFFFF DUP2 GT ISZERO PUSH2 0x160C JUMPI PUSH2 0x160B PUSH2 0xF94 JUMP JUMPDEST JUMPDEST PUSH2 0x1616 DUP3 SLOAD PUSH2 0x120B JUMP JUMPDEST PUSH2 0x1621 DUP3 DUP3 DUP6 PUSH2 0x1561 JUMP JUMPDEST PUSH0 PUSH1 0x20 SWAP1 POP PUSH1 0x1F DUP4 GT PUSH1 0x1 DUP2 EQ PUSH2 0x1652 JUMPI PUSH0 DUP5 ISZERO PUSH2 0x1640 JUMPI DUP3 DUP8 ADD MLOAD SWAP1 POP JUMPDEST PUSH2 0x164A DUP6 DUP3 PUSH2 0x15CF JUMP JUMPDEST DUP7 SSTORE POP PUSH2 0x16B1 JUMP JUMPDEST PUSH1 0x1F NOT DUP5 AND PUSH2 0x1660 DUP7 PUSH2 0x1456 JUMP JUMPDEST PUSH0 JUMPDEST DUP3 DUP2 LT ISZERO PUSH2 0x1687 JUMPI DUP5 DUP10 ADD MLOAD DUP3 SSTORE PUSH1 0x1 DUP3 ADD SWAP2 POP PUSH1 0x20 DUP6 ADD SWAP5 POP PUSH1 0x20 DUP2 ADD SWAP1 POP PUSH2 0x1662 JUMP JUMPDEST DUP7 DUP4 LT ISZERO PUSH2 0x16A4 JUMPI DUP5 DUP10 ADD MLOAD PUSH2 0x16A0 PUSH1 0x1F DUP10 AND DUP3 PUSH2 0x15B3 JUMP JUMPDEST DUP4 SSTORE POP JUMPDEST PUSH1 0x1 PUSH1 0x2 DUP9 MUL ADD DUP9 SSTORE POP POP POP JUMPDEST POP POP POP POP POP POP JUMP INVALID LOG2 PUSH5 0x6970667358 0x22 SLT KECCAK256 MUL 0xC 0xD4 DUP4 EXTCODESIZE SWAP7 0xE0 PUSH31 0x829603C768D8F104C39EEC708465726F23F9328F98A3528A64736F6C634300 ADDMOD AND STOP CALLER "
				},
				"gasEstimates": {
					"creation": {
						"codeDepositCost": "1174200",
						"executionCost": "25484",
						"totalCost": "1199684"
					},
					"external": {
						"AddCar(uint256,string,uint256,string,address,bool)": "infinite",
						"AllCars()": "infinite",
						"ListCars(uint256)": "infinite",
						"MapCars(uint256)": "infinite",
						"SellCar(uint256,address,uint256)": "infinite"
					}
				},
				"methodIdentifiers": {
					"AddCar(uint256,string,uint256,string,address,bool)": "e98d8383",
					"AllCars()": "9537d6cf",
					"ListCars(uint256)": "d923b3d8",
					"MapCars(uint256)": "9abb94d4",
					"SellCar(uint256,address,uint256)": "3b3bdd10"
				}
			},
			"storageLayout": {
				"storage": [
					{
						"astId": 98,
						"contract": "contracts/Cars.sol:CarAgency",
						"label": "_CurrentCarID",
						"offset": 0,
						"slot": "0",
						"type": "t_struct(Counter)5_storage"
					},
					{
						"astId": 124,
						"contract": "contracts/Cars.sol:CarAgency",
						"label": "AgencyOwner",
						"offset": 0,
						"slot": "1",
						"type": "t_address"
					},
					{
						"astId": 141,
						"contract": "contracts/Cars.sol:CarAgency",
						"label": "MapCars",
						"offset": 0,
						"slot": "2",
						"type": "t_mapping(t_uint256,t_struct(Struct_Car)95_storage)"
					},
					{
						"astId": 144,
						"contract": "contracts/Cars.sol:CarAgency",
						"label": "ListCars",
						"offset": 0,
						"slot": "3",
						"type": "t_array(t_uint256)dyn_storage"
					}
				],
				"types": {
					"t_address": {
						"encoding": "inplace",
						"label": "address",
						"numberOfBytes": "20"
					},
					"t_address_payable": {
						"encoding": "inplace",
						"label": "address payable",
						"numberOfBytes": "20"
					},
					"t_array(t_uint256)dyn_storage": {
						"base": "t_uint256",
						"encoding": "dynamic_array",
						"label": "uint256[]",
						"numberOfBytes": "32"
					},
					"t_bool": {
						"encoding": "inplace",
						"label": "bool",
						"numberOfBytes": "1"
					},
					"t_mapping(t_uint256,t_struct(Struct_Car)95_storage)": {
						"encoding": "mapping",
						"key": "t_uint256",
						"label": "mapping(uint256 => struct CarAgency.Struct_Car)",
						"numberOfBytes": "32",
						"value": "t_struct(Struct_Car)95_storage"
					},
					"t_string_storage": {
						"encoding": "bytes",
						"label": "string",
						"numberOfBytes": "32"
					},
					"t_struct(Counter)5_storage": {
						"encoding": "inplace",
						"label": "struct Counters.Counter",
						"members": [
							{
								"astId": 4,
								"contract": "contracts/Cars.sol:CarAgency",
								"label": "_value",
								"offset": 0,
								"slot": "0",
								"type": "t_uint256"
							}
						],
						"numberOfBytes": "32"
					},
					"t_struct(Struct_Car)95_storage": {
						"encoding": "inplace",
						"label": "struct CarAgency.Struct_Car",
						"members": [
							{
								"astId": 82,
								"contract": "contracts/Cars.sol:CarAgency",
								"label": "Car_id",
								"offset": 0,
								"slot": "0",
								"type": "t_uint256"
							},
							{
								"astId": 84,
								"contract": "contracts/Cars.sol:CarAgency",
								"label": "Car_model",
								"offset": 0,
								"slot": "1",
								"type": "t_uint256"
							},
							{
								"astId": 86,
								"contract": "contracts/Cars.sol:CarAgency",
								"label": "Car_color",
								"offset": 0,
								"slot": "2",
								"type": "t_string_storage"
							},
							{
								"astId": 88,
								"contract": "contracts/Cars.sol:CarAgency",
								"label": "Car_Price",
								"offset": 0,
								"slot": "3",
								"type": "t_uint256"
							},
							{
								"astId": 90,
								"contract": "contracts/Cars.sol:CarAgency",
								"label": "Car_Name",
								"offset": 0,
								"slot": "4",
								"type": "t_string_storage"
							},
							{
								"astId": 92,
								"contract": "contracts/Cars.sol:CarAgency",
								"label": "OwnedBy",
								"offset": 0,
								"slot": "5",
								"type": "t_address_payable"
							},
							{
								"astId": 94,
								"contract": "contracts/Cars.sol:CarAgency",
								"label": "Car_State",
								"offset": 20,
								"slot": "5",
								"type": "t_bool"
							}
						],
						"numberOfBytes": "192"
					},
					"t_uint256": {
						"encoding": "inplace",
						"label": "uint256",
						"numberOfBytes": "32"
					}
				}
			},
			"userdoc": {
				"kind": "user",
				"methods": {},
				"version": 1
			}
		}
	}
}