{
	"contracts/Sumof2Num.sol": {
		"cars": {
			"abi": [
				{
					"inputs": [
						{
							"internalType": "uint256",
							"name": "num1",
							"type": "uint256"
						},
						{
							"internalType": "uint256",
							"name": "num2",
							"type": "uint256"
						}
					],
					"name": "controlSum",
					"outputs": [
						{
							"internalType": "uint256",
							"name": "",
							"type": "uint256"
						}
					],
					"stateMutability": "pure",
					"type": "function"
				},
				{
					"inputs": [],
					"name": "getCarData",
					"outputs": [
						{
							"internalType": "string",
							"name": "_CarName",
							"type": "string"
						},
						{
							"internalType": "string",
							"name": "_CarBrand",
							"type": "string"
						},
						{
							"internalType": "uint256",
							"name": "_Carmodel",
							"type": "uint256"
						},
						{
							"internalType": "bool",
							"name": "_RedCar",
							"type": "bool"
						}
					],
					"stateMutability": "view",
					"type": "function"
				},
				{
					"inputs": [
						{
							"internalType": "string",
							"name": "_CarName",
							"type": "string"
						},
						{
							"internalType": "string",
							"name": "_CarBrand",
							"type": "string"
						},
						{
							"internalType": "uint256",
							"name": "_Carmodel",
							"type": "uint256"
						},
						{
							"internalType": "bool",
							"name": "_RedCar",
							"type": "bool"
						}
					],
					"name": "setCarData",
					"outputs": [],
					"stateMutability": "nonpayable",
					"type": "function"
				}
			],
			"devdoc": {
				"kind": "dev",
				"methods": {},
				"version": 1
			},
			"evm": {
				"assembly": "    /* \"contracts/Sumof2Num.sol\":251:1064  contract cars... */\n  mstore(0x40, 0x80)\n  callvalue\n  dup1\n  iszero\n  tag_1\n  jumpi\n  0x00\n  dup1\n  revert\ntag_1:\n  pop\n  dataSize(sub_0)\n  dup1\n  dataOffset(sub_0)\n  0x00\n  codecopy\n  0x00\n  return\nstop\n\nsub_0: assembly {\n        /* \"contracts/Sumof2Num.sol\":251:1064  contract cars... */\n      mstore(0x40, 0x80)\n      callvalue\n      dup1\n      iszero\n      tag_1\n      jumpi\n      0x00\n      dup1\n      revert\n    tag_1:\n      pop\n      jumpi(tag_2, lt(calldatasize, 0x04))\n      shr(0xe0, calldataload(0x00))\n      dup1\n      0x84297fb9\n      eq\n      tag_3\n      jumpi\n      dup1\n      0x8a5ab135\n      eq\n      tag_4\n      jumpi\n      dup1\n      0xc0f6ea36\n      eq\n      tag_5\n      jumpi\n    tag_2:\n      0x00\n      dup1\n      revert\n        /* \"contracts/Sumof2Num.sol\":356:608  function setCarData(string memory _CarName, string memory _CarBrand, uint _Carmodel, bool _RedCar) public ... */\n    tag_3:\n      tag_6\n      0x04\n      dup1\n      calldatasize\n      sub\n      dup2\n      add\n      swap1\n      tag_7\n      swap2\n      swap1\n      tag_8\n      jump\t// in\n    tag_7:\n      tag_9\n      jump\t// in\n    tag_6:\n      stop\n        /* \"contracts/Sumof2Num.sol\":823:1057  function controlSum(uint num1, uint num2) public pure returns (uint)... */\n    tag_4:\n      tag_10\n      0x04\n      dup1\n      calldatasize\n      sub\n      dup2\n      add\n      swap1\n      tag_11\n      swap2\n      swap1\n      tag_12\n      jump\t// in\n    tag_11:\n      tag_13\n      jump\t// in\n    tag_10:\n      mload(0x40)\n      tag_14\n      swap2\n      swap1\n      tag_15\n      jump\t// in\n    tag_14:\n      mload(0x40)\n      dup1\n      swap2\n      sub\n      swap1\n      return\n        /* \"contracts/Sumof2Num.sol\":617:815  function getCarData() public view returns (string memory _CarName, string memory _CarBrand, uint _Carmodel, bool _RedCar)... */\n    tag_5:\n      tag_16\n      tag_17\n      jump\t// in\n    tag_16:\n      mload(0x40)\n      tag_18\n      swap5\n      swap4\n      swap3\n      swap2\n      swap1\n      tag_19\n      jump\t// in\n    tag_18:\n      mload(0x40)\n      dup1\n      swap2\n      sub\n      swap1\n      return\n        /* \"contracts/Sumof2Num.sol\":356:608  function setCarData(string memory _CarName, string memory _CarBrand, uint _Carmodel, bool _RedCar) public ... */\n    tag_9:\n        /* \"contracts/Sumof2Num.sol\":487:495  _CarName */\n      dup4\n        /* \"contracts/Sumof2Num.sol\":479:486  carName */\n      0x00\n        /* \"contracts/Sumof2Num.sol\":479:495  carName=_CarName */\n      swap1\n      dup2\n      tag_21\n      swap2\n      swap1\n      tag_22\n      jump\t// in\n    tag_21:\n      pop\n        /* \"contracts/Sumof2Num.sol\":515:524  _CarBrand */\n      dup3\n        /* \"contracts/Sumof2Num.sol\":506:514  carBrand */\n      0x01\n        /* \"contracts/Sumof2Num.sol\":506:524  carBrand=_CarBrand */\n      swap1\n      dup2\n      tag_23\n      swap2\n      swap1\n      tag_22\n      jump\t// in\n    tag_23:\n      pop\n        /* \"contracts/Sumof2Num.sol\":544:553  _Carmodel */\n      dup2\n        /* \"contracts/Sumof2Num.sol\":535:543  carModel */\n      0x02\n        /* \"contracts/Sumof2Num.sol\":535:553  carModel=_Carmodel */\n      dup2\n      swap1\n      sstore\n      pop\n        /* \"contracts/Sumof2Num.sol\":571:578  _RedCar */\n      dup1\n        /* \"contracts/Sumof2Num.sol\":564:570  redCar */\n      0x03\n      0x00\n        /* \"contracts/Sumof2Num.sol\":564:578  redCar=_RedCar */\n      0x0100\n      exp\n      dup2\n      sload\n      dup2\n      0xff\n      mul\n      not\n      and\n      swap1\n      dup4\n      iszero\n      iszero\n      mul\n      or\n      swap1\n      sstore\n      pop\n        /* \"contracts/Sumof2Num.sol\":356:608  function setCarData(string memory _CarName, string memory _CarBrand, uint _Carmodel, bool _RedCar) public ... */\n      pop\n      pop\n      pop\n      pop\n      jump\t// out\n        /* \"contracts/Sumof2Num.sol\":823:1057  function controlSum(uint num1, uint num2) public pure returns (uint)... */\n    tag_13:\n        /* \"contracts/Sumof2Num.sol\":886:890  uint */\n      0x00\n        /* \"contracts/Sumof2Num.sol\":917:918  5 */\n      0x05\n        /* \"contracts/Sumof2Num.sol\":912:916  num1 */\n      dup4\n        /* \"contracts/Sumof2Num.sol\":912:918  num1>5 */\n      gt\n        /* \"contracts/Sumof2Num.sol\":912:928  num1>5 && num2<5 */\n      dup1\n      iszero\n      tag_25\n      jumpi\n      pop\n        /* \"contracts/Sumof2Num.sol\":927:928  5 */\n      0x05\n        /* \"contracts/Sumof2Num.sol\":922:926  num2 */\n      dup3\n        /* \"contracts/Sumof2Num.sol\":922:928  num2<5 */\n      lt\n        /* \"contracts/Sumof2Num.sol\":912:928  num1>5 && num2<5 */\n    tag_25:\n        /* \"contracts/Sumof2Num.sol\":908:1050  if (num1>5 && num2<5) ... */\n      iszero\n      tag_26\n      jumpi\n        /* \"contracts/Sumof2Num.sol\":967:971  num2 */\n      dup2\n        /* \"contracts/Sumof2Num.sol\":962:966  num1 */\n      dup4\n        /* \"contracts/Sumof2Num.sol\":962:971  num1-num2 */\n      tag_27\n      swap2\n      swap1\n      tag_28\n      jump\t// in\n    tag_27:\n        /* \"contracts/Sumof2Num.sol\":955:971  return num1-num2 */\n      swap1\n      pop\n      jump(tag_24)\n        /* \"contracts/Sumof2Num.sol\":908:1050  if (num1>5 && num2<5) ... */\n    tag_26:\n        /* \"contracts/Sumof2Num.sol\":1034:1038  num2 */\n      dup2\n        /* \"contracts/Sumof2Num.sol\":1029:1033  num1 */\n      dup4\n        /* \"contracts/Sumof2Num.sol\":1029:1038  num1+num2 */\n      tag_30\n      swap2\n      swap1\n      tag_31\n      jump\t// in\n    tag_30:\n        /* \"contracts/Sumof2Num.sol\":1022:1038  return num1+num2 */\n      swap1\n      pop\n        /* \"contracts/Sumof2Num.sol\":823:1057  function controlSum(uint num1, uint num2) public pure returns (uint)... */\n    tag_24:\n      swap3\n      swap2\n      pop\n      pop\n      jump\t// out\n        /* \"contracts/Sumof2Num.sol\":617:815  function getCarData() public view returns (string memory _CarName, string memory _CarBrand, uint _Carmodel, bool _RedCar)... */\n    tag_17:\n        /* \"contracts/Sumof2Num.sol\":660:682  string memory _CarName */\n      0x60\n        /* \"contracts/Sumof2Num.sol\":684:707  string memory _CarBrand */\n      dup1\n        /* \"contracts/Sumof2Num.sol\":709:723  uint _Carmodel */\n      0x00\n        /* \"contracts/Sumof2Num.sol\":725:737  bool _RedCar */\n      dup1\n        /* \"contracts/Sumof2Num.sol\":762:769  carName */\n      0x00\n        /* \"contracts/Sumof2Num.sol\":771:779  carBrand */\n      0x01\n        /* \"contracts/Sumof2Num.sol\":781:789  carModel */\n      sload(0x02)\n        /* \"contracts/Sumof2Num.sol\":791:797  redCar */\n      0x03\n      0x00\n      swap1\n      sload\n      swap1\n      0x0100\n      exp\n      swap1\n      div\n      0xff\n      and\n        /* \"contracts/Sumof2Num.sol\":755:798  return(carName, carBrand, carModel, redCar) */\n      dup4\n      dup1\n      sload\n      tag_33\n      swap1\n      tag_34\n      jump\t// in\n    tag_33:\n      dup1\n      0x1f\n      add\n      0x20\n      dup1\n      swap2\n      div\n      mul\n      0x20\n      add\n      mload(0x40)\n      swap1\n      dup2\n      add\n      0x40\n      mstore\n      dup1\n      swap3\n      swap2\n      swap1\n      dup2\n      dup2\n      mstore\n      0x20\n      add\n      dup3\n      dup1\n      sload\n      tag_35\n      swap1\n      tag_34\n      jump\t// in\n    tag_35:\n      dup1\n      iszero\n      tag_36\n      jumpi\n      dup1\n      0x1f\n      lt\n      tag_37\n      jumpi\n      0x0100\n      dup1\n      dup4\n      sload\n      div\n      mul\n      dup4\n      mstore\n      swap2\n      0x20\n      add\n      swap2\n      jump(tag_36)\n    tag_37:\n      dup3\n      add\n      swap2\n      swap1\n      0x00\n      mstore\n      keccak256(0x00, 0x20)\n      swap1\n    tag_38:\n      dup2\n      sload\n      dup2\n      mstore\n      swap1\n      0x01\n      add\n      swap1\n      0x20\n      add\n      dup1\n      dup4\n      gt\n      tag_38\n      jumpi\n      dup3\n      swap1\n      sub\n      0x1f\n      and\n      dup3\n      add\n      swap2\n    tag_36:\n      pop\n      pop\n      pop\n      pop\n      pop\n      swap4\n      pop\n      dup3\n      dup1\n      sload\n      tag_39\n      swap1\n      tag_34\n      jump\t// in\n    tag_39:\n      dup1\n      0x1f\n      add\n      0x20\n      dup1\n      swap2\n      div\n      mul\n      0x20\n      add\n      mload(0x40)\n      swap1\n      dup2\n      add\n      0x40\n      mstore\n      dup1\n      swap3\n      swap2\n      swap1\n      dup2\n      dup2\n      mstore\n      0x20\n      add\n      dup3\n      dup1\n      sload\n      tag_40\n      swap1\n      tag_34\n      jump\t// in\n    tag_40:\n      dup1\n      iszero\n      tag_41\n      jumpi\n      dup1\n      0x1f\n      lt\n      tag_42\n      jumpi\n      0x0100\n      dup1\n      dup4\n      sload\n      div\n      mul\n      dup4\n      mstore\n      swap2\n      0x20\n      add\n      swap2\n      jump(tag_41)\n    tag_42:\n      dup3\n      add\n      swap2\n      swap1\n      0x00\n      mstore\n      keccak256(0x00, 0x20)\n      swap1\n    tag_43:\n      dup2\n      sload\n      dup2\n      mstore\n      swap1\n      0x01\n      add\n      swap1\n      0x20\n      add\n      dup1\n      dup4\n      gt\n      tag_43\n      jumpi\n      dup3\n      swap1\n      sub\n      0x1f\n      and\n      dup3\n      add\n      swap2\n    tag_41:\n      pop\n      pop\n      pop\n      pop\n      pop\n      swap3\n      pop\n      swap4\n      pop\n      swap4\n      pop\n      swap4\n      pop\n      swap4\n      pop\n        /* \"contracts/Sumof2Num.sol\":617:815  function getCarData() public view returns (string memory _CarName, string memory _CarBrand, uint _Carmodel, bool _RedCar)... */\n      swap1\n      swap2\n      swap3\n      swap4\n      jump\t// out\n        /* \"#utility.yul\":7:82   */\n    tag_44:\n        /* \"#utility.yul\":40:46   */\n      0x00\n        /* \"#utility.yul\":73:75   */\n      0x40\n        /* \"#utility.yul\":67:76   */\n      mload\n        /* \"#utility.yul\":57:76   */\n      swap1\n      pop\n        /* \"#utility.yul\":7:82   */\n      swap1\n      jump\t// out\n        /* \"#utility.yul\":88:205   */\n    tag_45:\n        /* \"#utility.yul\":197:198   */\n      0x00\n        /* \"#utility.yul\":194:195   */\n      dup1\n        /* \"#utility.yul\":187:199   */\n      revert\n        /* \"#utility.yul\":211:328   */\n    tag_46:\n        /* \"#utility.yul\":320:321   */\n      0x00\n        /* \"#utility.yul\":317:318   */\n      dup1\n        /* \"#utility.yul\":310:322   */\n      revert\n        /* \"#utility.yul\":334:451   */\n    tag_47:\n        /* \"#utility.yul\":443:444   */\n      0x00\n        /* \"#utility.yul\":440:441   */\n      dup1\n        /* \"#utility.yul\":433:445   */\n      revert\n        /* \"#utility.yul\":457:574   */\n    tag_48:\n        /* \"#utility.yul\":566:567   */\n      0x00\n        /* \"#utility.yul\":563:564   */\n      dup1\n        /* \"#utility.yul\":556:568   */\n      revert\n        /* \"#utility.yul\":580:682   */\n    tag_49:\n        /* \"#utility.yul\":621:627   */\n      0x00\n        /* \"#utility.yul\":672:674   */\n      0x1f\n        /* \"#utility.yul\":668:675   */\n      not\n        /* \"#utility.yul\":663:665   */\n      0x1f\n        /* \"#utility.yul\":656:661   */\n      dup4\n        /* \"#utility.yul\":652:666   */\n      add\n        /* \"#utility.yul\":648:676   */\n      and\n        /* \"#utility.yul\":638:676   */\n      swap1\n      pop\n        /* \"#utility.yul\":580:682   */\n      swap2\n      swap1\n      pop\n      jump\t// out\n        /* \"#utility.yul\":688:868   */\n    tag_50:\n        /* \"#utility.yul\":736:813   */\n      0x4e487b7100000000000000000000000000000000000000000000000000000000\n        /* \"#utility.yul\":733:734   */\n      0x00\n        /* \"#utility.yul\":726:814   */\n      mstore\n        /* \"#utility.yul\":833:837   */\n      0x41\n        /* \"#utility.yul\":830:831   */\n      0x04\n        /* \"#utility.yul\":823:838   */\n      mstore\n        /* \"#utility.yul\":857:861   */\n      0x24\n        /* \"#utility.yul\":854:855   */\n      0x00\n        /* \"#utility.yul\":847:862   */\n      revert\n        /* \"#utility.yul\":874:1155   */\n    tag_51:\n        /* \"#utility.yul\":957:984   */\n      tag_95\n        /* \"#utility.yul\":979:983   */\n      dup3\n        /* \"#utility.yul\":957:984   */\n      tag_49\n      jump\t// in\n    tag_95:\n        /* \"#utility.yul\":949:955   */\n      dup2\n        /* \"#utility.yul\":945:985   */\n      add\n        /* \"#utility.yul\":1087:1093   */\n      dup2\n        /* \"#utility.yul\":1075:1085   */\n      dup2\n        /* \"#utility.yul\":1072:1094   */\n      lt\n        /* \"#utility.yul\":1051:1069   */\n      0xffffffffffffffff\n        /* \"#utility.yul\":1039:1049   */\n      dup3\n        /* \"#utility.yul\":1036:1070   */\n      gt\n        /* \"#utility.yul\":1033:1095   */\n      or\n        /* \"#utility.yul\":1030:1118   */\n      iszero\n      tag_96\n      jumpi\n        /* \"#utility.yul\":1098:1116   */\n      tag_97\n      tag_50\n      jump\t// in\n    tag_97:\n        /* \"#utility.yul\":1030:1118   */\n    tag_96:\n        /* \"#utility.yul\":1138:1148   */\n      dup1\n        /* \"#utility.yul\":1134:1136   */\n      0x40\n        /* \"#utility.yul\":1127:1149   */\n      mstore\n        /* \"#utility.yul\":917:1155   */\n      pop\n        /* \"#utility.yul\":874:1155   */\n      pop\n      pop\n      jump\t// out\n        /* \"#utility.yul\":1161:1290   */\n    tag_52:\n        /* \"#utility.yul\":1195:1201   */\n      0x00\n        /* \"#utility.yul\":1222:1242   */\n      tag_99\n      tag_44\n      jump\t// in\n    tag_99:\n        /* \"#utility.yul\":1212:1242   */\n      swap1\n      pop\n        /* \"#utility.yul\":1251:1284   */\n      tag_100\n        /* \"#utility.yul\":1279:1283   */\n      dup3\n        /* \"#utility.yul\":1271:1277   */\n      dup3\n        /* \"#utility.yul\":1251:1284   */\n      tag_51\n      jump\t// in\n    tag_100:\n        /* \"#utility.yul\":1161:1290   */\n      swap2\n      swap1\n      pop\n      jump\t// out\n        /* \"#utility.yul\":1296:1604   */\n    tag_53:\n        /* \"#utility.yul\":1358:1362   */\n      0x00\n        /* \"#utility.yul\":1448:1466   */\n      0xffffffffffffffff\n        /* \"#utility.yul\":1440:1446   */\n      dup3\n        /* \"#utility.yul\":1437:1467   */\n      gt\n        /* \"#utility.yul\":1434:1490   */\n      iszero\n      tag_102\n      jumpi\n        /* \"#utility.yul\":1470:1488   */\n      tag_103\n      tag_50\n      jump\t// in\n    tag_103:\n        /* \"#utility.yul\":1434:1490   */\n    tag_102:\n        /* \"#utility.yul\":1508:1537   */\n      tag_104\n        /* \"#utility.yul\":1530:1536   */\n      dup3\n        /* \"#utility.yul\":1508:1537   */\n      tag_49\n      jump\t// in\n    tag_104:\n        /* \"#utility.yul\":1500:1537   */\n      swap1\n      pop\n        /* \"#utility.yul\":1592:1596   */\n      0x20\n        /* \"#utility.yul\":1586:1590   */\n      dup2\n        /* \"#utility.yul\":1582:1597   */\n      add\n        /* \"#utility.yul\":1574:1597   */\n      swap1\n      pop\n        /* \"#utility.yul\":1296:1604   */\n      swap2\n      swap1\n      pop\n      jump\t// out\n        /* \"#utility.yul\":1610:1756   */\n    tag_54:\n        /* \"#utility.yul\":1707:1713   */\n      dup3\n        /* \"#utility.yul\":1702:1705   */\n      dup2\n        /* \"#utility.yul\":1697:1700   */\n      dup4\n        /* \"#utility.yul\":1684:1714   */\n      calldatacopy\n        /* \"#utility.yul\":1748:1749   */\n      0x00\n        /* \"#utility.yul\":1739:1745   */\n      dup4\n        /* \"#utility.yul\":1734:1737   */\n      dup4\n        /* \"#utility.yul\":1730:1746   */\n      add\n        /* \"#utility.yul\":1723:1750   */\n      mstore\n        /* \"#utility.yul\":1610:1756   */\n      pop\n      pop\n      pop\n      jump\t// out\n        /* \"#utility.yul\":1762:2187   */\n    tag_55:\n        /* \"#utility.yul\":1840:1845   */\n      0x00\n        /* \"#utility.yul\":1865:1931   */\n      tag_107\n        /* \"#utility.yul\":1881:1930   */\n      tag_108\n        /* \"#utility.yul\":1923:1929   */\n      dup5\n        /* \"#utility.yul\":1881:1930   */\n      tag_53\n      jump\t// in\n    tag_108:\n        /* \"#utility.yul\":1865:1931   */\n      tag_52\n      jump\t// in\n    tag_107:\n        /* \"#utility.yul\":1856:1931   */\n      swap1\n      pop\n        /* \"#utility.yul\":1954:1960   */\n      dup3\n        /* \"#utility.yul\":1947:1952   */\n      dup2\n        /* \"#utility.yul\":1940:1961   */\n      mstore\n        /* \"#utility.yul\":1992:1996   */\n      0x20\n        /* \"#utility.yul\":1985:1990   */\n      dup2\n        /* \"#utility.yul\":1981:1997   */\n      add\n        /* \"#utility.yul\":2030:2033   */\n      dup5\n        /* \"#utility.yul\":2021:2027   */\n      dup5\n        /* \"#utility.yul\":2016:2019   */\n      dup5\n        /* \"#utility.yul\":2012:2028   */\n      add\n        /* \"#utility.yul\":2009:2034   */\n      gt\n        /* \"#utility.yul\":2006:2118   */\n      iszero\n      tag_109\n      jumpi\n        /* \"#utility.yul\":2037:2116   */\n      tag_110\n      tag_48\n      jump\t// in\n    tag_110:\n        /* \"#utility.yul\":2006:2118   */\n    tag_109:\n        /* \"#utility.yul\":2127:2181   */\n      tag_111\n        /* \"#utility.yul\":2174:2180   */\n      dup5\n        /* \"#utility.yul\":2169:2172   */\n      dup3\n        /* \"#utility.yul\":2164:2167   */\n      dup6\n        /* \"#utility.yul\":2127:2181   */\n      tag_54\n      jump\t// in\n    tag_111:\n        /* \"#utility.yul\":1846:2187   */\n      pop\n        /* \"#utility.yul\":1762:2187   */\n      swap4\n      swap3\n      pop\n      pop\n      pop\n      jump\t// out\n        /* \"#utility.yul\":2207:2547   */\n    tag_56:\n        /* \"#utility.yul\":2263:2268   */\n      0x00\n        /* \"#utility.yul\":2312:2315   */\n      dup3\n        /* \"#utility.yul\":2305:2309   */\n      0x1f\n        /* \"#utility.yul\":2297:2303   */\n      dup4\n        /* \"#utility.yul\":2293:2310   */\n      add\n        /* \"#utility.yul\":2289:2316   */\n      slt\n        /* \"#utility.yul\":2279:2401   */\n      tag_113\n      jumpi\n        /* \"#utility.yul\":2320:2399   */\n      tag_114\n      tag_47\n      jump\t// in\n    tag_114:\n        /* \"#utility.yul\":2279:2401   */\n    tag_113:\n        /* \"#utility.yul\":2437:2443   */\n      dup2\n        /* \"#utility.yul\":2424:2444   */\n      calldataload\n        /* \"#utility.yul\":2462:2541   */\n      tag_115\n        /* \"#utility.yul\":2537:2540   */\n      dup5\n        /* \"#utility.yul\":2529:2535   */\n      dup3\n        /* \"#utility.yul\":2522:2526   */\n      0x20\n        /* \"#utility.yul\":2514:2520   */\n      dup7\n        /* \"#utility.yul\":2510:2527   */\n      add\n        /* \"#utility.yul\":2462:2541   */\n      tag_55\n      jump\t// in\n    tag_115:\n        /* \"#utility.yul\":2453:2541   */\n      swap2\n      pop\n        /* \"#utility.yul\":2269:2547   */\n      pop\n        /* \"#utility.yul\":2207:2547   */\n      swap3\n      swap2\n      pop\n      pop\n      jump\t// out\n        /* \"#utility.yul\":2553:2630   */\n    tag_57:\n        /* \"#utility.yul\":2590:2597   */\n      0x00\n        /* \"#utility.yul\":2619:2624   */\n      dup2\n        /* \"#utility.yul\":2608:2624   */\n      swap1\n      pop\n        /* \"#utility.yul\":2553:2630   */\n      swap2\n      swap1\n      pop\n      jump\t// out\n        /* \"#utility.yul\":2636:2758   */\n    tag_58:\n        /* \"#utility.yul\":2709:2733   */\n      tag_118\n        /* \"#utility.yul\":2727:2732   */\n      dup2\n        /* \"#utility.yul\":2709:2733   */\n      tag_57\n      jump\t// in\n    tag_118:\n        /* \"#utility.yul\":2702:2707   */\n      dup2\n        /* \"#utility.yul\":2699:2734   */\n      eq\n        /* \"#utility.yul\":2689:2752   */\n      tag_119\n      jumpi\n        /* \"#utility.yul\":2748:2749   */\n      0x00\n        /* \"#utility.yul\":2745:2746   */\n      dup1\n        /* \"#utility.yul\":2738:2750   */\n      revert\n        /* \"#utility.yul\":2689:2752   */\n    tag_119:\n        /* \"#utility.yul\":2636:2758   */\n      pop\n      jump\t// out\n        /* \"#utility.yul\":2764:2903   */\n    tag_59:\n        /* \"#utility.yul\":2810:2815   */\n      0x00\n        /* \"#utility.yul\":2848:2854   */\n      dup2\n        /* \"#utility.yul\":2835:2855   */\n      calldataload\n        /* \"#utility.yul\":2826:2855   */\n      swap1\n      pop\n        /* \"#utility.yul\":2864:2897   */\n      tag_121\n        /* \"#utility.yul\":2891:2896   */\n      dup2\n        /* \"#utility.yul\":2864:2897   */\n      tag_58\n      jump\t// in\n    tag_121:\n        /* \"#utility.yul\":2764:2903   */\n      swap3\n      swap2\n      pop\n      pop\n      jump\t// out\n        /* \"#utility.yul\":2909:2999   */\n    tag_60:\n        /* \"#utility.yul\":2943:2950   */\n      0x00\n        /* \"#utility.yul\":2986:2991   */\n      dup2\n        /* \"#utility.yul\":2979:2992   */\n      iszero\n        /* \"#utility.yul\":2972:2993   */\n      iszero\n        /* \"#utility.yul\":2961:2993   */\n      swap1\n      pop\n        /* \"#utility.yul\":2909:2999   */\n      swap2\n      swap1\n      pop\n      jump\t// out\n        /* \"#utility.yul\":3005:3121   */\n    tag_61:\n        /* \"#utility.yul\":3075:3096   */\n      tag_124\n        /* \"#utility.yul\":3090:3095   */\n      dup2\n        /* \"#utility.yul\":3075:3096   */\n      tag_60\n      jump\t// in\n    tag_124:\n        /* \"#utility.yul\":3068:3073   */\n      dup2\n        /* \"#utility.yul\":3065:3097   */\n      eq\n        /* \"#utility.yul\":3055:3115   */\n      tag_125\n      jumpi\n        /* \"#utility.yul\":3111:3112   */\n      0x00\n        /* \"#utility.yul\":3108:3109   */\n      dup1\n        /* \"#utility.yul\":3101:3113   */\n      revert\n        /* \"#utility.yul\":3055:3115   */\n    tag_125:\n        /* \"#utility.yul\":3005:3121   */\n      pop\n      jump\t// out\n        /* \"#utility.yul\":3127:3260   */\n    tag_62:\n        /* \"#utility.yul\":3170:3175   */\n      0x00\n        /* \"#utility.yul\":3208:3214   */\n      dup2\n        /* \"#utility.yul\":3195:3215   */\n      calldataload\n        /* \"#utility.yul\":3186:3215   */\n      swap1\n      pop\n        /* \"#utility.yul\":3224:3254   */\n      tag_127\n        /* \"#utility.yul\":3248:3253   */\n      dup2\n        /* \"#utility.yul\":3224:3254   */\n      tag_61\n      jump\t// in\n    tag_127:\n        /* \"#utility.yul\":3127:3260   */\n      swap3\n      swap2\n      pop\n      pop\n      jump\t// out\n        /* \"#utility.yul\":3266:4385   */\n    tag_8:\n        /* \"#utility.yul\":3369:3375   */\n      0x00\n        /* \"#utility.yul\":3377:3383   */\n      dup1\n        /* \"#utility.yul\":3385:3391   */\n      0x00\n        /* \"#utility.yul\":3393:3399   */\n      dup1\n        /* \"#utility.yul\":3442:3445   */\n      0x80\n        /* \"#utility.yul\":3430:3439   */\n      dup6\n        /* \"#utility.yul\":3421:3428   */\n      dup8\n        /* \"#utility.yul\":3417:3440   */\n      sub\n        /* \"#utility.yul\":3413:3446   */\n      slt\n        /* \"#utility.yul\":3410:3530   */\n      iszero\n      tag_129\n      jumpi\n        /* \"#utility.yul\":3449:3528   */\n      tag_130\n      tag_45\n      jump\t// in\n    tag_130:\n        /* \"#utility.yul\":3410:3530   */\n    tag_129:\n        /* \"#utility.yul\":3597:3598   */\n      0x00\n        /* \"#utility.yul\":3586:3595   */\n      dup6\n        /* \"#utility.yul\":3582:3599   */\n      add\n        /* \"#utility.yul\":3569:3600   */\n      calldataload\n        /* \"#utility.yul\":3627:3645   */\n      0xffffffffffffffff\n        /* \"#utility.yul\":3619:3625   */\n      dup2\n        /* \"#utility.yul\":3616:3646   */\n      gt\n        /* \"#utility.yul\":3613:3730   */\n      iszero\n      tag_131\n      jumpi\n        /* \"#utility.yul\":3649:3728   */\n      tag_132\n      tag_46\n      jump\t// in\n    tag_132:\n        /* \"#utility.yul\":3613:3730   */\n    tag_131:\n        /* \"#utility.yul\":3754:3817   */\n      tag_133\n        /* \"#utility.yul\":3809:3816   */\n      dup8\n        /* \"#utility.yul\":3800:3806   */\n      dup3\n        /* \"#utility.yul\":3789:3798   */\n      dup9\n        /* \"#utility.yul\":3785:3807   */\n      add\n        /* \"#utility.yul\":3754:3817   */\n      tag_56\n      jump\t// in\n    tag_133:\n        /* \"#utility.yul\":3744:3817   */\n      swap5\n      pop\n        /* \"#utility.yul\":3540:3827   */\n      pop\n        /* \"#utility.yul\":3894:3896   */\n      0x20\n        /* \"#utility.yul\":3883:3892   */\n      dup6\n        /* \"#utility.yul\":3879:3897   */\n      add\n        /* \"#utility.yul\":3866:3898   */\n      calldataload\n        /* \"#utility.yul\":3925:3943   */\n      0xffffffffffffffff\n        /* \"#utility.yul\":3917:3923   */\n      dup2\n        /* \"#utility.yul\":3914:3944   */\n      gt\n        /* \"#utility.yul\":3911:4028   */\n      iszero\n      tag_134\n      jumpi\n        /* \"#utility.yul\":3947:4026   */\n      tag_135\n      tag_46\n      jump\t// in\n    tag_135:\n        /* \"#utility.yul\":3911:4028   */\n    tag_134:\n        /* \"#utility.yul\":4052:4115   */\n      tag_136\n        /* \"#utility.yul\":4107:4114   */\n      dup8\n        /* \"#utility.yul\":4098:4104   */\n      dup3\n        /* \"#utility.yul\":4087:4096   */\n      dup9\n        /* \"#utility.yul\":4083:4105   */\n      add\n        /* \"#utility.yul\":4052:4115   */\n      tag_56\n      jump\t// in\n    tag_136:\n        /* \"#utility.yul\":4042:4115   */\n      swap4\n      pop\n        /* \"#utility.yul\":3837:4125   */\n      pop\n        /* \"#utility.yul\":4164:4166   */\n      0x40\n        /* \"#utility.yul\":4190:4243   */\n      tag_137\n        /* \"#utility.yul\":4235:4242   */\n      dup8\n        /* \"#utility.yul\":4226:4232   */\n      dup3\n        /* \"#utility.yul\":4215:4224   */\n      dup9\n        /* \"#utility.yul\":4211:4233   */\n      add\n        /* \"#utility.yul\":4190:4243   */\n      tag_59\n      jump\t// in\n    tag_137:\n        /* \"#utility.yul\":4180:4243   */\n      swap3\n      pop\n        /* \"#utility.yul\":4135:4253   */\n      pop\n        /* \"#utility.yul\":4292:4294   */\n      0x60\n        /* \"#utility.yul\":4318:4368   */\n      tag_138\n        /* \"#utility.yul\":4360:4367   */\n      dup8\n        /* \"#utility.yul\":4351:4357   */\n      dup3\n        /* \"#utility.yul\":4340:4349   */\n      dup9\n        /* \"#utility.yul\":4336:4358   */\n      add\n        /* \"#utility.yul\":4318:4368   */\n      tag_62\n      jump\t// in\n    tag_138:\n        /* \"#utility.yul\":4308:4368   */\n      swap2\n      pop\n        /* \"#utility.yul\":4263:4378   */\n      pop\n        /* \"#utility.yul\":3266:4385   */\n      swap3\n      swap6\n      swap2\n      swap5\n      pop\n      swap3\n      pop\n      jump\t// out\n        /* \"#utility.yul\":4391:4865   */\n    tag_12:\n        /* \"#utility.yul\":4459:4465   */\n      0x00\n        /* \"#utility.yul\":4467:4473   */\n      dup1\n        /* \"#utility.yul\":4516:4518   */\n      0x40\n        /* \"#utility.yul\":4504:4513   */\n      dup4\n        /* \"#utility.yul\":4495:4502   */\n      dup6\n        /* \"#utility.yul\":4491:4514   */\n      sub\n        /* \"#utility.yul\":4487:4519   */\n      slt\n        /* \"#utility.yul\":4484:4603   */\n      iszero\n      tag_140\n      jumpi\n        /* \"#utility.yul\":4522:4601   */\n      tag_141\n      tag_45\n      jump\t// in\n    tag_141:\n        /* \"#utility.yul\":4484:4603   */\n    tag_140:\n        /* \"#utility.yul\":4642:4643   */\n      0x00\n        /* \"#utility.yul\":4667:4720   */\n      tag_142\n        /* \"#utility.yul\":4712:4719   */\n      dup6\n        /* \"#utility.yul\":4703:4709   */\n      dup3\n        /* \"#utility.yul\":4692:4701   */\n      dup7\n        /* \"#utility.yul\":4688:4710   */\n      add\n        /* \"#utility.yul\":4667:4720   */\n      tag_59\n      jump\t// in\n    tag_142:\n        /* \"#utility.yul\":4657:4720   */\n      swap3\n      pop\n        /* \"#utility.yul\":4613:4730   */\n      pop\n        /* \"#utility.yul\":4769:4771   */\n      0x20\n        /* \"#utility.yul\":4795:4848   */\n      tag_143\n        /* \"#utility.yul\":4840:4847   */\n      dup6\n        /* \"#utility.yul\":4831:4837   */\n      dup3\n        /* \"#utility.yul\":4820:4829   */\n      dup7\n        /* \"#utility.yul\":4816:4838   */\n      add\n        /* \"#utility.yul\":4795:4848   */\n      tag_59\n      jump\t// in\n    tag_143:\n        /* \"#utility.yul\":4785:4848   */\n      swap2\n      pop\n        /* \"#utility.yul\":4740:4858   */\n      pop\n        /* \"#utility.yul\":4391:4865   */\n      swap3\n      pop\n      swap3\n      swap1\n      pop\n      jump\t// out\n        /* \"#utility.yul\":4871:4989   */\n    tag_63:\n        /* \"#utility.yul\":4958:4982   */\n      tag_145\n        /* \"#utility.yul\":4976:4981   */\n      dup2\n        /* \"#utility.yul\":4958:4982   */\n      tag_57\n      jump\t// in\n    tag_145:\n        /* \"#utility.yul\":4953:4956   */\n      dup3\n        /* \"#utility.yul\":4946:4983   */\n      mstore\n        /* \"#utility.yul\":4871:4989   */\n      pop\n      pop\n      jump\t// out\n        /* \"#utility.yul\":4995:5217   */\n    tag_15:\n        /* \"#utility.yul\":5088:5092   */\n      0x00\n        /* \"#utility.yul\":5126:5128   */\n      0x20\n        /* \"#utility.yul\":5115:5124   */\n      dup3\n        /* \"#utility.yul\":5111:5129   */\n      add\n        /* \"#utility.yul\":5103:5129   */\n      swap1\n      pop\n        /* \"#utility.yul\":5139:5210   */\n      tag_147\n        /* \"#utility.yul\":5207:5208   */\n      0x00\n        /* \"#utility.yul\":5196:5205   */\n      dup4\n        /* \"#utility.yul\":5192:5209   */\n      add\n        /* \"#utility.yul\":5183:5189   */\n      dup5\n        /* \"#utility.yul\":5139:5210   */\n      tag_63\n      jump\t// in\n    tag_147:\n        /* \"#utility.yul\":4995:5217   */\n      swap3\n      swap2\n      pop\n      pop\n      jump\t// out\n        /* \"#utility.yul\":5223:5322   */\n    tag_64:\n        /* \"#utility.yul\":5275:5281   */\n      0x00\n        /* \"#utility.yul\":5309:5314   */\n      dup2\n        /* \"#utility.yul\":5303:5315   */\n      mload\n        /* \"#utility.yul\":5293:5315   */\n      swap1\n      pop\n        /* \"#utility.yul\":5223:5322   */\n      swap2\n      swap1\n      pop\n      jump\t// out\n        /* \"#utility.yul\":5328:5497   */\n    tag_65:\n        /* \"#utility.yul\":5412:5423   */\n      0x00\n        /* \"#utility.yul\":5446:5452   */\n      dup3\n        /* \"#utility.yul\":5441:5444   */\n      dup3\n        /* \"#utility.yul\":5434:5453   */\n      mstore\n        /* \"#utility.yul\":5486:5490   */\n      0x20\n        /* \"#utility.yul\":5481:5484   */\n      dup3\n        /* \"#utility.yul\":5477:5491   */\n      add\n        /* \"#utility.yul\":5462:5491   */\n      swap1\n      pop\n        /* \"#utility.yul\":5328:5497   */\n      swap3\n      swap2\n      pop\n      pop\n      jump\t// out\n        /* \"#utility.yul\":5503:5749   */\n    tag_66:\n        /* \"#utility.yul\":5584:5585   */\n      0x00\n        /* \"#utility.yul\":5594:5707   */\n    tag_151:\n        /* \"#utility.yul\":5608:5614   */\n      dup4\n        /* \"#utility.yul\":5605:5606   */\n      dup2\n        /* \"#utility.yul\":5602:5615   */\n      lt\n        /* \"#utility.yul\":5594:5707   */\n      iszero\n      tag_153\n      jumpi\n        /* \"#utility.yul\":5693:5694   */\n      dup1\n        /* \"#utility.yul\":5688:5691   */\n      dup3\n        /* \"#utility.yul\":5684:5695   */\n      add\n        /* \"#utility.yul\":5678:5696   */\n      mload\n        /* \"#utility.yul\":5674:5675   */\n      dup2\n        /* \"#utility.yul\":5669:5672   */\n      dup5\n        /* \"#utility.yul\":5665:5676   */\n      add\n        /* \"#utility.yul\":5658:5697   */\n      mstore\n        /* \"#utility.yul\":5630:5632   */\n      0x20\n        /* \"#utility.yul\":5627:5628   */\n      dup2\n        /* \"#utility.yul\":5623:5633   */\n      add\n        /* \"#utility.yul\":5618:5633   */\n      swap1\n      pop\n        /* \"#utility.yul\":5594:5707   */\n      jump(tag_151)\n    tag_153:\n        /* \"#utility.yul\":5741:5742   */\n      0x00\n        /* \"#utility.yul\":5732:5738   */\n      dup5\n        /* \"#utility.yul\":5727:5730   */\n      dup5\n        /* \"#utility.yul\":5723:5739   */\n      add\n        /* \"#utility.yul\":5716:5743   */\n      mstore\n        /* \"#utility.yul\":5565:5749   */\n      pop\n        /* \"#utility.yul\":5503:5749   */\n      pop\n      pop\n      pop\n      jump\t// out\n        /* \"#utility.yul\":5755:6132   */\n    tag_67:\n        /* \"#utility.yul\":5843:5846   */\n      0x00\n        /* \"#utility.yul\":5871:5910   */\n      tag_155\n        /* \"#utility.yul\":5904:5909   */\n      dup3\n        /* \"#utility.yul\":5871:5910   */\n      tag_64\n      jump\t// in\n    tag_155:\n        /* \"#utility.yul\":5926:5997   */\n      tag_156\n        /* \"#utility.yul\":5990:5996   */\n      dup2\n        /* \"#utility.yul\":5985:5988   */\n      dup6\n        /* \"#utility.yul\":5926:5997   */\n      tag_65\n      jump\t// in\n    tag_156:\n        /* \"#utility.yul\":5919:5997   */\n      swap4\n      pop\n        /* \"#utility.yul\":6006:6071   */\n      tag_157\n        /* \"#utility.yul\":6064:6070   */\n      dup2\n        /* \"#utility.yul\":6059:6062   */\n      dup6\n        /* \"#utility.yul\":6052:6056   */\n      0x20\n        /* \"#utility.yul\":6045:6050   */\n      dup7\n        /* \"#utility.yul\":6041:6057   */\n      add\n        /* \"#utility.yul\":6006:6071   */\n      tag_66\n      jump\t// in\n    tag_157:\n        /* \"#utility.yul\":6096:6125   */\n      tag_158\n        /* \"#utility.yul\":6118:6124   */\n      dup2\n        /* \"#utility.yul\":6096:6125   */\n      tag_49\n      jump\t// in\n    tag_158:\n        /* \"#utility.yul\":6091:6094   */\n      dup5\n        /* \"#utility.yul\":6087:6126   */\n      add\n        /* \"#utility.yul\":6080:6126   */\n      swap2\n      pop\n        /* \"#utility.yul\":5847:6132   */\n      pop\n        /* \"#utility.yul\":5755:6132   */\n      swap3\n      swap2\n      pop\n      pop\n      jump\t// out\n        /* \"#utility.yul\":6138:6247   */\n    tag_68:\n        /* \"#utility.yul\":6219:6240   */\n      tag_160\n        /* \"#utility.yul\":6234:6239   */\n      dup2\n        /* \"#utility.yul\":6219:6240   */\n      tag_60\n      jump\t// in\n    tag_160:\n        /* \"#utility.yul\":6214:6217   */\n      dup3\n        /* \"#utility.yul\":6207:6241   */\n      mstore\n        /* \"#utility.yul\":6138:6247   */\n      pop\n      pop\n      jump\t// out\n        /* \"#utility.yul\":6253:6976   */\n    tag_19:\n        /* \"#utility.yul\":6464:6468   */\n      0x00\n        /* \"#utility.yul\":6502:6505   */\n      0x80\n        /* \"#utility.yul\":6491:6500   */\n      dup3\n        /* \"#utility.yul\":6487:6506   */\n      add\n        /* \"#utility.yul\":6479:6506   */\n      swap1\n      pop\n        /* \"#utility.yul\":6552:6561   */\n      dup2\n        /* \"#utility.yul\":6546:6550   */\n      dup2\n        /* \"#utility.yul\":6542:6562   */\n      sub\n        /* \"#utility.yul\":6538:6539   */\n      0x00\n        /* \"#utility.yul\":6527:6536   */\n      dup4\n        /* \"#utility.yul\":6523:6540   */\n      add\n        /* \"#utility.yul\":6516:6563   */\n      mstore\n        /* \"#utility.yul\":6580:6658   */\n      tag_162\n        /* \"#utility.yul\":6653:6657   */\n      dup2\n        /* \"#utility.yul\":6644:6650   */\n      dup8\n        /* \"#utility.yul\":6580:6658   */\n      tag_67\n      jump\t// in\n    tag_162:\n        /* \"#utility.yul\":6572:6658   */\n      swap1\n      pop\n        /* \"#utility.yul\":6705:6714   */\n      dup2\n        /* \"#utility.yul\":6699:6703   */\n      dup2\n        /* \"#utility.yul\":6695:6715   */\n      sub\n        /* \"#utility.yul\":6690:6692   */\n      0x20\n        /* \"#utility.yul\":6679:6688   */\n      dup4\n        /* \"#utility.yul\":6675:6693   */\n      add\n        /* \"#utility.yul\":6668:6716   */\n      mstore\n        /* \"#utility.yul\":6733:6811   */\n      tag_163\n        /* \"#utility.yul\":6806:6810   */\n      dup2\n        /* \"#utility.yul\":6797:6803   */\n      dup7\n        /* \"#utility.yul\":6733:6811   */\n      tag_67\n      jump\t// in\n    tag_163:\n        /* \"#utility.yul\":6725:6811   */\n      swap1\n      pop\n        /* \"#utility.yul\":6821:6893   */\n      tag_164\n        /* \"#utility.yul\":6889:6891   */\n      0x40\n        /* \"#utility.yul\":6878:6887   */\n      dup4\n        /* \"#utility.yul\":6874:6892   */\n      add\n        /* \"#utility.yul\":6865:6871   */\n      dup6\n        /* \"#utility.yul\":6821:6893   */\n      tag_63\n      jump\t// in\n    tag_164:\n        /* \"#utility.yul\":6903:6969   */\n      tag_165\n        /* \"#utility.yul\":6965:6967   */\n      0x60\n        /* \"#utility.yul\":6954:6963   */\n      dup4\n        /* \"#utility.yul\":6950:6968   */\n      add\n        /* \"#utility.yul\":6941:6947   */\n      dup5\n        /* \"#utility.yul\":6903:6969   */\n      tag_68\n      jump\t// in\n    tag_165:\n        /* \"#utility.yul\":6253:6976   */\n      swap6\n      swap5\n      pop\n      pop\n      pop\n      pop\n      pop\n      jump\t// out\n        /* \"#utility.yul\":6982:7162   */\n    tag_69:\n        /* \"#utility.yul\":7030:7107   */\n      0x4e487b7100000000000000000000000000000000000000000000000000000000\n        /* \"#utility.yul\":7027:7028   */\n      0x00\n        /* \"#utility.yul\":7020:7108   */\n      mstore\n        /* \"#utility.yul\":7127:7131   */\n      0x22\n        /* \"#utility.yul\":7124:7125   */\n      0x04\n        /* \"#utility.yul\":7117:7132   */\n      mstore\n        /* \"#utility.yul\":7151:7155   */\n      0x24\n        /* \"#utility.yul\":7148:7149   */\n      0x00\n        /* \"#utility.yul\":7141:7156   */\n      revert\n        /* \"#utility.yul\":7168:7488   */\n    tag_34:\n        /* \"#utility.yul\":7212:7218   */\n      0x00\n        /* \"#utility.yul\":7249:7250   */\n      0x02\n        /* \"#utility.yul\":7243:7247   */\n      dup3\n        /* \"#utility.yul\":7239:7251   */\n      div\n        /* \"#utility.yul\":7229:7251   */\n      swap1\n      pop\n        /* \"#utility.yul\":7296:7297   */\n      0x01\n        /* \"#utility.yul\":7290:7294   */\n      dup3\n        /* \"#utility.yul\":7286:7298   */\n      and\n        /* \"#utility.yul\":7317:7335   */\n      dup1\n        /* \"#utility.yul\":7307:7388   */\n      tag_168\n      jumpi\n        /* \"#utility.yul\":7373:7377   */\n      0x7f\n        /* \"#utility.yul\":7365:7371   */\n      dup3\n        /* \"#utility.yul\":7361:7378   */\n      and\n        /* \"#utility.yul\":7351:7378   */\n      swap2\n      pop\n        /* \"#utility.yul\":7307:7388   */\n    tag_168:\n        /* \"#utility.yul\":7435:7437   */\n      0x20\n        /* \"#utility.yul\":7427:7433   */\n      dup3\n        /* \"#utility.yul\":7424:7438   */\n      lt\n        /* \"#utility.yul\":7404:7422   */\n      dup2\n        /* \"#utility.yul\":7401:7439   */\n      sub\n        /* \"#utility.yul\":7398:7482   */\n      tag_169\n      jumpi\n        /* \"#utility.yul\":7454:7472   */\n      tag_170\n      tag_69\n      jump\t// in\n    tag_170:\n        /* \"#utility.yul\":7398:7482   */\n    tag_169:\n        /* \"#utility.yul\":7219:7488   */\n      pop\n        /* \"#utility.yul\":7168:7488   */\n      swap2\n      swap1\n      pop\n      jump\t// out\n        /* \"#utility.yul\":7494:7635   */\n    tag_70:\n        /* \"#utility.yul\":7543:7547   */\n      0x00\n        /* \"#utility.yul\":7566:7569   */\n      dup2\n        /* \"#utility.yul\":7558:7569   */\n      swap1\n      pop\n        /* \"#utility.yul\":7589:7592   */\n      dup2\n        /* \"#utility.yul\":7586:7587   */\n      0x00\n        /* \"#utility.yul\":7579:7593   */\n      mstore\n        /* \"#utility.yul\":7623:7627   */\n      0x20\n        /* \"#utility.yul\":7620:7621   */\n      0x00\n        /* \"#utility.yul\":7610:7628   */\n      keccak256\n        /* \"#utility.yul\":7602:7628   */\n      swap1\n      pop\n        /* \"#utility.yul\":7494:7635   */\n      swap2\n      swap1\n      pop\n      jump\t// out\n        /* \"#utility.yul\":7641:7734   */\n    tag_71:\n        /* \"#utility.yul\":7678:7684   */\n      0x00\n        /* \"#utility.yul\":7725:7727   */\n      0x20\n        /* \"#utility.yul\":7720:7722   */\n      0x1f\n        /* \"#utility.yul\":7713:7718   */\n      dup4\n        /* \"#utility.yul\":7709:7723   */\n      add\n        /* \"#utility.yul\":7705:7728   */\n      div\n        /* \"#utility.yul\":7695:7728   */\n      swap1\n      pop\n        /* \"#utility.yul\":7641:7734   */\n      swap2\n      swap1\n      pop\n      jump\t// out\n        /* \"#utility.yul\":7740:7847   */\n    tag_72:\n        /* \"#utility.yul\":7784:7792   */\n      0x00\n        /* \"#utility.yul\":7834:7839   */\n      dup3\n        /* \"#utility.yul\":7828:7832   */\n      dup3\n        /* \"#utility.yul\":7824:7840   */\n      shl\n        /* \"#utility.yul\":7803:7840   */\n      swap1\n      pop\n        /* \"#utility.yul\":7740:7847   */\n      swap3\n      swap2\n      pop\n      pop\n      jump\t// out\n        /* \"#utility.yul\":7853:8246   */\n    tag_73:\n        /* \"#utility.yul\":7922:7928   */\n      0x00\n        /* \"#utility.yul\":7972:7973   */\n      0x08\n        /* \"#utility.yul\":7960:7970   */\n      dup4\n        /* \"#utility.yul\":7956:7974   */\n      mul\n        /* \"#utility.yul\":7995:8092   */\n      tag_175\n        /* \"#utility.yul\":8025:8091   */\n      0xffffffffffffffffffffffffffffffffffffffffffffffffffffffffffffffff\n        /* \"#utility.yul\":8014:8023   */\n      dup3\n        /* \"#utility.yul\":7995:8092   */\n      tag_72\n      jump\t// in\n    tag_175:\n        /* \"#utility.yul\":8113:8152   */\n      tag_176\n        /* \"#utility.yul\":8143:8151   */\n      dup7\n        /* \"#utility.yul\":8132:8141   */\n      dup4\n        /* \"#utility.yul\":8113:8152   */\n      tag_72\n      jump\t// in\n    tag_176:\n        /* \"#utility.yul\":8101:8152   */\n      swap6\n      pop\n        /* \"#utility.yul\":8185:8189   */\n      dup1\n        /* \"#utility.yul\":8181:8190   */\n      not\n        /* \"#utility.yul\":8174:8179   */\n      dup5\n        /* \"#utility.yul\":8170:8191   */\n      and\n        /* \"#utility.yul\":8161:8191   */\n      swap4\n      pop\n        /* \"#utility.yul\":8234:8238   */\n      dup1\n        /* \"#utility.yul\":8224:8232   */\n      dup7\n        /* \"#utility.yul\":8220:8239   */\n      and\n        /* \"#utility.yul\":8213:8218   */\n      dup5\n        /* \"#utility.yul\":8210:8240   */\n      or\n        /* \"#utility.yul\":8200:8240   */\n      swap3\n      pop\n        /* \"#utility.yul\":7929:8246   */\n      pop\n      pop\n        /* \"#utility.yul\":7853:8246   */\n      swap4\n      swap3\n      pop\n      pop\n      pop\n      jump\t// out\n        /* \"#utility.yul\":8252:8312   */\n    tag_74:\n        /* \"#utility.yul\":8280:8283   */\n      0x00\n        /* \"#utility.yul\":8301:8306   */\n      dup2\n        /* \"#utility.yul\":8294:8306   */\n      swap1\n      pop\n        /* \"#utility.yul\":8252:8312   */\n      swap2\n      swap1\n      pop\n      jump\t// out\n        /* \"#utility.yul\":8318:8460   */\n    tag_75:\n        /* \"#utility.yul\":8368:8377   */\n      0x00\n        /* \"#utility.yul\":8401:8454   */\n      tag_179\n        /* \"#utility.yul\":8419:8453   */\n      tag_180\n        /* \"#utility.yul\":8428:8452   */\n      tag_181\n        /* \"#utility.yul\":8446:8451   */\n      dup5\n        /* \"#utility.yul\":8428:8452   */\n      tag_57\n      jump\t// in\n    tag_181:\n        /* \"#utility.yul\":8419:8453   */\n      tag_74\n      jump\t// in\n    tag_180:\n        /* \"#utility.yul\":8401:8454   */\n      tag_57\n      jump\t// in\n    tag_179:\n        /* \"#utility.yul\":8388:8454   */\n      swap1\n      pop\n        /* \"#utility.yul\":8318:8460   */\n      swap2\n      swap1\n      pop\n      jump\t// out\n        /* \"#utility.yul\":8466:8541   */\n    tag_76:\n        /* \"#utility.yul\":8509:8512   */\n      0x00\n        /* \"#utility.yul\":8530:8535   */\n      dup2\n        /* \"#utility.yul\":8523:8535   */\n      swap1\n      pop\n        /* \"#utility.yul\":8466:8541   */\n      swap2\n      swap1\n      pop\n      jump\t// out\n        /* \"#utility.yul\":8547:8816   */\n    tag_77:\n        /* \"#utility.yul\":8657:8696   */\n      tag_184\n        /* \"#utility.yul\":8688:8695   */\n      dup4\n        /* \"#utility.yul\":8657:8696   */\n      tag_75\n      jump\t// in\n    tag_184:\n        /* \"#utility.yul\":8718:8809   */\n      tag_185\n        /* \"#utility.yul\":8767:8808   */\n      tag_186\n        /* \"#utility.yul\":8791:8807   */\n      dup3\n        /* \"#utility.yul\":8767:8808   */\n      tag_76\n      jump\t// in\n    tag_186:\n        /* \"#utility.yul\":8759:8765   */\n      dup5\n        /* \"#utility.yul\":8752:8756   */\n      dup5\n        /* \"#utility.yul\":8746:8757   */\n      sload\n        /* \"#utility.yul\":8718:8809   */\n      tag_73\n      jump\t// in\n    tag_185:\n        /* \"#utility.yul\":8712:8716   */\n      dup3\n        /* \"#utility.yul\":8705:8810   */\n      sstore\n        /* \"#utility.yul\":8623:8816   */\n      pop\n        /* \"#utility.yul\":8547:8816   */\n      pop\n      pop\n      pop\n      jump\t// out\n        /* \"#utility.yul\":8822:8895   */\n    tag_78:\n        /* \"#utility.yul\":8867:8870   */\n      0x00\n        /* \"#utility.yul\":8822:8895   */\n      swap1\n      jump\t// out\n        /* \"#utility.yul\":8901:9090   */\n    tag_79:\n        /* \"#utility.yul\":8978:9010   */\n      tag_189\n      tag_78\n      jump\t// in\n    tag_189:\n        /* \"#utility.yul\":9019:9084   */\n      tag_190\n        /* \"#utility.yul\":9077:9083   */\n      dup2\n        /* \"#utility.yul\":9069:9075   */\n      dup5\n        /* \"#utility.yul\":9063:9067   */\n      dup5\n        /* \"#utility.yul\":9019:9084   */\n      tag_77\n      jump\t// in\n    tag_190:\n        /* \"#utility.yul\":8954:9090   */\n      pop\n        /* \"#utility.yul\":8901:9090   */\n      pop\n      pop\n      jump\t// out\n        /* \"#utility.yul\":9096:9282   */\n    tag_80:\n        /* \"#utility.yul\":9156:9276   */\n    tag_192:\n        /* \"#utility.yul\":9173:9176   */\n      dup2\n        /* \"#utility.yul\":9166:9171   */\n      dup2\n        /* \"#utility.yul\":9163:9177   */\n      lt\n        /* \"#utility.yul\":9156:9276   */\n      iszero\n      tag_194\n      jumpi\n        /* \"#utility.yul\":9227:9266   */\n      tag_195\n        /* \"#utility.yul\":9264:9265   */\n      0x00\n        /* \"#utility.yul\":9257:9262   */\n      dup3\n        /* \"#utility.yul\":9227:9266   */\n      tag_79\n      jump\t// in\n    tag_195:\n        /* \"#utility.yul\":9200:9201   */\n      0x01\n        /* \"#utility.yul\":9193:9198   */\n      dup2\n        /* \"#utility.yul\":9189:9202   */\n      add\n        /* \"#utility.yul\":9180:9202   */\n      swap1\n      pop\n        /* \"#utility.yul\":9156:9276   */\n      jump(tag_192)\n    tag_194:\n        /* \"#utility.yul\":9096:9282   */\n      pop\n      pop\n      jump\t// out\n        /* \"#utility.yul\":9288:9831   */\n    tag_81:\n        /* \"#utility.yul\":9389:9391   */\n      0x1f\n        /* \"#utility.yul\":9384:9387   */\n      dup3\n        /* \"#utility.yul\":9381:9392   */\n      gt\n        /* \"#utility.yul\":9378:9824   */\n      iszero\n      tag_197\n      jumpi\n        /* \"#utility.yul\":9423:9461   */\n      tag_198\n        /* \"#utility.yul\":9455:9460   */\n      dup2\n        /* \"#utility.yul\":9423:9461   */\n      tag_70\n      jump\t// in\n    tag_198:\n        /* \"#utility.yul\":9507:9536   */\n      tag_199\n        /* \"#utility.yul\":9525:9535   */\n      dup5\n        /* \"#utility.yul\":9507:9536   */\n      tag_71\n      jump\t// in\n    tag_199:\n        /* \"#utility.yul\":9497:9505   */\n      dup2\n        /* \"#utility.yul\":9493:9537   */\n      add\n        /* \"#utility.yul\":9690:9692   */\n      0x20\n        /* \"#utility.yul\":9678:9688   */\n      dup6\n        /* \"#utility.yul\":9675:9693   */\n      lt\n        /* \"#utility.yul\":9672:9721   */\n      iszero\n      tag_200\n      jumpi\n        /* \"#utility.yul\":9711:9719   */\n      dup2\n        /* \"#utility.yul\":9696:9719   */\n      swap1\n      pop\n        /* \"#utility.yul\":9672:9721   */\n    tag_200:\n        /* \"#utility.yul\":9734:9814   */\n      tag_201\n        /* \"#utility.yul\":9790:9812   */\n      tag_202\n        /* \"#utility.yul\":9808:9811   */\n      dup6\n        /* \"#utility.yul\":9790:9812   */\n      tag_71\n      jump\t// in\n    tag_202:\n        /* \"#utility.yul\":9780:9788   */\n      dup4\n        /* \"#utility.yul\":9776:9813   */\n      add\n        /* \"#utility.yul\":9763:9774   */\n      dup3\n        /* \"#utility.yul\":9734:9814   */\n      tag_80\n      jump\t// in\n    tag_201:\n        /* \"#utility.yul\":9393:9824   */\n      pop\n      pop\n        /* \"#utility.yul\":9378:9824   */\n    tag_197:\n        /* \"#utility.yul\":9288:9831   */\n      pop\n      pop\n      pop\n      jump\t// out\n        /* \"#utility.yul\":9837:9954   */\n    tag_82:\n        /* \"#utility.yul\":9891:9899   */\n      0x00\n        /* \"#utility.yul\":9941:9946   */\n      dup3\n        /* \"#utility.yul\":9935:9939   */\n      dup3\n        /* \"#utility.yul\":9931:9947   */\n      shr\n        /* \"#utility.yul\":9910:9947   */\n      swap1\n      pop\n        /* \"#utility.yul\":9837:9954   */\n      swap3\n      swap2\n      pop\n      pop\n      jump\t// out\n        /* \"#utility.yul\":9960:10129   */\n    tag_83:\n        /* \"#utility.yul\":10004:10010   */\n      0x00\n        /* \"#utility.yul\":10037:10088   */\n      tag_205\n        /* \"#utility.yul\":10085:10086   */\n      0x00\n        /* \"#utility.yul\":10081:10087   */\n      not\n        /* \"#utility.yul\":10073:10078   */\n      dup5\n        /* \"#utility.yul\":10070:10071   */\n      0x08\n        /* \"#utility.yul\":10066:10079   */\n      mul\n        /* \"#utility.yul\":10037:10088   */\n      tag_82\n      jump\t// in\n    tag_205:\n        /* \"#utility.yul\":10033:10089   */\n      not\n        /* \"#utility.yul\":10118:10122   */\n      dup1\n        /* \"#utility.yul\":10112:10116   */\n      dup4\n        /* \"#utility.yul\":10108:10123   */\n      and\n        /* \"#utility.yul\":10098:10123   */\n      swap2\n      pop\n        /* \"#utility.yul\":10011:10129   */\n      pop\n        /* \"#utility.yul\":9960:10129   */\n      swap3\n      swap2\n      pop\n      pop\n      jump\t// out\n        /* \"#utility.yul\":10134:10429   */\n    tag_84:\n        /* \"#utility.yul\":10210:10214   */\n      0x00\n        /* \"#utility.yul\":10356:10385   */\n      tag_207\n        /* \"#utility.yul\":10381:10384   */\n      dup4\n        /* \"#utility.yul\":10375:10379   */\n      dup4\n        /* \"#utility.yul\":10356:10385   */\n      tag_83\n      jump\t// in\n    tag_207:\n        /* \"#utility.yul\":10348:10385   */\n      swap2\n      pop\n        /* \"#utility.yul\":10418:10421   */\n      dup3\n        /* \"#utility.yul\":10415:10416   */\n      0x02\n        /* \"#utility.yul\":10411:10422   */\n      mul\n        /* \"#utility.yul\":10405:10409   */\n      dup3\n        /* \"#utility.yul\":10402:10423   */\n      or\n        /* \"#utility.yul\":10394:10423   */\n      swap1\n      pop\n        /* \"#utility.yul\":10134:10429   */\n      swap3\n      swap2\n      pop\n      pop\n      jump\t// out\n        /* \"#utility.yul\":10434:11829   */\n    tag_22:\n        /* \"#utility.yul\":10551:10588   */\n      tag_209\n        /* \"#utility.yul\":10584:10587   */\n      dup3\n        /* \"#utility.yul\":10551:10588   */\n      tag_64\n      jump\t// in\n    tag_209:\n        /* \"#utility.yul\":10653:10671   */\n      0xffffffffffffffff\n        /* \"#utility.yul\":10645:10651   */\n      dup2\n        /* \"#utility.yul\":10642:10672   */\n      gt\n        /* \"#utility.yul\":10639:10695   */\n      iszero\n      tag_210\n      jumpi\n        /* \"#utility.yul\":10675:10693   */\n      tag_211\n      tag_50\n      jump\t// in\n    tag_211:\n        /* \"#utility.yul\":10639:10695   */\n    tag_210:\n        /* \"#utility.yul\":10719:10757   */\n      tag_212\n        /* \"#utility.yul\":10751:10755   */\n      dup3\n        /* \"#utility.yul\":10745:10756   */\n      sload\n        /* \"#utility.yul\":10719:10757   */\n      tag_34\n      jump\t// in\n    tag_212:\n        /* \"#utility.yul\":10804:10871   */\n      tag_213\n        /* \"#utility.yul\":10864:10870   */\n      dup3\n        /* \"#utility.yul\":10856:10862   */\n      dup3\n        /* \"#utility.yul\":10850:10854   */\n      dup6\n        /* \"#utility.yul\":10804:10871   */\n      tag_81\n      jump\t// in\n    tag_213:\n        /* \"#utility.yul\":10898:10899   */\n      0x00\n        /* \"#utility.yul\":10922:10926   */\n      0x20\n        /* \"#utility.yul\":10909:10926   */\n      swap1\n      pop\n        /* \"#utility.yul\":10954:10956   */\n      0x1f\n        /* \"#utility.yul\":10946:10952   */\n      dup4\n        /* \"#utility.yul\":10943:10957   */\n      gt\n        /* \"#utility.yul\":10971:10972   */\n      0x01\n        /* \"#utility.yul\":10966:11584   */\n      dup2\n      eq\n      tag_215\n      jumpi\n        /* \"#utility.yul\":11628:11629   */\n      0x00\n        /* \"#utility.yul\":11645:11651   */\n      dup5\n        /* \"#utility.yul\":11642:11719   */\n      iszero\n      tag_216\n      jumpi\n        /* \"#utility.yul\":11694:11703   */\n      dup3\n        /* \"#utility.yul\":11689:11692   */\n      dup8\n        /* \"#utility.yul\":11685:11704   */\n      add\n        /* \"#utility.yul\":11679:11705   */\n      mload\n        /* \"#utility.yul\":11670:11705   */\n      swap1\n      pop\n        /* \"#utility.yul\":11642:11719   */\n    tag_216:\n        /* \"#utility.yul\":11745:11812   */\n      tag_217\n        /* \"#utility.yul\":11805:11811   */\n      dup6\n        /* \"#utility.yul\":11798:11803   */\n      dup3\n        /* \"#utility.yul\":11745:11812   */\n      tag_84\n      jump\t// in\n    tag_217:\n        /* \"#utility.yul\":11739:11743   */\n      dup7\n        /* \"#utility.yul\":11732:11813   */\n      sstore\n        /* \"#utility.yul\":11601:11823   */\n      pop\n        /* \"#utility.yul\":10936:11823   */\n      jump(tag_214)\n        /* \"#utility.yul\":10966:11584   */\n    tag_215:\n        /* \"#utility.yul\":11018:11022   */\n      0x1f\n        /* \"#utility.yul\":11014:11023   */\n      not\n        /* \"#utility.yul\":11006:11012   */\n      dup5\n        /* \"#utility.yul\":11002:11024   */\n      and\n        /* \"#utility.yul\":11052:11089   */\n      tag_218\n        /* \"#utility.yul\":11084:11088   */\n      dup7\n        /* \"#utility.yul\":11052:11089   */\n      tag_70\n      jump\t// in\n    tag_218:\n        /* \"#utility.yul\":11111:11112   */\n      0x00\n        /* \"#utility.yul\":11125:11333   */\n    tag_219:\n        /* \"#utility.yul\":11139:11146   */\n      dup3\n        /* \"#utility.yul\":11136:11137   */\n      dup2\n        /* \"#utility.yul\":11133:11147   */\n      lt\n        /* \"#utility.yul\":11125:11333   */\n      iszero\n      tag_221\n      jumpi\n        /* \"#utility.yul\":11218:11227   */\n      dup5\n        /* \"#utility.yul\":11213:11216   */\n      dup10\n        /* \"#utility.yul\":11209:11228   */\n      add\n        /* \"#utility.yul\":11203:11229   */\n      mload\n        /* \"#utility.yul\":11195:11201   */\n      dup3\n        /* \"#utility.yul\":11188:11230   */\n      sstore\n        /* \"#utility.yul\":11269:11270   */\n      0x01\n        /* \"#utility.yul\":11261:11267   */\n      dup3\n        /* \"#utility.yul\":11257:11271   */\n      add\n        /* \"#utility.yul\":11247:11271   */\n      swap2\n      pop\n        /* \"#utility.yul\":11316:11318   */\n      0x20\n        /* \"#utility.yul\":11305:11314   */\n      dup6\n        /* \"#utility.yul\":11301:11319   */\n      add\n        /* \"#utility.yul\":11288:11319   */\n      swap5\n      pop\n        /* \"#utility.yul\":11162:11166   */\n      0x20\n        /* \"#utility.yul\":11159:11160   */\n      dup2\n        /* \"#utility.yul\":11155:11167   */\n      add\n        /* \"#utility.yul\":11150:11167   */\n      swap1\n      pop\n        /* \"#utility.yul\":11125:11333   */\n      jump(tag_219)\n    tag_221:\n        /* \"#utility.yul\":11361:11367   */\n      dup7\n        /* \"#utility.yul\":11352:11359   */\n      dup4\n        /* \"#utility.yul\":11349:11368   */\n      lt\n        /* \"#utility.yul\":11346:11525   */\n      iszero\n      tag_222\n      jumpi\n        /* \"#utility.yul\":11419:11428   */\n      dup5\n        /* \"#utility.yul\":11414:11417   */\n      dup10\n        /* \"#utility.yul\":11410:11429   */\n      add\n        /* \"#utility.yul\":11404:11430   */\n      mload\n        /* \"#utility.yul\":11462:11510   */\n      tag_223\n        /* \"#utility.yul\":11504:11508   */\n      0x1f\n        /* \"#utility.yul\":11496:11502   */\n      dup10\n        /* \"#utility.yul\":11492:11509   */\n      and\n        /* \"#utility.yul\":11481:11490   */\n      dup3\n        /* \"#utility.yul\":11462:11510   */\n      tag_83\n      jump\t// in\n    tag_223:\n        /* \"#utility.yul\":11454:11460   */\n      dup4\n        /* \"#utility.yul\":11447:11511   */\n      sstore\n        /* \"#utility.yul\":11369:11525   */\n      pop\n        /* \"#utility.yul\":11346:11525   */\n    tag_222:\n        /* \"#utility.yul\":11571:11572   */\n      0x01\n        /* \"#utility.yul\":11567:11568   */\n      0x02\n        /* \"#utility.yul\":11559:11565   */\n      dup9\n        /* \"#utility.yul\":11555:11569   */\n      mul\n        /* \"#utility.yul\":11551:11573   */\n      add\n        /* \"#utility.yul\":11545:11549   */\n      dup9\n        /* \"#utility.yul\":11538:11574   */\n      sstore\n        /* \"#utility.yul\":10973:11584   */\n      pop\n      pop\n      pop\n        /* \"#utility.yul\":10936:11823   */\n    tag_214:\n      pop\n        /* \"#utility.yul\":10526:11829   */\n      pop\n      pop\n      pop\n        /* \"#utility.yul\":10434:11829   */\n      pop\n      pop\n      jump\t// out\n        /* \"#utility.yul\":11835:12015   */\n    tag_85:\n        /* \"#utility.yul\":11883:11960   */\n      0x4e487b7100000000000000000000000000000000000000000000000000000000\n        /* \"#utility.yul\":11880:11881   */\n      0x00\n        /* \"#utility.yul\":11873:11961   */\n      mstore\n        /* \"#utility.yul\":11980:11984   */\n      0x11\n        /* \"#utility.yul\":11977:11978   */\n      0x04\n        /* \"#utility.yul\":11970:11985   */\n      mstore\n        /* \"#utility.yul\":12004:12008   */\n      0x24\n        /* \"#utility.yul\":12001:12002   */\n      0x00\n        /* \"#utility.yul\":11994:12009   */\n      revert\n        /* \"#utility.yul\":12021:12215   */\n    tag_28:\n        /* \"#utility.yul\":12061:12065   */\n      0x00\n        /* \"#utility.yul\":12081:12101   */\n      tag_226\n        /* \"#utility.yul\":12099:12100   */\n      dup3\n        /* \"#utility.yul\":12081:12101   */\n      tag_57\n      jump\t// in\n    tag_226:\n        /* \"#utility.yul\":12076:12101   */\n      swap2\n      pop\n        /* \"#utility.yul\":12115:12135   */\n      tag_227\n        /* \"#utility.yul\":12133:12134   */\n      dup4\n        /* \"#utility.yul\":12115:12135   */\n      tag_57\n      jump\t// in\n    tag_227:\n        /* \"#utility.yul\":12110:12135   */\n      swap3\n      pop\n        /* \"#utility.yul\":12159:12160   */\n      dup3\n        /* \"#utility.yul\":12156:12157   */\n      dup3\n        /* \"#utility.yul\":12152:12161   */\n      sub\n        /* \"#utility.yul\":12144:12161   */\n      swap1\n      pop\n        /* \"#utility.yul\":12183:12184   */\n      dup2\n        /* \"#utility.yul\":12177:12181   */\n      dup2\n        /* \"#utility.yul\":12174:12185   */\n      gt\n        /* \"#utility.yul\":12171:12208   */\n      iszero\n      tag_228\n      jumpi\n        /* \"#utility.yul\":12188:12206   */\n      tag_229\n      tag_85\n      jump\t// in\n    tag_229:\n        /* \"#utility.yul\":12171:12208   */\n    tag_228:\n        /* \"#utility.yul\":12021:12215   */\n      swap3\n      swap2\n      pop\n      pop\n      jump\t// out\n        /* \"#utility.yul\":12221:12412   */\n    tag_31:\n        /* \"#utility.yul\":12261:12264   */\n      0x00\n        /* \"#utility.yul\":12280:12300   */\n      tag_231\n        /* \"#utility.yul\":12298:12299   */\n      dup3\n        /* \"#utility.yul\":12280:12300   */\n      tag_57\n      jump\t// in\n    tag_231:\n        /* \"#utility.yul\":12275:12300   */\n      swap2\n      pop\n        /* \"#utility.yul\":12314:12334   */\n      tag_232\n        /* \"#utility.yul\":12332:12333   */\n      dup4\n        /* \"#utility.yul\":12314:12334   */\n      tag_57\n      jump\t// in\n    tag_232:\n        /* \"#utility.yul\":12309:12334   */\n      swap3\n      pop\n        /* \"#utility.yul\":12357:12358   */\n      dup3\n        /* \"#utility.yul\":12354:12355   */\n      dup3\n        /* \"#utility.yul\":12350:12359   */\n      add\n        /* \"#utility.yul\":12343:12359   */\n      swap1\n      pop\n        /* \"#utility.yul\":12378:12381   */\n      dup1\n        /* \"#utility.yul\":12375:12376   */\n      dup3\n        /* \"#utility.yul\":12372:12382   */\n      gt\n        /* \"#utility.yul\":12369:12405   */\n      iszero\n      tag_233\n      jumpi\n        /* \"#utility.yul\":12385:12403   */\n      tag_234\n      tag_85\n      jump\t// in\n    tag_234:\n        /* \"#utility.yul\":12369:12405   */\n    tag_233:\n        /* \"#utility.yul\":12221:12412   */\n      swap3\n      swap2\n      pop\n      pop\n      jump\t// out\n\n    auxdata: 0xa26469706673582212200d4f2f2fde910db6b7e8cbdf2f4db1ae5a909098937412a6e06bb499aaef128764736f6c63430008120033\n}\n",
				"bytecode": {
					"linkReferences": {},
					"object": "608060405234801561001057600080fd5b506109d9806100206000396000f3fe608060405234801561001057600080fd5b50600436106100415760003560e01c806384297fb9146100465780638a5ab13514610062578063c0f6ea3614610092575b600080fd5b610060600480360381019061005b9190610444565b6100b3565b005b61007c600480360381019061007791906104e3565b6100fa565b6040516100899190610532565b60405180910390f35b61009a610139565b6040516100aa94939291906105db565b60405180910390f35b83600090816100c2919061083a565b5082600190816100d2919061083a565b508160028190555080600360006101000a81548160ff02191690831515021790555050505050565b600060058311801561010c5750600582105b1561012457818361011d919061093b565b9050610133565b8183610130919061096f565b90505b92915050565b60608060008060006001600254600360009054906101000a900460ff168380546101629061065d565b80601f016020809104026020016040519081016040528092919081815260200182805461018e9061065d565b80156101db5780601f106101b0576101008083540402835291602001916101db565b820191906000526020600020905b8154815290600101906020018083116101be57829003601f168201915b505050505093508280546101ee9061065d565b80601f016020809104026020016040519081016040528092919081815260200182805461021a9061065d565b80156102675780601f1061023c57610100808354040283529160200191610267565b820191906000526020600020905b81548152906001019060200180831161024a57829003601f168201915b50505050509250935093509350935090919293565b6000604051905090565b600080fd5b600080fd5b600080fd5b600080fd5b6000601f19601f8301169050919050565b7f4e487b7100000000000000000000000000000000000000000000000000000000600052604160045260246000fd5b6102e38261029a565b810181811067ffffffffffffffff82111715610302576103016102ab565b5b80604052505050565b600061031561027c565b905061032182826102da565b919050565b600067ffffffffffffffff821115610341576103406102ab565b5b61034a8261029a565b9050602081019050919050565b82818337600083830152505050565b600061037961037484610326565b61030b565b90508281526020810184848401111561039557610394610295565b5b6103a0848285610357565b509392505050565b600082601f8301126103bd576103bc610290565b5b81356103cd848260208601610366565b91505092915050565b6000819050919050565b6103e9816103d6565b81146103f457600080fd5b50565b600081359050610406816103e0565b92915050565b60008115159050919050565b6104218161040c565b811461042c57600080fd5b50565b60008135905061043e81610418565b92915050565b6000806000806080858703121561045e5761045d610286565b5b600085013567ffffffffffffffff81111561047c5761047b61028b565b5b610488878288016103a8565b945050602085013567ffffffffffffffff8111156104a9576104a861028b565b5b6104b5878288016103a8565b93505060406104c6878288016103f7565b92505060606104d78782880161042f565b91505092959194509250565b600080604083850312156104fa576104f9610286565b5b6000610508858286016103f7565b9250506020610519858286016103f7565b9150509250929050565b61052c816103d6565b82525050565b60006020820190506105476000830184610523565b92915050565b600081519050919050565b600082825260208201905092915050565b60005b8381101561058757808201518184015260208101905061056c565b60008484015250505050565b600061059e8261054d565b6105a88185610558565b93506105b8818560208601610569565b6105c18161029a565b840191505092915050565b6105d58161040c565b82525050565b600060808201905081810360008301526105f58187610593565b905081810360208301526106098186610593565b90506106186040830185610523565b61062560608301846105cc565b95945050505050565b7f4e487b7100000000000000000000000000000000000000000000000000000000600052602260045260246000fd5b6000600282049050600182168061067557607f821691505b6020821081036106885761068761062e565b5b50919050565b60008190508160005260206000209050919050565b60006020601f8301049050919050565b600082821b905092915050565b6000600883026106f07fffffffffffffffffffffffffffffffffffffffffffffffffffffffffffffffff826106b3565b6106fa86836106b3565b95508019841693508086168417925050509392505050565b6000819050919050565b600061073761073261072d846103d6565b610712565b6103d6565b9050919050565b6000819050919050565b6107518361071c565b61076561075d8261073e565b8484546106c0565b825550505050565b600090565b61077a61076d565b610785818484610748565b505050565b5b818110156107a95761079e600082610772565b60018101905061078b565b5050565b601f8211156107ee576107bf8161068e565b6107c8846106a3565b810160208510156107d7578190505b6107eb6107e3856106a3565b83018261078a565b50505b505050565b600082821c905092915050565b6000610811600019846008026107f3565b1980831691505092915050565b600061082a8383610800565b9150826002028217905092915050565b6108438261054d565b67ffffffffffffffff81111561085c5761085b6102ab565b5b610866825461065d565b6108718282856107ad565b600060209050601f8311600181146108a45760008415610892578287015190505b61089c858261081e565b865550610904565b601f1984166108b28661068e565b60005b828110156108da578489015182556001820191506020850194506020810190506108b5565b868310156108f757848901516108f3601f891682610800565b8355505b6001600288020188555050505b505050505050565b7f4e487b7100000000000000000000000000000000000000000000000000000000600052601160045260246000fd5b6000610946826103d6565b9150610951836103d6565b92508282039050818111156109695761096861090c565b5b92915050565b600061097a826103d6565b9150610985836103d6565b925082820190508082111561099d5761099c61090c565b5b9291505056fea26469706673582212200d4f2f2fde910db6b7e8cbdf2f4db1ae5a909098937412a6e06bb499aaef128764736f6c63430008120033",
					"opcodes": "PUSH1 0x80 PUSH1 0x40 MSTORE CALLVALUE DUP1 ISZERO PUSH2 0x10 JUMPI PUSH1 0x0 DUP1 REVERT JUMPDEST POP PUSH2 0x9D9 DUP1 PUSH2 0x20 PUSH1 0x0 CODECOPY PUSH1 0x0 RETURN INVALID PUSH1 0x80 PUSH1 0x40 MSTORE CALLVALUE DUP1 ISZERO PUSH2 0x10 JUMPI PUSH1 0x0 DUP1 REVERT JUMPDEST POP PUSH1 0x4 CALLDATASIZE LT PUSH2 0x41 JUMPI PUSH1 0x0 CALLDATALOAD PUSH1 0xE0 SHR DUP1 PUSH4 0x84297FB9 EQ PUSH2 0x46 JUMPI DUP1 PUSH4 0x8A5AB135 EQ PUSH2 0x62 JUMPI DUP1 PUSH4 0xC0F6EA36 EQ PUSH2 0x92 JUMPI JUMPDEST PUSH1 0x0 DUP1 REVERT JUMPDEST PUSH2 0x60 PUSH1 0x4 DUP1 CALLDATASIZE SUB DUP2 ADD SWAP1 PUSH2 0x5B SWAP2 SWAP1 PUSH2 0x444 JUMP JUMPDEST PUSH2 0xB3 JUMP JUMPDEST STOP JUMPDEST PUSH2 0x7C PUSH1 0x4 DUP1 CALLDATASIZE SUB DUP2 ADD SWAP1 PUSH2 0x77 SWAP2 SWAP1 PUSH2 0x4E3 JUMP JUMPDEST PUSH2 0xFA JUMP JUMPDEST PUSH1 0x40 MLOAD PUSH2 0x89 SWAP2 SWAP1 PUSH2 0x532 JUMP JUMPDEST PUSH1 0x40 MLOAD DUP1 SWAP2 SUB SWAP1 RETURN JUMPDEST PUSH2 0x9A PUSH2 0x139 JUMP JUMPDEST PUSH1 0x40 MLOAD PUSH2 0xAA SWAP5 SWAP4 SWAP3 SWAP2 SWAP1 PUSH2 0x5DB JUMP JUMPDEST PUSH1 0x40 MLOAD DUP1 SWAP2 SUB SWAP1 RETURN JUMPDEST DUP4 PUSH1 0x0 SWAP1 DUP2 PUSH2 0xC2 SWAP2 SWAP1 PUSH2 0x83A JUMP JUMPDEST POP DUP3 PUSH1 0x1 SWAP1 DUP2 PUSH2 0xD2 SWAP2 SWAP1 PUSH2 0x83A JUMP JUMPDEST POP DUP2 PUSH1 0x2 DUP2 SWAP1 SSTORE POP DUP1 PUSH1 0x3 PUSH1 0x0 PUSH2 0x100 EXP DUP2 SLOAD DUP2 PUSH1 0xFF MUL NOT AND SWAP1 DUP4 ISZERO ISZERO MUL OR SWAP1 SSTORE POP POP POP POP POP JUMP JUMPDEST PUSH1 0x0 PUSH1 0x5 DUP4 GT DUP1 ISZERO PUSH2 0x10C JUMPI POP PUSH1 0x5 DUP3 LT JUMPDEST ISZERO PUSH2 0x124 JUMPI DUP2 DUP4 PUSH2 0x11D SWAP2 SWAP1 PUSH2 0x93B JUMP JUMPDEST SWAP1 POP PUSH2 0x133 JUMP JUMPDEST DUP2 DUP4 PUSH2 0x130 SWAP2 SWAP1 PUSH2 0x96F JUMP JUMPDEST SWAP1 POP JUMPDEST SWAP3 SWAP2 POP POP JUMP JUMPDEST PUSH1 0x60 DUP1 PUSH1 0x0 DUP1 PUSH1 0x0 PUSH1 0x1 PUSH1 0x2 SLOAD PUSH1 0x3 PUSH1 0x0 SWAP1 SLOAD SWAP1 PUSH2 0x100 EXP SWAP1 DIV PUSH1 0xFF AND DUP4 DUP1 SLOAD PUSH2 0x162 SWAP1 PUSH2 0x65D JUMP JUMPDEST DUP1 PUSH1 0x1F ADD PUSH1 0x20 DUP1 SWAP2 DIV MUL PUSH1 0x20 ADD PUSH1 0x40 MLOAD SWAP1 DUP2 ADD PUSH1 0x40 MSTORE DUP1 SWAP3 SWAP2 SWAP1 DUP2 DUP2 MSTORE PUSH1 0x20 ADD DUP3 DUP1 SLOAD PUSH2 0x18E SWAP1 PUSH2 0x65D JUMP JUMPDEST DUP1 ISZERO PUSH2 0x1DB JUMPI DUP1 PUSH1 0x1F LT PUSH2 0x1B0 JUMPI PUSH2 0x100 DUP1 DUP4 SLOAD DIV MUL DUP4 MSTORE SWAP2 PUSH1 0x20 ADD SWAP2 PUSH2 0x1DB JUMP JUMPDEST DUP3 ADD SWAP2 SWAP1 PUSH1 0x0 MSTORE PUSH1 0x20 PUSH1 0x0 KECCAK256 SWAP1 JUMPDEST DUP2 SLOAD DUP2 MSTORE SWAP1 PUSH1 0x1 ADD SWAP1 PUSH1 0x20 ADD DUP1 DUP4 GT PUSH2 0x1BE JUMPI DUP3 SWAP1 SUB PUSH1 0x1F AND DUP3 ADD SWAP2 JUMPDEST POP POP POP POP POP SWAP4 POP DUP3 DUP1 SLOAD PUSH2 0x1EE SWAP1 PUSH2 0x65D JUMP JUMPDEST DUP1 PUSH1 0x1F ADD PUSH1 0x20 DUP1 SWAP2 DIV MUL PUSH1 0x20 ADD PUSH1 0x40 MLOAD SWAP1 DUP2 ADD PUSH1 0x40 MSTORE DUP1 SWAP3 SWAP2 SWAP1 DUP2 DUP2 MSTORE PUSH1 0x20 ADD DUP3 DUP1 SLOAD PUSH2 0x21A SWAP1 PUSH2 0x65D JUMP JUMPDEST DUP1 ISZERO PUSH2 0x267 JUMPI DUP1 PUSH1 0x1F LT PUSH2 0x23C JUMPI PUSH2 0x100 DUP1 DUP4 SLOAD DIV MUL DUP4 MSTORE SWAP2 PUSH1 0x20 ADD SWAP2 PUSH2 0x267 JUMP JUMPDEST DUP3 ADD SWAP2 SWAP1 PUSH1 0x0 MSTORE PUSH1 0x20 PUSH1 0x0 KECCAK256 SWAP1 JUMPDEST DUP2 SLOAD DUP2 MSTORE SWAP1 PUSH1 0x1 ADD SWAP1 PUSH1 0x20 ADD DUP1 DUP4 GT PUSH2 0x24A JUMPI DUP3 SWAP1 SUB PUSH1 0x1F AND DUP3 ADD SWAP2 JUMPDEST POP POP POP POP POP SWAP3 POP SWAP4 POP SWAP4 POP SWAP4 POP SWAP4 POP SWAP1 SWAP2 SWAP3 SWAP4 JUMP JUMPDEST PUSH1 0x0 PUSH1 0x40 MLOAD SWAP1 POP SWAP1 JUMP JUMPDEST PUSH1 0x0 DUP1 REVERT JUMPDEST PUSH1 0x0 DUP1 REVERT JUMPDEST PUSH1 0x0 DUP1 REVERT JUMPDEST PUSH1 0x0 DUP1 REVERT JUMPDEST PUSH1 0x0 PUSH1 0x1F NOT PUSH1 0x1F DUP4 ADD AND SWAP1 POP SWAP2 SWAP1 POP JUMP JUMPDEST PUSH32 0x4E487B7100000000000000000000000000000000000000000000000000000000 PUSH1 0x0 MSTORE PUSH1 0x41 PUSH1 0x4 MSTORE PUSH1 0x24 PUSH1 0x0 REVERT JUMPDEST PUSH2 0x2E3 DUP3 PUSH2 0x29A JUMP JUMPDEST DUP2 ADD DUP2 DUP2 LT PUSH8 0xFFFFFFFFFFFFFFFF DUP3 GT OR ISZERO PUSH2 0x302 JUMPI PUSH2 0x301 PUSH2 0x2AB JUMP JUMPDEST JUMPDEST DUP1 PUSH1 0x40 MSTORE POP POP POP JUMP JUMPDEST PUSH1 0x0 PUSH2 0x315 PUSH2 0x27C JUMP JUMPDEST SWAP1 POP PUSH2 0x321 DUP3 DUP3 PUSH2 0x2DA JUMP JUMPDEST SWAP2 SWAP1 POP JUMP JUMPDEST PUSH1 0x0 PUSH8 0xFFFFFFFFFFFFFFFF DUP3 GT ISZERO PUSH2 0x341 JUMPI PUSH2 0x340 PUSH2 0x2AB JUMP JUMPDEST JUMPDEST PUSH2 0x34A DUP3 PUSH2 0x29A JUMP JUMPDEST SWAP1 POP PUSH1 0x20 DUP2 ADD SWAP1 POP SWAP2 SWAP1 POP JUMP JUMPDEST DUP3 DUP2 DUP4 CALLDATACOPY PUSH1 0x0 DUP4 DUP4 ADD MSTORE POP POP POP JUMP JUMPDEST PUSH1 0x0 PUSH2 0x379 PUSH2 0x374 DUP5 PUSH2 0x326 JUMP JUMPDEST PUSH2 0x30B JUMP JUMPDEST SWAP1 POP DUP3 DUP2 MSTORE PUSH1 0x20 DUP2 ADD DUP5 DUP5 DUP5 ADD GT ISZERO PUSH2 0x395 JUMPI PUSH2 0x394 PUSH2 0x295 JUMP JUMPDEST JUMPDEST PUSH2 0x3A0 DUP5 DUP3 DUP6 PUSH2 0x357 JUMP JUMPDEST POP SWAP4 SWAP3 POP POP POP JUMP JUMPDEST PUSH1 0x0 DUP3 PUSH1 0x1F DUP4 ADD SLT PUSH2 0x3BD JUMPI PUSH2 0x3BC PUSH2 0x290 JUMP JUMPDEST JUMPDEST DUP2 CALLDATALOAD PUSH2 0x3CD DUP5 DUP3 PUSH1 0x20 DUP7 ADD PUSH2 0x366 JUMP JUMPDEST SWAP2 POP POP SWAP3 SWAP2 POP POP JUMP JUMPDEST PUSH1 0x0 DUP2 SWAP1 POP SWAP2 SWAP1 POP JUMP JUMPDEST PUSH2 0x3E9 DUP2 PUSH2 0x3D6 JUMP JUMPDEST DUP2 EQ PUSH2 0x3F4 JUMPI PUSH1 0x0 DUP1 REVERT JUMPDEST POP JUMP JUMPDEST PUSH1 0x0 DUP2 CALLDATALOAD SWAP1 POP PUSH2 0x406 DUP2 PUSH2 0x3E0 JUMP JUMPDEST SWAP3 SWAP2 POP POP JUMP JUMPDEST PUSH1 0x0 DUP2 ISZERO ISZERO SWAP1 POP SWAP2 SWAP1 POP JUMP JUMPDEST PUSH2 0x421 DUP2 PUSH2 0x40C JUMP JUMPDEST DUP2 EQ PUSH2 0x42C JUMPI PUSH1 0x0 DUP1 REVERT JUMPDEST POP JUMP JUMPDEST PUSH1 0x0 DUP2 CALLDATALOAD SWAP1 POP PUSH2 0x43E DUP2 PUSH2 0x418 JUMP JUMPDEST SWAP3 SWAP2 POP POP JUMP JUMPDEST PUSH1 0x0 DUP1 PUSH1 0x0 DUP1 PUSH1 0x80 DUP6 DUP8 SUB SLT ISZERO PUSH2 0x45E JUMPI PUSH2 0x45D PUSH2 0x286 JUMP JUMPDEST JUMPDEST PUSH1 0x0 DUP6 ADD CALLDATALOAD PUSH8 0xFFFFFFFFFFFFFFFF DUP2 GT ISZERO PUSH2 0x47C JUMPI PUSH2 0x47B PUSH2 0x28B JUMP JUMPDEST JUMPDEST PUSH2 0x488 DUP8 DUP3 DUP9 ADD PUSH2 0x3A8 JUMP JUMPDEST SWAP5 POP POP PUSH1 0x20 DUP6 ADD CALLDATALOAD PUSH8 0xFFFFFFFFFFFFFFFF DUP2 GT ISZERO PUSH2 0x4A9 JUMPI PUSH2 0x4A8 PUSH2 0x28B JUMP JUMPDEST JUMPDEST PUSH2 0x4B5 DUP8 DUP3 DUP9 ADD PUSH2 0x3A8 JUMP JUMPDEST SWAP4 POP POP PUSH1 0x40 PUSH2 0x4C6 DUP8 DUP3 DUP9 ADD PUSH2 0x3F7 JUMP JUMPDEST SWAP3 POP POP PUSH1 0x60 PUSH2 0x4D7 DUP8 DUP3 DUP9 ADD PUSH2 0x42F JUMP JUMPDEST SWAP2 POP POP SWAP3 SWAP6 SWAP2 SWAP5 POP SWAP3 POP JUMP JUMPDEST PUSH1 0x0 DUP1 PUSH1 0x40 DUP4 DUP6 SUB SLT ISZERO PUSH2 0x4FA JUMPI PUSH2 0x4F9 PUSH2 0x286 JUMP JUMPDEST JUMPDEST PUSH1 0x0 PUSH2 0x508 DUP6 DUP3 DUP7 ADD PUSH2 0x3F7 JUMP JUMPDEST SWAP3 POP POP PUSH1 0x20 PUSH2 0x519 DUP6 DUP3 DUP7 ADD PUSH2 0x3F7 JUMP JUMPDEST SWAP2 POP POP SWAP3 POP SWAP3 SWAP1 POP JUMP JUMPDEST PUSH2 0x52C DUP2 PUSH2 0x3D6 JUMP JUMPDEST DUP3 MSTORE POP POP JUMP JUMPDEST PUSH1 0x0 PUSH1 0x20 DUP3 ADD SWAP1 POP PUSH2 0x547 PUSH1 0x0 DUP4 ADD DUP5 PUSH2 0x523 JUMP JUMPDEST SWAP3 SWAP2 POP POP JUMP JUMPDEST PUSH1 0x0 DUP2 MLOAD SWAP1 POP SWAP2 SWAP1 POP JUMP JUMPDEST PUSH1 0x0 DUP3 DUP3 MSTORE PUSH1 0x20 DUP3 ADD SWAP1 POP SWAP3 SWAP2 POP POP JUMP JUMPDEST PUSH1 0x0 JUMPDEST DUP4 DUP2 LT ISZERO PUSH2 0x587 JUMPI DUP1 DUP3 ADD MLOAD DUP2 DUP5 ADD MSTORE PUSH1 0x20 DUP2 ADD SWAP1 POP PUSH2 0x56C JUMP JUMPDEST PUSH1 0x0 DUP5 DUP5 ADD MSTORE POP POP POP POP JUMP JUMPDEST PUSH1 0x0 PUSH2 0x59E DUP3 PUSH2 0x54D JUMP JUMPDEST PUSH2 0x5A8 DUP2 DUP6 PUSH2 0x558 JUMP JUMPDEST SWAP4 POP PUSH2 0x5B8 DUP2 DUP6 PUSH1 0x20 DUP7 ADD PUSH2 0x569 JUMP JUMPDEST PUSH2 0x5C1 DUP2 PUSH2 0x29A JUMP JUMPDEST DUP5 ADD SWAP2 POP POP SWAP3 SWAP2 POP POP JUMP JUMPDEST PUSH2 0x5D5 DUP2 PUSH2 0x40C JUMP JUMPDEST DUP3 MSTORE POP POP JUMP JUMPDEST PUSH1 0x0 PUSH1 0x80 DUP3 ADD SWAP1 POP DUP2 DUP2 SUB PUSH1 0x0 DUP4 ADD MSTORE PUSH2 0x5F5 DUP2 DUP8 PUSH2 0x593 JUMP JUMPDEST SWAP1 POP DUP2 DUP2 SUB PUSH1 0x20 DUP4 ADD MSTORE PUSH2 0x609 DUP2 DUP7 PUSH2 0x593 JUMP JUMPDEST SWAP1 POP PUSH2 0x618 PUSH1 0x40 DUP4 ADD DUP6 PUSH2 0x523 JUMP JUMPDEST PUSH2 0x625 PUSH1 0x60 DUP4 ADD DUP5 PUSH2 0x5CC JUMP JUMPDEST SWAP6 SWAP5 POP POP POP POP POP JUMP JUMPDEST PUSH32 0x4E487B7100000000000000000000000000000000000000000000000000000000 PUSH1 0x0 MSTORE PUSH1 0x22 PUSH1 0x4 MSTORE PUSH1 0x24 PUSH1 0x0 REVERT JUMPDEST PUSH1 0x0 PUSH1 0x2 DUP3 DIV SWAP1 POP PUSH1 0x1 DUP3 AND DUP1 PUSH2 0x675 JUMPI PUSH1 0x7F DUP3 AND SWAP2 POP JUMPDEST PUSH1 0x20 DUP3 LT DUP2 SUB PUSH2 0x688 JUMPI PUSH2 0x687 PUSH2 0x62E JUMP JUMPDEST JUMPDEST POP SWAP2 SWAP1 POP JUMP JUMPDEST PUSH1 0x0 DUP2 SWAP1 POP DUP2 PUSH1 0x0 MSTORE PUSH1 0x20 PUSH1 0x0 KECCAK256 SWAP1 POP SWAP2 SWAP1 POP JUMP JUMPDEST PUSH1 0x0 PUSH1 0x20 PUSH1 0x1F DUP4 ADD DIV SWAP1 POP SWAP2 SWAP1 POP JUMP JUMPDEST PUSH1 0x0 DUP3 DUP3 SHL SWAP1 POP SWAP3 SWAP2 POP POP JUMP JUMPDEST PUSH1 0x0 PUSH1 0x8 DUP4 MUL PUSH2 0x6F0 PUSH32 0xFFFFFFFFFFFFFFFFFFFFFFFFFFFFFFFFFFFFFFFFFFFFFFFFFFFFFFFFFFFFFFFF DUP3 PUSH2 0x6B3 JUMP JUMPDEST PUSH2 0x6FA DUP7 DUP4 PUSH2 0x6B3 JUMP JUMPDEST SWAP6 POP DUP1 NOT DUP5 AND SWAP4 POP DUP1 DUP7 AND DUP5 OR SWAP3 POP POP POP SWAP4 SWAP3 POP POP POP JUMP JUMPDEST PUSH1 0x0 DUP2 SWAP1 POP SWAP2 SWAP1 POP JUMP JUMPDEST PUSH1 0x0 PUSH2 0x737 PUSH2 0x732 PUSH2 0x72D DUP5 PUSH2 0x3D6 JUMP JUMPDEST PUSH2 0x712 JUMP JUMPDEST PUSH2 0x3D6 JUMP JUMPDEST SWAP1 POP SWAP2 SWAP1 POP JUMP JUMPDEST PUSH1 0x0 DUP2 SWAP1 POP SWAP2 SWAP1 POP JUMP JUMPDEST PUSH2 0x751 DUP4 PUSH2 0x71C JUMP JUMPDEST PUSH2 0x765 PUSH2 0x75D DUP3 PUSH2 0x73E JUMP JUMPDEST DUP5 DUP5 SLOAD PUSH2 0x6C0 JUMP JUMPDEST DUP3 SSTORE POP POP POP POP JUMP JUMPDEST PUSH1 0x0 SWAP1 JUMP JUMPDEST PUSH2 0x77A PUSH2 0x76D JUMP JUMPDEST PUSH2 0x785 DUP2 DUP5 DUP5 PUSH2 0x748 JUMP JUMPDEST POP POP POP JUMP JUMPDEST JUMPDEST DUP2 DUP2 LT ISZERO PUSH2 0x7A9 JUMPI PUSH2 0x79E PUSH1 0x0 DUP3 PUSH2 0x772 JUMP JUMPDEST PUSH1 0x1 DUP2 ADD SWAP1 POP PUSH2 0x78B JUMP JUMPDEST POP POP JUMP JUMPDEST PUSH1 0x1F DUP3 GT ISZERO PUSH2 0x7EE JUMPI PUSH2 0x7BF DUP2 PUSH2 0x68E JUMP JUMPDEST PUSH2 0x7C8 DUP5 PUSH2 0x6A3 JUMP JUMPDEST DUP2 ADD PUSH1 0x20 DUP6 LT ISZERO PUSH2 0x7D7 JUMPI DUP2 SWAP1 POP JUMPDEST PUSH2 0x7EB PUSH2 0x7E3 DUP6 PUSH2 0x6A3 JUMP JUMPDEST DUP4 ADD DUP3 PUSH2 0x78A JUMP JUMPDEST POP POP JUMPDEST POP POP POP JUMP JUMPDEST PUSH1 0x0 DUP3 DUP3 SHR SWAP1 POP SWAP3 SWAP2 POP POP JUMP JUMPDEST PUSH1 0x0 PUSH2 0x811 PUSH1 0x0 NOT DUP5 PUSH1 0x8 MUL PUSH2 0x7F3 JUMP JUMPDEST NOT DUP1 DUP4 AND SWAP2 POP POP SWAP3 SWAP2 POP POP JUMP JUMPDEST PUSH1 0x0 PUSH2 0x82A DUP4 DUP4 PUSH2 0x800 JUMP JUMPDEST SWAP2 POP DUP3 PUSH1 0x2 MUL DUP3 OR SWAP1 POP SWAP3 SWAP2 POP POP JUMP JUMPDEST PUSH2 0x843 DUP3 PUSH2 0x54D JUMP JUMPDEST PUSH8 0xFFFFFFFFFFFFFFFF DUP2 GT ISZERO PUSH2 0x85C JUMPI PUSH2 0x85B PUSH2 0x2AB JUMP JUMPDEST JUMPDEST PUSH2 0x866 DUP3 SLOAD PUSH2 0x65D JUMP JUMPDEST PUSH2 0x871 DUP3 DUP3 DUP6 PUSH2 0x7AD JUMP JUMPDEST PUSH1 0x0 PUSH1 0x20 SWAP1 POP PUSH1 0x1F DUP4 GT PUSH1 0x1 DUP2 EQ PUSH2 0x8A4 JUMPI PUSH1 0x0 DUP5 ISZERO PUSH2 0x892 JUMPI DUP3 DUP8 ADD MLOAD SWAP1 POP JUMPDEST PUSH2 0x89C DUP6 DUP3 PUSH2 0x81E JUMP JUMPDEST DUP7 SSTORE POP PUSH2 0x904 JUMP JUMPDEST PUSH1 0x1F NOT DUP5 AND PUSH2 0x8B2 DUP7 PUSH2 0x68E JUMP JUMPDEST PUSH1 0x0 JUMPDEST DUP3 DUP2 LT ISZERO PUSH2 0x8DA JUMPI DUP5 DUP10 ADD MLOAD DUP3 SSTORE PUSH1 0x1 DUP3 ADD SWAP2 POP PUSH1 0x20 DUP6 ADD SWAP5 POP PUSH1 0x20 DUP2 ADD SWAP1 POP PUSH2 0x8B5 JUMP JUMPDEST DUP7 DUP4 LT ISZERO PUSH2 0x8F7 JUMPI DUP5 DUP10 ADD MLOAD PUSH2 0x8F3 PUSH1 0x1F DUP10 AND DUP3 PUSH2 0x800 JUMP JUMPDEST DUP4 SSTORE POP JUMPDEST PUSH1 0x1 PUSH1 0x2 DUP9 MUL ADD DUP9 SSTORE POP POP POP JUMPDEST POP POP POP POP POP POP JUMP JUMPDEST PUSH32 0x4E487B7100000000000000000000000000000000000000000000000000000000 PUSH1 0x0 MSTORE PUSH1 0x11 PUSH1 0x4 MSTORE PUSH1 0x24 PUSH1 0x0 REVERT JUMPDEST PUSH1 0x0 PUSH2 0x946 DUP3 PUSH2 0x3D6 JUMP JUMPDEST SWAP2 POP PUSH2 0x951 DUP4 PUSH2 0x3D6 JUMP JUMPDEST SWAP3 POP DUP3 DUP3 SUB SWAP1 POP DUP2 DUP2 GT ISZERO PUSH2 0x969 JUMPI PUSH2 0x968 PUSH2 0x90C JUMP JUMPDEST JUMPDEST SWAP3 SWAP2 POP POP JUMP JUMPDEST PUSH1 0x0 PUSH2 0x97A DUP3 PUSH2 0x3D6 JUMP JUMPDEST SWAP2 POP PUSH2 0x985 DUP4 PUSH2 0x3D6 JUMP JUMPDEST SWAP3 POP DUP3 DUP3 ADD SWAP1 POP DUP1 DUP3 GT ISZERO PUSH2 0x99D JUMPI PUSH2 0x99C PUSH2 0x90C JUMP JUMPDEST JUMPDEST SWAP3 SWAP2 POP POP JUMP INVALID LOG2 PUSH5 0x6970667358 0x22 SLT KECCAK256 0xD 0x4F 0x2F 0x2F 0xDE SWAP2 0xD 0xB6 0xB7 0xE8 0xCB 0xDF 0x2F 0x4D 0xB1 0xAE GAS SWAP1 SWAP1 SWAP9 SWAP4 PUSH21 0x12A6E06BB499AAEF128764736F6C63430008120033 "
				},
				"gasEstimates": {
					"creation": {
						"codeDepositCost": "504200",
						"executionCost": "537",
						"totalCost": "504737"
					},
					"external": {
						"controlSum(uint256,uint256)": "infinite",
						"getCarData()": "infinite",
						"setCarData(string,string,uint256,bool)": "infinite"
					}
				},
				"methodIdentifiers": {
					"controlSum(uint256,uint256)": "8a5ab135",
					"getCarData()": "c0f6ea36",
					"setCarData(string,string,uint256,bool)": "84297fb9"
				}
			},
			"storageLayout": {
				"storage": [
					{
						"astId": 22,
						"contract": "contracts/Sumof2Num.sol:cars",
						"label": "carName",
						"offset": 0,
						"slot": "0",
						"type": "t_string_storage"
					},
					{
						"astId": 24,
						"contract": "contracts/Sumof2Num.sol:cars",
						"label": "carBrand",
						"offset": 0,
						"slot": "1",
						"type": "t_string_storage"
					},
					{
						"astId": 26,
						"contract": "contracts/Sumof2Num.sol:cars",
						"label": "carModel",
						"offset": 0,
						"slot": "2",
						"type": "t_uint256"
					},
					{
						"astId": 28,
						"contract": "contracts/Sumof2Num.sol:cars",
						"label": "redCar",
						"offset": 0,
						"slot": "3",
						"type": "t_bool"
					}
				],
				"types": {
					"t_bool": {
						"encoding": "inplace",
						"label": "bool",
						"numberOfBytes": "1"
					},
					"t_string_storage": {
						"encoding": "bytes",
						"label": "string",
						"numberOfBytes": "32"
					},
					"t_uint256": {
						"encoding": "inplace",
						"label": "uint256",
						"numberOfBytes": "32"
					}
				}
			},
			"userdoc": {
				"kind": "user",
				"methods": {},
				"version": 1
			}
		}
	}
}