{
	"contracts/RestrictedArray.sol": {
		"Calculate_numbers": {
			"abi": [
				{
					"inputs": [
						{
							"internalType": "uint256",
							"name": "_num1",
							"type": "uint256"
						},
						{
							"internalType": "uint256",
							"name": "_num2",
							"type": "uint256"
						}
					],
					"name": "Add2_Numbers",
					"outputs": [],
					"stateMutability": "nonpayable",
					"type": "function"
				},
				{
					"inputs": [
						{
							"internalType": "uint256",
							"name": "",
							"type": "uint256"
						}
					],
					"name": "Arr_Sum",
					"outputs": [
						{
							"internalType": "uint256",
							"name": "",
							"type": "uint256"
						}
					],
					"stateMutability": "view",
					"type": "function"
				},
				{
					"inputs": [],
					"name": "DoSum",
					"outputs": [
						{
							"internalType": "uint256",
							"name": "",
							"type": "uint256"
						}
					],
					"stateMutability": "view",
					"type": "function"
				},
				{
					"inputs": [],
					"name": "ViewArray",
					"outputs": [
						{
							"internalType": "uint256[]",
							"name": "",
							"type": "uint256[]"
						}
					],
					"stateMutability": "view",
					"type": "function"
				},
				{
					"inputs": [],
					"name": "owner",
					"outputs": [
						{
							"internalType": "address",
							"name": "",
							"type": "address"
						}
					],
					"stateMutability": "view",
					"type": "function"
				}
			],
			"devdoc": {
				"kind": "dev",
				"methods": {},
				"version": 1
			},
			"evm": {
				"assembly": "    /* \"contracts/RestrictedArray.sol\":131:962  contract Calculate_numbers ... */\n  mstore(0x40, 0x80)\n    /* \"contracts/RestrictedArray.sol\":190:191  0 */\n  0x00\n    /* \"contracts/RestrictedArray.sol\":169:191  uint256 public DoSum=0 */\n  dup1\n  sstore\n    /* \"contracts/RestrictedArray.sol\":265:275  msg.sender */\n  caller\n    /* \"contracts/RestrictedArray.sol\":244:275  address public owner=msg.sender */\n  0x02\n  exp(0x0100, 0x00)\n  dup2\n  sload\n  dup2\n  0xffffffffffffffffffffffffffffffffffffffff\n  mul\n  not\n  and\n  swap1\n  dup4\n  0xffffffffffffffffffffffffffffffffffffffff\n  and\n  mul\n  or\n  swap1\n  sstore\n  pop\n    /* \"contracts/RestrictedArray.sol\":131:962  contract Calculate_numbers ... */\n  callvalue\n  dup1\n  iszero\n  tag_1\n  jumpi\n  0x00\n  dup1\n  revert\ntag_1:\n  pop\n  dataSize(sub_0)\n  dup1\n  dataOffset(sub_0)\n  0x00\n  codecopy\n  0x00\n  return\nstop\n\nsub_0: assembly {\n        /* \"contracts/RestrictedArray.sol\":131:962  contract Calculate_numbers ... */\n      mstore(0x40, 0x80)\n      callvalue\n      dup1\n      iszero\n      tag_1\n      jumpi\n      0x00\n      dup1\n      revert\n    tag_1:\n      pop\n      jumpi(tag_2, lt(calldatasize, 0x04))\n      shr(0xe0, calldataload(0x00))\n      dup1\n      0x1b4caae7\n      eq\n      tag_3\n      jumpi\n      dup1\n      0x4420598c\n      eq\n      tag_4\n      jumpi\n      dup1\n      0x4b7b4cda\n      eq\n      tag_5\n      jumpi\n      dup1\n      0x8da5cb5b\n      eq\n      tag_6\n      jumpi\n      dup1\n      0xae0a29a2\n      eq\n      tag_7\n      jumpi\n    tag_2:\n      0x00\n      dup1\n      revert\n        /* \"contracts/RestrictedArray.sol\":419:557  function Add2_Numbers(uint256 _num1, uint _num2) public  ... */\n    tag_3:\n      tag_8\n      0x04\n      dup1\n      calldatasize\n      sub\n      dup2\n      add\n      swap1\n      tag_9\n      swap2\n      swap1\n      tag_10\n      jump\t// in\n    tag_9:\n      tag_11\n      jump\t// in\n    tag_8:\n      stop\n        /* \"contracts/RestrictedArray.sol\":565:959  function ViewArray() public view onlyTheOwner returns (uint[] memory)    ... */\n    tag_4:\n      tag_12\n      tag_13\n      jump\t// in\n    tag_12:\n      mload(0x40)\n      tag_14\n      swap2\n      swap1\n      tag_15\n      jump\t// in\n    tag_14:\n      mload(0x40)\n      dup1\n      swap2\n      sub\n      swap1\n      return\n        /* \"contracts/RestrictedArray.sol\":198:223  uint256 [] public Arr_Sum */\n    tag_5:\n      tag_16\n      0x04\n      dup1\n      calldatasize\n      sub\n      dup2\n      add\n      swap1\n      tag_17\n      swap2\n      swap1\n      tag_18\n      jump\t// in\n    tag_17:\n      tag_19\n      jump\t// in\n    tag_16:\n      mload(0x40)\n      tag_20\n      swap2\n      swap1\n      tag_21\n      jump\t// in\n    tag_20:\n      mload(0x40)\n      dup1\n      swap2\n      sub\n      swap1\n      return\n        /* \"contracts/RestrictedArray.sol\":244:275  address public owner=msg.sender */\n    tag_6:\n      tag_22\n      tag_23\n      jump\t// in\n    tag_22:\n      mload(0x40)\n      tag_24\n      swap2\n      swap1\n      tag_25\n      jump\t// in\n    tag_24:\n      mload(0x40)\n      dup1\n      swap2\n      sub\n      swap1\n      return\n        /* \"contracts/RestrictedArray.sol\":169:191  uint256 public DoSum=0 */\n    tag_7:\n      tag_26\n      tag_27\n      jump\t// in\n    tag_26:\n      mload(0x40)\n      tag_28\n      swap2\n      swap1\n      tag_21\n      jump\t// in\n    tag_28:\n      mload(0x40)\n      dup1\n      swap2\n      sub\n      swap1\n      return\n        /* \"contracts/RestrictedArray.sol\":419:557  function Add2_Numbers(uint256 _num1, uint _num2) public  ... */\n    tag_11:\n        /* \"contracts/RestrictedArray.sol\":506:511  _num2 */\n      dup1\n        /* \"contracts/RestrictedArray.sol\":500:505  _num1 */\n      dup3\n        /* \"contracts/RestrictedArray.sol\":500:511  _num1+_num2 */\n      tag_30\n      swap2\n      swap1\n      tag_31\n      jump\t// in\n    tag_30:\n        /* \"contracts/RestrictedArray.sol\":493:498  DoSum */\n      0x00\n        /* \"contracts/RestrictedArray.sol\":493:511  DoSum= _num1+_num2 */\n      dup2\n      swap1\n      sstore\n      pop\n        /* \"contracts/RestrictedArray.sol\":522:529  Arr_Sum */\n      0x01\n        /* \"contracts/RestrictedArray.sol\":535:540  DoSum */\n      sload(0x00)\n        /* \"contracts/RestrictedArray.sol\":522:541  Arr_Sum.push(DoSum) */\n      swap1\n      dup1\n      0x01\n      dup2\n      sload\n      add\n      dup1\n      dup3\n      sstore\n      dup1\n      swap2\n      pop\n      pop\n      0x01\n      swap1\n      sub\n      swap1\n      0x00\n      mstore\n      keccak256(0x00, 0x20)\n      add\n      0x00\n      swap1\n      swap2\n      swap1\n      swap2\n      swap1\n      swap2\n      pop\n      sstore\n        /* \"contracts/RestrictedArray.sol\":419:557  function Add2_Numbers(uint256 _num1, uint _num2) public  ... */\n      pop\n      pop\n      jump\t// out\n        /* \"contracts/RestrictedArray.sol\":565:959  function ViewArray() public view onlyTheOwner returns (uint[] memory)    ... */\n    tag_13:\n        /* \"contracts/RestrictedArray.sol\":620:633  uint[] memory */\n      0x60\n        /* \"contracts/RestrictedArray.sol\":343:348  owner */\n      0x02\n      0x00\n      swap1\n      sload\n      swap1\n      0x0100\n      exp\n      swap1\n      div\n      0xffffffffffffffffffffffffffffffffffffffff\n      and\n        /* \"contracts/RestrictedArray.sol\":329:348  msg.sender == owner */\n      0xffffffffffffffffffffffffffffffffffffffff\n      and\n        /* \"contracts/RestrictedArray.sol\":329:339  msg.sender */\n      caller\n        /* \"contracts/RestrictedArray.sol\":329:348  msg.sender == owner */\n      0xffffffffffffffffffffffffffffffffffffffff\n      and\n      eq\n        /* \"contracts/RestrictedArray.sol\":321:393  require(msg.sender == owner,\"Only The Owner Can View The Array Size!!!\") */\n      tag_34\n      jumpi\n      mload(0x40)\n      0x08c379a000000000000000000000000000000000000000000000000000000000\n      dup2\n      mstore\n      0x04\n      add\n      tag_35\n      swap1\n      tag_36\n      jump\t// in\n    tag_35:\n      mload(0x40)\n      dup1\n      swap2\n      sub\n      swap1\n      revert\n    tag_34:\n        /* \"contracts/RestrictedArray.sol\":754:782  uint256 [] memory Arr_Result */\n      0x00\n        /* \"contracts/RestrictedArray.sol\":800:807  Arr_Sum */\n      0x01\n        /* \"contracts/RestrictedArray.sol\":800:814  Arr_Sum.length */\n      dup1\n      sload\n      swap1\n      pop\n        /* \"contracts/RestrictedArray.sol\":784:815  new uint256 [] (Arr_Sum.length) */\n      0xffffffffffffffff\n      dup2\n      gt\n      iszero\n      tag_38\n      jumpi\n      tag_39\n      tag_40\n      jump\t// in\n    tag_39:\n    tag_38:\n      mload(0x40)\n      swap1\n      dup1\n      dup3\n      mstore\n      dup1\n      0x20\n      mul\n      0x20\n      add\n      dup3\n      add\n      0x40\n      mstore\n      dup1\n      iszero\n      tag_41\n      jumpi\n      dup2\n      0x20\n      add\n      0x20\n      dup3\n      mul\n      dup1\n      calldatasize\n      dup4\n      calldatacopy\n      dup1\n      dup3\n      add\n      swap2\n      pop\n      pop\n      swap1\n      pop\n    tag_41:\n      pop\n        /* \"contracts/RestrictedArray.sol\":754:815  uint256 [] memory Arr_Result= new uint256 [] (Arr_Sum.length) */\n      swap1\n      pop\n        /* \"contracts/RestrictedArray.sol\":834:840  uint i */\n      0x00\n        /* \"contracts/RestrictedArray.sol\":829:924  for (uint i = 0; i < Arr_Sum.length; i++) {... */\n    tag_42:\n        /* \"contracts/RestrictedArray.sol\":850:857  Arr_Sum */\n      0x01\n        /* \"contracts/RestrictedArray.sol\":850:864  Arr_Sum.length */\n      dup1\n      sload\n      swap1\n      pop\n        /* \"contracts/RestrictedArray.sol\":846:847  i */\n      dup2\n        /* \"contracts/RestrictedArray.sol\":846:864  i < Arr_Sum.length */\n      lt\n        /* \"contracts/RestrictedArray.sol\":829:924  for (uint i = 0; i < Arr_Sum.length; i++) {... */\n      iszero\n      tag_43\n      jumpi\n        /* \"contracts/RestrictedArray.sol\":902:909  Arr_Sum */\n      0x01\n        /* \"contracts/RestrictedArray.sol\":910:911  i */\n      dup2\n        /* \"contracts/RestrictedArray.sol\":902:912  Arr_Sum[i] */\n      dup2\n      sload\n      dup2\n      lt\n      tag_45\n      jumpi\n      tag_46\n      tag_47\n      jump\t// in\n    tag_46:\n    tag_45:\n      swap1\n      0x00\n      mstore\n      keccak256(0x00, 0x20)\n      add\n      sload\n        /* \"contracts/RestrictedArray.sol\":886:896  Arr_Result */\n      dup3\n        /* \"contracts/RestrictedArray.sol\":897:898  i */\n      dup3\n        /* \"contracts/RestrictedArray.sol\":886:899  Arr_Result[i] */\n      dup2\n      mload\n      dup2\n      lt\n      tag_49\n      jumpi\n      tag_50\n      tag_47\n      jump\t// in\n    tag_50:\n    tag_49:\n      0x20\n      mul\n      0x20\n      add\n      add\n        /* \"contracts/RestrictedArray.sol\":886:912  Arr_Result[i] = Arr_Sum[i] */\n      dup2\n      dup2\n      mstore\n      pop\n      pop\n        /* \"contracts/RestrictedArray.sol\":866:869  i++ */\n      dup1\n      dup1\n      0x01\n      add\n      swap2\n      pop\n      pop\n        /* \"contracts/RestrictedArray.sol\":829:924  for (uint i = 0; i < Arr_Sum.length; i++) {... */\n      jump(tag_42)\n    tag_43:\n      pop\n        /* \"contracts/RestrictedArray.sol\":941:951  Arr_Result */\n      dup1\n        /* \"contracts/RestrictedArray.sol\":934:951  return Arr_Result */\n      swap2\n      pop\n      pop\n        /* \"contracts/RestrictedArray.sol\":565:959  function ViewArray() public view onlyTheOwner returns (uint[] memory)    ... */\n      swap1\n      jump\t// out\n        /* \"contracts/RestrictedArray.sol\":198:223  uint256 [] public Arr_Sum */\n    tag_19:\n      0x01\n      dup2\n      dup2\n      sload\n      dup2\n      lt\n      tag_51\n      jumpi\n      0x00\n      dup1\n      revert\n    tag_51:\n      swap1\n      0x00\n      mstore\n      keccak256(0x00, 0x20)\n      add\n      0x00\n      swap2\n      pop\n      swap1\n      pop\n      sload\n      dup2\n      jump\t// out\n        /* \"contracts/RestrictedArray.sol\":244:275  address public owner=msg.sender */\n    tag_23:\n      0x02\n      0x00\n      swap1\n      sload\n      swap1\n      0x0100\n      exp\n      swap1\n      div\n      0xffffffffffffffffffffffffffffffffffffffff\n      and\n      dup2\n      jump\t// out\n        /* \"contracts/RestrictedArray.sol\":169:191  uint256 public DoSum=0 */\n    tag_27:\n      sload(0x00)\n      dup2\n      jump\t// out\n        /* \"#utility.yul\":88:205   */\n    tag_54:\n        /* \"#utility.yul\":197:198   */\n      0x00\n        /* \"#utility.yul\":194:195   */\n      dup1\n        /* \"#utility.yul\":187:199   */\n      revert\n        /* \"#utility.yul\":334:411   */\n    tag_56:\n        /* \"#utility.yul\":371:378   */\n      0x00\n        /* \"#utility.yul\":400:405   */\n      dup2\n        /* \"#utility.yul\":389:405   */\n      swap1\n      pop\n        /* \"#utility.yul\":334:411   */\n      swap2\n      swap1\n      pop\n      jump\t// out\n        /* \"#utility.yul\":417:539   */\n    tag_57:\n        /* \"#utility.yul\":490:514   */\n      tag_80\n        /* \"#utility.yul\":508:513   */\n      dup2\n        /* \"#utility.yul\":490:514   */\n      tag_56\n      jump\t// in\n    tag_80:\n        /* \"#utility.yul\":483:488   */\n      dup2\n        /* \"#utility.yul\":480:515   */\n      eq\n        /* \"#utility.yul\":470:533   */\n      tag_81\n      jumpi\n        /* \"#utility.yul\":529:530   */\n      0x00\n        /* \"#utility.yul\":526:527   */\n      dup1\n        /* \"#utility.yul\":519:531   */\n      revert\n        /* \"#utility.yul\":470:533   */\n    tag_81:\n        /* \"#utility.yul\":417:539   */\n      pop\n      jump\t// out\n        /* \"#utility.yul\":545:684   */\n    tag_58:\n        /* \"#utility.yul\":591:596   */\n      0x00\n        /* \"#utility.yul\":629:635   */\n      dup2\n        /* \"#utility.yul\":616:636   */\n      calldataload\n        /* \"#utility.yul\":607:636   */\n      swap1\n      pop\n        /* \"#utility.yul\":645:678   */\n      tag_83\n        /* \"#utility.yul\":672:677   */\n      dup2\n        /* \"#utility.yul\":645:678   */\n      tag_57\n      jump\t// in\n    tag_83:\n        /* \"#utility.yul\":545:684   */\n      swap3\n      swap2\n      pop\n      pop\n      jump\t// out\n        /* \"#utility.yul\":690:1164   */\n    tag_10:\n        /* \"#utility.yul\":758:764   */\n      0x00\n        /* \"#utility.yul\":766:772   */\n      dup1\n        /* \"#utility.yul\":815:817   */\n      0x40\n        /* \"#utility.yul\":803:812   */\n      dup4\n        /* \"#utility.yul\":794:801   */\n      dup6\n        /* \"#utility.yul\":790:813   */\n      sub\n        /* \"#utility.yul\":786:818   */\n      slt\n        /* \"#utility.yul\":783:902   */\n      iszero\n      tag_85\n      jumpi\n        /* \"#utility.yul\":821:900   */\n      tag_86\n      tag_54\n      jump\t// in\n    tag_86:\n        /* \"#utility.yul\":783:902   */\n    tag_85:\n        /* \"#utility.yul\":941:942   */\n      0x00\n        /* \"#utility.yul\":966:1019   */\n      tag_87\n        /* \"#utility.yul\":1011:1018   */\n      dup6\n        /* \"#utility.yul\":1002:1008   */\n      dup3\n        /* \"#utility.yul\":991:1000   */\n      dup7\n        /* \"#utility.yul\":987:1009   */\n      add\n        /* \"#utility.yul\":966:1019   */\n      tag_58\n      jump\t// in\n    tag_87:\n        /* \"#utility.yul\":956:1019   */\n      swap3\n      pop\n        /* \"#utility.yul\":912:1029   */\n      pop\n        /* \"#utility.yul\":1068:1070   */\n      0x20\n        /* \"#utility.yul\":1094:1147   */\n      tag_88\n        /* \"#utility.yul\":1139:1146   */\n      dup6\n        /* \"#utility.yul\":1130:1136   */\n      dup3\n        /* \"#utility.yul\":1119:1128   */\n      dup7\n        /* \"#utility.yul\":1115:1137   */\n      add\n        /* \"#utility.yul\":1094:1147   */\n      tag_58\n      jump\t// in\n    tag_88:\n        /* \"#utility.yul\":1084:1147   */\n      swap2\n      pop\n        /* \"#utility.yul\":1039:1157   */\n      pop\n        /* \"#utility.yul\":690:1164   */\n      swap3\n      pop\n      swap3\n      swap1\n      pop\n      jump\t// out\n        /* \"#utility.yul\":1170:1284   */\n    tag_59:\n        /* \"#utility.yul\":1237:1243   */\n      0x00\n        /* \"#utility.yul\":1271:1276   */\n      dup2\n        /* \"#utility.yul\":1265:1277   */\n      mload\n        /* \"#utility.yul\":1255:1277   */\n      swap1\n      pop\n        /* \"#utility.yul\":1170:1284   */\n      swap2\n      swap1\n      pop\n      jump\t// out\n        /* \"#utility.yul\":1290:1474   */\n    tag_60:\n        /* \"#utility.yul\":1389:1400   */\n      0x00\n        /* \"#utility.yul\":1423:1429   */\n      dup3\n        /* \"#utility.yul\":1418:1421   */\n      dup3\n        /* \"#utility.yul\":1411:1430   */\n      mstore\n        /* \"#utility.yul\":1463:1467   */\n      0x20\n        /* \"#utility.yul\":1458:1461   */\n      dup3\n        /* \"#utility.yul\":1454:1468   */\n      add\n        /* \"#utility.yul\":1439:1468   */\n      swap1\n      pop\n        /* \"#utility.yul\":1290:1474   */\n      swap3\n      swap2\n      pop\n      pop\n      jump\t// out\n        /* \"#utility.yul\":1480:1612   */\n    tag_61:\n        /* \"#utility.yul\":1547:1551   */\n      0x00\n        /* \"#utility.yul\":1570:1573   */\n      dup2\n        /* \"#utility.yul\":1562:1573   */\n      swap1\n      pop\n        /* \"#utility.yul\":1600:1604   */\n      0x20\n        /* \"#utility.yul\":1595:1598   */\n      dup3\n        /* \"#utility.yul\":1591:1605   */\n      add\n        /* \"#utility.yul\":1583:1605   */\n      swap1\n      pop\n        /* \"#utility.yul\":1480:1612   */\n      swap2\n      swap1\n      pop\n      jump\t// out\n        /* \"#utility.yul\":1618:1726   */\n    tag_62:\n        /* \"#utility.yul\":1695:1719   */\n      tag_93\n        /* \"#utility.yul\":1713:1718   */\n      dup2\n        /* \"#utility.yul\":1695:1719   */\n      tag_56\n      jump\t// in\n    tag_93:\n        /* \"#utility.yul\":1690:1693   */\n      dup3\n        /* \"#utility.yul\":1683:1720   */\n      mstore\n        /* \"#utility.yul\":1618:1726   */\n      pop\n      pop\n      jump\t// out\n        /* \"#utility.yul\":1732:1911   */\n    tag_63:\n        /* \"#utility.yul\":1801:1811   */\n      0x00\n        /* \"#utility.yul\":1822:1868   */\n      tag_95\n        /* \"#utility.yul\":1864:1867   */\n      dup4\n        /* \"#utility.yul\":1856:1862   */\n      dup4\n        /* \"#utility.yul\":1822:1868   */\n      tag_62\n      jump\t// in\n    tag_95:\n        /* \"#utility.yul\":1900:1904   */\n      0x20\n        /* \"#utility.yul\":1895:1898   */\n      dup4\n        /* \"#utility.yul\":1891:1905   */\n      add\n        /* \"#utility.yul\":1877:1905   */\n      swap1\n      pop\n        /* \"#utility.yul\":1732:1911   */\n      swap3\n      swap2\n      pop\n      pop\n      jump\t// out\n        /* \"#utility.yul\":1917:2030   */\n    tag_64:\n        /* \"#utility.yul\":1987:1991   */\n      0x00\n        /* \"#utility.yul\":2019:2023   */\n      0x20\n        /* \"#utility.yul\":2014:2017   */\n      dup3\n        /* \"#utility.yul\":2010:2024   */\n      add\n        /* \"#utility.yul\":2002:2024   */\n      swap1\n      pop\n        /* \"#utility.yul\":1917:2030   */\n      swap2\n      swap1\n      pop\n      jump\t// out\n        /* \"#utility.yul\":2066:2798   */\n    tag_65:\n        /* \"#utility.yul\":2185:2188   */\n      0x00\n        /* \"#utility.yul\":2214:2268   */\n      tag_98\n        /* \"#utility.yul\":2262:2267   */\n      dup3\n        /* \"#utility.yul\":2214:2268   */\n      tag_59\n      jump\t// in\n    tag_98:\n        /* \"#utility.yul\":2284:2370   */\n      tag_99\n        /* \"#utility.yul\":2363:2369   */\n      dup2\n        /* \"#utility.yul\":2358:2361   */\n      dup6\n        /* \"#utility.yul\":2284:2370   */\n      tag_60\n      jump\t// in\n    tag_99:\n        /* \"#utility.yul\":2277:2370   */\n      swap4\n      pop\n        /* \"#utility.yul\":2394:2450   */\n      tag_100\n        /* \"#utility.yul\":2444:2449   */\n      dup4\n        /* \"#utility.yul\":2394:2450   */\n      tag_61\n      jump\t// in\n    tag_100:\n        /* \"#utility.yul\":2473:2480   */\n      dup1\n        /* \"#utility.yul\":2504:2505   */\n      0x00\n        /* \"#utility.yul\":2489:2773   */\n    tag_101:\n        /* \"#utility.yul\":2514:2520   */\n      dup4\n        /* \"#utility.yul\":2511:2512   */\n      dup2\n        /* \"#utility.yul\":2508:2521   */\n      lt\n        /* \"#utility.yul\":2489:2773   */\n      iszero\n      tag_103\n      jumpi\n        /* \"#utility.yul\":2590:2596   */\n      dup2\n        /* \"#utility.yul\":2584:2597   */\n      mload\n        /* \"#utility.yul\":2617:2680   */\n      tag_104\n        /* \"#utility.yul\":2676:2679   */\n      dup9\n        /* \"#utility.yul\":2661:2674   */\n      dup3\n        /* \"#utility.yul\":2617:2680   */\n      tag_63\n      jump\t// in\n    tag_104:\n        /* \"#utility.yul\":2610:2680   */\n      swap8\n      pop\n        /* \"#utility.yul\":2703:2763   */\n      tag_105\n        /* \"#utility.yul\":2756:2762   */\n      dup4\n        /* \"#utility.yul\":2703:2763   */\n      tag_64\n      jump\t// in\n    tag_105:\n        /* \"#utility.yul\":2693:2763   */\n      swap3\n      pop\n        /* \"#utility.yul\":2549:2773   */\n      pop\n        /* \"#utility.yul\":2536:2537   */\n      0x01\n        /* \"#utility.yul\":2533:2534   */\n      dup2\n        /* \"#utility.yul\":2529:2538   */\n      add\n        /* \"#utility.yul\":2524:2538   */\n      swap1\n      pop\n        /* \"#utility.yul\":2489:2773   */\n      jump(tag_101)\n    tag_103:\n        /* \"#utility.yul\":2493:2507   */\n      pop\n        /* \"#utility.yul\":2789:2792   */\n      dup6\n        /* \"#utility.yul\":2782:2792   */\n      swap4\n      pop\n        /* \"#utility.yul\":2190:2798   */\n      pop\n      pop\n      pop\n        /* \"#utility.yul\":2066:2798   */\n      swap3\n      swap2\n      pop\n      pop\n      jump\t// out\n        /* \"#utility.yul\":2804:3177   */\n    tag_15:\n        /* \"#utility.yul\":2947:2951   */\n      0x00\n        /* \"#utility.yul\":2985:2987   */\n      0x20\n        /* \"#utility.yul\":2974:2983   */\n      dup3\n        /* \"#utility.yul\":2970:2988   */\n      add\n        /* \"#utility.yul\":2962:2988   */\n      swap1\n      pop\n        /* \"#utility.yul\":3034:3043   */\n      dup2\n        /* \"#utility.yul\":3028:3032   */\n      dup2\n        /* \"#utility.yul\":3024:3044   */\n      sub\n        /* \"#utility.yul\":3020:3021   */\n      0x00\n        /* \"#utility.yul\":3009:3018   */\n      dup4\n        /* \"#utility.yul\":3005:3022   */\n      add\n        /* \"#utility.yul\":2998:3045   */\n      mstore\n        /* \"#utility.yul\":3062:3170   */\n      tag_107\n        /* \"#utility.yul\":3165:3169   */\n      dup2\n        /* \"#utility.yul\":3156:3162   */\n      dup5\n        /* \"#utility.yul\":3062:3170   */\n      tag_65\n      jump\t// in\n    tag_107:\n        /* \"#utility.yul\":3054:3170   */\n      swap1\n      pop\n        /* \"#utility.yul\":2804:3177   */\n      swap3\n      swap2\n      pop\n      pop\n      jump\t// out\n        /* \"#utility.yul\":3183:3512   */\n    tag_18:\n        /* \"#utility.yul\":3242:3248   */\n      0x00\n        /* \"#utility.yul\":3291:3293   */\n      0x20\n        /* \"#utility.yul\":3279:3288   */\n      dup3\n        /* \"#utility.yul\":3270:3277   */\n      dup5\n        /* \"#utility.yul\":3266:3289   */\n      sub\n        /* \"#utility.yul\":3262:3294   */\n      slt\n        /* \"#utility.yul\":3259:3378   */\n      iszero\n      tag_109\n      jumpi\n        /* \"#utility.yul\":3297:3376   */\n      tag_110\n      tag_54\n      jump\t// in\n    tag_110:\n        /* \"#utility.yul\":3259:3378   */\n    tag_109:\n        /* \"#utility.yul\":3417:3418   */\n      0x00\n        /* \"#utility.yul\":3442:3495   */\n      tag_111\n        /* \"#utility.yul\":3487:3494   */\n      dup5\n        /* \"#utility.yul\":3478:3484   */\n      dup3\n        /* \"#utility.yul\":3467:3476   */\n      dup6\n        /* \"#utility.yul\":3463:3485   */\n      add\n        /* \"#utility.yul\":3442:3495   */\n      tag_58\n      jump\t// in\n    tag_111:\n        /* \"#utility.yul\":3432:3495   */\n      swap2\n      pop\n        /* \"#utility.yul\":3388:3505   */\n      pop\n        /* \"#utility.yul\":3183:3512   */\n      swap3\n      swap2\n      pop\n      pop\n      jump\t// out\n        /* \"#utility.yul\":3518:3636   */\n    tag_66:\n        /* \"#utility.yul\":3605:3629   */\n      tag_113\n        /* \"#utility.yul\":3623:3628   */\n      dup2\n        /* \"#utility.yul\":3605:3629   */\n      tag_56\n      jump\t// in\n    tag_113:\n        /* \"#utility.yul\":3600:3603   */\n      dup3\n        /* \"#utility.yul\":3593:3630   */\n      mstore\n        /* \"#utility.yul\":3518:3636   */\n      pop\n      pop\n      jump\t// out\n        /* \"#utility.yul\":3642:3864   */\n    tag_21:\n        /* \"#utility.yul\":3735:3739   */\n      0x00\n        /* \"#utility.yul\":3773:3775   */\n      0x20\n        /* \"#utility.yul\":3762:3771   */\n      dup3\n        /* \"#utility.yul\":3758:3776   */\n      add\n        /* \"#utility.yul\":3750:3776   */\n      swap1\n      pop\n        /* \"#utility.yul\":3786:3857   */\n      tag_115\n        /* \"#utility.yul\":3854:3855   */\n      0x00\n        /* \"#utility.yul\":3843:3852   */\n      dup4\n        /* \"#utility.yul\":3839:3856   */\n      add\n        /* \"#utility.yul\":3830:3836   */\n      dup5\n        /* \"#utility.yul\":3786:3857   */\n      tag_66\n      jump\t// in\n    tag_115:\n        /* \"#utility.yul\":3642:3864   */\n      swap3\n      swap2\n      pop\n      pop\n      jump\t// out\n        /* \"#utility.yul\":3870:3996   */\n    tag_67:\n        /* \"#utility.yul\":3907:3914   */\n      0x00\n        /* \"#utility.yul\":3947:3989   */\n      0xffffffffffffffffffffffffffffffffffffffff\n        /* \"#utility.yul\":3940:3945   */\n      dup3\n        /* \"#utility.yul\":3936:3990   */\n      and\n        /* \"#utility.yul\":3925:3990   */\n      swap1\n      pop\n        /* \"#utility.yul\":3870:3996   */\n      swap2\n      swap1\n      pop\n      jump\t// out\n        /* \"#utility.yul\":4002:4098   */\n    tag_68:\n        /* \"#utility.yul\":4039:4046   */\n      0x00\n        /* \"#utility.yul\":4068:4092   */\n      tag_118\n        /* \"#utility.yul\":4086:4091   */\n      dup3\n        /* \"#utility.yul\":4068:4092   */\n      tag_67\n      jump\t// in\n    tag_118:\n        /* \"#utility.yul\":4057:4092   */\n      swap1\n      pop\n        /* \"#utility.yul\":4002:4098   */\n      swap2\n      swap1\n      pop\n      jump\t// out\n        /* \"#utility.yul\":4104:4222   */\n    tag_69:\n        /* \"#utility.yul\":4191:4215   */\n      tag_120\n        /* \"#utility.yul\":4209:4214   */\n      dup2\n        /* \"#utility.yul\":4191:4215   */\n      tag_68\n      jump\t// in\n    tag_120:\n        /* \"#utility.yul\":4186:4189   */\n      dup3\n        /* \"#utility.yul\":4179:4216   */\n      mstore\n        /* \"#utility.yul\":4104:4222   */\n      pop\n      pop\n      jump\t// out\n        /* \"#utility.yul\":4228:4450   */\n    tag_25:\n        /* \"#utility.yul\":4321:4325   */\n      0x00\n        /* \"#utility.yul\":4359:4361   */\n      0x20\n        /* \"#utility.yul\":4348:4357   */\n      dup3\n        /* \"#utility.yul\":4344:4362   */\n      add\n        /* \"#utility.yul\":4336:4362   */\n      swap1\n      pop\n        /* \"#utility.yul\":4372:4443   */\n      tag_122\n        /* \"#utility.yul\":4440:4441   */\n      0x00\n        /* \"#utility.yul\":4429:4438   */\n      dup4\n        /* \"#utility.yul\":4425:4442   */\n      add\n        /* \"#utility.yul\":4416:4422   */\n      dup5\n        /* \"#utility.yul\":4372:4443   */\n      tag_69\n      jump\t// in\n    tag_122:\n        /* \"#utility.yul\":4228:4450   */\n      swap3\n      swap2\n      pop\n      pop\n      jump\t// out\n        /* \"#utility.yul\":4456:4636   */\n    tag_70:\n        /* \"#utility.yul\":4504:4581   */\n      0x4e487b7100000000000000000000000000000000000000000000000000000000\n        /* \"#utility.yul\":4501:4502   */\n      0x00\n        /* \"#utility.yul\":4494:4582   */\n      mstore\n        /* \"#utility.yul\":4601:4605   */\n      0x11\n        /* \"#utility.yul\":4598:4599   */\n      0x04\n        /* \"#utility.yul\":4591:4606   */\n      mstore\n        /* \"#utility.yul\":4625:4629   */\n      0x24\n        /* \"#utility.yul\":4622:4623   */\n      0x00\n        /* \"#utility.yul\":4615:4630   */\n      revert\n        /* \"#utility.yul\":4642:4833   */\n    tag_31:\n        /* \"#utility.yul\":4682:4685   */\n      0x00\n        /* \"#utility.yul\":4701:4721   */\n      tag_125\n        /* \"#utility.yul\":4719:4720   */\n      dup3\n        /* \"#utility.yul\":4701:4721   */\n      tag_56\n      jump\t// in\n    tag_125:\n        /* \"#utility.yul\":4696:4721   */\n      swap2\n      pop\n        /* \"#utility.yul\":4735:4755   */\n      tag_126\n        /* \"#utility.yul\":4753:4754   */\n      dup4\n        /* \"#utility.yul\":4735:4755   */\n      tag_56\n      jump\t// in\n    tag_126:\n        /* \"#utility.yul\":4730:4755   */\n      swap3\n      pop\n        /* \"#utility.yul\":4778:4779   */\n      dup3\n        /* \"#utility.yul\":4775:4776   */\n      dup3\n        /* \"#utility.yul\":4771:4780   */\n      add\n        /* \"#utility.yul\":4764:4780   */\n      swap1\n      pop\n        /* \"#utility.yul\":4799:4802   */\n      dup1\n        /* \"#utility.yul\":4796:4797   */\n      dup3\n        /* \"#utility.yul\":4793:4803   */\n      gt\n        /* \"#utility.yul\":4790:4826   */\n      iszero\n      tag_127\n      jumpi\n        /* \"#utility.yul\":4806:4824   */\n      tag_128\n      tag_70\n      jump\t// in\n    tag_128:\n        /* \"#utility.yul\":4790:4826   */\n    tag_127:\n        /* \"#utility.yul\":4642:4833   */\n      swap3\n      swap2\n      pop\n      pop\n      jump\t// out\n        /* \"#utility.yul\":4839:5008   */\n    tag_71:\n        /* \"#utility.yul\":4923:4934   */\n      0x00\n        /* \"#utility.yul\":4957:4963   */\n      dup3\n        /* \"#utility.yul\":4952:4955   */\n      dup3\n        /* \"#utility.yul\":4945:4964   */\n      mstore\n        /* \"#utility.yul\":4997:5001   */\n      0x20\n        /* \"#utility.yul\":4992:4995   */\n      dup3\n        /* \"#utility.yul\":4988:5002   */\n      add\n        /* \"#utility.yul\":4973:5002   */\n      swap1\n      pop\n        /* \"#utility.yul\":4839:5008   */\n      swap3\n      swap2\n      pop\n      pop\n      jump\t// out\n        /* \"#utility.yul\":5014:5242   */\n    tag_72:\n        /* \"#utility.yul\":5154:5188   */\n      0x4f6e6c7920546865204f776e65722043616e2056696577205468652041727261\n        /* \"#utility.yul\":5150:5151   */\n      0x00\n        /* \"#utility.yul\":5142:5148   */\n      dup3\n        /* \"#utility.yul\":5138:5152   */\n      add\n        /* \"#utility.yul\":5131:5189   */\n      mstore\n        /* \"#utility.yul\":5223:5234   */\n      0x792053697a652121210000000000000000000000000000000000000000000000\n        /* \"#utility.yul\":5218:5220   */\n      0x20\n        /* \"#utility.yul\":5210:5216   */\n      dup3\n        /* \"#utility.yul\":5206:5221   */\n      add\n        /* \"#utility.yul\":5199:5235   */\n      mstore\n        /* \"#utility.yul\":5014:5242   */\n      pop\n      jump\t// out\n        /* \"#utility.yul\":5248:5614   */\n    tag_73:\n        /* \"#utility.yul\":5390:5393   */\n      0x00\n        /* \"#utility.yul\":5411:5478   */\n      tag_132\n        /* \"#utility.yul\":5475:5477   */\n      0x29\n        /* \"#utility.yul\":5470:5473   */\n      dup4\n        /* \"#utility.yul\":5411:5478   */\n      tag_71\n      jump\t// in\n    tag_132:\n        /* \"#utility.yul\":5404:5478   */\n      swap2\n      pop\n        /* \"#utility.yul\":5487:5580   */\n      tag_133\n        /* \"#utility.yul\":5576:5579   */\n      dup3\n        /* \"#utility.yul\":5487:5580   */\n      tag_72\n      jump\t// in\n    tag_133:\n        /* \"#utility.yul\":5605:5607   */\n      0x40\n        /* \"#utility.yul\":5600:5603   */\n      dup3\n        /* \"#utility.yul\":5596:5608   */\n      add\n        /* \"#utility.yul\":5589:5608   */\n      swap1\n      pop\n        /* \"#utility.yul\":5248:5614   */\n      swap2\n      swap1\n      pop\n      jump\t// out\n        /* \"#utility.yul\":5620:6039   */\n    tag_36:\n        /* \"#utility.yul\":5786:5790   */\n      0x00\n        /* \"#utility.yul\":5824:5826   */\n      0x20\n        /* \"#utility.yul\":5813:5822   */\n      dup3\n        /* \"#utility.yul\":5809:5827   */\n      add\n        /* \"#utility.yul\":5801:5827   */\n      swap1\n      pop\n        /* \"#utility.yul\":5873:5882   */\n      dup2\n        /* \"#utility.yul\":5867:5871   */\n      dup2\n        /* \"#utility.yul\":5863:5883   */\n      sub\n        /* \"#utility.yul\":5859:5860   */\n      0x00\n        /* \"#utility.yul\":5848:5857   */\n      dup4\n        /* \"#utility.yul\":5844:5861   */\n      add\n        /* \"#utility.yul\":5837:5884   */\n      mstore\n        /* \"#utility.yul\":5901:6032   */\n      tag_135\n        /* \"#utility.yul\":6027:6031   */\n      dup2\n        /* \"#utility.yul\":5901:6032   */\n      tag_73\n      jump\t// in\n    tag_135:\n        /* \"#utility.yul\":5893:6032   */\n      swap1\n      pop\n        /* \"#utility.yul\":5620:6039   */\n      swap2\n      swap1\n      pop\n      jump\t// out\n        /* \"#utility.yul\":6045:6225   */\n    tag_40:\n        /* \"#utility.yul\":6093:6170   */\n      0x4e487b7100000000000000000000000000000000000000000000000000000000\n        /* \"#utility.yul\":6090:6091   */\n      0x00\n        /* \"#utility.yul\":6083:6171   */\n      mstore\n        /* \"#utility.yul\":6190:6194   */\n      0x41\n        /* \"#utility.yul\":6187:6188   */\n      0x04\n        /* \"#utility.yul\":6180:6195   */\n      mstore\n        /* \"#utility.yul\":6214:6218   */\n      0x24\n        /* \"#utility.yul\":6211:6212   */\n      0x00\n        /* \"#utility.yul\":6204:6219   */\n      revert\n        /* \"#utility.yul\":6231:6411   */\n    tag_47:\n        /* \"#utility.yul\":6279:6356   */\n      0x4e487b7100000000000000000000000000000000000000000000000000000000\n        /* \"#utility.yul\":6276:6277   */\n      0x00\n        /* \"#utility.yul\":6269:6357   */\n      mstore\n        /* \"#utility.yul\":6376:6380   */\n      0x32\n        /* \"#utility.yul\":6373:6374   */\n      0x04\n        /* \"#utility.yul\":6366:6381   */\n      mstore\n        /* \"#utility.yul\":6400:6404   */\n      0x24\n        /* \"#utility.yul\":6397:6398   */\n      0x00\n        /* \"#utility.yul\":6390:6405   */\n      revert\n\n    auxdata: 0xa2646970667358221220053c69b3efdcd6b1ee86036d69f09cc7e820e5fd78aff9219e4a89861e7adfa764736f6c63430008160033\n}\n",
				"bytecode": {
					"linkReferences": {},
					"object": "60806040525f80553360025f6101000a81548173ffffffffffffffffffffffffffffffffffffffff021916908373ffffffffffffffffffffffffffffffffffffffff160217905550348015610052575f80fd5b5061064c806100605f395ff3fe608060405234801561000f575f80fd5b5060043610610055575f3560e01c80631b4caae7146100595780634420598c146100755780634b7b4cda146100935780638da5cb5b146100c3578063ae0a29a2146100e1575b5f80fd5b610073600480360381019061006e91906102fe565b6100ff565b005b61007d61013b565b60405161008a91906103f3565b60405180910390f35b6100ad60048036038101906100a89190610413565b61027d565b6040516100ba919061044d565b60405180910390f35b6100cb61029d565b6040516100d891906104a5565b60405180910390f35b6100e96102c2565b6040516100f6919061044d565b60405180910390f35b808261010b91906104eb565b5f8190555060015f54908060018154018082558091505060019003905f5260205f20015f90919091909150555050565b606060025f9054906101000a900473ffffffffffffffffffffffffffffffffffffffff1673ffffffffffffffffffffffffffffffffffffffff163373ffffffffffffffffffffffffffffffffffffffff16146101cc576040517f08c379a00000000000000000000000000000000000000000000000000000000081526004016101c39061059e565b60405180910390fd5b5f60018054905067ffffffffffffffff8111156101ec576101eb6105bc565b5b60405190808252806020026020018201604052801561021a5781602001602082028036833780820191505090505b5090505f5b60018054905081101561027557600181815481106102405761023f6105e9565b5b905f5260205f20015482828151811061025c5761025b6105e9565b5b602002602001018181525050808060010191505061021f565b508091505090565b6001818154811061028c575f80fd5b905f5260205f20015f915090505481565b60025f9054906101000a900473ffffffffffffffffffffffffffffffffffffffff1681565b5f5481565b5f80fd5b5f819050919050565b6102dd816102cb565b81146102e7575f80fd5b50565b5f813590506102f8816102d4565b92915050565b5f8060408385031215610314576103136102c7565b5b5f610321858286016102ea565b9250506020610332858286016102ea565b9150509250929050565b5f81519050919050565b5f82825260208201905092915050565b5f819050602082019050919050565b61036e816102cb565b82525050565b5f61037f8383610365565b60208301905092915050565b5f602082019050919050565b5f6103a18261033c565b6103ab8185610346565b93506103b683610356565b805f5b838110156103e65781516103cd8882610374565b97506103d88361038b565b9250506001810190506103b9565b5085935050505092915050565b5f6020820190508181035f83015261040b8184610397565b905092915050565b5f60208284031215610428576104276102c7565b5b5f610435848285016102ea565b91505092915050565b610447816102cb565b82525050565b5f6020820190506104605f83018461043e565b92915050565b5f73ffffffffffffffffffffffffffffffffffffffff82169050919050565b5f61048f82610466565b9050919050565b61049f81610485565b82525050565b5f6020820190506104b85f830184610496565b92915050565b7f4e487b71000000000000000000000000000000000000000000000000000000005f52601160045260245ffd5b5f6104f5826102cb565b9150610500836102cb565b9250828201905080821115610518576105176104be565b5b92915050565b5f82825260208201905092915050565b7f4f6e6c7920546865204f776e65722043616e20566965772054686520417272615f8201527f792053697a652121210000000000000000000000000000000000000000000000602082015250565b5f61058860298361051e565b91506105938261052e565b604082019050919050565b5f6020820190508181035f8301526105b58161057c565b9050919050565b7f4e487b71000000000000000000000000000000000000000000000000000000005f52604160045260245ffd5b7f4e487b71000000000000000000000000000000000000000000000000000000005f52603260045260245ffdfea2646970667358221220053c69b3efdcd6b1ee86036d69f09cc7e820e5fd78aff9219e4a89861e7adfa764736f6c63430008160033",
					"opcodes": "PUSH1 0x80 PUSH1 0x40 MSTORE PUSH0 DUP1 SSTORE CALLER PUSH1 0x2 PUSH0 PUSH2 0x100 EXP DUP2 SLOAD DUP2 PUSH20 0xFFFFFFFFFFFFFFFFFFFFFFFFFFFFFFFFFFFFFFFF MUL NOT AND SWAP1 DUP4 PUSH20 0xFFFFFFFFFFFFFFFFFFFFFFFFFFFFFFFFFFFFFFFF AND MUL OR SWAP1 SSTORE POP CALLVALUE DUP1 ISZERO PUSH2 0x52 JUMPI PUSH0 DUP1 REVERT JUMPDEST POP PUSH2 0x64C DUP1 PUSH2 0x60 PUSH0 CODECOPY PUSH0 RETURN INVALID PUSH1 0x80 PUSH1 0x40 MSTORE CALLVALUE DUP1 ISZERO PUSH2 0xF JUMPI PUSH0 DUP1 REVERT JUMPDEST POP PUSH1 0x4 CALLDATASIZE LT PUSH2 0x55 JUMPI PUSH0 CALLDATALOAD PUSH1 0xE0 SHR DUP1 PUSH4 0x1B4CAAE7 EQ PUSH2 0x59 JUMPI DUP1 PUSH4 0x4420598C EQ PUSH2 0x75 JUMPI DUP1 PUSH4 0x4B7B4CDA EQ PUSH2 0x93 JUMPI DUP1 PUSH4 0x8DA5CB5B EQ PUSH2 0xC3 JUMPI DUP1 PUSH4 0xAE0A29A2 EQ PUSH2 0xE1 JUMPI JUMPDEST PUSH0 DUP1 REVERT JUMPDEST PUSH2 0x73 PUSH1 0x4 DUP1 CALLDATASIZE SUB DUP2 ADD SWAP1 PUSH2 0x6E SWAP2 SWAP1 PUSH2 0x2FE JUMP JUMPDEST PUSH2 0xFF JUMP JUMPDEST STOP JUMPDEST PUSH2 0x7D PUSH2 0x13B JUMP JUMPDEST PUSH1 0x40 MLOAD PUSH2 0x8A SWAP2 SWAP1 PUSH2 0x3F3 JUMP JUMPDEST PUSH1 0x40 MLOAD DUP1 SWAP2 SUB SWAP1 RETURN JUMPDEST PUSH2 0xAD PUSH1 0x4 DUP1 CALLDATASIZE SUB DUP2 ADD SWAP1 PUSH2 0xA8 SWAP2 SWAP1 PUSH2 0x413 JUMP JUMPDEST PUSH2 0x27D JUMP JUMPDEST PUSH1 0x40 MLOAD PUSH2 0xBA SWAP2 SWAP1 PUSH2 0x44D JUMP JUMPDEST PUSH1 0x40 MLOAD DUP1 SWAP2 SUB SWAP1 RETURN JUMPDEST PUSH2 0xCB PUSH2 0x29D JUMP JUMPDEST PUSH1 0x40 MLOAD PUSH2 0xD8 SWAP2 SWAP1 PUSH2 0x4A5 JUMP JUMPDEST PUSH1 0x40 MLOAD DUP1 SWAP2 SUB SWAP1 RETURN JUMPDEST PUSH2 0xE9 PUSH2 0x2C2 JUMP JUMPDEST PUSH1 0x40 MLOAD PUSH2 0xF6 SWAP2 SWAP1 PUSH2 0x44D JUMP JUMPDEST PUSH1 0x40 MLOAD DUP1 SWAP2 SUB SWAP1 RETURN JUMPDEST DUP1 DUP3 PUSH2 0x10B SWAP2 SWAP1 PUSH2 0x4EB JUMP JUMPDEST PUSH0 DUP2 SWAP1 SSTORE POP PUSH1 0x1 PUSH0 SLOAD SWAP1 DUP1 PUSH1 0x1 DUP2 SLOAD ADD DUP1 DUP3 SSTORE DUP1 SWAP2 POP POP PUSH1 0x1 SWAP1 SUB SWAP1 PUSH0 MSTORE PUSH1 0x20 PUSH0 KECCAK256 ADD PUSH0 SWAP1 SWAP2 SWAP1 SWAP2 SWAP1 SWAP2 POP SSTORE POP POP JUMP JUMPDEST PUSH1 0x60 PUSH1 0x2 PUSH0 SWAP1 SLOAD SWAP1 PUSH2 0x100 EXP SWAP1 DIV PUSH20 0xFFFFFFFFFFFFFFFFFFFFFFFFFFFFFFFFFFFFFFFF AND PUSH20 0xFFFFFFFFFFFFFFFFFFFFFFFFFFFFFFFFFFFFFFFF AND CALLER PUSH20 0xFFFFFFFFFFFFFFFFFFFFFFFFFFFFFFFFFFFFFFFF AND EQ PUSH2 0x1CC JUMPI PUSH1 0x40 MLOAD PUSH32 0x8C379A000000000000000000000000000000000000000000000000000000000 DUP2 MSTORE PUSH1 0x4 ADD PUSH2 0x1C3 SWAP1 PUSH2 0x59E JUMP JUMPDEST PUSH1 0x40 MLOAD DUP1 SWAP2 SUB SWAP1 REVERT JUMPDEST PUSH0 PUSH1 0x1 DUP1 SLOAD SWAP1 POP PUSH8 0xFFFFFFFFFFFFFFFF DUP2 GT ISZERO PUSH2 0x1EC JUMPI PUSH2 0x1EB PUSH2 0x5BC JUMP JUMPDEST JUMPDEST PUSH1 0x40 MLOAD SWAP1 DUP1 DUP3 MSTORE DUP1 PUSH1 0x20 MUL PUSH1 0x20 ADD DUP3 ADD PUSH1 0x40 MSTORE DUP1 ISZERO PUSH2 0x21A JUMPI DUP2 PUSH1 0x20 ADD PUSH1 0x20 DUP3 MUL DUP1 CALLDATASIZE DUP4 CALLDATACOPY DUP1 DUP3 ADD SWAP2 POP POP SWAP1 POP JUMPDEST POP SWAP1 POP PUSH0 JUMPDEST PUSH1 0x1 DUP1 SLOAD SWAP1 POP DUP2 LT ISZERO PUSH2 0x275 JUMPI PUSH1 0x1 DUP2 DUP2 SLOAD DUP2 LT PUSH2 0x240 JUMPI PUSH2 0x23F PUSH2 0x5E9 JUMP JUMPDEST JUMPDEST SWAP1 PUSH0 MSTORE PUSH1 0x20 PUSH0 KECCAK256 ADD SLOAD DUP3 DUP3 DUP2 MLOAD DUP2 LT PUSH2 0x25C JUMPI PUSH2 0x25B PUSH2 0x5E9 JUMP JUMPDEST JUMPDEST PUSH1 0x20 MUL PUSH1 0x20 ADD ADD DUP2 DUP2 MSTORE POP POP DUP1 DUP1 PUSH1 0x1 ADD SWAP2 POP POP PUSH2 0x21F JUMP JUMPDEST POP DUP1 SWAP2 POP POP SWAP1 JUMP JUMPDEST PUSH1 0x1 DUP2 DUP2 SLOAD DUP2 LT PUSH2 0x28C JUMPI PUSH0 DUP1 REVERT JUMPDEST SWAP1 PUSH0 MSTORE PUSH1 0x20 PUSH0 KECCAK256 ADD PUSH0 SWAP2 POP SWAP1 POP SLOAD DUP2 JUMP JUMPDEST PUSH1 0x2 PUSH0 SWAP1 SLOAD SWAP1 PUSH2 0x100 EXP SWAP1 DIV PUSH20 0xFFFFFFFFFFFFFFFFFFFFFFFFFFFFFFFFFFFFFFFF AND DUP2 JUMP JUMPDEST PUSH0 SLOAD DUP2 JUMP JUMPDEST PUSH0 DUP1 REVERT JUMPDEST PUSH0 DUP2 SWAP1 POP SWAP2 SWAP1 POP JUMP JUMPDEST PUSH2 0x2DD DUP2 PUSH2 0x2CB JUMP JUMPDEST DUP2 EQ PUSH2 0x2E7 JUMPI PUSH0 DUP1 REVERT JUMPDEST POP JUMP JUMPDEST PUSH0 DUP2 CALLDATALOAD SWAP1 POP PUSH2 0x2F8 DUP2 PUSH2 0x2D4 JUMP JUMPDEST SWAP3 SWAP2 POP POP JUMP JUMPDEST PUSH0 DUP1 PUSH1 0x40 DUP4 DUP6 SUB SLT ISZERO PUSH2 0x314 JUMPI PUSH2 0x313 PUSH2 0x2C7 JUMP JUMPDEST JUMPDEST PUSH0 PUSH2 0x321 DUP6 DUP3 DUP7 ADD PUSH2 0x2EA JUMP JUMPDEST SWAP3 POP POP PUSH1 0x20 PUSH2 0x332 DUP6 DUP3 DUP7 ADD PUSH2 0x2EA JUMP JUMPDEST SWAP2 POP POP SWAP3 POP SWAP3 SWAP1 POP JUMP JUMPDEST PUSH0 DUP2 MLOAD SWAP1 POP SWAP2 SWAP1 POP JUMP JUMPDEST PUSH0 DUP3 DUP3 MSTORE PUSH1 0x20 DUP3 ADD SWAP1 POP SWAP3 SWAP2 POP POP JUMP JUMPDEST PUSH0 DUP2 SWAP1 POP PUSH1 0x20 DUP3 ADD SWAP1 POP SWAP2 SWAP1 POP JUMP JUMPDEST PUSH2 0x36E DUP2 PUSH2 0x2CB JUMP JUMPDEST DUP3 MSTORE POP POP JUMP JUMPDEST PUSH0 PUSH2 0x37F DUP4 DUP4 PUSH2 0x365 JUMP JUMPDEST PUSH1 0x20 DUP4 ADD SWAP1 POP SWAP3 SWAP2 POP POP JUMP JUMPDEST PUSH0 PUSH1 0x20 DUP3 ADD SWAP1 POP SWAP2 SWAP1 POP JUMP JUMPDEST PUSH0 PUSH2 0x3A1 DUP3 PUSH2 0x33C JUMP JUMPDEST PUSH2 0x3AB DUP2 DUP6 PUSH2 0x346 JUMP JUMPDEST SWAP4 POP PUSH2 0x3B6 DUP4 PUSH2 0x356 JUMP JUMPDEST DUP1 PUSH0 JUMPDEST DUP4 DUP2 LT ISZERO PUSH2 0x3E6 JUMPI DUP2 MLOAD PUSH2 0x3CD DUP9 DUP3 PUSH2 0x374 JUMP JUMPDEST SWAP8 POP PUSH2 0x3D8 DUP4 PUSH2 0x38B JUMP JUMPDEST SWAP3 POP POP PUSH1 0x1 DUP2 ADD SWAP1 POP PUSH2 0x3B9 JUMP JUMPDEST POP DUP6 SWAP4 POP POP POP POP SWAP3 SWAP2 POP POP JUMP JUMPDEST PUSH0 PUSH1 0x20 DUP3 ADD SWAP1 POP DUP2 DUP2 SUB PUSH0 DUP4 ADD MSTORE PUSH2 0x40B DUP2 DUP5 PUSH2 0x397 JUMP JUMPDEST SWAP1 POP SWAP3 SWAP2 POP POP JUMP JUMPDEST PUSH0 PUSH1 0x20 DUP3 DUP5 SUB SLT ISZERO PUSH2 0x428 JUMPI PUSH2 0x427 PUSH2 0x2C7 JUMP JUMPDEST JUMPDEST PUSH0 PUSH2 0x435 DUP5 DUP3 DUP6 ADD PUSH2 0x2EA JUMP JUMPDEST SWAP2 POP POP SWAP3 SWAP2 POP POP JUMP JUMPDEST PUSH2 0x447 DUP2 PUSH2 0x2CB JUMP JUMPDEST DUP3 MSTORE POP POP JUMP JUMPDEST PUSH0 PUSH1 0x20 DUP3 ADD SWAP1 POP PUSH2 0x460 PUSH0 DUP4 ADD DUP5 PUSH2 0x43E JUMP JUMPDEST SWAP3 SWAP2 POP POP JUMP JUMPDEST PUSH0 PUSH20 0xFFFFFFFFFFFFFFFFFFFFFFFFFFFFFFFFFFFFFFFF DUP3 AND SWAP1 POP SWAP2 SWAP1 POP JUMP JUMPDEST PUSH0 PUSH2 0x48F DUP3 PUSH2 0x466 JUMP JUMPDEST SWAP1 POP SWAP2 SWAP1 POP JUMP JUMPDEST PUSH2 0x49F DUP2 PUSH2 0x485 JUMP JUMPDEST DUP3 MSTORE POP POP JUMP JUMPDEST PUSH0 PUSH1 0x20 DUP3 ADD SWAP1 POP PUSH2 0x4B8 PUSH0 DUP4 ADD DUP5 PUSH2 0x496 JUMP JUMPDEST SWAP3 SWAP2 POP POP JUMP JUMPDEST PUSH32 0x4E487B7100000000000000000000000000000000000000000000000000000000 PUSH0 MSTORE PUSH1 0x11 PUSH1 0x4 MSTORE PUSH1 0x24 PUSH0 REVERT JUMPDEST PUSH0 PUSH2 0x4F5 DUP3 PUSH2 0x2CB JUMP JUMPDEST SWAP2 POP PUSH2 0x500 DUP4 PUSH2 0x2CB JUMP JUMPDEST SWAP3 POP DUP3 DUP3 ADD SWAP1 POP DUP1 DUP3 GT ISZERO PUSH2 0x518 JUMPI PUSH2 0x517 PUSH2 0x4BE JUMP JUMPDEST JUMPDEST SWAP3 SWAP2 POP POP JUMP JUMPDEST PUSH0 DUP3 DUP3 MSTORE PUSH1 0x20 DUP3 ADD SWAP1 POP SWAP3 SWAP2 POP POP JUMP JUMPDEST PUSH32 0x4F6E6C7920546865204F776E65722043616E2056696577205468652041727261 PUSH0 DUP3 ADD MSTORE PUSH32 0x792053697A652121210000000000000000000000000000000000000000000000 PUSH1 0x20 DUP3 ADD MSTORE POP JUMP JUMPDEST PUSH0 PUSH2 0x588 PUSH1 0x29 DUP4 PUSH2 0x51E JUMP JUMPDEST SWAP2 POP PUSH2 0x593 DUP3 PUSH2 0x52E JUMP JUMPDEST PUSH1 0x40 DUP3 ADD SWAP1 POP SWAP2 SWAP1 POP JUMP JUMPDEST PUSH0 PUSH1 0x20 DUP3 ADD SWAP1 POP DUP2 DUP2 SUB PUSH0 DUP4 ADD MSTORE PUSH2 0x5B5 DUP2 PUSH2 0x57C JUMP JUMPDEST SWAP1 POP SWAP2 SWAP1 POP JUMP JUMPDEST PUSH32 0x4E487B7100000000000000000000000000000000000000000000000000000000 PUSH0 MSTORE PUSH1 0x41 PUSH1 0x4 MSTORE PUSH1 0x24 PUSH0 REVERT JUMPDEST PUSH32 0x4E487B7100000000000000000000000000000000000000000000000000000000 PUSH0 MSTORE PUSH1 0x32 PUSH1 0x4 MSTORE PUSH1 0x24 PUSH0 REVERT INVALID LOG2 PUSH5 0x6970667358 0x22 SLT KECCAK256 SDIV EXTCODECOPY PUSH10 0xB3EFDCD6B1EE86036D69 CREATE SWAP13 0xC7 0xE8 KECCAK256 0xE5 REVERT PUSH25 0xAFF9219E4A89861E7ADFA764736F6C63430008160033000000 "
				},
				"gasEstimates": {
					"creation": {
						"codeDepositCost": "322400",
						"executionCost": "29630",
						"totalCost": "352030"
					},
					"external": {
						"Add2_Numbers(uint256,uint256)": "infinite",
						"Arr_Sum(uint256)": "infinite",
						"DoSum()": "2490",
						"ViewArray()": "infinite",
						"owner()": "2552"
					}
				},
				"methodIdentifiers": {
					"Add2_Numbers(uint256,uint256)": "1b4caae7",
					"Arr_Sum(uint256)": "4b7b4cda",
					"DoSum()": "ae0a29a2",
					"ViewArray()": "4420598c",
					"owner()": "8da5cb5b"
				}
			},
			"storageLayout": {
				"storage": [
					{
						"astId": 4,
						"contract": "contracts/RestrictedArray.sol:Calculate_numbers",
						"label": "DoSum",
						"offset": 0,
						"slot": "0",
						"type": "t_uint256"
					},
					{
						"astId": 7,
						"contract": "contracts/RestrictedArray.sol:Calculate_numbers",
						"label": "Arr_Sum",
						"offset": 0,
						"slot": "1",
						"type": "t_array(t_uint256)dyn_storage"
					},
					{
						"astId": 11,
						"contract": "contracts/RestrictedArray.sol:Calculate_numbers",
						"label": "owner",
						"offset": 0,
						"slot": "2",
						"type": "t_address"
					}
				],
				"types": {
					"t_address": {
						"encoding": "inplace",
						"label": "address",
						"numberOfBytes": "20"
					},
					"t_array(t_uint256)dyn_storage": {
						"base": "t_uint256",
						"encoding": "dynamic_array",
						"label": "uint256[]",
						"numberOfBytes": "32"
					},
					"t_uint256": {
						"encoding": "inplace",
						"label": "uint256",
						"numberOfBytes": "32"
					}
				}
			},
			"userdoc": {
				"kind": "user",
				"methods": {},
				"version": 1
			}
		}
	}
}