{
	"contracts/Mappingtest.sol": {
		"Mappingtest": {
			"abi": [
				{
					"inputs": [
						{
							"internalType": "uint256",
							"name": "_val",
							"type": "uint256"
						}
					],
					"name": "addValues",
					"outputs": [
						{
							"internalType": "uint256",
							"name": "",
							"type": "uint256"
						}
					],
					"stateMutability": "pure",
					"type": "function"
				},
				{
					"inputs": [
						{
							"internalType": "uint256",
							"name": "",
							"type": "uint256"
						},
						{
							"internalType": "address",
							"name": "",
							"type": "address"
						}
					],
					"name": "allUsers",
					"outputs": [
						{
							"internalType": "string",
							"name": "UName",
							"type": "string"
						},
						{
							"internalType": "uint256",
							"name": "UBalance",
							"type": "uint256"
						},
						{
							"internalType": "string",
							"name": "UPhone",
							"type": "string"
						},
						{
							"internalType": "string",
							"name": "Ucurrency",
							"type": "string"
						}
					],
					"stateMutability": "view",
					"type": "function"
				},
				{
					"inputs": [
						{
							"internalType": "uint256",
							"name": "_id",
							"type": "uint256"
						}
					],
					"name": "getUserdata",
					"outputs": [
						{
							"components": [
								{
									"internalType": "string",
									"name": "UName",
									"type": "string"
								},
								{
									"internalType": "uint256",
									"name": "UBalance",
									"type": "uint256"
								},
								{
									"internalType": "string",
									"name": "UPhone",
									"type": "string"
								},
								{
									"internalType": "string",
									"name": "Ucurrency",
									"type": "string"
								}
							],
							"internalType": "struct Mappingtest.Accounts",
							"name": "",
							"type": "tuple"
						}
					],
					"stateMutability": "view",
					"type": "function"
				},
				{
					"inputs": [
						{
							"internalType": "uint256",
							"name": "_id",
							"type": "uint256"
						},
						{
							"internalType": "string",
							"name": "_userName",
							"type": "string"
						},
						{
							"internalType": "uint256",
							"name": "_userBalance",
							"type": "uint256"
						},
						{
							"internalType": "string",
							"name": "_userPhone",
							"type": "string"
						},
						{
							"internalType": "string",
							"name": "_userCurrency",
							"type": "string"
						}
					],
					"name": "setUersdata",
					"outputs": [],
					"stateMutability": "nonpayable",
					"type": "function"
				},
				{
					"inputs": [
						{
							"internalType": "address",
							"name": "",
							"type": "address"
						}
					],
					"name": "userAddress",
					"outputs": [
						{
							"internalType": "string",
							"name": "UName",
							"type": "string"
						},
						{
							"internalType": "uint256",
							"name": "UBalance",
							"type": "uint256"
						},
						{
							"internalType": "string",
							"name": "UPhone",
							"type": "string"
						},
						{
							"internalType": "string",
							"name": "Ucurrency",
							"type": "string"
						}
					],
					"stateMutability": "view",
					"type": "function"
				}
			],
			"devdoc": {
				"kind": "dev",
				"methods": {},
				"version": 1
			},
			"evm": {
				"assembly": "    /* \"contracts/Mappingtest.sol\":74:916  contract Mappingtest... */\n  mstore(0x40, 0x80)\n  callvalue\n  dup1\n  iszero\n  tag_1\n  jumpi\n  0x00\n  dup1\n  revert\ntag_1:\n  pop\n  dataSize(sub_0)\n  dup1\n  dataOffset(sub_0)\n  0x00\n  codecopy\n  0x00\n  return\nstop\n\nsub_0: assembly {\n        /* \"contracts/Mappingtest.sol\":74:916  contract Mappingtest... */\n      mstore(0x40, 0x80)\n      callvalue\n      dup1\n      iszero\n      tag_1\n      jumpi\n      0x00\n      dup1\n      revert\n    tag_1:\n      pop\n      jumpi(tag_2, lt(calldatasize, 0x04))\n      shr(0xe0, calldataload(0x00))\n      dup1\n      0x1841e7e9\n      eq\n      tag_3\n      jumpi\n      dup1\n      0x360500cc\n      eq\n      tag_4\n      jumpi\n      dup1\n      0x3e36bf67\n      eq\n      tag_5\n      jumpi\n      dup1\n      0x820d0934\n      eq\n      tag_6\n      jumpi\n      dup1\n      0xca9cfa34\n      eq\n      tag_7\n      jumpi\n    tag_2:\n      0x00\n      dup1\n      revert\n        /* \"contracts/Mappingtest.sol\":423:669  function setUersdata(uint _id, string memory _userName, uint _userBalance, string memory _userPhone, string memory _userCurrency) public  ... */\n    tag_3:\n      tag_8\n      0x04\n      dup1\n      calldatasize\n      sub\n      dup2\n      add\n      swap1\n      tag_9\n      swap2\n      swap1\n      tag_10\n      jump\t// in\n    tag_9:\n      tag_11\n      jump\t// in\n    tag_8:\n      stop\n        /* \"contracts/Mappingtest.sol\":302:348  mapping (address=>Accounts) public userAddress */\n    tag_4:\n      tag_12\n      0x04\n      dup1\n      calldatasize\n      sub\n      dup2\n      add\n      swap1\n      tag_13\n      swap2\n      swap1\n      tag_14\n      jump\t// in\n    tag_13:\n      tag_15\n      jump\t// in\n    tag_12:\n      mload(0x40)\n      tag_16\n      swap5\n      swap4\n      swap3\n      swap2\n      swap1\n      tag_17\n      jump\t// in\n    tag_16:\n      mload(0x40)\n      dup1\n      swap2\n      sub\n      swap1\n      return\n        /* \"contracts/Mappingtest.sol\":355:414  mapping (uint=>mapping (address=>Accounts)) public allUsers */\n    tag_5:\n      tag_18\n      0x04\n      dup1\n      calldatasize\n      sub\n      dup2\n      add\n      swap1\n      tag_19\n      swap2\n      swap1\n      tag_20\n      jump\t// in\n    tag_19:\n      tag_21\n      jump\t// in\n    tag_18:\n      mload(0x40)\n      tag_22\n      swap5\n      swap4\n      swap3\n      swap2\n      swap1\n      tag_17\n      jump\t// in\n    tag_22:\n      mload(0x40)\n      dup1\n      swap2\n      sub\n      swap1\n      return\n        /* \"contracts/Mappingtest.sol\":814:911  function addValues (uint _val) public pure returns (uint) ... */\n    tag_6:\n      tag_23\n      0x04\n      dup1\n      calldatasize\n      sub\n      dup2\n      add\n      swap1\n      tag_24\n      swap2\n      swap1\n      tag_25\n      jump\t// in\n    tag_24:\n      tag_26\n      jump\t// in\n    tag_23:\n      mload(0x40)\n      tag_27\n      swap2\n      swap1\n      tag_28\n      jump\t// in\n    tag_27:\n      mload(0x40)\n      dup1\n      swap2\n      sub\n      swap1\n      return\n        /* \"contracts/Mappingtest.sol\":678:806  function getUserdata(uint _id) public view returns (Accounts memory)... */\n    tag_7:\n      tag_29\n      0x04\n      dup1\n      calldatasize\n      sub\n      dup2\n      add\n      swap1\n      tag_30\n      swap2\n      swap1\n      tag_25\n      jump\t// in\n    tag_30:\n      tag_31\n      jump\t// in\n    tag_29:\n      mload(0x40)\n      tag_32\n      swap2\n      swap1\n      tag_33\n      jump\t// in\n    tag_32:\n      mload(0x40)\n      dup1\n      swap2\n      sub\n      swap1\n      return\n        /* \"contracts/Mappingtest.sol\":423:669  function setUersdata(uint _id, string memory _userName, uint _userBalance, string memory _userPhone, string memory _userCurrency) public  ... */\n    tag_11:\n        /* \"contracts/Mappingtest.sol\":604:661  Accounts(_userName,_userBalance,_userPhone,_userCurrency) */\n      mload(0x40)\n      dup1\n      0x80\n      add\n      0x40\n      mstore\n      dup1\n        /* \"contracts/Mappingtest.sol\":613:622  _userName */\n      dup6\n        /* \"contracts/Mappingtest.sol\":604:661  Accounts(_userName,_userBalance,_userPhone,_userCurrency) */\n      dup2\n      mstore\n      0x20\n      add\n        /* \"contracts/Mappingtest.sol\":623:635  _userBalance */\n      dup5\n        /* \"contracts/Mappingtest.sol\":604:661  Accounts(_userName,_userBalance,_userPhone,_userCurrency) */\n      dup2\n      mstore\n      0x20\n      add\n        /* \"contracts/Mappingtest.sol\":636:646  _userPhone */\n      dup4\n        /* \"contracts/Mappingtest.sol\":604:661  Accounts(_userName,_userBalance,_userPhone,_userCurrency) */\n      dup2\n      mstore\n      0x20\n      add\n        /* \"contracts/Mappingtest.sol\":647:660  _userCurrency */\n      dup3\n        /* \"contracts/Mappingtest.sol\":604:661  Accounts(_userName,_userBalance,_userPhone,_userCurrency) */\n      dup2\n      mstore\n      pop\n        /* \"contracts/Mappingtest.sol\":578:586  allUsers */\n      0x01\n        /* \"contracts/Mappingtest.sol\":578:591  allUsers[_id] */\n      0x00\n        /* \"contracts/Mappingtest.sol\":587:590  _id */\n      dup8\n        /* \"contracts/Mappingtest.sol\":578:591  allUsers[_id] */\n      dup2\n      mstore\n      0x20\n      add\n      swap1\n      dup2\n      mstore\n      0x20\n      add\n      0x00\n      keccak256\n        /* \"contracts/Mappingtest.sol\":578:603  allUsers[_id][msg.sender] */\n      0x00\n        /* \"contracts/Mappingtest.sol\":592:602  msg.sender */\n      caller\n        /* \"contracts/Mappingtest.sol\":578:603  allUsers[_id][msg.sender] */\n      0xffffffffffffffffffffffffffffffffffffffff\n      and\n      0xffffffffffffffffffffffffffffffffffffffff\n      and\n      dup2\n      mstore\n      0x20\n      add\n      swap1\n      dup2\n      mstore\n      0x20\n      add\n      0x00\n      keccak256\n        /* \"contracts/Mappingtest.sol\":578:661  allUsers[_id][msg.sender]=Accounts(_userName,_userBalance,_userPhone,_userCurrency) */\n      0x00\n      dup3\n      add\n      mload\n      dup2\n      0x00\n      add\n      swap1\n      dup2\n      tag_35\n      swap2\n      swap1\n      tag_36\n      jump\t// in\n    tag_35:\n      pop\n      0x20\n      dup3\n      add\n      mload\n      dup2\n      0x01\n      add\n      sstore\n      0x40\n      dup3\n      add\n      mload\n      dup2\n      0x02\n      add\n      swap1\n      dup2\n      tag_37\n      swap2\n      swap1\n      tag_36\n      jump\t// in\n    tag_37:\n      pop\n      0x60\n      dup3\n      add\n      mload\n      dup2\n      0x03\n      add\n      swap1\n      dup2\n      tag_38\n      swap2\n      swap1\n      tag_36\n      jump\t// in\n    tag_38:\n      pop\n      swap1\n      pop\n      pop\n        /* \"contracts/Mappingtest.sol\":423:669  function setUersdata(uint _id, string memory _userName, uint _userBalance, string memory _userPhone, string memory _userCurrency) public  ... */\n      pop\n      pop\n      pop\n      pop\n      pop\n      jump\t// out\n        /* \"contracts/Mappingtest.sol\":302:348  mapping (address=>Accounts) public userAddress */\n    tag_15:\n      mstore(0x20, 0x00)\n      dup1\n      0x00\n      mstore\n      keccak256(0x00, 0x40)\n      0x00\n      swap2\n      pop\n      swap1\n      pop\n      dup1\n      0x00\n      add\n      dup1\n      sload\n      tag_39\n      swap1\n      tag_40\n      jump\t// in\n    tag_39:\n      dup1\n      0x1f\n      add\n      0x20\n      dup1\n      swap2\n      div\n      mul\n      0x20\n      add\n      mload(0x40)\n      swap1\n      dup2\n      add\n      0x40\n      mstore\n      dup1\n      swap3\n      swap2\n      swap1\n      dup2\n      dup2\n      mstore\n      0x20\n      add\n      dup3\n      dup1\n      sload\n      tag_41\n      swap1\n      tag_40\n      jump\t// in\n    tag_41:\n      dup1\n      iszero\n      tag_42\n      jumpi\n      dup1\n      0x1f\n      lt\n      tag_43\n      jumpi\n      0x0100\n      dup1\n      dup4\n      sload\n      div\n      mul\n      dup4\n      mstore\n      swap2\n      0x20\n      add\n      swap2\n      jump(tag_42)\n    tag_43:\n      dup3\n      add\n      swap2\n      swap1\n      0x00\n      mstore\n      keccak256(0x00, 0x20)\n      swap1\n    tag_44:\n      dup2\n      sload\n      dup2\n      mstore\n      swap1\n      0x01\n      add\n      swap1\n      0x20\n      add\n      dup1\n      dup4\n      gt\n      tag_44\n      jumpi\n      dup3\n      swap1\n      sub\n      0x1f\n      and\n      dup3\n      add\n      swap2\n    tag_42:\n      pop\n      pop\n      pop\n      pop\n      pop\n      swap1\n      dup1\n      0x01\n      add\n      sload\n      swap1\n      dup1\n      0x02\n      add\n      dup1\n      sload\n      tag_45\n      swap1\n      tag_40\n      jump\t// in\n    tag_45:\n      dup1\n      0x1f\n      add\n      0x20\n      dup1\n      swap2\n      div\n      mul\n      0x20\n      add\n      mload(0x40)\n      swap1\n      dup2\n      add\n      0x40\n      mstore\n      dup1\n      swap3\n      swap2\n      swap1\n      dup2\n      dup2\n      mstore\n      0x20\n      add\n      dup3\n      dup1\n      sload\n      tag_46\n      swap1\n      tag_40\n      jump\t// in\n    tag_46:\n      dup1\n      iszero\n      tag_47\n      jumpi\n      dup1\n      0x1f\n      lt\n      tag_48\n      jumpi\n      0x0100\n      dup1\n      dup4\n      sload\n      div\n      mul\n      dup4\n      mstore\n      swap2\n      0x20\n      add\n      swap2\n      jump(tag_47)\n    tag_48:\n      dup3\n      add\n      swap2\n      swap1\n      0x00\n      mstore\n      keccak256(0x00, 0x20)\n      swap1\n    tag_49:\n      dup2\n      sload\n      dup2\n      mstore\n      swap1\n      0x01\n      add\n      swap1\n      0x20\n      add\n      dup1\n      dup4\n      gt\n      tag_49\n      jumpi\n      dup3\n      swap1\n      sub\n      0x1f\n      and\n      dup3\n      add\n      swap2\n    tag_47:\n      pop\n      pop\n      pop\n      pop\n      pop\n      swap1\n      dup1\n      0x03\n      add\n      dup1\n      sload\n      tag_50\n      swap1\n      tag_40\n      jump\t// in\n    tag_50:\n      dup1\n      0x1f\n      add\n      0x20\n      dup1\n      swap2\n      div\n      mul\n      0x20\n      add\n      mload(0x40)\n      swap1\n      dup2\n      add\n      0x40\n      mstore\n      dup1\n      swap3\n      swap2\n      swap1\n      dup2\n      dup2\n      mstore\n      0x20\n      add\n      dup3\n      dup1\n      sload\n      tag_51\n      swap1\n      tag_40\n      jump\t// in\n    tag_51:\n      dup1\n      iszero\n      tag_52\n      jumpi\n      dup1\n      0x1f\n      lt\n      tag_53\n      jumpi\n      0x0100\n      dup1\n      dup4\n      sload\n      div\n      mul\n      dup4\n      mstore\n      swap2\n      0x20\n      add\n      swap2\n      jump(tag_52)\n    tag_53:\n      dup3\n      add\n      swap2\n      swap1\n      0x00\n      mstore\n      keccak256(0x00, 0x20)\n      swap1\n    tag_54:\n      dup2\n      sload\n      dup2\n      mstore\n      swap1\n      0x01\n      add\n      swap1\n      0x20\n      add\n      dup1\n      dup4\n      gt\n      tag_54\n      jumpi\n      dup3\n      swap1\n      sub\n      0x1f\n      and\n      dup3\n      add\n      swap2\n    tag_52:\n      pop\n      pop\n      pop\n      pop\n      pop\n      swap1\n      pop\n      dup5\n      jump\t// out\n        /* \"contracts/Mappingtest.sol\":355:414  mapping (uint=>mapping (address=>Accounts)) public allUsers */\n    tag_21:\n      mstore(0x20, 0x01)\n      dup2\n      0x00\n      mstore\n      mstore(0x20, keccak256(0x00, 0x40))\n      dup1\n      0x00\n      mstore\n      keccak256(0x00, 0x40)\n      0x00\n      swap2\n      pop\n      swap2\n      pop\n      pop\n      dup1\n      0x00\n      add\n      dup1\n      sload\n      tag_55\n      swap1\n      tag_40\n      jump\t// in\n    tag_55:\n      dup1\n      0x1f\n      add\n      0x20\n      dup1\n      swap2\n      div\n      mul\n      0x20\n      add\n      mload(0x40)\n      swap1\n      dup2\n      add\n      0x40\n      mstore\n      dup1\n      swap3\n      swap2\n      swap1\n      dup2\n      dup2\n      mstore\n      0x20\n      add\n      dup3\n      dup1\n      sload\n      tag_56\n      swap1\n      tag_40\n      jump\t// in\n    tag_56:\n      dup1\n      iszero\n      tag_57\n      jumpi\n      dup1\n      0x1f\n      lt\n      tag_58\n      jumpi\n      0x0100\n      dup1\n      dup4\n      sload\n      div\n      mul\n      dup4\n      mstore\n      swap2\n      0x20\n      add\n      swap2\n      jump(tag_57)\n    tag_58:\n      dup3\n      add\n      swap2\n      swap1\n      0x00\n      mstore\n      keccak256(0x00, 0x20)\n      swap1\n    tag_59:\n      dup2\n      sload\n      dup2\n      mstore\n      swap1\n      0x01\n      add\n      swap1\n      0x20\n      add\n      dup1\n      dup4\n      gt\n      tag_59\n      jumpi\n      dup3\n      swap1\n      sub\n      0x1f\n      and\n      dup3\n      add\n      swap2\n    tag_57:\n      pop\n      pop\n      pop\n      pop\n      pop\n      swap1\n      dup1\n      0x01\n      add\n      sload\n      swap1\n      dup1\n      0x02\n      add\n      dup1\n      sload\n      tag_60\n      swap1\n      tag_40\n      jump\t// in\n    tag_60:\n      dup1\n      0x1f\n      add\n      0x20\n      dup1\n      swap2\n      div\n      mul\n      0x20\n      add\n      mload(0x40)\n      swap1\n      dup2\n      add\n      0x40\n      mstore\n      dup1\n      swap3\n      swap2\n      swap1\n      dup2\n      dup2\n      mstore\n      0x20\n      add\n      dup3\n      dup1\n      sload\n      tag_61\n      swap1\n      tag_40\n      jump\t// in\n    tag_61:\n      dup1\n      iszero\n      tag_62\n      jumpi\n      dup1\n      0x1f\n      lt\n      tag_63\n      jumpi\n      0x0100\n      dup1\n      dup4\n      sload\n      div\n      mul\n      dup4\n      mstore\n      swap2\n      0x20\n      add\n      swap2\n      jump(tag_62)\n    tag_63:\n      dup3\n      add\n      swap2\n      swap1\n      0x00\n      mstore\n      keccak256(0x00, 0x20)\n      swap1\n    tag_64:\n      dup2\n      sload\n      dup2\n      mstore\n      swap1\n      0x01\n      add\n      swap1\n      0x20\n      add\n      dup1\n      dup4\n      gt\n      tag_64\n      jumpi\n      dup3\n      swap1\n      sub\n      0x1f\n      and\n      dup3\n      add\n      swap2\n    tag_62:\n      pop\n      pop\n      pop\n      pop\n      pop\n      swap1\n      dup1\n      0x03\n      add\n      dup1\n      sload\n      tag_65\n      swap1\n      tag_40\n      jump\t// in\n    tag_65:\n      dup1\n      0x1f\n      add\n      0x20\n      dup1\n      swap2\n      div\n      mul\n      0x20\n      add\n      mload(0x40)\n      swap1\n      dup2\n      add\n      0x40\n      mstore\n      dup1\n      swap3\n      swap2\n      swap1\n      dup2\n      dup2\n      mstore\n      0x20\n      add\n      dup3\n      dup1\n      sload\n      tag_66\n      swap1\n      tag_40\n      jump\t// in\n    tag_66:\n      dup1\n      iszero\n      tag_67\n      jumpi\n      dup1\n      0x1f\n      lt\n      tag_68\n      jumpi\n      0x0100\n      dup1\n      dup4\n      sload\n      div\n      mul\n      dup4\n      mstore\n      swap2\n      0x20\n      add\n      swap2\n      jump(tag_67)\n    tag_68:\n      dup3\n      add\n      swap2\n      swap1\n      0x00\n      mstore\n      keccak256(0x00, 0x20)\n      swap1\n    tag_69:\n      dup2\n      sload\n      dup2\n      mstore\n      swap1\n      0x01\n      add\n      swap1\n      0x20\n      add\n      dup1\n      dup4\n      gt\n      tag_69\n      jumpi\n      dup3\n      swap1\n      sub\n      0x1f\n      and\n      dup3\n      add\n      swap2\n    tag_67:\n      pop\n      pop\n      pop\n      pop\n      pop\n      swap1\n      pop\n      dup5\n      jump\t// out\n        /* \"contracts/Mappingtest.sol\":814:911  function addValues (uint _val) public pure returns (uint) ... */\n    tag_26:\n        /* \"contracts/Mappingtest.sol\":866:870  uint */\n      0x00\n        /* \"contracts/Mappingtest.sol\":901:903  50 */\n      0x32\n        /* \"contracts/Mappingtest.sol\":896:900  _val */\n      dup3\n        /* \"contracts/Mappingtest.sol\":896:903  _val+50 */\n      tag_71\n      swap2\n      swap1\n      tag_72\n      jump\t// in\n    tag_71:\n        /* \"contracts/Mappingtest.sol\":889:903  return _val+50 */\n      swap1\n      pop\n        /* \"contracts/Mappingtest.sol\":814:911  function addValues (uint _val) public pure returns (uint) ... */\n      swap2\n      swap1\n      pop\n      jump\t// out\n        /* \"contracts/Mappingtest.sol\":678:806  function getUserdata(uint _id) public view returns (Accounts memory)... */\n    tag_31:\n        /* \"contracts/Mappingtest.sol\":730:745  Accounts memory */\n      tag_73\n      tag_74\n      jump\t// in\n    tag_73:\n        /* \"contracts/Mappingtest.sol\":770:778  allUsers */\n      0x01\n        /* \"contracts/Mappingtest.sol\":770:783  allUsers[_id] */\n      0x00\n        /* \"contracts/Mappingtest.sol\":779:782  _id */\n      dup4\n        /* \"contracts/Mappingtest.sol\":770:783  allUsers[_id] */\n      dup2\n      mstore\n      0x20\n      add\n      swap1\n      dup2\n      mstore\n      0x20\n      add\n      0x00\n      keccak256\n        /* \"contracts/Mappingtest.sol\":770:795  allUsers[_id][msg.sender] */\n      0x00\n        /* \"contracts/Mappingtest.sol\":784:794  msg.sender */\n      caller\n        /* \"contracts/Mappingtest.sol\":770:795  allUsers[_id][msg.sender] */\n      0xffffffffffffffffffffffffffffffffffffffff\n      and\n      0xffffffffffffffffffffffffffffffffffffffff\n      and\n      dup2\n      mstore\n      0x20\n      add\n      swap1\n      dup2\n      mstore\n      0x20\n      add\n      0x00\n      keccak256\n        /* \"contracts/Mappingtest.sol\":763:795  return allUsers[_id][msg.sender] */\n      mload(0x40)\n      dup1\n      0x80\n      add\n      0x40\n      mstore\n      swap1\n      dup2\n      0x00\n      dup3\n      add\n      dup1\n      sload\n      tag_76\n      swap1\n      tag_40\n      jump\t// in\n    tag_76:\n      dup1\n      0x1f\n      add\n      0x20\n      dup1\n      swap2\n      div\n      mul\n      0x20\n      add\n      mload(0x40)\n      swap1\n      dup2\n      add\n      0x40\n      mstore\n      dup1\n      swap3\n      swap2\n      swap1\n      dup2\n      dup2\n      mstore\n      0x20\n      add\n      dup3\n      dup1\n      sload\n      tag_77\n      swap1\n      tag_40\n      jump\t// in\n    tag_77:\n      dup1\n      iszero\n      tag_78\n      jumpi\n      dup1\n      0x1f\n      lt\n      tag_79\n      jumpi\n      0x0100\n      dup1\n      dup4\n      sload\n      div\n      mul\n      dup4\n      mstore\n      swap2\n      0x20\n      add\n      swap2\n      jump(tag_78)\n    tag_79:\n      dup3\n      add\n      swap2\n      swap1\n      0x00\n      mstore\n      keccak256(0x00, 0x20)\n      swap1\n    tag_80:\n      dup2\n      sload\n      dup2\n      mstore\n      swap1\n      0x01\n      add\n      swap1\n      0x20\n      add\n      dup1\n      dup4\n      gt\n      tag_80\n      jumpi\n      dup3\n      swap1\n      sub\n      0x1f\n      and\n      dup3\n      add\n      swap2\n    tag_78:\n      pop\n      pop\n      pop\n      pop\n      pop\n      dup2\n      mstore\n      0x20\n      add\n      0x01\n      dup3\n      add\n      sload\n      dup2\n      mstore\n      0x20\n      add\n      0x02\n      dup3\n      add\n      dup1\n      sload\n      tag_81\n      swap1\n      tag_40\n      jump\t// in\n    tag_81:\n      dup1\n      0x1f\n      add\n      0x20\n      dup1\n      swap2\n      div\n      mul\n      0x20\n      add\n      mload(0x40)\n      swap1\n      dup2\n      add\n      0x40\n      mstore\n      dup1\n      swap3\n      swap2\n      swap1\n      dup2\n      dup2\n      mstore\n      0x20\n      add\n      dup3\n      dup1\n      sload\n      tag_82\n      swap1\n      tag_40\n      jump\t// in\n    tag_82:\n      dup1\n      iszero\n      tag_83\n      jumpi\n      dup1\n      0x1f\n      lt\n      tag_84\n      jumpi\n      0x0100\n      dup1\n      dup4\n      sload\n      div\n      mul\n      dup4\n      mstore\n      swap2\n      0x20\n      add\n      swap2\n      jump(tag_83)\n    tag_84:\n      dup3\n      add\n      swap2\n      swap1\n      0x00\n      mstore\n      keccak256(0x00, 0x20)\n      swap1\n    tag_85:\n      dup2\n      sload\n      dup2\n      mstore\n      swap1\n      0x01\n      add\n      swap1\n      0x20\n      add\n      dup1\n      dup4\n      gt\n      tag_85\n      jumpi\n      dup3\n      swap1\n      sub\n      0x1f\n      and\n      dup3\n      add\n      swap2\n    tag_83:\n      pop\n      pop\n      pop\n      pop\n      pop\n      dup2\n      mstore\n      0x20\n      add\n      0x03\n      dup3\n      add\n      dup1\n      sload\n      tag_86\n      swap1\n      tag_40\n      jump\t// in\n    tag_86:\n      dup1\n      0x1f\n      add\n      0x20\n      dup1\n      swap2\n      div\n      mul\n      0x20\n      add\n      mload(0x40)\n      swap1\n      dup2\n      add\n      0x40\n      mstore\n      dup1\n      swap3\n      swap2\n      swap1\n      dup2\n      dup2\n      mstore\n      0x20\n      add\n      dup3\n      dup1\n      sload\n      tag_87\n      swap1\n      tag_40\n      jump\t// in\n    tag_87:\n      dup1\n      iszero\n      tag_88\n      jumpi\n      dup1\n      0x1f\n      lt\n      tag_89\n      jumpi\n      0x0100\n      dup1\n      dup4\n      sload\n      div\n      mul\n      dup4\n      mstore\n      swap2\n      0x20\n      add\n      swap2\n      jump(tag_88)\n    tag_89:\n      dup3\n      add\n      swap2\n      swap1\n      0x00\n      mstore\n      keccak256(0x00, 0x20)\n      swap1\n    tag_90:\n      dup2\n      sload\n      dup2\n      mstore\n      swap1\n      0x01\n      add\n      swap1\n      0x20\n      add\n      dup1\n      dup4\n      gt\n      tag_90\n      jumpi\n      dup3\n      swap1\n      sub\n      0x1f\n      and\n      dup3\n      add\n      swap2\n    tag_88:\n      pop\n      pop\n      pop\n      pop\n      pop\n      dup2\n      mstore\n      pop\n      pop\n      swap1\n      pop\n        /* \"contracts/Mappingtest.sol\":678:806  function getUserdata(uint _id) public view returns (Accounts memory)... */\n      swap2\n      swap1\n      pop\n      jump\t// out\n    tag_74:\n      mload(0x40)\n      dup1\n      0x80\n      add\n      0x40\n      mstore\n      dup1\n      0x60\n      dup2\n      mstore\n      0x20\n      add\n      0x00\n      dup2\n      mstore\n      0x20\n      add\n      0x60\n      dup2\n      mstore\n      0x20\n      add\n      0x60\n      dup2\n      mstore\n      pop\n      swap1\n      jump\t// out\n        /* \"#utility.yul\":7:82   */\n    tag_91:\n        /* \"#utility.yul\":40:46   */\n      0x00\n        /* \"#utility.yul\":73:75   */\n      0x40\n        /* \"#utility.yul\":67:76   */\n      mload\n        /* \"#utility.yul\":57:76   */\n      swap1\n      pop\n        /* \"#utility.yul\":7:82   */\n      swap1\n      jump\t// out\n        /* \"#utility.yul\":88:205   */\n    tag_92:\n        /* \"#utility.yul\":197:198   */\n      0x00\n        /* \"#utility.yul\":194:195   */\n      dup1\n        /* \"#utility.yul\":187:199   */\n      revert\n        /* \"#utility.yul\":211:328   */\n    tag_93:\n        /* \"#utility.yul\":320:321   */\n      0x00\n        /* \"#utility.yul\":317:318   */\n      dup1\n        /* \"#utility.yul\":310:322   */\n      revert\n        /* \"#utility.yul\":334:411   */\n    tag_94:\n        /* \"#utility.yul\":371:378   */\n      0x00\n        /* \"#utility.yul\":400:405   */\n      dup2\n        /* \"#utility.yul\":389:405   */\n      swap1\n      pop\n        /* \"#utility.yul\":334:411   */\n      swap2\n      swap1\n      pop\n      jump\t// out\n        /* \"#utility.yul\":417:539   */\n    tag_95:\n        /* \"#utility.yul\":490:514   */\n      tag_143\n        /* \"#utility.yul\":508:513   */\n      dup2\n        /* \"#utility.yul\":490:514   */\n      tag_94\n      jump\t// in\n    tag_143:\n        /* \"#utility.yul\":483:488   */\n      dup2\n        /* \"#utility.yul\":480:515   */\n      eq\n        /* \"#utility.yul\":470:533   */\n      tag_144\n      jumpi\n        /* \"#utility.yul\":529:530   */\n      0x00\n        /* \"#utility.yul\":526:527   */\n      dup1\n        /* \"#utility.yul\":519:531   */\n      revert\n        /* \"#utility.yul\":470:533   */\n    tag_144:\n        /* \"#utility.yul\":417:539   */\n      pop\n      jump\t// out\n        /* \"#utility.yul\":545:684   */\n    tag_96:\n        /* \"#utility.yul\":591:596   */\n      0x00\n        /* \"#utility.yul\":629:635   */\n      dup2\n        /* \"#utility.yul\":616:636   */\n      calldataload\n        /* \"#utility.yul\":607:636   */\n      swap1\n      pop\n        /* \"#utility.yul\":645:678   */\n      tag_146\n        /* \"#utility.yul\":672:677   */\n      dup2\n        /* \"#utility.yul\":645:678   */\n      tag_95\n      jump\t// in\n    tag_146:\n        /* \"#utility.yul\":545:684   */\n      swap3\n      swap2\n      pop\n      pop\n      jump\t// out\n        /* \"#utility.yul\":690:807   */\n    tag_97:\n        /* \"#utility.yul\":799:800   */\n      0x00\n        /* \"#utility.yul\":796:797   */\n      dup1\n        /* \"#utility.yul\":789:801   */\n      revert\n        /* \"#utility.yul\":813:930   */\n    tag_98:\n        /* \"#utility.yul\":922:923   */\n      0x00\n        /* \"#utility.yul\":919:920   */\n      dup1\n        /* \"#utility.yul\":912:924   */\n      revert\n        /* \"#utility.yul\":936:1038   */\n    tag_99:\n        /* \"#utility.yul\":977:983   */\n      0x00\n        /* \"#utility.yul\":1028:1030   */\n      0x1f\n        /* \"#utility.yul\":1024:1031   */\n      not\n        /* \"#utility.yul\":1019:1021   */\n      0x1f\n        /* \"#utility.yul\":1012:1017   */\n      dup4\n        /* \"#utility.yul\":1008:1022   */\n      add\n        /* \"#utility.yul\":1004:1032   */\n      and\n        /* \"#utility.yul\":994:1032   */\n      swap1\n      pop\n        /* \"#utility.yul\":936:1038   */\n      swap2\n      swap1\n      pop\n      jump\t// out\n        /* \"#utility.yul\":1044:1224   */\n    tag_100:\n        /* \"#utility.yul\":1092:1169   */\n      0x4e487b7100000000000000000000000000000000000000000000000000000000\n        /* \"#utility.yul\":1089:1090   */\n      0x00\n        /* \"#utility.yul\":1082:1170   */\n      mstore\n        /* \"#utility.yul\":1189:1193   */\n      0x41\n        /* \"#utility.yul\":1186:1187   */\n      0x04\n        /* \"#utility.yul\":1179:1194   */\n      mstore\n        /* \"#utility.yul\":1213:1217   */\n      0x24\n        /* \"#utility.yul\":1210:1211   */\n      0x00\n        /* \"#utility.yul\":1203:1218   */\n      revert\n        /* \"#utility.yul\":1230:1511   */\n    tag_101:\n        /* \"#utility.yul\":1313:1340   */\n      tag_152\n        /* \"#utility.yul\":1335:1339   */\n      dup3\n        /* \"#utility.yul\":1313:1340   */\n      tag_99\n      jump\t// in\n    tag_152:\n        /* \"#utility.yul\":1305:1311   */\n      dup2\n        /* \"#utility.yul\":1301:1341   */\n      add\n        /* \"#utility.yul\":1443:1449   */\n      dup2\n        /* \"#utility.yul\":1431:1441   */\n      dup2\n        /* \"#utility.yul\":1428:1450   */\n      lt\n        /* \"#utility.yul\":1407:1425   */\n      0xffffffffffffffff\n        /* \"#utility.yul\":1395:1405   */\n      dup3\n        /* \"#utility.yul\":1392:1426   */\n      gt\n        /* \"#utility.yul\":1389:1451   */\n      or\n        /* \"#utility.yul\":1386:1474   */\n      iszero\n      tag_153\n      jumpi\n        /* \"#utility.yul\":1454:1472   */\n      tag_154\n      tag_100\n      jump\t// in\n    tag_154:\n        /* \"#utility.yul\":1386:1474   */\n    tag_153:\n        /* \"#utility.yul\":1494:1504   */\n      dup1\n        /* \"#utility.yul\":1490:1492   */\n      0x40\n        /* \"#utility.yul\":1483:1505   */\n      mstore\n        /* \"#utility.yul\":1273:1511   */\n      pop\n        /* \"#utility.yul\":1230:1511   */\n      pop\n      pop\n      jump\t// out\n        /* \"#utility.yul\":1517:1646   */\n    tag_102:\n        /* \"#utility.yul\":1551:1557   */\n      0x00\n        /* \"#utility.yul\":1578:1598   */\n      tag_156\n      tag_91\n      jump\t// in\n    tag_156:\n        /* \"#utility.yul\":1568:1598   */\n      swap1\n      pop\n        /* \"#utility.yul\":1607:1640   */\n      tag_157\n        /* \"#utility.yul\":1635:1639   */\n      dup3\n        /* \"#utility.yul\":1627:1633   */\n      dup3\n        /* \"#utility.yul\":1607:1640   */\n      tag_101\n      jump\t// in\n    tag_157:\n        /* \"#utility.yul\":1517:1646   */\n      swap2\n      swap1\n      pop\n      jump\t// out\n        /* \"#utility.yul\":1652:1960   */\n    tag_103:\n        /* \"#utility.yul\":1714:1718   */\n      0x00\n        /* \"#utility.yul\":1804:1822   */\n      0xffffffffffffffff\n        /* \"#utility.yul\":1796:1802   */\n      dup3\n        /* \"#utility.yul\":1793:1823   */\n      gt\n        /* \"#utility.yul\":1790:1846   */\n      iszero\n      tag_159\n      jumpi\n        /* \"#utility.yul\":1826:1844   */\n      tag_160\n      tag_100\n      jump\t// in\n    tag_160:\n        /* \"#utility.yul\":1790:1846   */\n    tag_159:\n        /* \"#utility.yul\":1864:1893   */\n      tag_161\n        /* \"#utility.yul\":1886:1892   */\n      dup3\n        /* \"#utility.yul\":1864:1893   */\n      tag_99\n      jump\t// in\n    tag_161:\n        /* \"#utility.yul\":1856:1893   */\n      swap1\n      pop\n        /* \"#utility.yul\":1948:1952   */\n      0x20\n        /* \"#utility.yul\":1942:1946   */\n      dup2\n        /* \"#utility.yul\":1938:1953   */\n      add\n        /* \"#utility.yul\":1930:1953   */\n      swap1\n      pop\n        /* \"#utility.yul\":1652:1960   */\n      swap2\n      swap1\n      pop\n      jump\t// out\n        /* \"#utility.yul\":1966:2112   */\n    tag_104:\n        /* \"#utility.yul\":2063:2069   */\n      dup3\n        /* \"#utility.yul\":2058:2061   */\n      dup2\n        /* \"#utility.yul\":2053:2056   */\n      dup4\n        /* \"#utility.yul\":2040:2070   */\n      calldatacopy\n        /* \"#utility.yul\":2104:2105   */\n      0x00\n        /* \"#utility.yul\":2095:2101   */\n      dup4\n        /* \"#utility.yul\":2090:2093   */\n      dup4\n        /* \"#utility.yul\":2086:2102   */\n      add\n        /* \"#utility.yul\":2079:2106   */\n      mstore\n        /* \"#utility.yul\":1966:2112   */\n      pop\n      pop\n      pop\n      jump\t// out\n        /* \"#utility.yul\":2118:2543   */\n    tag_105:\n        /* \"#utility.yul\":2196:2201   */\n      0x00\n        /* \"#utility.yul\":2221:2287   */\n      tag_164\n        /* \"#utility.yul\":2237:2286   */\n      tag_165\n        /* \"#utility.yul\":2279:2285   */\n      dup5\n        /* \"#utility.yul\":2237:2286   */\n      tag_103\n      jump\t// in\n    tag_165:\n        /* \"#utility.yul\":2221:2287   */\n      tag_102\n      jump\t// in\n    tag_164:\n        /* \"#utility.yul\":2212:2287   */\n      swap1\n      pop\n        /* \"#utility.yul\":2310:2316   */\n      dup3\n        /* \"#utility.yul\":2303:2308   */\n      dup2\n        /* \"#utility.yul\":2296:2317   */\n      mstore\n        /* \"#utility.yul\":2348:2352   */\n      0x20\n        /* \"#utility.yul\":2341:2346   */\n      dup2\n        /* \"#utility.yul\":2337:2353   */\n      add\n        /* \"#utility.yul\":2386:2389   */\n      dup5\n        /* \"#utility.yul\":2377:2383   */\n      dup5\n        /* \"#utility.yul\":2372:2375   */\n      dup5\n        /* \"#utility.yul\":2368:2384   */\n      add\n        /* \"#utility.yul\":2365:2390   */\n      gt\n        /* \"#utility.yul\":2362:2474   */\n      iszero\n      tag_166\n      jumpi\n        /* \"#utility.yul\":2393:2472   */\n      tag_167\n      tag_98\n      jump\t// in\n    tag_167:\n        /* \"#utility.yul\":2362:2474   */\n    tag_166:\n        /* \"#utility.yul\":2483:2537   */\n      tag_168\n        /* \"#utility.yul\":2530:2536   */\n      dup5\n        /* \"#utility.yul\":2525:2528   */\n      dup3\n        /* \"#utility.yul\":2520:2523   */\n      dup6\n        /* \"#utility.yul\":2483:2537   */\n      tag_104\n      jump\t// in\n    tag_168:\n        /* \"#utility.yul\":2202:2543   */\n      pop\n        /* \"#utility.yul\":2118:2543   */\n      swap4\n      swap3\n      pop\n      pop\n      pop\n      jump\t// out\n        /* \"#utility.yul\":2563:2903   */\n    tag_106:\n        /* \"#utility.yul\":2619:2624   */\n      0x00\n        /* \"#utility.yul\":2668:2671   */\n      dup3\n        /* \"#utility.yul\":2661:2665   */\n      0x1f\n        /* \"#utility.yul\":2653:2659   */\n      dup4\n        /* \"#utility.yul\":2649:2666   */\n      add\n        /* \"#utility.yul\":2645:2672   */\n      slt\n        /* \"#utility.yul\":2635:2757   */\n      tag_170\n      jumpi\n        /* \"#utility.yul\":2676:2755   */\n      tag_171\n      tag_97\n      jump\t// in\n    tag_171:\n        /* \"#utility.yul\":2635:2757   */\n    tag_170:\n        /* \"#utility.yul\":2793:2799   */\n      dup2\n        /* \"#utility.yul\":2780:2800   */\n      calldataload\n        /* \"#utility.yul\":2818:2897   */\n      tag_172\n        /* \"#utility.yul\":2893:2896   */\n      dup5\n        /* \"#utility.yul\":2885:2891   */\n      dup3\n        /* \"#utility.yul\":2878:2882   */\n      0x20\n        /* \"#utility.yul\":2870:2876   */\n      dup7\n        /* \"#utility.yul\":2866:2883   */\n      add\n        /* \"#utility.yul\":2818:2897   */\n      tag_105\n      jump\t// in\n    tag_172:\n        /* \"#utility.yul\":2809:2897   */\n      swap2\n      pop\n        /* \"#utility.yul\":2625:2903   */\n      pop\n        /* \"#utility.yul\":2563:2903   */\n      swap3\n      swap2\n      pop\n      pop\n      jump\t// out\n        /* \"#utility.yul\":2909:4360   */\n    tag_10:\n        /* \"#utility.yul\":3034:3040   */\n      0x00\n        /* \"#utility.yul\":3042:3048   */\n      dup1\n        /* \"#utility.yul\":3050:3056   */\n      0x00\n        /* \"#utility.yul\":3058:3064   */\n      dup1\n        /* \"#utility.yul\":3066:3072   */\n      0x00\n        /* \"#utility.yul\":3115:3118   */\n      0xa0\n        /* \"#utility.yul\":3103:3112   */\n      dup7\n        /* \"#utility.yul\":3094:3101   */\n      dup9\n        /* \"#utility.yul\":3090:3113   */\n      sub\n        /* \"#utility.yul\":3086:3119   */\n      slt\n        /* \"#utility.yul\":3083:3203   */\n      iszero\n      tag_174\n      jumpi\n        /* \"#utility.yul\":3122:3201   */\n      tag_175\n      tag_92\n      jump\t// in\n    tag_175:\n        /* \"#utility.yul\":3083:3203   */\n    tag_174:\n        /* \"#utility.yul\":3242:3243   */\n      0x00\n        /* \"#utility.yul\":3267:3320   */\n      tag_176\n        /* \"#utility.yul\":3312:3319   */\n      dup9\n        /* \"#utility.yul\":3303:3309   */\n      dup3\n        /* \"#utility.yul\":3292:3301   */\n      dup10\n        /* \"#utility.yul\":3288:3310   */\n      add\n        /* \"#utility.yul\":3267:3320   */\n      tag_96\n      jump\t// in\n    tag_176:\n        /* \"#utility.yul\":3257:3320   */\n      swap6\n      pop\n        /* \"#utility.yul\":3213:3330   */\n      pop\n        /* \"#utility.yul\":3397:3399   */\n      0x20\n        /* \"#utility.yul\":3386:3395   */\n      dup7\n        /* \"#utility.yul\":3382:3400   */\n      add\n        /* \"#utility.yul\":3369:3401   */\n      calldataload\n        /* \"#utility.yul\":3428:3446   */\n      0xffffffffffffffff\n        /* \"#utility.yul\":3420:3426   */\n      dup2\n        /* \"#utility.yul\":3417:3447   */\n      gt\n        /* \"#utility.yul\":3414:3531   */\n      iszero\n      tag_177\n      jumpi\n        /* \"#utility.yul\":3450:3529   */\n      tag_178\n      tag_93\n      jump\t// in\n    tag_178:\n        /* \"#utility.yul\":3414:3531   */\n    tag_177:\n        /* \"#utility.yul\":3555:3618   */\n      tag_179\n        /* \"#utility.yul\":3610:3617   */\n      dup9\n        /* \"#utility.yul\":3601:3607   */\n      dup3\n        /* \"#utility.yul\":3590:3599   */\n      dup10\n        /* \"#utility.yul\":3586:3608   */\n      add\n        /* \"#utility.yul\":3555:3618   */\n      tag_106\n      jump\t// in\n    tag_179:\n        /* \"#utility.yul\":3545:3618   */\n      swap5\n      pop\n        /* \"#utility.yul\":3340:3628   */\n      pop\n        /* \"#utility.yul\":3667:3669   */\n      0x40\n        /* \"#utility.yul\":3693:3746   */\n      tag_180\n        /* \"#utility.yul\":3738:3745   */\n      dup9\n        /* \"#utility.yul\":3729:3735   */\n      dup3\n        /* \"#utility.yul\":3718:3727   */\n      dup10\n        /* \"#utility.yul\":3714:3736   */\n      add\n        /* \"#utility.yul\":3693:3746   */\n      tag_96\n      jump\t// in\n    tag_180:\n        /* \"#utility.yul\":3683:3746   */\n      swap4\n      pop\n        /* \"#utility.yul\":3638:3756   */\n      pop\n        /* \"#utility.yul\":3823:3825   */\n      0x60\n        /* \"#utility.yul\":3812:3821   */\n      dup7\n        /* \"#utility.yul\":3808:3826   */\n      add\n        /* \"#utility.yul\":3795:3827   */\n      calldataload\n        /* \"#utility.yul\":3854:3872   */\n      0xffffffffffffffff\n        /* \"#utility.yul\":3846:3852   */\n      dup2\n        /* \"#utility.yul\":3843:3873   */\n      gt\n        /* \"#utility.yul\":3840:3957   */\n      iszero\n      tag_181\n      jumpi\n        /* \"#utility.yul\":3876:3955   */\n      tag_182\n      tag_93\n      jump\t// in\n    tag_182:\n        /* \"#utility.yul\":3840:3957   */\n    tag_181:\n        /* \"#utility.yul\":3981:4044   */\n      tag_183\n        /* \"#utility.yul\":4036:4043   */\n      dup9\n        /* \"#utility.yul\":4027:4033   */\n      dup3\n        /* \"#utility.yul\":4016:4025   */\n      dup10\n        /* \"#utility.yul\":4012:4034   */\n      add\n        /* \"#utility.yul\":3981:4044   */\n      tag_106\n      jump\t// in\n    tag_183:\n        /* \"#utility.yul\":3971:4044   */\n      swap3\n      pop\n        /* \"#utility.yul\":3766:4054   */\n      pop\n        /* \"#utility.yul\":4121:4124   */\n      0x80\n        /* \"#utility.yul\":4110:4119   */\n      dup7\n        /* \"#utility.yul\":4106:4125   */\n      add\n        /* \"#utility.yul\":4093:4126   */\n      calldataload\n        /* \"#utility.yul\":4153:4171   */\n      0xffffffffffffffff\n        /* \"#utility.yul\":4145:4151   */\n      dup2\n        /* \"#utility.yul\":4142:4172   */\n      gt\n        /* \"#utility.yul\":4139:4256   */\n      iszero\n      tag_184\n      jumpi\n        /* \"#utility.yul\":4175:4254   */\n      tag_185\n      tag_93\n      jump\t// in\n    tag_185:\n        /* \"#utility.yul\":4139:4256   */\n    tag_184:\n        /* \"#utility.yul\":4280:4343   */\n      tag_186\n        /* \"#utility.yul\":4335:4342   */\n      dup9\n        /* \"#utility.yul\":4326:4332   */\n      dup3\n        /* \"#utility.yul\":4315:4324   */\n      dup10\n        /* \"#utility.yul\":4311:4333   */\n      add\n        /* \"#utility.yul\":4280:4343   */\n      tag_106\n      jump\t// in\n    tag_186:\n        /* \"#utility.yul\":4270:4343   */\n      swap2\n      pop\n        /* \"#utility.yul\":4064:4353   */\n      pop\n        /* \"#utility.yul\":2909:4360   */\n      swap3\n      swap6\n      pop\n      swap3\n      swap6\n      swap1\n      swap4\n      pop\n      jump\t// out\n        /* \"#utility.yul\":4366:4492   */\n    tag_107:\n        /* \"#utility.yul\":4403:4410   */\n      0x00\n        /* \"#utility.yul\":4443:4485   */\n      0xffffffffffffffffffffffffffffffffffffffff\n        /* \"#utility.yul\":4436:4441   */\n      dup3\n        /* \"#utility.yul\":4432:4486   */\n      and\n        /* \"#utility.yul\":4421:4486   */\n      swap1\n      pop\n        /* \"#utility.yul\":4366:4492   */\n      swap2\n      swap1\n      pop\n      jump\t// out\n        /* \"#utility.yul\":4498:4594   */\n    tag_108:\n        /* \"#utility.yul\":4535:4542   */\n      0x00\n        /* \"#utility.yul\":4564:4588   */\n      tag_189\n        /* \"#utility.yul\":4582:4587   */\n      dup3\n        /* \"#utility.yul\":4564:4588   */\n      tag_107\n      jump\t// in\n    tag_189:\n        /* \"#utility.yul\":4553:4588   */\n      swap1\n      pop\n        /* \"#utility.yul\":4498:4594   */\n      swap2\n      swap1\n      pop\n      jump\t// out\n        /* \"#utility.yul\":4600:4722   */\n    tag_109:\n        /* \"#utility.yul\":4673:4697   */\n      tag_191\n        /* \"#utility.yul\":4691:4696   */\n      dup2\n        /* \"#utility.yul\":4673:4697   */\n      tag_108\n      jump\t// in\n    tag_191:\n        /* \"#utility.yul\":4666:4671   */\n      dup2\n        /* \"#utility.yul\":4663:4698   */\n      eq\n        /* \"#utility.yul\":4653:4716   */\n      tag_192\n      jumpi\n        /* \"#utility.yul\":4712:4713   */\n      0x00\n        /* \"#utility.yul\":4709:4710   */\n      dup1\n        /* \"#utility.yul\":4702:4714   */\n      revert\n        /* \"#utility.yul\":4653:4716   */\n    tag_192:\n        /* \"#utility.yul\":4600:4722   */\n      pop\n      jump\t// out\n        /* \"#utility.yul\":4728:4867   */\n    tag_110:\n        /* \"#utility.yul\":4774:4779   */\n      0x00\n        /* \"#utility.yul\":4812:4818   */\n      dup2\n        /* \"#utility.yul\":4799:4819   */\n      calldataload\n        /* \"#utility.yul\":4790:4819   */\n      swap1\n      pop\n        /* \"#utility.yul\":4828:4861   */\n      tag_194\n        /* \"#utility.yul\":4855:4860   */\n      dup2\n        /* \"#utility.yul\":4828:4861   */\n      tag_109\n      jump\t// in\n    tag_194:\n        /* \"#utility.yul\":4728:4867   */\n      swap3\n      swap2\n      pop\n      pop\n      jump\t// out\n        /* \"#utility.yul\":4873:5202   */\n    tag_14:\n        /* \"#utility.yul\":4932:4938   */\n      0x00\n        /* \"#utility.yul\":4981:4983   */\n      0x20\n        /* \"#utility.yul\":4969:4978   */\n      dup3\n        /* \"#utility.yul\":4960:4967   */\n      dup5\n        /* \"#utility.yul\":4956:4979   */\n      sub\n        /* \"#utility.yul\":4952:4984   */\n      slt\n        /* \"#utility.yul\":4949:5068   */\n      iszero\n      tag_196\n      jumpi\n        /* \"#utility.yul\":4987:5066   */\n      tag_197\n      tag_92\n      jump\t// in\n    tag_197:\n        /* \"#utility.yul\":4949:5068   */\n    tag_196:\n        /* \"#utility.yul\":5107:5108   */\n      0x00\n        /* \"#utility.yul\":5132:5185   */\n      tag_198\n        /* \"#utility.yul\":5177:5184   */\n      dup5\n        /* \"#utility.yul\":5168:5174   */\n      dup3\n        /* \"#utility.yul\":5157:5166   */\n      dup6\n        /* \"#utility.yul\":5153:5175   */\n      add\n        /* \"#utility.yul\":5132:5185   */\n      tag_110\n      jump\t// in\n    tag_198:\n        /* \"#utility.yul\":5122:5185   */\n      swap2\n      pop\n        /* \"#utility.yul\":5078:5195   */\n      pop\n        /* \"#utility.yul\":4873:5202   */\n      swap3\n      swap2\n      pop\n      pop\n      jump\t// out\n        /* \"#utility.yul\":5208:5307   */\n    tag_111:\n        /* \"#utility.yul\":5260:5266   */\n      0x00\n        /* \"#utility.yul\":5294:5299   */\n      dup2\n        /* \"#utility.yul\":5288:5300   */\n      mload\n        /* \"#utility.yul\":5278:5300   */\n      swap1\n      pop\n        /* \"#utility.yul\":5208:5307   */\n      swap2\n      swap1\n      pop\n      jump\t// out\n        /* \"#utility.yul\":5313:5482   */\n    tag_112:\n        /* \"#utility.yul\":5397:5408   */\n      0x00\n        /* \"#utility.yul\":5431:5437   */\n      dup3\n        /* \"#utility.yul\":5426:5429   */\n      dup3\n        /* \"#utility.yul\":5419:5438   */\n      mstore\n        /* \"#utility.yul\":5471:5475   */\n      0x20\n        /* \"#utility.yul\":5466:5469   */\n      dup3\n        /* \"#utility.yul\":5462:5476   */\n      add\n        /* \"#utility.yul\":5447:5476   */\n      swap1\n      pop\n        /* \"#utility.yul\":5313:5482   */\n      swap3\n      swap2\n      pop\n      pop\n      jump\t// out\n        /* \"#utility.yul\":5488:5734   */\n    tag_113:\n        /* \"#utility.yul\":5569:5570   */\n      0x00\n        /* \"#utility.yul\":5579:5692   */\n    tag_202:\n        /* \"#utility.yul\":5593:5599   */\n      dup4\n        /* \"#utility.yul\":5590:5591   */\n      dup2\n        /* \"#utility.yul\":5587:5600   */\n      lt\n        /* \"#utility.yul\":5579:5692   */\n      iszero\n      tag_204\n      jumpi\n        /* \"#utility.yul\":5678:5679   */\n      dup1\n        /* \"#utility.yul\":5673:5676   */\n      dup3\n        /* \"#utility.yul\":5669:5680   */\n      add\n        /* \"#utility.yul\":5663:5681   */\n      mload\n        /* \"#utility.yul\":5659:5660   */\n      dup2\n        /* \"#utility.yul\":5654:5657   */\n      dup5\n        /* \"#utility.yul\":5650:5661   */\n      add\n        /* \"#utility.yul\":5643:5682   */\n      mstore\n        /* \"#utility.yul\":5615:5617   */\n      0x20\n        /* \"#utility.yul\":5612:5613   */\n      dup2\n        /* \"#utility.yul\":5608:5618   */\n      add\n        /* \"#utility.yul\":5603:5618   */\n      swap1\n      pop\n        /* \"#utility.yul\":5579:5692   */\n      jump(tag_202)\n    tag_204:\n        /* \"#utility.yul\":5726:5727   */\n      0x00\n        /* \"#utility.yul\":5717:5723   */\n      dup5\n        /* \"#utility.yul\":5712:5715   */\n      dup5\n        /* \"#utility.yul\":5708:5724   */\n      add\n        /* \"#utility.yul\":5701:5728   */\n      mstore\n        /* \"#utility.yul\":5550:5734   */\n      pop\n        /* \"#utility.yul\":5488:5734   */\n      pop\n      pop\n      pop\n      jump\t// out\n        /* \"#utility.yul\":5740:6117   */\n    tag_114:\n        /* \"#utility.yul\":5828:5831   */\n      0x00\n        /* \"#utility.yul\":5856:5895   */\n      tag_206\n        /* \"#utility.yul\":5889:5894   */\n      dup3\n        /* \"#utility.yul\":5856:5895   */\n      tag_111\n      jump\t// in\n    tag_206:\n        /* \"#utility.yul\":5911:5982   */\n      tag_207\n        /* \"#utility.yul\":5975:5981   */\n      dup2\n        /* \"#utility.yul\":5970:5973   */\n      dup6\n        /* \"#utility.yul\":5911:5982   */\n      tag_112\n      jump\t// in\n    tag_207:\n        /* \"#utility.yul\":5904:5982   */\n      swap4\n      pop\n        /* \"#utility.yul\":5991:6056   */\n      tag_208\n        /* \"#utility.yul\":6049:6055   */\n      dup2\n        /* \"#utility.yul\":6044:6047   */\n      dup6\n        /* \"#utility.yul\":6037:6041   */\n      0x20\n        /* \"#utility.yul\":6030:6035   */\n      dup7\n        /* \"#utility.yul\":6026:6042   */\n      add\n        /* \"#utility.yul\":5991:6056   */\n      tag_113\n      jump\t// in\n    tag_208:\n        /* \"#utility.yul\":6081:6110   */\n      tag_209\n        /* \"#utility.yul\":6103:6109   */\n      dup2\n        /* \"#utility.yul\":6081:6110   */\n      tag_99\n      jump\t// in\n    tag_209:\n        /* \"#utility.yul\":6076:6079   */\n      dup5\n        /* \"#utility.yul\":6072:6111   */\n      add\n        /* \"#utility.yul\":6065:6111   */\n      swap2\n      pop\n        /* \"#utility.yul\":5832:6117   */\n      pop\n        /* \"#utility.yul\":5740:6117   */\n      swap3\n      swap2\n      pop\n      pop\n      jump\t// out\n        /* \"#utility.yul\":6123:6241   */\n    tag_115:\n        /* \"#utility.yul\":6210:6234   */\n      tag_211\n        /* \"#utility.yul\":6228:6233   */\n      dup2\n        /* \"#utility.yul\":6210:6234   */\n      tag_94\n      jump\t// in\n    tag_211:\n        /* \"#utility.yul\":6205:6208   */\n      dup3\n        /* \"#utility.yul\":6198:6235   */\n      mstore\n        /* \"#utility.yul\":6123:6241   */\n      pop\n      pop\n      jump\t// out\n        /* \"#utility.yul\":6247:7073   */\n    tag_17:\n        /* \"#utility.yul\":6484:6488   */\n      0x00\n        /* \"#utility.yul\":6522:6525   */\n      0x80\n        /* \"#utility.yul\":6511:6520   */\n      dup3\n        /* \"#utility.yul\":6507:6526   */\n      add\n        /* \"#utility.yul\":6499:6526   */\n      swap1\n      pop\n        /* \"#utility.yul\":6572:6581   */\n      dup2\n        /* \"#utility.yul\":6566:6570   */\n      dup2\n        /* \"#utility.yul\":6562:6582   */\n      sub\n        /* \"#utility.yul\":6558:6559   */\n      0x00\n        /* \"#utility.yul\":6547:6556   */\n      dup4\n        /* \"#utility.yul\":6543:6560   */\n      add\n        /* \"#utility.yul\":6536:6583   */\n      mstore\n        /* \"#utility.yul\":6600:6678   */\n      tag_213\n        /* \"#utility.yul\":6673:6677   */\n      dup2\n        /* \"#utility.yul\":6664:6670   */\n      dup8\n        /* \"#utility.yul\":6600:6678   */\n      tag_114\n      jump\t// in\n    tag_213:\n        /* \"#utility.yul\":6592:6678   */\n      swap1\n      pop\n        /* \"#utility.yul\":6688:6760   */\n      tag_214\n        /* \"#utility.yul\":6756:6758   */\n      0x20\n        /* \"#utility.yul\":6745:6754   */\n      dup4\n        /* \"#utility.yul\":6741:6759   */\n      add\n        /* \"#utility.yul\":6732:6738   */\n      dup7\n        /* \"#utility.yul\":6688:6760   */\n      tag_115\n      jump\t// in\n    tag_214:\n        /* \"#utility.yul\":6807:6816   */\n      dup2\n        /* \"#utility.yul\":6801:6805   */\n      dup2\n        /* \"#utility.yul\":6797:6817   */\n      sub\n        /* \"#utility.yul\":6792:6794   */\n      0x40\n        /* \"#utility.yul\":6781:6790   */\n      dup4\n        /* \"#utility.yul\":6777:6795   */\n      add\n        /* \"#utility.yul\":6770:6818   */\n      mstore\n        /* \"#utility.yul\":6835:6913   */\n      tag_215\n        /* \"#utility.yul\":6908:6912   */\n      dup2\n        /* \"#utility.yul\":6899:6905   */\n      dup6\n        /* \"#utility.yul\":6835:6913   */\n      tag_114\n      jump\t// in\n    tag_215:\n        /* \"#utility.yul\":6827:6913   */\n      swap1\n      pop\n        /* \"#utility.yul\":6960:6969   */\n      dup2\n        /* \"#utility.yul\":6954:6958   */\n      dup2\n        /* \"#utility.yul\":6950:6970   */\n      sub\n        /* \"#utility.yul\":6945:6947   */\n      0x60\n        /* \"#utility.yul\":6934:6943   */\n      dup4\n        /* \"#utility.yul\":6930:6948   */\n      add\n        /* \"#utility.yul\":6923:6971   */\n      mstore\n        /* \"#utility.yul\":6988:7066   */\n      tag_216\n        /* \"#utility.yul\":7061:7065   */\n      dup2\n        /* \"#utility.yul\":7052:7058   */\n      dup5\n        /* \"#utility.yul\":6988:7066   */\n      tag_114\n      jump\t// in\n    tag_216:\n        /* \"#utility.yul\":6980:7066   */\n      swap1\n      pop\n        /* \"#utility.yul\":6247:7073   */\n      swap6\n      swap5\n      pop\n      pop\n      pop\n      pop\n      pop\n      jump\t// out\n        /* \"#utility.yul\":7079:7553   */\n    tag_20:\n        /* \"#utility.yul\":7147:7153   */\n      0x00\n        /* \"#utility.yul\":7155:7161   */\n      dup1\n        /* \"#utility.yul\":7204:7206   */\n      0x40\n        /* \"#utility.yul\":7192:7201   */\n      dup4\n        /* \"#utility.yul\":7183:7190   */\n      dup6\n        /* \"#utility.yul\":7179:7202   */\n      sub\n        /* \"#utility.yul\":7175:7207   */\n      slt\n        /* \"#utility.yul\":7172:7291   */\n      iszero\n      tag_218\n      jumpi\n        /* \"#utility.yul\":7210:7289   */\n      tag_219\n      tag_92\n      jump\t// in\n    tag_219:\n        /* \"#utility.yul\":7172:7291   */\n    tag_218:\n        /* \"#utility.yul\":7330:7331   */\n      0x00\n        /* \"#utility.yul\":7355:7408   */\n      tag_220\n        /* \"#utility.yul\":7400:7407   */\n      dup6\n        /* \"#utility.yul\":7391:7397   */\n      dup3\n        /* \"#utility.yul\":7380:7389   */\n      dup7\n        /* \"#utility.yul\":7376:7398   */\n      add\n        /* \"#utility.yul\":7355:7408   */\n      tag_96\n      jump\t// in\n    tag_220:\n        /* \"#utility.yul\":7345:7408   */\n      swap3\n      pop\n        /* \"#utility.yul\":7301:7418   */\n      pop\n        /* \"#utility.yul\":7457:7459   */\n      0x20\n        /* \"#utility.yul\":7483:7536   */\n      tag_221\n        /* \"#utility.yul\":7528:7535   */\n      dup6\n        /* \"#utility.yul\":7519:7525   */\n      dup3\n        /* \"#utility.yul\":7508:7517   */\n      dup7\n        /* \"#utility.yul\":7504:7526   */\n      add\n        /* \"#utility.yul\":7483:7536   */\n      tag_110\n      jump\t// in\n    tag_221:\n        /* \"#utility.yul\":7473:7536   */\n      swap2\n      pop\n        /* \"#utility.yul\":7428:7546   */\n      pop\n        /* \"#utility.yul\":7079:7553   */\n      swap3\n      pop\n      swap3\n      swap1\n      pop\n      jump\t// out\n        /* \"#utility.yul\":7559:7888   */\n    tag_25:\n        /* \"#utility.yul\":7618:7624   */\n      0x00\n        /* \"#utility.yul\":7667:7669   */\n      0x20\n        /* \"#utility.yul\":7655:7664   */\n      dup3\n        /* \"#utility.yul\":7646:7653   */\n      dup5\n        /* \"#utility.yul\":7642:7665   */\n      sub\n        /* \"#utility.yul\":7638:7670   */\n      slt\n        /* \"#utility.yul\":7635:7754   */\n      iszero\n      tag_223\n      jumpi\n        /* \"#utility.yul\":7673:7752   */\n      tag_224\n      tag_92\n      jump\t// in\n    tag_224:\n        /* \"#utility.yul\":7635:7754   */\n    tag_223:\n        /* \"#utility.yul\":7793:7794   */\n      0x00\n        /* \"#utility.yul\":7818:7871   */\n      tag_225\n        /* \"#utility.yul\":7863:7870   */\n      dup5\n        /* \"#utility.yul\":7854:7860   */\n      dup3\n        /* \"#utility.yul\":7843:7852   */\n      dup6\n        /* \"#utility.yul\":7839:7861   */\n      add\n        /* \"#utility.yul\":7818:7871   */\n      tag_96\n      jump\t// in\n    tag_225:\n        /* \"#utility.yul\":7808:7871   */\n      swap2\n      pop\n        /* \"#utility.yul\":7764:7881   */\n      pop\n        /* \"#utility.yul\":7559:7888   */\n      swap3\n      swap2\n      pop\n      pop\n      jump\t// out\n        /* \"#utility.yul\":7894:8116   */\n    tag_28:\n        /* \"#utility.yul\":7987:7991   */\n      0x00\n        /* \"#utility.yul\":8025:8027   */\n      0x20\n        /* \"#utility.yul\":8014:8023   */\n      dup3\n        /* \"#utility.yul\":8010:8028   */\n      add\n        /* \"#utility.yul\":8002:8028   */\n      swap1\n      pop\n        /* \"#utility.yul\":8038:8109   */\n      tag_227\n        /* \"#utility.yul\":8106:8107   */\n      0x00\n        /* \"#utility.yul\":8095:8104   */\n      dup4\n        /* \"#utility.yul\":8091:8108   */\n      add\n        /* \"#utility.yul\":8082:8088   */\n      dup5\n        /* \"#utility.yul\":8038:8109   */\n      tag_115\n      jump\t// in\n    tag_227:\n        /* \"#utility.yul\":7894:8116   */\n      swap3\n      swap2\n      pop\n      pop\n      jump\t// out\n        /* \"#utility.yul\":8122:8281   */\n    tag_116:\n        /* \"#utility.yul\":8196:8207   */\n      0x00\n        /* \"#utility.yul\":8230:8236   */\n      dup3\n        /* \"#utility.yul\":8225:8228   */\n      dup3\n        /* \"#utility.yul\":8218:8237   */\n      mstore\n        /* \"#utility.yul\":8270:8274   */\n      0x20\n        /* \"#utility.yul\":8265:8268   */\n      dup3\n        /* \"#utility.yul\":8261:8275   */\n      add\n        /* \"#utility.yul\":8246:8275   */\n      swap1\n      pop\n        /* \"#utility.yul\":8122:8281   */\n      swap3\n      swap2\n      pop\n      pop\n      jump\t// out\n        /* \"#utility.yul\":8287:8644   */\n    tag_117:\n        /* \"#utility.yul\":8365:8368   */\n      0x00\n        /* \"#utility.yul\":8393:8432   */\n      tag_230\n        /* \"#utility.yul\":8426:8431   */\n      dup3\n        /* \"#utility.yul\":8393:8432   */\n      tag_111\n      jump\t// in\n    tag_230:\n        /* \"#utility.yul\":8448:8509   */\n      tag_231\n        /* \"#utility.yul\":8502:8508   */\n      dup2\n        /* \"#utility.yul\":8497:8500   */\n      dup6\n        /* \"#utility.yul\":8448:8509   */\n      tag_116\n      jump\t// in\n    tag_231:\n        /* \"#utility.yul\":8441:8509   */\n      swap4\n      pop\n        /* \"#utility.yul\":8518:8583   */\n      tag_232\n        /* \"#utility.yul\":8576:8582   */\n      dup2\n        /* \"#utility.yul\":8571:8574   */\n      dup6\n        /* \"#utility.yul\":8564:8568   */\n      0x20\n        /* \"#utility.yul\":8557:8562   */\n      dup7\n        /* \"#utility.yul\":8553:8569   */\n      add\n        /* \"#utility.yul\":8518:8583   */\n      tag_113\n      jump\t// in\n    tag_232:\n        /* \"#utility.yul\":8608:8637   */\n      tag_233\n        /* \"#utility.yul\":8630:8636   */\n      dup2\n        /* \"#utility.yul\":8608:8637   */\n      tag_99\n      jump\t// in\n    tag_233:\n        /* \"#utility.yul\":8603:8606   */\n      dup5\n        /* \"#utility.yul\":8599:8638   */\n      add\n        /* \"#utility.yul\":8592:8638   */\n      swap2\n      pop\n        /* \"#utility.yul\":8369:8644   */\n      pop\n        /* \"#utility.yul\":8287:8644   */\n      swap3\n      swap2\n      pop\n      pop\n      jump\t// out\n        /* \"#utility.yul\":8650:8758   */\n    tag_118:\n        /* \"#utility.yul\":8727:8751   */\n      tag_235\n        /* \"#utility.yul\":8745:8750   */\n      dup2\n        /* \"#utility.yul\":8727:8751   */\n      tag_94\n      jump\t// in\n    tag_235:\n        /* \"#utility.yul\":8722:8725   */\n      dup3\n        /* \"#utility.yul\":8715:8752   */\n      mstore\n        /* \"#utility.yul\":8650:8758   */\n      pop\n      pop\n      jump\t// out\n        /* \"#utility.yul\":8830:9936   */\n    tag_119:\n        /* \"#utility.yul\":8947:8950   */\n      0x00\n        /* \"#utility.yul\":8983:8987   */\n      0x80\n        /* \"#utility.yul\":8978:8981   */\n      dup4\n        /* \"#utility.yul\":8974:8988   */\n      add\n        /* \"#utility.yul\":9071:9075   */\n      0x00\n        /* \"#utility.yul\":9064:9069   */\n      dup4\n        /* \"#utility.yul\":9060:9076   */\n      add\n        /* \"#utility.yul\":9054:9077   */\n      mload\n        /* \"#utility.yul\":9124:9127   */\n      dup5\n        /* \"#utility.yul\":9118:9122   */\n      dup3\n        /* \"#utility.yul\":9114:9128   */\n      sub\n        /* \"#utility.yul\":9107:9111   */\n      0x00\n        /* \"#utility.yul\":9102:9105   */\n      dup7\n        /* \"#utility.yul\":9098:9112   */\n      add\n        /* \"#utility.yul\":9091:9129   */\n      mstore\n        /* \"#utility.yul\":9150:9223   */\n      tag_237\n        /* \"#utility.yul\":9218:9222   */\n      dup3\n        /* \"#utility.yul\":9204:9216   */\n      dup3\n        /* \"#utility.yul\":9150:9223   */\n      tag_117\n      jump\t// in\n    tag_237:\n        /* \"#utility.yul\":9142:9223   */\n      swap2\n      pop\n        /* \"#utility.yul\":8998:9234   */\n      pop\n        /* \"#utility.yul\":9320:9324   */\n      0x20\n        /* \"#utility.yul\":9313:9318   */\n      dup4\n        /* \"#utility.yul\":9309:9325   */\n      add\n        /* \"#utility.yul\":9303:9326   */\n      mload\n        /* \"#utility.yul\":9339:9402   */\n      tag_238\n        /* \"#utility.yul\":9396:9400   */\n      0x20\n        /* \"#utility.yul\":9391:9394   */\n      dup7\n        /* \"#utility.yul\":9387:9401   */\n      add\n        /* \"#utility.yul\":9373:9385   */\n      dup3\n        /* \"#utility.yul\":9339:9402   */\n      tag_118\n      jump\t// in\n    tag_238:\n        /* \"#utility.yul\":9244:9412   */\n      pop\n        /* \"#utility.yul\":9496:9500   */\n      0x40\n        /* \"#utility.yul\":9489:9494   */\n      dup4\n        /* \"#utility.yul\":9485:9501   */\n      add\n        /* \"#utility.yul\":9479:9502   */\n      mload\n        /* \"#utility.yul\":9549:9552   */\n      dup5\n        /* \"#utility.yul\":9543:9547   */\n      dup3\n        /* \"#utility.yul\":9539:9553   */\n      sub\n        /* \"#utility.yul\":9532:9536   */\n      0x40\n        /* \"#utility.yul\":9527:9530   */\n      dup7\n        /* \"#utility.yul\":9523:9537   */\n      add\n        /* \"#utility.yul\":9516:9554   */\n      mstore\n        /* \"#utility.yul\":9575:9648   */\n      tag_239\n        /* \"#utility.yul\":9643:9647   */\n      dup3\n        /* \"#utility.yul\":9629:9641   */\n      dup3\n        /* \"#utility.yul\":9575:9648   */\n      tag_117\n      jump\t// in\n    tag_239:\n        /* \"#utility.yul\":9567:9648   */\n      swap2\n      pop\n        /* \"#utility.yul\":9422:9659   */\n      pop\n        /* \"#utility.yul\":9746:9750   */\n      0x60\n        /* \"#utility.yul\":9739:9744   */\n      dup4\n        /* \"#utility.yul\":9735:9751   */\n      add\n        /* \"#utility.yul\":9729:9752   */\n      mload\n        /* \"#utility.yul\":9799:9802   */\n      dup5\n        /* \"#utility.yul\":9793:9797   */\n      dup3\n        /* \"#utility.yul\":9789:9803   */\n      sub\n        /* \"#utility.yul\":9782:9786   */\n      0x60\n        /* \"#utility.yul\":9777:9780   */\n      dup7\n        /* \"#utility.yul\":9773:9787   */\n      add\n        /* \"#utility.yul\":9766:9804   */\n      mstore\n        /* \"#utility.yul\":9825:9898   */\n      tag_240\n        /* \"#utility.yul\":9893:9897   */\n      dup3\n        /* \"#utility.yul\":9879:9891   */\n      dup3\n        /* \"#utility.yul\":9825:9898   */\n      tag_117\n      jump\t// in\n    tag_240:\n        /* \"#utility.yul\":9817:9898   */\n      swap2\n      pop\n        /* \"#utility.yul\":9669:9909   */\n      pop\n        /* \"#utility.yul\":9926:9930   */\n      dup1\n        /* \"#utility.yul\":9919:9930   */\n      swap2\n      pop\n        /* \"#utility.yul\":8952:9936   */\n      pop\n        /* \"#utility.yul\":8830:9936   */\n      swap3\n      swap2\n      pop\n      pop\n      jump\t// out\n        /* \"#utility.yul\":9942:10311   */\n    tag_33:\n        /* \"#utility.yul\":10083:10087   */\n      0x00\n        /* \"#utility.yul\":10121:10123   */\n      0x20\n        /* \"#utility.yul\":10110:10119   */\n      dup3\n        /* \"#utility.yul\":10106:10124   */\n      add\n        /* \"#utility.yul\":10098:10124   */\n      swap1\n      pop\n        /* \"#utility.yul\":10170:10179   */\n      dup2\n        /* \"#utility.yul\":10164:10168   */\n      dup2\n        /* \"#utility.yul\":10160:10180   */\n      sub\n        /* \"#utility.yul\":10156:10157   */\n      0x00\n        /* \"#utility.yul\":10145:10154   */\n      dup4\n        /* \"#utility.yul\":10141:10158   */\n      add\n        /* \"#utility.yul\":10134:10181   */\n      mstore\n        /* \"#utility.yul\":10198:10304   */\n      tag_242\n        /* \"#utility.yul\":10299:10303   */\n      dup2\n        /* \"#utility.yul\":10290:10296   */\n      dup5\n        /* \"#utility.yul\":10198:10304   */\n      tag_119\n      jump\t// in\n    tag_242:\n        /* \"#utility.yul\":10190:10304   */\n      swap1\n      pop\n        /* \"#utility.yul\":9942:10311   */\n      swap3\n      swap2\n      pop\n      pop\n      jump\t// out\n        /* \"#utility.yul\":10317:10497   */\n    tag_120:\n        /* \"#utility.yul\":10365:10442   */\n      0x4e487b7100000000000000000000000000000000000000000000000000000000\n        /* \"#utility.yul\":10362:10363   */\n      0x00\n        /* \"#utility.yul\":10355:10443   */\n      mstore\n        /* \"#utility.yul\":10462:10466   */\n      0x22\n        /* \"#utility.yul\":10459:10460   */\n      0x04\n        /* \"#utility.yul\":10452:10467   */\n      mstore\n        /* \"#utility.yul\":10486:10490   */\n      0x24\n        /* \"#utility.yul\":10483:10484   */\n      0x00\n        /* \"#utility.yul\":10476:10491   */\n      revert\n        /* \"#utility.yul\":10503:10823   */\n    tag_40:\n        /* \"#utility.yul\":10547:10553   */\n      0x00\n        /* \"#utility.yul\":10584:10585   */\n      0x02\n        /* \"#utility.yul\":10578:10582   */\n      dup3\n        /* \"#utility.yul\":10574:10586   */\n      div\n        /* \"#utility.yul\":10564:10586   */\n      swap1\n      pop\n        /* \"#utility.yul\":10631:10632   */\n      0x01\n        /* \"#utility.yul\":10625:10629   */\n      dup3\n        /* \"#utility.yul\":10621:10633   */\n      and\n        /* \"#utility.yul\":10652:10670   */\n      dup1\n        /* \"#utility.yul\":10642:10723   */\n      tag_245\n      jumpi\n        /* \"#utility.yul\":10708:10712   */\n      0x7f\n        /* \"#utility.yul\":10700:10706   */\n      dup3\n        /* \"#utility.yul\":10696:10713   */\n      and\n        /* \"#utility.yul\":10686:10713   */\n      swap2\n      pop\n        /* \"#utility.yul\":10642:10723   */\n    tag_245:\n        /* \"#utility.yul\":10770:10772   */\n      0x20\n        /* \"#utility.yul\":10762:10768   */\n      dup3\n        /* \"#utility.yul\":10759:10773   */\n      lt\n        /* \"#utility.yul\":10739:10757   */\n      dup2\n        /* \"#utility.yul\":10736:10774   */\n      sub\n        /* \"#utility.yul\":10733:10817   */\n      tag_246\n      jumpi\n        /* \"#utility.yul\":10789:10807   */\n      tag_247\n      tag_120\n      jump\t// in\n    tag_247:\n        /* \"#utility.yul\":10733:10817   */\n    tag_246:\n        /* \"#utility.yul\":10554:10823   */\n      pop\n        /* \"#utility.yul\":10503:10823   */\n      swap2\n      swap1\n      pop\n      jump\t// out\n        /* \"#utility.yul\":10829:10970   */\n    tag_121:\n        /* \"#utility.yul\":10878:10882   */\n      0x00\n        /* \"#utility.yul\":10901:10904   */\n      dup2\n        /* \"#utility.yul\":10893:10904   */\n      swap1\n      pop\n        /* \"#utility.yul\":10924:10927   */\n      dup2\n        /* \"#utility.yul\":10921:10922   */\n      0x00\n        /* \"#utility.yul\":10914:10928   */\n      mstore\n        /* \"#utility.yul\":10958:10962   */\n      0x20\n        /* \"#utility.yul\":10955:10956   */\n      0x00\n        /* \"#utility.yul\":10945:10963   */\n      keccak256\n        /* \"#utility.yul\":10937:10963   */\n      swap1\n      pop\n        /* \"#utility.yul\":10829:10970   */\n      swap2\n      swap1\n      pop\n      jump\t// out\n        /* \"#utility.yul\":10976:11069   */\n    tag_122:\n        /* \"#utility.yul\":11013:11019   */\n      0x00\n        /* \"#utility.yul\":11060:11062   */\n      0x20\n        /* \"#utility.yul\":11055:11057   */\n      0x1f\n        /* \"#utility.yul\":11048:11053   */\n      dup4\n        /* \"#utility.yul\":11044:11058   */\n      add\n        /* \"#utility.yul\":11040:11063   */\n      div\n        /* \"#utility.yul\":11030:11063   */\n      swap1\n      pop\n        /* \"#utility.yul\":10976:11069   */\n      swap2\n      swap1\n      pop\n      jump\t// out\n        /* \"#utility.yul\":11075:11182   */\n    tag_123:\n        /* \"#utility.yul\":11119:11127   */\n      0x00\n        /* \"#utility.yul\":11169:11174   */\n      dup3\n        /* \"#utility.yul\":11163:11167   */\n      dup3\n        /* \"#utility.yul\":11159:11175   */\n      shl\n        /* \"#utility.yul\":11138:11175   */\n      swap1\n      pop\n        /* \"#utility.yul\":11075:11182   */\n      swap3\n      swap2\n      pop\n      pop\n      jump\t// out\n        /* \"#utility.yul\":11188:11581   */\n    tag_124:\n        /* \"#utility.yul\":11257:11263   */\n      0x00\n        /* \"#utility.yul\":11307:11308   */\n      0x08\n        /* \"#utility.yul\":11295:11305   */\n      dup4\n        /* \"#utility.yul\":11291:11309   */\n      mul\n        /* \"#utility.yul\":11330:11427   */\n      tag_252\n        /* \"#utility.yul\":11360:11426   */\n      0xffffffffffffffffffffffffffffffffffffffffffffffffffffffffffffffff\n        /* \"#utility.yul\":11349:11358   */\n      dup3\n        /* \"#utility.yul\":11330:11427   */\n      tag_123\n      jump\t// in\n    tag_252:\n        /* \"#utility.yul\":11448:11487   */\n      tag_253\n        /* \"#utility.yul\":11478:11486   */\n      dup7\n        /* \"#utility.yul\":11467:11476   */\n      dup4\n        /* \"#utility.yul\":11448:11487   */\n      tag_123\n      jump\t// in\n    tag_253:\n        /* \"#utility.yul\":11436:11487   */\n      swap6\n      pop\n        /* \"#utility.yul\":11520:11524   */\n      dup1\n        /* \"#utility.yul\":11516:11525   */\n      not\n        /* \"#utility.yul\":11509:11514   */\n      dup5\n        /* \"#utility.yul\":11505:11526   */\n      and\n        /* \"#utility.yul\":11496:11526   */\n      swap4\n      pop\n        /* \"#utility.yul\":11569:11573   */\n      dup1\n        /* \"#utility.yul\":11559:11567   */\n      dup7\n        /* \"#utility.yul\":11555:11574   */\n      and\n        /* \"#utility.yul\":11548:11553   */\n      dup5\n        /* \"#utility.yul\":11545:11575   */\n      or\n        /* \"#utility.yul\":11535:11575   */\n      swap3\n      pop\n        /* \"#utility.yul\":11264:11581   */\n      pop\n      pop\n        /* \"#utility.yul\":11188:11581   */\n      swap4\n      swap3\n      pop\n      pop\n      pop\n      jump\t// out\n        /* \"#utility.yul\":11587:11647   */\n    tag_125:\n        /* \"#utility.yul\":11615:11618   */\n      0x00\n        /* \"#utility.yul\":11636:11641   */\n      dup2\n        /* \"#utility.yul\":11629:11641   */\n      swap1\n      pop\n        /* \"#utility.yul\":11587:11647   */\n      swap2\n      swap1\n      pop\n      jump\t// out\n        /* \"#utility.yul\":11653:11795   */\n    tag_126:\n        /* \"#utility.yul\":11703:11712   */\n      0x00\n        /* \"#utility.yul\":11736:11789   */\n      tag_256\n        /* \"#utility.yul\":11754:11788   */\n      tag_257\n        /* \"#utility.yul\":11763:11787   */\n      tag_258\n        /* \"#utility.yul\":11781:11786   */\n      dup5\n        /* \"#utility.yul\":11763:11787   */\n      tag_94\n      jump\t// in\n    tag_258:\n        /* \"#utility.yul\":11754:11788   */\n      tag_125\n      jump\t// in\n    tag_257:\n        /* \"#utility.yul\":11736:11789   */\n      tag_94\n      jump\t// in\n    tag_256:\n        /* \"#utility.yul\":11723:11789   */\n      swap1\n      pop\n        /* \"#utility.yul\":11653:11795   */\n      swap2\n      swap1\n      pop\n      jump\t// out\n        /* \"#utility.yul\":11801:11876   */\n    tag_127:\n        /* \"#utility.yul\":11844:11847   */\n      0x00\n        /* \"#utility.yul\":11865:11870   */\n      dup2\n        /* \"#utility.yul\":11858:11870   */\n      swap1\n      pop\n        /* \"#utility.yul\":11801:11876   */\n      swap2\n      swap1\n      pop\n      jump\t// out\n        /* \"#utility.yul\":11882:12151   */\n    tag_128:\n        /* \"#utility.yul\":11992:12031   */\n      tag_261\n        /* \"#utility.yul\":12023:12030   */\n      dup4\n        /* \"#utility.yul\":11992:12031   */\n      tag_126\n      jump\t// in\n    tag_261:\n        /* \"#utility.yul\":12053:12144   */\n      tag_262\n        /* \"#utility.yul\":12102:12143   */\n      tag_263\n        /* \"#utility.yul\":12126:12142   */\n      dup3\n        /* \"#utility.yul\":12102:12143   */\n      tag_127\n      jump\t// in\n    tag_263:\n        /* \"#utility.yul\":12094:12100   */\n      dup5\n        /* \"#utility.yul\":12087:12091   */\n      dup5\n        /* \"#utility.yul\":12081:12092   */\n      sload\n        /* \"#utility.yul\":12053:12144   */\n      tag_124\n      jump\t// in\n    tag_262:\n        /* \"#utility.yul\":12047:12051   */\n      dup3\n        /* \"#utility.yul\":12040:12145   */\n      sstore\n        /* \"#utility.yul\":11958:12151   */\n      pop\n        /* \"#utility.yul\":11882:12151   */\n      pop\n      pop\n      pop\n      jump\t// out\n        /* \"#utility.yul\":12157:12230   */\n    tag_129:\n        /* \"#utility.yul\":12202:12205   */\n      0x00\n        /* \"#utility.yul\":12157:12230   */\n      swap1\n      jump\t// out\n        /* \"#utility.yul\":12236:12425   */\n    tag_130:\n        /* \"#utility.yul\":12313:12345   */\n      tag_266\n      tag_129\n      jump\t// in\n    tag_266:\n        /* \"#utility.yul\":12354:12419   */\n      tag_267\n        /* \"#utility.yul\":12412:12418   */\n      dup2\n        /* \"#utility.yul\":12404:12410   */\n      dup5\n        /* \"#utility.yul\":12398:12402   */\n      dup5\n        /* \"#utility.yul\":12354:12419   */\n      tag_128\n      jump\t// in\n    tag_267:\n        /* \"#utility.yul\":12289:12425   */\n      pop\n        /* \"#utility.yul\":12236:12425   */\n      pop\n      pop\n      jump\t// out\n        /* \"#utility.yul\":12431:12617   */\n    tag_131:\n        /* \"#utility.yul\":12491:12611   */\n    tag_269:\n        /* \"#utility.yul\":12508:12511   */\n      dup2\n        /* \"#utility.yul\":12501:12506   */\n      dup2\n        /* \"#utility.yul\":12498:12512   */\n      lt\n        /* \"#utility.yul\":12491:12611   */\n      iszero\n      tag_271\n      jumpi\n        /* \"#utility.yul\":12562:12601   */\n      tag_272\n        /* \"#utility.yul\":12599:12600   */\n      0x00\n        /* \"#utility.yul\":12592:12597   */\n      dup3\n        /* \"#utility.yul\":12562:12601   */\n      tag_130\n      jump\t// in\n    tag_272:\n        /* \"#utility.yul\":12535:12536   */\n      0x01\n        /* \"#utility.yul\":12528:12533   */\n      dup2\n        /* \"#utility.yul\":12524:12537   */\n      add\n        /* \"#utility.yul\":12515:12537   */\n      swap1\n      pop\n        /* \"#utility.yul\":12491:12611   */\n      jump(tag_269)\n    tag_271:\n        /* \"#utility.yul\":12431:12617   */\n      pop\n      pop\n      jump\t// out\n        /* \"#utility.yul\":12623:13166   */\n    tag_132:\n        /* \"#utility.yul\":12724:12726   */\n      0x1f\n        /* \"#utility.yul\":12719:12722   */\n      dup3\n        /* \"#utility.yul\":12716:12727   */\n      gt\n        /* \"#utility.yul\":12713:13159   */\n      iszero\n      tag_274\n      jumpi\n        /* \"#utility.yul\":12758:12796   */\n      tag_275\n        /* \"#utility.yul\":12790:12795   */\n      dup2\n        /* \"#utility.yul\":12758:12796   */\n      tag_121\n      jump\t// in\n    tag_275:\n        /* \"#utility.yul\":12842:12871   */\n      tag_276\n        /* \"#utility.yul\":12860:12870   */\n      dup5\n        /* \"#utility.yul\":12842:12871   */\n      tag_122\n      jump\t// in\n    tag_276:\n        /* \"#utility.yul\":12832:12840   */\n      dup2\n        /* \"#utility.yul\":12828:12872   */\n      add\n        /* \"#utility.yul\":13025:13027   */\n      0x20\n        /* \"#utility.yul\":13013:13023   */\n      dup6\n        /* \"#utility.yul\":13010:13028   */\n      lt\n        /* \"#utility.yul\":13007:13056   */\n      iszero\n      tag_277\n      jumpi\n        /* \"#utility.yul\":13046:13054   */\n      dup2\n        /* \"#utility.yul\":13031:13054   */\n      swap1\n      pop\n        /* \"#utility.yul\":13007:13056   */\n    tag_277:\n        /* \"#utility.yul\":13069:13149   */\n      tag_278\n        /* \"#utility.yul\":13125:13147   */\n      tag_279\n        /* \"#utility.yul\":13143:13146   */\n      dup6\n        /* \"#utility.yul\":13125:13147   */\n      tag_122\n      jump\t// in\n    tag_279:\n        /* \"#utility.yul\":13115:13123   */\n      dup4\n        /* \"#utility.yul\":13111:13148   */\n      add\n        /* \"#utility.yul\":13098:13109   */\n      dup3\n        /* \"#utility.yul\":13069:13149   */\n      tag_131\n      jump\t// in\n    tag_278:\n        /* \"#utility.yul\":12728:13159   */\n      pop\n      pop\n        /* \"#utility.yul\":12713:13159   */\n    tag_274:\n        /* \"#utility.yul\":12623:13166   */\n      pop\n      pop\n      pop\n      jump\t// out\n        /* \"#utility.yul\":13172:13289   */\n    tag_133:\n        /* \"#utility.yul\":13226:13234   */\n      0x00\n        /* \"#utility.yul\":13276:13281   */\n      dup3\n        /* \"#utility.yul\":13270:13274   */\n      dup3\n        /* \"#utility.yul\":13266:13282   */\n      shr\n        /* \"#utility.yul\":13245:13282   */\n      swap1\n      pop\n        /* \"#utility.yul\":13172:13289   */\n      swap3\n      swap2\n      pop\n      pop\n      jump\t// out\n        /* \"#utility.yul\":13295:13464   */\n    tag_134:\n        /* \"#utility.yul\":13339:13345   */\n      0x00\n        /* \"#utility.yul\":13372:13423   */\n      tag_282\n        /* \"#utility.yul\":13420:13421   */\n      0x00\n        /* \"#utility.yul\":13416:13422   */\n      not\n        /* \"#utility.yul\":13408:13413   */\n      dup5\n        /* \"#utility.yul\":13405:13406   */\n      0x08\n        /* \"#utility.yul\":13401:13414   */\n      mul\n        /* \"#utility.yul\":13372:13423   */\n      tag_133\n      jump\t// in\n    tag_282:\n        /* \"#utility.yul\":13368:13424   */\n      not\n        /* \"#utility.yul\":13453:13457   */\n      dup1\n        /* \"#utility.yul\":13447:13451   */\n      dup4\n        /* \"#utility.yul\":13443:13458   */\n      and\n        /* \"#utility.yul\":13433:13458   */\n      swap2\n      pop\n        /* \"#utility.yul\":13346:13464   */\n      pop\n        /* \"#utility.yul\":13295:13464   */\n      swap3\n      swap2\n      pop\n      pop\n      jump\t// out\n        /* \"#utility.yul\":13469:13764   */\n    tag_135:\n        /* \"#utility.yul\":13545:13549   */\n      0x00\n        /* \"#utility.yul\":13691:13720   */\n      tag_284\n        /* \"#utility.yul\":13716:13719   */\n      dup4\n        /* \"#utility.yul\":13710:13714   */\n      dup4\n        /* \"#utility.yul\":13691:13720   */\n      tag_134\n      jump\t// in\n    tag_284:\n        /* \"#utility.yul\":13683:13720   */\n      swap2\n      pop\n        /* \"#utility.yul\":13753:13756   */\n      dup3\n        /* \"#utility.yul\":13750:13751   */\n      0x02\n        /* \"#utility.yul\":13746:13757   */\n      mul\n        /* \"#utility.yul\":13740:13744   */\n      dup3\n        /* \"#utility.yul\":13737:13758   */\n      or\n        /* \"#utility.yul\":13729:13758   */\n      swap1\n      pop\n        /* \"#utility.yul\":13469:13764   */\n      swap3\n      swap2\n      pop\n      pop\n      jump\t// out\n        /* \"#utility.yul\":13769:15164   */\n    tag_36:\n        /* \"#utility.yul\":13886:13923   */\n      tag_286\n        /* \"#utility.yul\":13919:13922   */\n      dup3\n        /* \"#utility.yul\":13886:13923   */\n      tag_111\n      jump\t// in\n    tag_286:\n        /* \"#utility.yul\":13988:14006   */\n      0xffffffffffffffff\n        /* \"#utility.yul\":13980:13986   */\n      dup2\n        /* \"#utility.yul\":13977:14007   */\n      gt\n        /* \"#utility.yul\":13974:14030   */\n      iszero\n      tag_287\n      jumpi\n        /* \"#utility.yul\":14010:14028   */\n      tag_288\n      tag_100\n      jump\t// in\n    tag_288:\n        /* \"#utility.yul\":13974:14030   */\n    tag_287:\n        /* \"#utility.yul\":14054:14092   */\n      tag_289\n        /* \"#utility.yul\":14086:14090   */\n      dup3\n        /* \"#utility.yul\":14080:14091   */\n      sload\n        /* \"#utility.yul\":14054:14092   */\n      tag_40\n      jump\t// in\n    tag_289:\n        /* \"#utility.yul\":14139:14206   */\n      tag_290\n        /* \"#utility.yul\":14199:14205   */\n      dup3\n        /* \"#utility.yul\":14191:14197   */\n      dup3\n        /* \"#utility.yul\":14185:14189   */\n      dup6\n        /* \"#utility.yul\":14139:14206   */\n      tag_132\n      jump\t// in\n    tag_290:\n        /* \"#utility.yul\":14233:14234   */\n      0x00\n        /* \"#utility.yul\":14257:14261   */\n      0x20\n        /* \"#utility.yul\":14244:14261   */\n      swap1\n      pop\n        /* \"#utility.yul\":14289:14291   */\n      0x1f\n        /* \"#utility.yul\":14281:14287   */\n      dup4\n        /* \"#utility.yul\":14278:14292   */\n      gt\n        /* \"#utility.yul\":14306:14307   */\n      0x01\n        /* \"#utility.yul\":14301:14919   */\n      dup2\n      eq\n      tag_292\n      jumpi\n        /* \"#utility.yul\":14963:14964   */\n      0x00\n        /* \"#utility.yul\":14980:14986   */\n      dup5\n        /* \"#utility.yul\":14977:15054   */\n      iszero\n      tag_293\n      jumpi\n        /* \"#utility.yul\":15029:15038   */\n      dup3\n        /* \"#utility.yul\":15024:15027   */\n      dup8\n        /* \"#utility.yul\":15020:15039   */\n      add\n        /* \"#utility.yul\":15014:15040   */\n      mload\n        /* \"#utility.yul\":15005:15040   */\n      swap1\n      pop\n        /* \"#utility.yul\":14977:15054   */\n    tag_293:\n        /* \"#utility.yul\":15080:15147   */\n      tag_294\n        /* \"#utility.yul\":15140:15146   */\n      dup6\n        /* \"#utility.yul\":15133:15138   */\n      dup3\n        /* \"#utility.yul\":15080:15147   */\n      tag_135\n      jump\t// in\n    tag_294:\n        /* \"#utility.yul\":15074:15078   */\n      dup7\n        /* \"#utility.yul\":15067:15148   */\n      sstore\n        /* \"#utility.yul\":14936:15158   */\n      pop\n        /* \"#utility.yul\":14271:15158   */\n      jump(tag_291)\n        /* \"#utility.yul\":14301:14919   */\n    tag_292:\n        /* \"#utility.yul\":14353:14357   */\n      0x1f\n        /* \"#utility.yul\":14349:14358   */\n      not\n        /* \"#utility.yul\":14341:14347   */\n      dup5\n        /* \"#utility.yul\":14337:14359   */\n      and\n        /* \"#utility.yul\":14387:14424   */\n      tag_295\n        /* \"#utility.yul\":14419:14423   */\n      dup7\n        /* \"#utility.yul\":14387:14424   */\n      tag_121\n      jump\t// in\n    tag_295:\n        /* \"#utility.yul\":14446:14447   */\n      0x00\n        /* \"#utility.yul\":14460:14668   */\n    tag_296:\n        /* \"#utility.yul\":14474:14481   */\n      dup3\n        /* \"#utility.yul\":14471:14472   */\n      dup2\n        /* \"#utility.yul\":14468:14482   */\n      lt\n        /* \"#utility.yul\":14460:14668   */\n      iszero\n      tag_298\n      jumpi\n        /* \"#utility.yul\":14553:14562   */\n      dup5\n        /* \"#utility.yul\":14548:14551   */\n      dup10\n        /* \"#utility.yul\":14544:14563   */\n      add\n        /* \"#utility.yul\":14538:14564   */\n      mload\n        /* \"#utility.yul\":14530:14536   */\n      dup3\n        /* \"#utility.yul\":14523:14565   */\n      sstore\n        /* \"#utility.yul\":14604:14605   */\n      0x01\n        /* \"#utility.yul\":14596:14602   */\n      dup3\n        /* \"#utility.yul\":14592:14606   */\n      add\n        /* \"#utility.yul\":14582:14606   */\n      swap2\n      pop\n        /* \"#utility.yul\":14651:14653   */\n      0x20\n        /* \"#utility.yul\":14640:14649   */\n      dup6\n        /* \"#utility.yul\":14636:14654   */\n      add\n        /* \"#utility.yul\":14623:14654   */\n      swap5\n      pop\n        /* \"#utility.yul\":14497:14501   */\n      0x20\n        /* \"#utility.yul\":14494:14495   */\n      dup2\n        /* \"#utility.yul\":14490:14502   */\n      add\n        /* \"#utility.yul\":14485:14502   */\n      swap1\n      pop\n        /* \"#utility.yul\":14460:14668   */\n      jump(tag_296)\n    tag_298:\n        /* \"#utility.yul\":14696:14702   */\n      dup7\n        /* \"#utility.yul\":14687:14694   */\n      dup4\n        /* \"#utility.yul\":14684:14703   */\n      lt\n        /* \"#utility.yul\":14681:14860   */\n      iszero\n      tag_299\n      jumpi\n        /* \"#utility.yul\":14754:14763   */\n      dup5\n        /* \"#utility.yul\":14749:14752   */\n      dup10\n        /* \"#utility.yul\":14745:14764   */\n      add\n        /* \"#utility.yul\":14739:14765   */\n      mload\n        /* \"#utility.yul\":14797:14845   */\n      tag_300\n        /* \"#utility.yul\":14839:14843   */\n      0x1f\n        /* \"#utility.yul\":14831:14837   */\n      dup10\n        /* \"#utility.yul\":14827:14844   */\n      and\n        /* \"#utility.yul\":14816:14825   */\n      dup3\n        /* \"#utility.yul\":14797:14845   */\n      tag_134\n      jump\t// in\n    tag_300:\n        /* \"#utility.yul\":14789:14795   */\n      dup4\n        /* \"#utility.yul\":14782:14846   */\n      sstore\n        /* \"#utility.yul\":14704:14860   */\n      pop\n        /* \"#utility.yul\":14681:14860   */\n    tag_299:\n        /* \"#utility.yul\":14906:14907   */\n      0x01\n        /* \"#utility.yul\":14902:14903   */\n      0x02\n        /* \"#utility.yul\":14894:14900   */\n      dup9\n        /* \"#utility.yul\":14890:14904   */\n      mul\n        /* \"#utility.yul\":14886:14908   */\n      add\n        /* \"#utility.yul\":14880:14884   */\n      dup9\n        /* \"#utility.yul\":14873:14909   */\n      sstore\n        /* \"#utility.yul\":14308:14919   */\n      pop\n      pop\n      pop\n        /* \"#utility.yul\":14271:15158   */\n    tag_291:\n      pop\n        /* \"#utility.yul\":13861:15164   */\n      pop\n      pop\n      pop\n        /* \"#utility.yul\":13769:15164   */\n      pop\n      pop\n      jump\t// out\n        /* \"#utility.yul\":15170:15350   */\n    tag_136:\n        /* \"#utility.yul\":15218:15295   */\n      0x4e487b7100000000000000000000000000000000000000000000000000000000\n        /* \"#utility.yul\":15215:15216   */\n      0x00\n        /* \"#utility.yul\":15208:15296   */\n      mstore\n        /* \"#utility.yul\":15315:15319   */\n      0x11\n        /* \"#utility.yul\":15312:15313   */\n      0x04\n        /* \"#utility.yul\":15305:15320   */\n      mstore\n        /* \"#utility.yul\":15339:15343   */\n      0x24\n        /* \"#utility.yul\":15336:15337   */\n      0x00\n        /* \"#utility.yul\":15329:15344   */\n      revert\n        /* \"#utility.yul\":15356:15547   */\n    tag_72:\n        /* \"#utility.yul\":15396:15399   */\n      0x00\n        /* \"#utility.yul\":15415:15435   */\n      tag_303\n        /* \"#utility.yul\":15433:15434   */\n      dup3\n        /* \"#utility.yul\":15415:15435   */\n      tag_94\n      jump\t// in\n    tag_303:\n        /* \"#utility.yul\":15410:15435   */\n      swap2\n      pop\n        /* \"#utility.yul\":15449:15469   */\n      tag_304\n        /* \"#utility.yul\":15467:15468   */\n      dup4\n        /* \"#utility.yul\":15449:15469   */\n      tag_94\n      jump\t// in\n    tag_304:\n        /* \"#utility.yul\":15444:15469   */\n      swap3\n      pop\n        /* \"#utility.yul\":15492:15493   */\n      dup3\n        /* \"#utility.yul\":15489:15490   */\n      dup3\n        /* \"#utility.yul\":15485:15494   */\n      add\n        /* \"#utility.yul\":15478:15494   */\n      swap1\n      pop\n        /* \"#utility.yul\":15513:15516   */\n      dup1\n        /* \"#utility.yul\":15510:15511   */\n      dup3\n        /* \"#utility.yul\":15507:15517   */\n      gt\n        /* \"#utility.yul\":15504:15540   */\n      iszero\n      tag_305\n      jumpi\n        /* \"#utility.yul\":15520:15538   */\n      tag_306\n      tag_136\n      jump\t// in\n    tag_306:\n        /* \"#utility.yul\":15504:15540   */\n    tag_305:\n        /* \"#utility.yul\":15356:15547   */\n      swap3\n      swap2\n      pop\n      pop\n      jump\t// out\n\n    auxdata: 0xa2646970667358221220706e5775f0787b2888285919f2602228f83dc938c1b14d2e165608a5038c874564736f6c63430008120033\n}\n",
				"bytecode": {
					"linkReferences": {},
					"object": "608060405234801561001057600080fd5b506110c7806100206000396000f3fe608060405234801561001057600080fd5b50600436106100575760003560e01c80631841e7e91461005c578063360500cc146100785780633e36bf67146100ab578063820d0934146100de578063ca9cfa341461010e575b600080fd5b6100766004803603810190610071919061099a565b61013e565b005b610092600480360381019061008d9190610ac7565b610205565b6040516100a29493929190610b82565b60405180910390f35b6100c560048036038101906100c09190610bdc565b6103cd565b6040516100d59493929190610b82565b60405180910390f35b6100f860048036038101906100f39190610c1c565b6105a2565b6040516101059190610c49565b60405180910390f35b61012860048036038101906101239190610c1c565b6105b8565b6040516101359190610d2e565b60405180910390f35b6040518060800160405280858152602001848152602001838152602001828152506001600087815260200190815260200160002060003373ffffffffffffffffffffffffffffffffffffffff1673ffffffffffffffffffffffffffffffffffffffff16815260200190815260200160002060008201518160000190816101c49190610f5c565b506020820151816001015560408201518160020190816101e49190610f5c565b5060608201518160030190816101fa9190610f5c565b509050505050505050565b600060205280600052604060002060009150905080600001805461022890610d7f565b80601f016020809104026020016040519081016040528092919081815260200182805461025490610d7f565b80156102a15780601f10610276576101008083540402835291602001916102a1565b820191906000526020600020905b81548152906001019060200180831161028457829003601f168201915b5050505050908060010154908060020180546102bc90610d7f565b80601f01602080910402602001604051908101604052809291908181526020018280546102e890610d7f565b80156103355780601f1061030a57610100808354040283529160200191610335565b820191906000526020600020905b81548152906001019060200180831161031857829003601f168201915b50505050509080600301805461034a90610d7f565b80601f016020809104026020016040519081016040528092919081815260200182805461037690610d7f565b80156103c35780601f10610398576101008083540402835291602001916103c3565b820191906000526020600020905b8154815290600101906020018083116103a657829003601f168201915b5050505050905084565b6001602052816000526040600020602052806000526040600020600091509150508060000180546103fd90610d7f565b80601f016020809104026020016040519081016040528092919081815260200182805461042990610d7f565b80156104765780601f1061044b57610100808354040283529160200191610476565b820191906000526020600020905b81548152906001019060200180831161045957829003601f168201915b50505050509080600101549080600201805461049190610d7f565b80601f01602080910402602001604051908101604052809291908181526020018280546104bd90610d7f565b801561050a5780601f106104df5761010080835404028352916020019161050a565b820191906000526020600020905b8154815290600101906020018083116104ed57829003601f168201915b50505050509080600301805461051f90610d7f565b80601f016020809104026020016040519081016040528092919081815260200182805461054b90610d7f565b80156105985780601f1061056d57610100808354040283529160200191610598565b820191906000526020600020905b81548152906001019060200180831161057b57829003601f168201915b5050505050905084565b60006032826105b1919061105d565b9050919050565b6105c06107e2565b6001600083815260200190815260200160002060003373ffffffffffffffffffffffffffffffffffffffff1673ffffffffffffffffffffffffffffffffffffffff16815260200190815260200160002060405180608001604052908160008201805461062b90610d7f565b80601f016020809104026020016040519081016040528092919081815260200182805461065790610d7f565b80156106a45780601f10610679576101008083540402835291602001916106a4565b820191906000526020600020905b81548152906001019060200180831161068757829003601f168201915b50505050508152602001600182015481526020016002820180546106c790610d7f565b80601f01602080910402602001604051908101604052809291908181526020018280546106f390610d7f565b80156107405780601f1061071557610100808354040283529160200191610740565b820191906000526020600020905b81548152906001019060200180831161072357829003601f168201915b5050505050815260200160038201805461075990610d7f565b80601f016020809104026020016040519081016040528092919081815260200182805461078590610d7f565b80156107d25780601f106107a7576101008083540402835291602001916107d2565b820191906000526020600020905b8154815290600101906020018083116107b557829003601f168201915b5050505050815250509050919050565b6040518060800160405280606081526020016000815260200160608152602001606081525090565b6000604051905090565b600080fd5b600080fd5b6000819050919050565b6108318161081e565b811461083c57600080fd5b50565b60008135905061084e81610828565b92915050565b600080fd5b600080fd5b6000601f19601f8301169050919050565b7f4e487b7100000000000000000000000000000000000000000000000000000000600052604160045260246000fd5b6108a78261085e565b810181811067ffffffffffffffff821117156108c6576108c561086f565b5b80604052505050565b60006108d961080a565b90506108e5828261089e565b919050565b600067ffffffffffffffff8211156109055761090461086f565b5b61090e8261085e565b9050602081019050919050565b82818337600083830152505050565b600061093d610938846108ea565b6108cf565b90508281526020810184848401111561095957610958610859565b5b61096484828561091b565b509392505050565b600082601f83011261098157610980610854565b5b813561099184826020860161092a565b91505092915050565b600080600080600060a086880312156109b6576109b5610814565b5b60006109c48882890161083f565b955050602086013567ffffffffffffffff8111156109e5576109e4610819565b5b6109f18882890161096c565b9450506040610a028882890161083f565b935050606086013567ffffffffffffffff811115610a2357610a22610819565b5b610a2f8882890161096c565b925050608086013567ffffffffffffffff811115610a5057610a4f610819565b5b610a5c8882890161096c565b9150509295509295909350565b600073ffffffffffffffffffffffffffffffffffffffff82169050919050565b6000610a9482610a69565b9050919050565b610aa481610a89565b8114610aaf57600080fd5b50565b600081359050610ac181610a9b565b92915050565b600060208284031215610add57610adc610814565b5b6000610aeb84828501610ab2565b91505092915050565b600081519050919050565b600082825260208201905092915050565b60005b83811015610b2e578082015181840152602081019050610b13565b60008484015250505050565b6000610b4582610af4565b610b4f8185610aff565b9350610b5f818560208601610b10565b610b688161085e565b840191505092915050565b610b7c8161081e565b82525050565b60006080820190508181036000830152610b9c8187610b3a565b9050610bab6020830186610b73565b8181036040830152610bbd8185610b3a565b90508181036060830152610bd18184610b3a565b905095945050505050565b60008060408385031215610bf357610bf2610814565b5b6000610c018582860161083f565b9250506020610c1285828601610ab2565b9150509250929050565b600060208284031215610c3257610c31610814565b5b6000610c408482850161083f565b91505092915050565b6000602082019050610c5e6000830184610b73565b92915050565b600082825260208201905092915050565b6000610c8082610af4565b610c8a8185610c64565b9350610c9a818560208601610b10565b610ca38161085e565b840191505092915050565b610cb78161081e565b82525050565b60006080830160008301518482036000860152610cda8282610c75565b9150506020830151610cef6020860182610cae565b5060408301518482036040860152610d078282610c75565b91505060608301518482036060860152610d218282610c75565b9150508091505092915050565b60006020820190508181036000830152610d488184610cbd565b905092915050565b7f4e487b7100000000000000000000000000000000000000000000000000000000600052602260045260246000fd5b60006002820490506001821680610d9757607f821691505b602082108103610daa57610da9610d50565b5b50919050565b60008190508160005260206000209050919050565b60006020601f8301049050919050565b600082821b905092915050565b600060088302610e127fffffffffffffffffffffffffffffffffffffffffffffffffffffffffffffffff82610dd5565b610e1c8683610dd5565b95508019841693508086168417925050509392505050565b6000819050919050565b6000610e59610e54610e4f8461081e565b610e34565b61081e565b9050919050565b6000819050919050565b610e7383610e3e565b610e87610e7f82610e60565b848454610de2565b825550505050565b600090565b610e9c610e8f565b610ea7818484610e6a565b505050565b5b81811015610ecb57610ec0600082610e94565b600181019050610ead565b5050565b601f821115610f1057610ee181610db0565b610eea84610dc5565b81016020851015610ef9578190505b610f0d610f0585610dc5565b830182610eac565b50505b505050565b600082821c905092915050565b6000610f3360001984600802610f15565b1980831691505092915050565b6000610f4c8383610f22565b9150826002028217905092915050565b610f6582610af4565b67ffffffffffffffff811115610f7e57610f7d61086f565b5b610f888254610d7f565b610f93828285610ecf565b600060209050601f831160018114610fc65760008415610fb4578287015190505b610fbe8582610f40565b865550611026565b601f198416610fd486610db0565b60005b82811015610ffc57848901518255600182019150602085019450602081019050610fd7565b868310156110195784890151611015601f891682610f22565b8355505b6001600288020188555050505b505050505050565b7f4e487b7100000000000000000000000000000000000000000000000000000000600052601160045260246000fd5b60006110688261081e565b91506110738361081e565b925082820190508082111561108b5761108a61102e565b5b9291505056fea2646970667358221220706e5775f0787b2888285919f2602228f83dc938c1b14d2e165608a5038c874564736f6c63430008120033",
					"opcodes": "PUSH1 0x80 PUSH1 0x40 MSTORE CALLVALUE DUP1 ISZERO PUSH2 0x10 JUMPI PUSH1 0x0 DUP1 REVERT JUMPDEST POP PUSH2 0x10C7 DUP1 PUSH2 0x20 PUSH1 0x0 CODECOPY PUSH1 0x0 RETURN INVALID PUSH1 0x80 PUSH1 0x40 MSTORE CALLVALUE DUP1 ISZERO PUSH2 0x10 JUMPI PUSH1 0x0 DUP1 REVERT JUMPDEST POP PUSH1 0x4 CALLDATASIZE LT PUSH2 0x57 JUMPI PUSH1 0x0 CALLDATALOAD PUSH1 0xE0 SHR DUP1 PUSH4 0x1841E7E9 EQ PUSH2 0x5C JUMPI DUP1 PUSH4 0x360500CC EQ PUSH2 0x78 JUMPI DUP1 PUSH4 0x3E36BF67 EQ PUSH2 0xAB JUMPI DUP1 PUSH4 0x820D0934 EQ PUSH2 0xDE JUMPI DUP1 PUSH4 0xCA9CFA34 EQ PUSH2 0x10E JUMPI JUMPDEST PUSH1 0x0 DUP1 REVERT JUMPDEST PUSH2 0x76 PUSH1 0x4 DUP1 CALLDATASIZE SUB DUP2 ADD SWAP1 PUSH2 0x71 SWAP2 SWAP1 PUSH2 0x99A JUMP JUMPDEST PUSH2 0x13E JUMP JUMPDEST STOP JUMPDEST PUSH2 0x92 PUSH1 0x4 DUP1 CALLDATASIZE SUB DUP2 ADD SWAP1 PUSH2 0x8D SWAP2 SWAP1 PUSH2 0xAC7 JUMP JUMPDEST PUSH2 0x205 JUMP JUMPDEST PUSH1 0x40 MLOAD PUSH2 0xA2 SWAP5 SWAP4 SWAP3 SWAP2 SWAP1 PUSH2 0xB82 JUMP JUMPDEST PUSH1 0x40 MLOAD DUP1 SWAP2 SUB SWAP1 RETURN JUMPDEST PUSH2 0xC5 PUSH1 0x4 DUP1 CALLDATASIZE SUB DUP2 ADD SWAP1 PUSH2 0xC0 SWAP2 SWAP1 PUSH2 0xBDC JUMP JUMPDEST PUSH2 0x3CD JUMP JUMPDEST PUSH1 0x40 MLOAD PUSH2 0xD5 SWAP5 SWAP4 SWAP3 SWAP2 SWAP1 PUSH2 0xB82 JUMP JUMPDEST PUSH1 0x40 MLOAD DUP1 SWAP2 SUB SWAP1 RETURN JUMPDEST PUSH2 0xF8 PUSH1 0x4 DUP1 CALLDATASIZE SUB DUP2 ADD SWAP1 PUSH2 0xF3 SWAP2 SWAP1 PUSH2 0xC1C JUMP JUMPDEST PUSH2 0x5A2 JUMP JUMPDEST PUSH1 0x40 MLOAD PUSH2 0x105 SWAP2 SWAP1 PUSH2 0xC49 JUMP JUMPDEST PUSH1 0x40 MLOAD DUP1 SWAP2 SUB SWAP1 RETURN JUMPDEST PUSH2 0x128 PUSH1 0x4 DUP1 CALLDATASIZE SUB DUP2 ADD SWAP1 PUSH2 0x123 SWAP2 SWAP1 PUSH2 0xC1C JUMP JUMPDEST PUSH2 0x5B8 JUMP JUMPDEST PUSH1 0x40 MLOAD PUSH2 0x135 SWAP2 SWAP1 PUSH2 0xD2E JUMP JUMPDEST PUSH1 0x40 MLOAD DUP1 SWAP2 SUB SWAP1 RETURN JUMPDEST PUSH1 0x40 MLOAD DUP1 PUSH1 0x80 ADD PUSH1 0x40 MSTORE DUP1 DUP6 DUP2 MSTORE PUSH1 0x20 ADD DUP5 DUP2 MSTORE PUSH1 0x20 ADD DUP4 DUP2 MSTORE PUSH1 0x20 ADD DUP3 DUP2 MSTORE POP PUSH1 0x1 PUSH1 0x0 DUP8 DUP2 MSTORE PUSH1 0x20 ADD SWAP1 DUP2 MSTORE PUSH1 0x20 ADD PUSH1 0x0 KECCAK256 PUSH1 0x0 CALLER PUSH20 0xFFFFFFFFFFFFFFFFFFFFFFFFFFFFFFFFFFFFFFFF AND PUSH20 0xFFFFFFFFFFFFFFFFFFFFFFFFFFFFFFFFFFFFFFFF AND DUP2 MSTORE PUSH1 0x20 ADD SWAP1 DUP2 MSTORE PUSH1 0x20 ADD PUSH1 0x0 KECCAK256 PUSH1 0x0 DUP3 ADD MLOAD DUP2 PUSH1 0x0 ADD SWAP1 DUP2 PUSH2 0x1C4 SWAP2 SWAP1 PUSH2 0xF5C JUMP JUMPDEST POP PUSH1 0x20 DUP3 ADD MLOAD DUP2 PUSH1 0x1 ADD SSTORE PUSH1 0x40 DUP3 ADD MLOAD DUP2 PUSH1 0x2 ADD SWAP1 DUP2 PUSH2 0x1E4 SWAP2 SWAP1 PUSH2 0xF5C JUMP JUMPDEST POP PUSH1 0x60 DUP3 ADD MLOAD DUP2 PUSH1 0x3 ADD SWAP1 DUP2 PUSH2 0x1FA SWAP2 SWAP1 PUSH2 0xF5C JUMP JUMPDEST POP SWAP1 POP POP POP POP POP POP POP JUMP JUMPDEST PUSH1 0x0 PUSH1 0x20 MSTORE DUP1 PUSH1 0x0 MSTORE PUSH1 0x40 PUSH1 0x0 KECCAK256 PUSH1 0x0 SWAP2 POP SWAP1 POP DUP1 PUSH1 0x0 ADD DUP1 SLOAD PUSH2 0x228 SWAP1 PUSH2 0xD7F JUMP JUMPDEST DUP1 PUSH1 0x1F ADD PUSH1 0x20 DUP1 SWAP2 DIV MUL PUSH1 0x20 ADD PUSH1 0x40 MLOAD SWAP1 DUP2 ADD PUSH1 0x40 MSTORE DUP1 SWAP3 SWAP2 SWAP1 DUP2 DUP2 MSTORE PUSH1 0x20 ADD DUP3 DUP1 SLOAD PUSH2 0x254 SWAP1 PUSH2 0xD7F JUMP JUMPDEST DUP1 ISZERO PUSH2 0x2A1 JUMPI DUP1 PUSH1 0x1F LT PUSH2 0x276 JUMPI PUSH2 0x100 DUP1 DUP4 SLOAD DIV MUL DUP4 MSTORE SWAP2 PUSH1 0x20 ADD SWAP2 PUSH2 0x2A1 JUMP JUMPDEST DUP3 ADD SWAP2 SWAP1 PUSH1 0x0 MSTORE PUSH1 0x20 PUSH1 0x0 KECCAK256 SWAP1 JUMPDEST DUP2 SLOAD DUP2 MSTORE SWAP1 PUSH1 0x1 ADD SWAP1 PUSH1 0x20 ADD DUP1 DUP4 GT PUSH2 0x284 JUMPI DUP3 SWAP1 SUB PUSH1 0x1F AND DUP3 ADD SWAP2 JUMPDEST POP POP POP POP POP SWAP1 DUP1 PUSH1 0x1 ADD SLOAD SWAP1 DUP1 PUSH1 0x2 ADD DUP1 SLOAD PUSH2 0x2BC SWAP1 PUSH2 0xD7F JUMP JUMPDEST DUP1 PUSH1 0x1F ADD PUSH1 0x20 DUP1 SWAP2 DIV MUL PUSH1 0x20 ADD PUSH1 0x40 MLOAD SWAP1 DUP2 ADD PUSH1 0x40 MSTORE DUP1 SWAP3 SWAP2 SWAP1 DUP2 DUP2 MSTORE PUSH1 0x20 ADD DUP3 DUP1 SLOAD PUSH2 0x2E8 SWAP1 PUSH2 0xD7F JUMP JUMPDEST DUP1 ISZERO PUSH2 0x335 JUMPI DUP1 PUSH1 0x1F LT PUSH2 0x30A JUMPI PUSH2 0x100 DUP1 DUP4 SLOAD DIV MUL DUP4 MSTORE SWAP2 PUSH1 0x20 ADD SWAP2 PUSH2 0x335 JUMP JUMPDEST DUP3 ADD SWAP2 SWAP1 PUSH1 0x0 MSTORE PUSH1 0x20 PUSH1 0x0 KECCAK256 SWAP1 JUMPDEST DUP2 SLOAD DUP2 MSTORE SWAP1 PUSH1 0x1 ADD SWAP1 PUSH1 0x20 ADD DUP1 DUP4 GT PUSH2 0x318 JUMPI DUP3 SWAP1 SUB PUSH1 0x1F AND DUP3 ADD SWAP2 JUMPDEST POP POP POP POP POP SWAP1 DUP1 PUSH1 0x3 ADD DUP1 SLOAD PUSH2 0x34A SWAP1 PUSH2 0xD7F JUMP JUMPDEST DUP1 PUSH1 0x1F ADD PUSH1 0x20 DUP1 SWAP2 DIV MUL PUSH1 0x20 ADD PUSH1 0x40 MLOAD SWAP1 DUP2 ADD PUSH1 0x40 MSTORE DUP1 SWAP3 SWAP2 SWAP1 DUP2 DUP2 MSTORE PUSH1 0x20 ADD DUP3 DUP1 SLOAD PUSH2 0x376 SWAP1 PUSH2 0xD7F JUMP JUMPDEST DUP1 ISZERO PUSH2 0x3C3 JUMPI DUP1 PUSH1 0x1F LT PUSH2 0x398 JUMPI PUSH2 0x100 DUP1 DUP4 SLOAD DIV MUL DUP4 MSTORE SWAP2 PUSH1 0x20 ADD SWAP2 PUSH2 0x3C3 JUMP JUMPDEST DUP3 ADD SWAP2 SWAP1 PUSH1 0x0 MSTORE PUSH1 0x20 PUSH1 0x0 KECCAK256 SWAP1 JUMPDEST DUP2 SLOAD DUP2 MSTORE SWAP1 PUSH1 0x1 ADD SWAP1 PUSH1 0x20 ADD DUP1 DUP4 GT PUSH2 0x3A6 JUMPI DUP3 SWAP1 SUB PUSH1 0x1F AND DUP3 ADD SWAP2 JUMPDEST POP POP POP POP POP SWAP1 POP DUP5 JUMP JUMPDEST PUSH1 0x1 PUSH1 0x20 MSTORE DUP2 PUSH1 0x0 MSTORE PUSH1 0x40 PUSH1 0x0 KECCAK256 PUSH1 0x20 MSTORE DUP1 PUSH1 0x0 MSTORE PUSH1 0x40 PUSH1 0x0 KECCAK256 PUSH1 0x0 SWAP2 POP SWAP2 POP POP DUP1 PUSH1 0x0 ADD DUP1 SLOAD PUSH2 0x3FD SWAP1 PUSH2 0xD7F JUMP JUMPDEST DUP1 PUSH1 0x1F ADD PUSH1 0x20 DUP1 SWAP2 DIV MUL PUSH1 0x20 ADD PUSH1 0x40 MLOAD SWAP1 DUP2 ADD PUSH1 0x40 MSTORE DUP1 SWAP3 SWAP2 SWAP1 DUP2 DUP2 MSTORE PUSH1 0x20 ADD DUP3 DUP1 SLOAD PUSH2 0x429 SWAP1 PUSH2 0xD7F JUMP JUMPDEST DUP1 ISZERO PUSH2 0x476 JUMPI DUP1 PUSH1 0x1F LT PUSH2 0x44B JUMPI PUSH2 0x100 DUP1 DUP4 SLOAD DIV MUL DUP4 MSTORE SWAP2 PUSH1 0x20 ADD SWAP2 PUSH2 0x476 JUMP JUMPDEST DUP3 ADD SWAP2 SWAP1 PUSH1 0x0 MSTORE PUSH1 0x20 PUSH1 0x0 KECCAK256 SWAP1 JUMPDEST DUP2 SLOAD DUP2 MSTORE SWAP1 PUSH1 0x1 ADD SWAP1 PUSH1 0x20 ADD DUP1 DUP4 GT PUSH2 0x459 JUMPI DUP3 SWAP1 SUB PUSH1 0x1F AND DUP3 ADD SWAP2 JUMPDEST POP POP POP POP POP SWAP1 DUP1 PUSH1 0x1 ADD SLOAD SWAP1 DUP1 PUSH1 0x2 ADD DUP1 SLOAD PUSH2 0x491 SWAP1 PUSH2 0xD7F JUMP JUMPDEST DUP1 PUSH1 0x1F ADD PUSH1 0x20 DUP1 SWAP2 DIV MUL PUSH1 0x20 ADD PUSH1 0x40 MLOAD SWAP1 DUP2 ADD PUSH1 0x40 MSTORE DUP1 SWAP3 SWAP2 SWAP1 DUP2 DUP2 MSTORE PUSH1 0x20 ADD DUP3 DUP1 SLOAD PUSH2 0x4BD SWAP1 PUSH2 0xD7F JUMP JUMPDEST DUP1 ISZERO PUSH2 0x50A JUMPI DUP1 PUSH1 0x1F LT PUSH2 0x4DF JUMPI PUSH2 0x100 DUP1 DUP4 SLOAD DIV MUL DUP4 MSTORE SWAP2 PUSH1 0x20 ADD SWAP2 PUSH2 0x50A JUMP JUMPDEST DUP3 ADD SWAP2 SWAP1 PUSH1 0x0 MSTORE PUSH1 0x20 PUSH1 0x0 KECCAK256 SWAP1 JUMPDEST DUP2 SLOAD DUP2 MSTORE SWAP1 PUSH1 0x1 ADD SWAP1 PUSH1 0x20 ADD DUP1 DUP4 GT PUSH2 0x4ED JUMPI DUP3 SWAP1 SUB PUSH1 0x1F AND DUP3 ADD SWAP2 JUMPDEST POP POP POP POP POP SWAP1 DUP1 PUSH1 0x3 ADD DUP1 SLOAD PUSH2 0x51F SWAP1 PUSH2 0xD7F JUMP JUMPDEST DUP1 PUSH1 0x1F ADD PUSH1 0x20 DUP1 SWAP2 DIV MUL PUSH1 0x20 ADD PUSH1 0x40 MLOAD SWAP1 DUP2 ADD PUSH1 0x40 MSTORE DUP1 SWAP3 SWAP2 SWAP1 DUP2 DUP2 MSTORE PUSH1 0x20 ADD DUP3 DUP1 SLOAD PUSH2 0x54B SWAP1 PUSH2 0xD7F JUMP JUMPDEST DUP1 ISZERO PUSH2 0x598 JUMPI DUP1 PUSH1 0x1F LT PUSH2 0x56D JUMPI PUSH2 0x100 DUP1 DUP4 SLOAD DIV MUL DUP4 MSTORE SWAP2 PUSH1 0x20 ADD SWAP2 PUSH2 0x598 JUMP JUMPDEST DUP3 ADD SWAP2 SWAP1 PUSH1 0x0 MSTORE PUSH1 0x20 PUSH1 0x0 KECCAK256 SWAP1 JUMPDEST DUP2 SLOAD DUP2 MSTORE SWAP1 PUSH1 0x1 ADD SWAP1 PUSH1 0x20 ADD DUP1 DUP4 GT PUSH2 0x57B JUMPI DUP3 SWAP1 SUB PUSH1 0x1F AND DUP3 ADD SWAP2 JUMPDEST POP POP POP POP POP SWAP1 POP DUP5 JUMP JUMPDEST PUSH1 0x0 PUSH1 0x32 DUP3 PUSH2 0x5B1 SWAP2 SWAP1 PUSH2 0x105D JUMP JUMPDEST SWAP1 POP SWAP2 SWAP1 POP JUMP JUMPDEST PUSH2 0x5C0 PUSH2 0x7E2 JUMP JUMPDEST PUSH1 0x1 PUSH1 0x0 DUP4 DUP2 MSTORE PUSH1 0x20 ADD SWAP1 DUP2 MSTORE PUSH1 0x20 ADD PUSH1 0x0 KECCAK256 PUSH1 0x0 CALLER PUSH20 0xFFFFFFFFFFFFFFFFFFFFFFFFFFFFFFFFFFFFFFFF AND PUSH20 0xFFFFFFFFFFFFFFFFFFFFFFFFFFFFFFFFFFFFFFFF AND DUP2 MSTORE PUSH1 0x20 ADD SWAP1 DUP2 MSTORE PUSH1 0x20 ADD PUSH1 0x0 KECCAK256 PUSH1 0x40 MLOAD DUP1 PUSH1 0x80 ADD PUSH1 0x40 MSTORE SWAP1 DUP2 PUSH1 0x0 DUP3 ADD DUP1 SLOAD PUSH2 0x62B SWAP1 PUSH2 0xD7F JUMP JUMPDEST DUP1 PUSH1 0x1F ADD PUSH1 0x20 DUP1 SWAP2 DIV MUL PUSH1 0x20 ADD PUSH1 0x40 MLOAD SWAP1 DUP2 ADD PUSH1 0x40 MSTORE DUP1 SWAP3 SWAP2 SWAP1 DUP2 DUP2 MSTORE PUSH1 0x20 ADD DUP3 DUP1 SLOAD PUSH2 0x657 SWAP1 PUSH2 0xD7F JUMP JUMPDEST DUP1 ISZERO PUSH2 0x6A4 JUMPI DUP1 PUSH1 0x1F LT PUSH2 0x679 JUMPI PUSH2 0x100 DUP1 DUP4 SLOAD DIV MUL DUP4 MSTORE SWAP2 PUSH1 0x20 ADD SWAP2 PUSH2 0x6A4 JUMP JUMPDEST DUP3 ADD SWAP2 SWAP1 PUSH1 0x0 MSTORE PUSH1 0x20 PUSH1 0x0 KECCAK256 SWAP1 JUMPDEST DUP2 SLOAD DUP2 MSTORE SWAP1 PUSH1 0x1 ADD SWAP1 PUSH1 0x20 ADD DUP1 DUP4 GT PUSH2 0x687 JUMPI DUP3 SWAP1 SUB PUSH1 0x1F AND DUP3 ADD SWAP2 JUMPDEST POP POP POP POP POP DUP2 MSTORE PUSH1 0x20 ADD PUSH1 0x1 DUP3 ADD SLOAD DUP2 MSTORE PUSH1 0x20 ADD PUSH1 0x2 DUP3 ADD DUP1 SLOAD PUSH2 0x6C7 SWAP1 PUSH2 0xD7F JUMP JUMPDEST DUP1 PUSH1 0x1F ADD PUSH1 0x20 DUP1 SWAP2 DIV MUL PUSH1 0x20 ADD PUSH1 0x40 MLOAD SWAP1 DUP2 ADD PUSH1 0x40 MSTORE DUP1 SWAP3 SWAP2 SWAP1 DUP2 DUP2 MSTORE PUSH1 0x20 ADD DUP3 DUP1 SLOAD PUSH2 0x6F3 SWAP1 PUSH2 0xD7F JUMP JUMPDEST DUP1 ISZERO PUSH2 0x740 JUMPI DUP1 PUSH1 0x1F LT PUSH2 0x715 JUMPI PUSH2 0x100 DUP1 DUP4 SLOAD DIV MUL DUP4 MSTORE SWAP2 PUSH1 0x20 ADD SWAP2 PUSH2 0x740 JUMP JUMPDEST DUP3 ADD SWAP2 SWAP1 PUSH1 0x0 MSTORE PUSH1 0x20 PUSH1 0x0 KECCAK256 SWAP1 JUMPDEST DUP2 SLOAD DUP2 MSTORE SWAP1 PUSH1 0x1 ADD SWAP1 PUSH1 0x20 ADD DUP1 DUP4 GT PUSH2 0x723 JUMPI DUP3 SWAP1 SUB PUSH1 0x1F AND DUP3 ADD SWAP2 JUMPDEST POP POP POP POP POP DUP2 MSTORE PUSH1 0x20 ADD PUSH1 0x3 DUP3 ADD DUP1 SLOAD PUSH2 0x759 SWAP1 PUSH2 0xD7F JUMP JUMPDEST DUP1 PUSH1 0x1F ADD PUSH1 0x20 DUP1 SWAP2 DIV MUL PUSH1 0x20 ADD PUSH1 0x40 MLOAD SWAP1 DUP2 ADD PUSH1 0x40 MSTORE DUP1 SWAP3 SWAP2 SWAP1 DUP2 DUP2 MSTORE PUSH1 0x20 ADD DUP3 DUP1 SLOAD PUSH2 0x785 SWAP1 PUSH2 0xD7F JUMP JUMPDEST DUP1 ISZERO PUSH2 0x7D2 JUMPI DUP1 PUSH1 0x1F LT PUSH2 0x7A7 JUMPI PUSH2 0x100 DUP1 DUP4 SLOAD DIV MUL DUP4 MSTORE SWAP2 PUSH1 0x20 ADD SWAP2 PUSH2 0x7D2 JUMP JUMPDEST DUP3 ADD SWAP2 SWAP1 PUSH1 0x0 MSTORE PUSH1 0x20 PUSH1 0x0 KECCAK256 SWAP1 JUMPDEST DUP2 SLOAD DUP2 MSTORE SWAP1 PUSH1 0x1 ADD SWAP1 PUSH1 0x20 ADD DUP1 DUP4 GT PUSH2 0x7B5 JUMPI DUP3 SWAP1 SUB PUSH1 0x1F AND DUP3 ADD SWAP2 JUMPDEST POP POP POP POP POP DUP2 MSTORE POP POP SWAP1 POP SWAP2 SWAP1 POP JUMP JUMPDEST PUSH1 0x40 MLOAD DUP1 PUSH1 0x80 ADD PUSH1 0x40 MSTORE DUP1 PUSH1 0x60 DUP2 MSTORE PUSH1 0x20 ADD PUSH1 0x0 DUP2 MSTORE PUSH1 0x20 ADD PUSH1 0x60 DUP2 MSTORE PUSH1 0x20 ADD PUSH1 0x60 DUP2 MSTORE POP SWAP1 JUMP JUMPDEST PUSH1 0x0 PUSH1 0x40 MLOAD SWAP1 POP SWAP1 JUMP JUMPDEST PUSH1 0x0 DUP1 REVERT JUMPDEST PUSH1 0x0 DUP1 REVERT JUMPDEST PUSH1 0x0 DUP2 SWAP1 POP SWAP2 SWAP1 POP JUMP JUMPDEST PUSH2 0x831 DUP2 PUSH2 0x81E JUMP JUMPDEST DUP2 EQ PUSH2 0x83C JUMPI PUSH1 0x0 DUP1 REVERT JUMPDEST POP JUMP JUMPDEST PUSH1 0x0 DUP2 CALLDATALOAD SWAP1 POP PUSH2 0x84E DUP2 PUSH2 0x828 JUMP JUMPDEST SWAP3 SWAP2 POP POP JUMP JUMPDEST PUSH1 0x0 DUP1 REVERT JUMPDEST PUSH1 0x0 DUP1 REVERT JUMPDEST PUSH1 0x0 PUSH1 0x1F NOT PUSH1 0x1F DUP4 ADD AND SWAP1 POP SWAP2 SWAP1 POP JUMP JUMPDEST PUSH32 0x4E487B7100000000000000000000000000000000000000000000000000000000 PUSH1 0x0 MSTORE PUSH1 0x41 PUSH1 0x4 MSTORE PUSH1 0x24 PUSH1 0x0 REVERT JUMPDEST PUSH2 0x8A7 DUP3 PUSH2 0x85E JUMP JUMPDEST DUP2 ADD DUP2 DUP2 LT PUSH8 0xFFFFFFFFFFFFFFFF DUP3 GT OR ISZERO PUSH2 0x8C6 JUMPI PUSH2 0x8C5 PUSH2 0x86F JUMP JUMPDEST JUMPDEST DUP1 PUSH1 0x40 MSTORE POP POP POP JUMP JUMPDEST PUSH1 0x0 PUSH2 0x8D9 PUSH2 0x80A JUMP JUMPDEST SWAP1 POP PUSH2 0x8E5 DUP3 DUP3 PUSH2 0x89E JUMP JUMPDEST SWAP2 SWAP1 POP JUMP JUMPDEST PUSH1 0x0 PUSH8 0xFFFFFFFFFFFFFFFF DUP3 GT ISZERO PUSH2 0x905 JUMPI PUSH2 0x904 PUSH2 0x86F JUMP JUMPDEST JUMPDEST PUSH2 0x90E DUP3 PUSH2 0x85E JUMP JUMPDEST SWAP1 POP PUSH1 0x20 DUP2 ADD SWAP1 POP SWAP2 SWAP1 POP JUMP JUMPDEST DUP3 DUP2 DUP4 CALLDATACOPY PUSH1 0x0 DUP4 DUP4 ADD MSTORE POP POP POP JUMP JUMPDEST PUSH1 0x0 PUSH2 0x93D PUSH2 0x938 DUP5 PUSH2 0x8EA JUMP JUMPDEST PUSH2 0x8CF JUMP JUMPDEST SWAP1 POP DUP3 DUP2 MSTORE PUSH1 0x20 DUP2 ADD DUP5 DUP5 DUP5 ADD GT ISZERO PUSH2 0x959 JUMPI PUSH2 0x958 PUSH2 0x859 JUMP JUMPDEST JUMPDEST PUSH2 0x964 DUP5 DUP3 DUP6 PUSH2 0x91B JUMP JUMPDEST POP SWAP4 SWAP3 POP POP POP JUMP JUMPDEST PUSH1 0x0 DUP3 PUSH1 0x1F DUP4 ADD SLT PUSH2 0x981 JUMPI PUSH2 0x980 PUSH2 0x854 JUMP JUMPDEST JUMPDEST DUP2 CALLDATALOAD PUSH2 0x991 DUP5 DUP3 PUSH1 0x20 DUP7 ADD PUSH2 0x92A JUMP JUMPDEST SWAP2 POP POP SWAP3 SWAP2 POP POP JUMP JUMPDEST PUSH1 0x0 DUP1 PUSH1 0x0 DUP1 PUSH1 0x0 PUSH1 0xA0 DUP7 DUP9 SUB SLT ISZERO PUSH2 0x9B6 JUMPI PUSH2 0x9B5 PUSH2 0x814 JUMP JUMPDEST JUMPDEST PUSH1 0x0 PUSH2 0x9C4 DUP9 DUP3 DUP10 ADD PUSH2 0x83F JUMP JUMPDEST SWAP6 POP POP PUSH1 0x20 DUP7 ADD CALLDATALOAD PUSH8 0xFFFFFFFFFFFFFFFF DUP2 GT ISZERO PUSH2 0x9E5 JUMPI PUSH2 0x9E4 PUSH2 0x819 JUMP JUMPDEST JUMPDEST PUSH2 0x9F1 DUP9 DUP3 DUP10 ADD PUSH2 0x96C JUMP JUMPDEST SWAP5 POP POP PUSH1 0x40 PUSH2 0xA02 DUP9 DUP3 DUP10 ADD PUSH2 0x83F JUMP JUMPDEST SWAP4 POP POP PUSH1 0x60 DUP7 ADD CALLDATALOAD PUSH8 0xFFFFFFFFFFFFFFFF DUP2 GT ISZERO PUSH2 0xA23 JUMPI PUSH2 0xA22 PUSH2 0x819 JUMP JUMPDEST JUMPDEST PUSH2 0xA2F DUP9 DUP3 DUP10 ADD PUSH2 0x96C JUMP JUMPDEST SWAP3 POP POP PUSH1 0x80 DUP7 ADD CALLDATALOAD PUSH8 0xFFFFFFFFFFFFFFFF DUP2 GT ISZERO PUSH2 0xA50 JUMPI PUSH2 0xA4F PUSH2 0x819 JUMP JUMPDEST JUMPDEST PUSH2 0xA5C DUP9 DUP3 DUP10 ADD PUSH2 0x96C JUMP JUMPDEST SWAP2 POP POP SWAP3 SWAP6 POP SWAP3 SWAP6 SWAP1 SWAP4 POP JUMP JUMPDEST PUSH1 0x0 PUSH20 0xFFFFFFFFFFFFFFFFFFFFFFFFFFFFFFFFFFFFFFFF DUP3 AND SWAP1 POP SWAP2 SWAP1 POP JUMP JUMPDEST PUSH1 0x0 PUSH2 0xA94 DUP3 PUSH2 0xA69 JUMP JUMPDEST SWAP1 POP SWAP2 SWAP1 POP JUMP JUMPDEST PUSH2 0xAA4 DUP2 PUSH2 0xA89 JUMP JUMPDEST DUP2 EQ PUSH2 0xAAF JUMPI PUSH1 0x0 DUP1 REVERT JUMPDEST POP JUMP JUMPDEST PUSH1 0x0 DUP2 CALLDATALOAD SWAP1 POP PUSH2 0xAC1 DUP2 PUSH2 0xA9B JUMP JUMPDEST SWAP3 SWAP2 POP POP JUMP JUMPDEST PUSH1 0x0 PUSH1 0x20 DUP3 DUP5 SUB SLT ISZERO PUSH2 0xADD JUMPI PUSH2 0xADC PUSH2 0x814 JUMP JUMPDEST JUMPDEST PUSH1 0x0 PUSH2 0xAEB DUP5 DUP3 DUP6 ADD PUSH2 0xAB2 JUMP JUMPDEST SWAP2 POP POP SWAP3 SWAP2 POP POP JUMP JUMPDEST PUSH1 0x0 DUP2 MLOAD SWAP1 POP SWAP2 SWAP1 POP JUMP JUMPDEST PUSH1 0x0 DUP3 DUP3 MSTORE PUSH1 0x20 DUP3 ADD SWAP1 POP SWAP3 SWAP2 POP POP JUMP JUMPDEST PUSH1 0x0 JUMPDEST DUP4 DUP2 LT ISZERO PUSH2 0xB2E JUMPI DUP1 DUP3 ADD MLOAD DUP2 DUP5 ADD MSTORE PUSH1 0x20 DUP2 ADD SWAP1 POP PUSH2 0xB13 JUMP JUMPDEST PUSH1 0x0 DUP5 DUP5 ADD MSTORE POP POP POP POP JUMP JUMPDEST PUSH1 0x0 PUSH2 0xB45 DUP3 PUSH2 0xAF4 JUMP JUMPDEST PUSH2 0xB4F DUP2 DUP6 PUSH2 0xAFF JUMP JUMPDEST SWAP4 POP PUSH2 0xB5F DUP2 DUP6 PUSH1 0x20 DUP7 ADD PUSH2 0xB10 JUMP JUMPDEST PUSH2 0xB68 DUP2 PUSH2 0x85E JUMP JUMPDEST DUP5 ADD SWAP2 POP POP SWAP3 SWAP2 POP POP JUMP JUMPDEST PUSH2 0xB7C DUP2 PUSH2 0x81E JUMP JUMPDEST DUP3 MSTORE POP POP JUMP JUMPDEST PUSH1 0x0 PUSH1 0x80 DUP3 ADD SWAP1 POP DUP2 DUP2 SUB PUSH1 0x0 DUP4 ADD MSTORE PUSH2 0xB9C DUP2 DUP8 PUSH2 0xB3A JUMP JUMPDEST SWAP1 POP PUSH2 0xBAB PUSH1 0x20 DUP4 ADD DUP7 PUSH2 0xB73 JUMP JUMPDEST DUP2 DUP2 SUB PUSH1 0x40 DUP4 ADD MSTORE PUSH2 0xBBD DUP2 DUP6 PUSH2 0xB3A JUMP JUMPDEST SWAP1 POP DUP2 DUP2 SUB PUSH1 0x60 DUP4 ADD MSTORE PUSH2 0xBD1 DUP2 DUP5 PUSH2 0xB3A JUMP JUMPDEST SWAP1 POP SWAP6 SWAP5 POP POP POP POP POP JUMP JUMPDEST PUSH1 0x0 DUP1 PUSH1 0x40 DUP4 DUP6 SUB SLT ISZERO PUSH2 0xBF3 JUMPI PUSH2 0xBF2 PUSH2 0x814 JUMP JUMPDEST JUMPDEST PUSH1 0x0 PUSH2 0xC01 DUP6 DUP3 DUP7 ADD PUSH2 0x83F JUMP JUMPDEST SWAP3 POP POP PUSH1 0x20 PUSH2 0xC12 DUP6 DUP3 DUP7 ADD PUSH2 0xAB2 JUMP JUMPDEST SWAP2 POP POP SWAP3 POP SWAP3 SWAP1 POP JUMP JUMPDEST PUSH1 0x0 PUSH1 0x20 DUP3 DUP5 SUB SLT ISZERO PUSH2 0xC32 JUMPI PUSH2 0xC31 PUSH2 0x814 JUMP JUMPDEST JUMPDEST PUSH1 0x0 PUSH2 0xC40 DUP5 DUP3 DUP6 ADD PUSH2 0x83F JUMP JUMPDEST SWAP2 POP POP SWAP3 SWAP2 POP POP JUMP JUMPDEST PUSH1 0x0 PUSH1 0x20 DUP3 ADD SWAP1 POP PUSH2 0xC5E PUSH1 0x0 DUP4 ADD DUP5 PUSH2 0xB73 JUMP JUMPDEST SWAP3 SWAP2 POP POP JUMP JUMPDEST PUSH1 0x0 DUP3 DUP3 MSTORE PUSH1 0x20 DUP3 ADD SWAP1 POP SWAP3 SWAP2 POP POP JUMP JUMPDEST PUSH1 0x0 PUSH2 0xC80 DUP3 PUSH2 0xAF4 JUMP JUMPDEST PUSH2 0xC8A DUP2 DUP6 PUSH2 0xC64 JUMP JUMPDEST SWAP4 POP PUSH2 0xC9A DUP2 DUP6 PUSH1 0x20 DUP7 ADD PUSH2 0xB10 JUMP JUMPDEST PUSH2 0xCA3 DUP2 PUSH2 0x85E JUMP JUMPDEST DUP5 ADD SWAP2 POP POP SWAP3 SWAP2 POP POP JUMP JUMPDEST PUSH2 0xCB7 DUP2 PUSH2 0x81E JUMP JUMPDEST DUP3 MSTORE POP POP JUMP JUMPDEST PUSH1 0x0 PUSH1 0x80 DUP4 ADD PUSH1 0x0 DUP4 ADD MLOAD DUP5 DUP3 SUB PUSH1 0x0 DUP7 ADD MSTORE PUSH2 0xCDA DUP3 DUP3 PUSH2 0xC75 JUMP JUMPDEST SWAP2 POP POP PUSH1 0x20 DUP4 ADD MLOAD PUSH2 0xCEF PUSH1 0x20 DUP7 ADD DUP3 PUSH2 0xCAE JUMP JUMPDEST POP PUSH1 0x40 DUP4 ADD MLOAD DUP5 DUP3 SUB PUSH1 0x40 DUP7 ADD MSTORE PUSH2 0xD07 DUP3 DUP3 PUSH2 0xC75 JUMP JUMPDEST SWAP2 POP POP PUSH1 0x60 DUP4 ADD MLOAD DUP5 DUP3 SUB PUSH1 0x60 DUP7 ADD MSTORE PUSH2 0xD21 DUP3 DUP3 PUSH2 0xC75 JUMP JUMPDEST SWAP2 POP POP DUP1 SWAP2 POP POP SWAP3 SWAP2 POP POP JUMP JUMPDEST PUSH1 0x0 PUSH1 0x20 DUP3 ADD SWAP1 POP DUP2 DUP2 SUB PUSH1 0x0 DUP4 ADD MSTORE PUSH2 0xD48 DUP2 DUP5 PUSH2 0xCBD JUMP JUMPDEST SWAP1 POP SWAP3 SWAP2 POP POP JUMP JUMPDEST PUSH32 0x4E487B7100000000000000000000000000000000000000000000000000000000 PUSH1 0x0 MSTORE PUSH1 0x22 PUSH1 0x4 MSTORE PUSH1 0x24 PUSH1 0x0 REVERT JUMPDEST PUSH1 0x0 PUSH1 0x2 DUP3 DIV SWAP1 POP PUSH1 0x1 DUP3 AND DUP1 PUSH2 0xD97 JUMPI PUSH1 0x7F DUP3 AND SWAP2 POP JUMPDEST PUSH1 0x20 DUP3 LT DUP2 SUB PUSH2 0xDAA JUMPI PUSH2 0xDA9 PUSH2 0xD50 JUMP JUMPDEST JUMPDEST POP SWAP2 SWAP1 POP JUMP JUMPDEST PUSH1 0x0 DUP2 SWAP1 POP DUP2 PUSH1 0x0 MSTORE PUSH1 0x20 PUSH1 0x0 KECCAK256 SWAP1 POP SWAP2 SWAP1 POP JUMP JUMPDEST PUSH1 0x0 PUSH1 0x20 PUSH1 0x1F DUP4 ADD DIV SWAP1 POP SWAP2 SWAP1 POP JUMP JUMPDEST PUSH1 0x0 DUP3 DUP3 SHL SWAP1 POP SWAP3 SWAP2 POP POP JUMP JUMPDEST PUSH1 0x0 PUSH1 0x8 DUP4 MUL PUSH2 0xE12 PUSH32 0xFFFFFFFFFFFFFFFFFFFFFFFFFFFFFFFFFFFFFFFFFFFFFFFFFFFFFFFFFFFFFFFF DUP3 PUSH2 0xDD5 JUMP JUMPDEST PUSH2 0xE1C DUP7 DUP4 PUSH2 0xDD5 JUMP JUMPDEST SWAP6 POP DUP1 NOT DUP5 AND SWAP4 POP DUP1 DUP7 AND DUP5 OR SWAP3 POP POP POP SWAP4 SWAP3 POP POP POP JUMP JUMPDEST PUSH1 0x0 DUP2 SWAP1 POP SWAP2 SWAP1 POP JUMP JUMPDEST PUSH1 0x0 PUSH2 0xE59 PUSH2 0xE54 PUSH2 0xE4F DUP5 PUSH2 0x81E JUMP JUMPDEST PUSH2 0xE34 JUMP JUMPDEST PUSH2 0x81E JUMP JUMPDEST SWAP1 POP SWAP2 SWAP1 POP JUMP JUMPDEST PUSH1 0x0 DUP2 SWAP1 POP SWAP2 SWAP1 POP JUMP JUMPDEST PUSH2 0xE73 DUP4 PUSH2 0xE3E JUMP JUMPDEST PUSH2 0xE87 PUSH2 0xE7F DUP3 PUSH2 0xE60 JUMP JUMPDEST DUP5 DUP5 SLOAD PUSH2 0xDE2 JUMP JUMPDEST DUP3 SSTORE POP POP POP POP JUMP JUMPDEST PUSH1 0x0 SWAP1 JUMP JUMPDEST PUSH2 0xE9C PUSH2 0xE8F JUMP JUMPDEST PUSH2 0xEA7 DUP2 DUP5 DUP5 PUSH2 0xE6A JUMP JUMPDEST POP POP POP JUMP JUMPDEST JUMPDEST DUP2 DUP2 LT ISZERO PUSH2 0xECB JUMPI PUSH2 0xEC0 PUSH1 0x0 DUP3 PUSH2 0xE94 JUMP JUMPDEST PUSH1 0x1 DUP2 ADD SWAP1 POP PUSH2 0xEAD JUMP JUMPDEST POP POP JUMP JUMPDEST PUSH1 0x1F DUP3 GT ISZERO PUSH2 0xF10 JUMPI PUSH2 0xEE1 DUP2 PUSH2 0xDB0 JUMP JUMPDEST PUSH2 0xEEA DUP5 PUSH2 0xDC5 JUMP JUMPDEST DUP2 ADD PUSH1 0x20 DUP6 LT ISZERO PUSH2 0xEF9 JUMPI DUP2 SWAP1 POP JUMPDEST PUSH2 0xF0D PUSH2 0xF05 DUP6 PUSH2 0xDC5 JUMP JUMPDEST DUP4 ADD DUP3 PUSH2 0xEAC JUMP JUMPDEST POP POP JUMPDEST POP POP POP JUMP JUMPDEST PUSH1 0x0 DUP3 DUP3 SHR SWAP1 POP SWAP3 SWAP2 POP POP JUMP JUMPDEST PUSH1 0x0 PUSH2 0xF33 PUSH1 0x0 NOT DUP5 PUSH1 0x8 MUL PUSH2 0xF15 JUMP JUMPDEST NOT DUP1 DUP4 AND SWAP2 POP POP SWAP3 SWAP2 POP POP JUMP JUMPDEST PUSH1 0x0 PUSH2 0xF4C DUP4 DUP4 PUSH2 0xF22 JUMP JUMPDEST SWAP2 POP DUP3 PUSH1 0x2 MUL DUP3 OR SWAP1 POP SWAP3 SWAP2 POP POP JUMP JUMPDEST PUSH2 0xF65 DUP3 PUSH2 0xAF4 JUMP JUMPDEST PUSH8 0xFFFFFFFFFFFFFFFF DUP2 GT ISZERO PUSH2 0xF7E JUMPI PUSH2 0xF7D PUSH2 0x86F JUMP JUMPDEST JUMPDEST PUSH2 0xF88 DUP3 SLOAD PUSH2 0xD7F JUMP JUMPDEST PUSH2 0xF93 DUP3 DUP3 DUP6 PUSH2 0xECF JUMP JUMPDEST PUSH1 0x0 PUSH1 0x20 SWAP1 POP PUSH1 0x1F DUP4 GT PUSH1 0x1 DUP2 EQ PUSH2 0xFC6 JUMPI PUSH1 0x0 DUP5 ISZERO PUSH2 0xFB4 JUMPI DUP3 DUP8 ADD MLOAD SWAP1 POP JUMPDEST PUSH2 0xFBE DUP6 DUP3 PUSH2 0xF40 JUMP JUMPDEST DUP7 SSTORE POP PUSH2 0x1026 JUMP JUMPDEST PUSH1 0x1F NOT DUP5 AND PUSH2 0xFD4 DUP7 PUSH2 0xDB0 JUMP JUMPDEST PUSH1 0x0 JUMPDEST DUP3 DUP2 LT ISZERO PUSH2 0xFFC JUMPI DUP5 DUP10 ADD MLOAD DUP3 SSTORE PUSH1 0x1 DUP3 ADD SWAP2 POP PUSH1 0x20 DUP6 ADD SWAP5 POP PUSH1 0x20 DUP2 ADD SWAP1 POP PUSH2 0xFD7 JUMP JUMPDEST DUP7 DUP4 LT ISZERO PUSH2 0x1019 JUMPI DUP5 DUP10 ADD MLOAD PUSH2 0x1015 PUSH1 0x1F DUP10 AND DUP3 PUSH2 0xF22 JUMP JUMPDEST DUP4 SSTORE POP JUMPDEST PUSH1 0x1 PUSH1 0x2 DUP9 MUL ADD DUP9 SSTORE POP POP POP JUMPDEST POP POP POP POP POP POP JUMP JUMPDEST PUSH32 0x4E487B7100000000000000000000000000000000000000000000000000000000 PUSH1 0x0 MSTORE PUSH1 0x11 PUSH1 0x4 MSTORE PUSH1 0x24 PUSH1 0x0 REVERT JUMPDEST PUSH1 0x0 PUSH2 0x1068 DUP3 PUSH2 0x81E JUMP JUMPDEST SWAP2 POP PUSH2 0x1073 DUP4 PUSH2 0x81E JUMP JUMPDEST SWAP3 POP DUP3 DUP3 ADD SWAP1 POP DUP1 DUP3 GT ISZERO PUSH2 0x108B JUMPI PUSH2 0x108A PUSH2 0x102E JUMP JUMPDEST JUMPDEST SWAP3 SWAP2 POP POP JUMP INVALID LOG2 PUSH5 0x6970667358 0x22 SLT KECCAK256 PUSH17 0x6E5775F0787B2888285919F2602228F83D 0xC9 CODESIZE 0xC1 0xB1 0x4D 0x2E AND JUMP ADDMOD 0xA5 SUB DUP13 DUP8 GASLIMIT PUSH5 0x736F6C6343 STOP ADDMOD SLT STOP CALLER "
				},
				"gasEstimates": {
					"creation": {
						"codeDepositCost": "859000",
						"executionCost": "896",
						"totalCost": "859896"
					},
					"external": {
						"addValues(uint256)": "infinite",
						"allUsers(uint256,address)": "infinite",
						"getUserdata(uint256)": "infinite",
						"setUersdata(uint256,string,uint256,string,string)": "infinite",
						"userAddress(address)": "infinite"
					}
				},
				"methodIdentifiers": {
					"addValues(uint256)": "820d0934",
					"allUsers(uint256,address)": "3e36bf67",
					"getUserdata(uint256)": "ca9cfa34",
					"setUersdata(uint256,string,uint256,string,string)": "1841e7e9",
					"userAddress(address)": "360500cc"
				}
			},
			"storageLayout": {
				"storage": [
					{
						"astId": 15,
						"contract": "contracts/Mappingtest.sol:Mappingtest",
						"label": "userAddress",
						"offset": 0,
						"slot": "0",
						"type": "t_mapping(t_address,t_struct(Accounts)10_storage)"
					},
					{
						"astId": 22,
						"contract": "contracts/Mappingtest.sol:Mappingtest",
						"label": "allUsers",
						"offset": 0,
						"slot": "1",
						"type": "t_mapping(t_uint256,t_mapping(t_address,t_struct(Accounts)10_storage))"
					}
				],
				"types": {
					"t_address": {
						"encoding": "inplace",
						"label": "address",
						"numberOfBytes": "20"
					},
					"t_mapping(t_address,t_struct(Accounts)10_storage)": {
						"encoding": "mapping",
						"key": "t_address",
						"label": "mapping(address => struct Mappingtest.Accounts)",
						"numberOfBytes": "32",
						"value": "t_struct(Accounts)10_storage"
					},
					"t_mapping(t_uint256,t_mapping(t_address,t_struct(Accounts)10_storage))": {
						"encoding": "mapping",
						"key": "t_uint256",
						"label": "mapping(uint256 => mapping(address => struct Mappingtest.Accounts))",
						"numberOfBytes": "32",
						"value": "t_mapping(t_address,t_struct(Accounts)10_storage)"
					},
					"t_string_storage": {
						"encoding": "bytes",
						"label": "string",
						"numberOfBytes": "32"
					},
					"t_struct(Accounts)10_storage": {
						"encoding": "inplace",
						"label": "struct Mappingtest.Accounts",
						"members": [
							{
								"astId": 3,
								"contract": "contracts/Mappingtest.sol:Mappingtest",
								"label": "UName",
								"offset": 0,
								"slot": "0",
								"type": "t_string_storage"
							},
							{
								"astId": 5,
								"contract": "contracts/Mappingtest.sol:Mappingtest",
								"label": "UBalance",
								"offset": 0,
								"slot": "1",
								"type": "t_uint256"
							},
							{
								"astId": 7,
								"contract": "contracts/Mappingtest.sol:Mappingtest",
								"label": "UPhone",
								"offset": 0,
								"slot": "2",
								"type": "t_string_storage"
							},
							{
								"astId": 9,
								"contract": "contracts/Mappingtest.sol:Mappingtest",
								"label": "Ucurrency",
								"offset": 0,
								"slot": "3",
								"type": "t_string_storage"
							}
						],
						"numberOfBytes": "128"
					},
					"t_uint256": {
						"encoding": "inplace",
						"label": "uint256",
						"numberOfBytes": "32"
					}
				}
			},
			"userdoc": {
				"kind": "user",
				"methods": {},
				"version": 1
			}
		}
	}
}