{
	"contracts/Addvalues.sol": {
		"Addvalues": {
			"abi": [
				{
					"inputs": [
						{
							"internalType": "uint256",
							"name": "TheNum",
							"type": "uint256"
						}
					],
					"name": "FindNum",
					"outputs": [
						{
							"internalType": "bool",
							"name": "",
							"type": "bool"
						}
					],
					"stateMutability": "view",
					"type": "function"
				},
				{
					"inputs": [],
					"name": "TryRequire",
					"outputs": [
						{
							"internalType": "uint256",
							"name": "",
							"type": "uint256"
						}
					],
					"stateMutability": "view",
					"type": "function"
				},
				{
					"inputs": [],
					"name": "doorsNum",
					"outputs": [
						{
							"internalType": "uint256",
							"name": "",
							"type": "uint256"
						}
					],
					"stateMutability": "view",
					"type": "function"
				},
				{
					"inputs": [],
					"name": "getDoorsCount",
					"outputs": [
						{
							"internalType": "uint256",
							"name": "",
							"type": "uint256"
						}
					],
					"stateMutability": "pure",
					"type": "function"
				},
				{
					"inputs": [],
					"name": "setDoorsCount",
					"outputs": [
						{
							"internalType": "uint256",
							"name": "",
							"type": "uint256"
						}
					],
					"stateMutability": "nonpayable",
					"type": "function"
				}
			],
			"devdoc": {
				"kind": "dev",
				"methods": {},
				"version": 1
			},
			"evm": {
				"assembly": "    /* \"contracts/Addvalues.sol\":74:912  contract Addvalues {... */\n  mstore(0x40, 0x80)\n    /* \"contracts/Addvalues.sol\":130:132  10 */\n  0x0a\n    /* \"contracts/Addvalues.sol\":106:132  uint256 public doorsNum=10 */\n  0x00\n  sstore\n    /* \"contracts/Addvalues.sol\":139:174  uint256 [] Salaries=[1,2,3,4,5,6,7] */\n  mload(0x40)\n  dup1\n  0xe0\n  add\n  0x40\n  mstore\n  dup1\n    /* \"contracts/Addvalues.sol\":160:161  1 */\n  0x01\n    /* \"contracts/Addvalues.sol\":139:174  uint256 [] Salaries=[1,2,3,4,5,6,7] */\n  0xff\n  and\n  dup2\n  mstore\n  0x20\n  add\n    /* \"contracts/Addvalues.sol\":162:163  2 */\n  0x02\n    /* \"contracts/Addvalues.sol\":139:174  uint256 [] Salaries=[1,2,3,4,5,6,7] */\n  0xff\n  and\n  dup2\n  mstore\n  0x20\n  add\n    /* \"contracts/Addvalues.sol\":164:165  3 */\n  0x03\n    /* \"contracts/Addvalues.sol\":139:174  uint256 [] Salaries=[1,2,3,4,5,6,7] */\n  0xff\n  and\n  dup2\n  mstore\n  0x20\n  add\n    /* \"contracts/Addvalues.sol\":166:167  4 */\n  0x04\n    /* \"contracts/Addvalues.sol\":139:174  uint256 [] Salaries=[1,2,3,4,5,6,7] */\n  0xff\n  and\n  dup2\n  mstore\n  0x20\n  add\n    /* \"contracts/Addvalues.sol\":168:169  5 */\n  0x05\n    /* \"contracts/Addvalues.sol\":139:174  uint256 [] Salaries=[1,2,3,4,5,6,7] */\n  0xff\n  and\n  dup2\n  mstore\n  0x20\n  add\n    /* \"contracts/Addvalues.sol\":170:171  6 */\n  0x06\n    /* \"contracts/Addvalues.sol\":139:174  uint256 [] Salaries=[1,2,3,4,5,6,7] */\n  0xff\n  and\n  dup2\n  mstore\n  0x20\n  add\n    /* \"contracts/Addvalues.sol\":172:173  7 */\n  0x07\n    /* \"contracts/Addvalues.sol\":139:174  uint256 [] Salaries=[1,2,3,4,5,6,7] */\n  0xff\n  and\n  dup2\n  mstore\n  pop\n  0x01\n  swap1\n  0x07\n  tag_1\n  swap3\n  swap2\n  swap1\n  tag_2\n  jump\t// in\ntag_1:\n  pop\n    /* \"contracts/Addvalues.sol\":74:912  contract Addvalues {... */\n  callvalue\n  dup1\n  iszero\n  tag_3\n  jumpi\n  0x00\n  dup1\n  revert\ntag_3:\n  pop\n  jump(tag_4)\ntag_2:\n  dup3\n  dup1\n  sload\n  dup3\n  dup3\n  sstore\n  swap1\n  0x00\n  mstore\n  keccak256(0x00, 0x20)\n  swap1\n  dup2\n  add\n  swap3\n  dup3\n  iszero\n  tag_5\n  jumpi\n  swap2\n  0x20\n  mul\n  dup3\n  add\ntag_6:\n  dup3\n  dup2\n  gt\n  iszero\n  tag_7\n  jumpi\n  dup3\n  mload\n  dup3\n  swap1\n  0xff\n  and\n  swap1\n  sstore\n  swap2\n  0x20\n  add\n  swap2\n  swap1\n  0x01\n  add\n  swap1\n  jump(tag_6)\ntag_7:\ntag_5:\n  pop\n  swap1\n  pop\n  tag_8\n  swap2\n  swap1\n  tag_9\n  jump\t// in\ntag_8:\n  pop\n  swap1\n  jump\t// out\ntag_9:\ntag_10:\n  dup1\n  dup3\n  gt\n  iszero\n  tag_11\n  jumpi\n  0x00\n  dup2\n  0x00\n  swap1\n  sstore\n  pop\n  0x01\n  add\n  jump(tag_10)\ntag_11:\n  pop\n  swap1\n  jump\t// out\ntag_4:\n  dataSize(sub_0)\n  dup1\n  dataOffset(sub_0)\n  0x00\n  codecopy\n  0x00\n  return\nstop\n\nsub_0: assembly {\n        /* \"contracts/Addvalues.sol\":74:912  contract Addvalues {... */\n      mstore(0x40, 0x80)\n      callvalue\n      dup1\n      iszero\n      tag_1\n      jumpi\n      0x00\n      dup1\n      revert\n    tag_1:\n      pop\n      jumpi(tag_2, lt(calldatasize, 0x04))\n      shr(0xe0, calldataload(0x00))\n      dup1\n      0x1af65ba6\n      eq\n      tag_3\n      jumpi\n      dup1\n      0x2ce702bc\n      eq\n      tag_4\n      jumpi\n      dup1\n      0x86b86910\n      eq\n      tag_5\n      jumpi\n      dup1\n      0xb795407c\n      eq\n      tag_6\n      jumpi\n      dup1\n      0xd394746c\n      eq\n      tag_7\n      jumpi\n    tag_2:\n      0x00\n      dup1\n      revert\n        /* \"contracts/Addvalues.sol\":434:580  function TryRequire() public view returns (uint) {... */\n    tag_3:\n      tag_8\n      tag_9\n      jump\t// in\n    tag_8:\n      mload(0x40)\n      tag_10\n      swap2\n      swap1\n      tag_11\n      jump\t// in\n    tag_10:\n      mload(0x40)\n      dup1\n      swap2\n      sub\n      swap1\n      return\n        /* \"contracts/Addvalues.sol\":588:907  function FindNum(uint256 TheNum) public view returns (bool) ... */\n    tag_4:\n      tag_12\n      0x04\n      dup1\n      calldatasize\n      sub\n      dup2\n      add\n      swap1\n      tag_13\n      swap2\n      swap1\n      tag_14\n      jump\t// in\n    tag_13:\n      tag_15\n      jump\t// in\n    tag_12:\n      mload(0x40)\n      tag_16\n      swap2\n      swap1\n      tag_17\n      jump\t// in\n    tag_16:\n      mload(0x40)\n      dup1\n      swap2\n      sub\n      swap1\n      return\n        /* \"contracts/Addvalues.sol\":324:426  function setDoorsCount() public returns (uint256)... */\n    tag_5:\n      tag_18\n      tag_19\n      jump\t// in\n    tag_18:\n      mload(0x40)\n      tag_20\n      swap2\n      swap1\n      tag_11\n      jump\t// in\n    tag_20:\n      mload(0x40)\n      dup1\n      swap2\n      sub\n      swap1\n      return\n        /* \"contracts/Addvalues.sol\":183:315  function getDoorsCount() public pure returns (uint256)... */\n    tag_6:\n      tag_21\n      tag_22\n      jump\t// in\n    tag_21:\n      mload(0x40)\n      tag_23\n      swap2\n      swap1\n      tag_11\n      jump\t// in\n    tag_23:\n      mload(0x40)\n      dup1\n      swap2\n      sub\n      swap1\n      return\n        /* \"contracts/Addvalues.sol\":106:132  uint256 public doorsNum=10 */\n    tag_7:\n      tag_24\n      tag_25\n      jump\t// in\n    tag_24:\n      mload(0x40)\n      tag_26\n      swap2\n      swap1\n      tag_11\n      jump\t// in\n    tag_26:\n      mload(0x40)\n      dup1\n      swap2\n      sub\n      swap1\n      return\n        /* \"contracts/Addvalues.sol\":434:580  function TryRequire() public view returns (uint) {... */\n    tag_9:\n        /* \"contracts/Addvalues.sol\":477:481  uint */\n      0x00\n        /* \"contracts/Addvalues.sol\":513:515  15 */\n      0x0f\n        /* \"contracts/Addvalues.sol\":504:512  doorsNum */\n      sload(0x00)\n        /* \"contracts/Addvalues.sol\":504:515  doorsNum<15 */\n      lt\n        /* \"contracts/Addvalues.sol\":496:546  require(doorsNum<15,\"The doors is bigger than 10\") */\n      tag_28\n      jumpi\n      mload(0x40)\n      0x08c379a000000000000000000000000000000000000000000000000000000000\n      dup2\n      mstore\n      0x04\n      add\n      tag_29\n      swap1\n      tag_30\n      jump\t// in\n    tag_29:\n      mload(0x40)\n      dup1\n      swap2\n      sub\n      swap1\n      revert\n    tag_28:\n        /* \"contracts/Addvalues.sol\":564:572  doorsNum */\n      sload(0x00)\n        /* \"contracts/Addvalues.sol\":557:572  return doorsNum */\n      swap1\n      pop\n        /* \"contracts/Addvalues.sol\":434:580  function TryRequire() public view returns (uint) {... */\n      swap1\n      jump\t// out\n        /* \"contracts/Addvalues.sol\":588:907  function FindNum(uint256 TheNum) public view returns (bool) ... */\n    tag_15:\n        /* \"contracts/Addvalues.sol\":642:646  bool */\n      0x00\n        /* \"contracts/Addvalues.sol\":665:677  bool IsFound */\n      dup1\n        /* \"contracts/Addvalues.sol\":678:683  false */\n      0x00\n        /* \"contracts/Addvalues.sol\":665:683  bool IsFound=false */\n      swap1\n      pop\n        /* \"contracts/Addvalues.sol\":694:703  uint256 i */\n      0x00\n        /* \"contracts/Addvalues.sol\":718:875  for (i ; i<Salaries.length ; i++) ... */\n    tag_32:\n        /* \"contracts/Addvalues.sol\":729:737  Salaries */\n      0x01\n        /* \"contracts/Addvalues.sol\":729:744  Salaries.length */\n      dup1\n      sload\n      swap1\n      pop\n        /* \"contracts/Addvalues.sol\":727:728  i */\n      dup2\n        /* \"contracts/Addvalues.sol\":727:744  i<Salaries.length */\n      lt\n        /* \"contracts/Addvalues.sol\":718:875  for (i ; i<Salaries.length ; i++) ... */\n      iszero\n      tag_33\n      jumpi\n        /* \"contracts/Addvalues.sol\":794:800  TheNum */\n      dup4\n        /* \"contracts/Addvalues.sol\":781:789  Salaries */\n      0x01\n        /* \"contracts/Addvalues.sol\":790:791  i */\n      dup3\n        /* \"contracts/Addvalues.sol\":781:792  Salaries[i] */\n      dup2\n      sload\n      dup2\n      lt\n      tag_35\n      jumpi\n      tag_36\n      tag_37\n      jump\t// in\n    tag_36:\n    tag_35:\n      swap1\n      0x00\n      mstore\n      keccak256(0x00, 0x20)\n      add\n      sload\n        /* \"contracts/Addvalues.sol\":781:800  Salaries[i]==TheNum */\n      sub\n        /* \"contracts/Addvalues.sol\":777:863  if (Salaries[i]==TheNum) ... */\n      tag_39\n      jumpi\n        /* \"contracts/Addvalues.sol\":843:847  true */\n      0x01\n        /* \"contracts/Addvalues.sol\":835:847  IsFound=true */\n      swap2\n      pop\n        /* \"contracts/Addvalues.sol\":777:863  if (Salaries[i]==TheNum) ... */\n    tag_39:\n        /* \"contracts/Addvalues.sol\":747:750  i++ */\n      dup1\n      dup1\n      0x01\n      add\n      swap2\n      pop\n      pop\n        /* \"contracts/Addvalues.sol\":718:875  for (i ; i<Salaries.length ; i++) ... */\n      jump(tag_32)\n    tag_33:\n        /* \"contracts/Addvalues.sol\":892:899  IsFound */\n      dup2\n        /* \"contracts/Addvalues.sol\":885:899  return IsFound */\n      swap3\n      pop\n      pop\n      pop\n        /* \"contracts/Addvalues.sol\":588:907  function FindNum(uint256 TheNum) public view returns (bool) ... */\n      swap2\n      swap1\n      pop\n      jump\t// out\n        /* \"contracts/Addvalues.sol\":324:426  function setDoorsCount() public returns (uint256)... */\n    tag_19:\n        /* \"contracts/Addvalues.sol\":365:372  uint256 */\n      0x00\n        /* \"contracts/Addvalues.sol\":406:408  15 */\n      0x0f\n        /* \"contracts/Addvalues.sol\":397:405  doorsNum */\n      0x00\n        /* \"contracts/Addvalues.sol\":397:408  doorsNum=15 */\n      dup2\n      swap1\n      sstore\n        /* \"contracts/Addvalues.sol\":390:408  return doorsNum=15 */\n      swap1\n      pop\n        /* \"contracts/Addvalues.sol\":324:426  function setDoorsCount() public returns (uint256)... */\n      swap1\n      jump\t// out\n        /* \"contracts/Addvalues.sol\":183:315  function getDoorsCount() public pure returns (uint256)... */\n    tag_22:\n        /* \"contracts/Addvalues.sol\":229:236  uint256 */\n      0x00\n        /* \"contracts/Addvalues.sol\":253:270  uint256 doorsNum1 */\n      dup1\n        /* \"contracts/Addvalues.sol\":271:274  300 */\n      0x012c\n        /* \"contracts/Addvalues.sol\":253:274  uint256 doorsNum1=300 */\n      swap1\n      pop\n        /* \"contracts/Addvalues.sol\":291:300  doorsNum1 */\n      dup1\n        /* \"contracts/Addvalues.sol\":284:300  return doorsNum1 */\n      swap2\n      pop\n      pop\n        /* \"contracts/Addvalues.sol\":183:315  function getDoorsCount() public pure returns (uint256)... */\n      swap1\n      jump\t// out\n        /* \"contracts/Addvalues.sol\":106:132  uint256 public doorsNum=10 */\n    tag_25:\n      sload(0x00)\n      dup2\n      jump\t// out\n        /* \"#utility.yul\":7:84   */\n    tag_42:\n        /* \"#utility.yul\":44:51   */\n      0x00\n        /* \"#utility.yul\":73:78   */\n      dup2\n        /* \"#utility.yul\":62:78   */\n      swap1\n      pop\n        /* \"#utility.yul\":7:84   */\n      swap2\n      swap1\n      pop\n      jump\t// out\n        /* \"#utility.yul\":90:208   */\n    tag_43:\n        /* \"#utility.yul\":177:201   */\n      tag_57\n        /* \"#utility.yul\":195:200   */\n      dup2\n        /* \"#utility.yul\":177:201   */\n      tag_42\n      jump\t// in\n    tag_57:\n        /* \"#utility.yul\":172:175   */\n      dup3\n        /* \"#utility.yul\":165:202   */\n      mstore\n        /* \"#utility.yul\":90:208   */\n      pop\n      pop\n      jump\t// out\n        /* \"#utility.yul\":214:436   */\n    tag_11:\n        /* \"#utility.yul\":307:311   */\n      0x00\n        /* \"#utility.yul\":345:347   */\n      0x20\n        /* \"#utility.yul\":334:343   */\n      dup3\n        /* \"#utility.yul\":330:348   */\n      add\n        /* \"#utility.yul\":322:348   */\n      swap1\n      pop\n        /* \"#utility.yul\":358:429   */\n      tag_59\n        /* \"#utility.yul\":426:427   */\n      0x00\n        /* \"#utility.yul\":415:424   */\n      dup4\n        /* \"#utility.yul\":411:428   */\n      add\n        /* \"#utility.yul\":402:408   */\n      dup5\n        /* \"#utility.yul\":358:429   */\n      tag_43\n      jump\t// in\n    tag_59:\n        /* \"#utility.yul\":214:436   */\n      swap3\n      swap2\n      pop\n      pop\n      jump\t// out\n        /* \"#utility.yul\":523:640   */\n    tag_45:\n        /* \"#utility.yul\":632:633   */\n      0x00\n        /* \"#utility.yul\":629:630   */\n      dup1\n        /* \"#utility.yul\":622:634   */\n      revert\n        /* \"#utility.yul\":769:891   */\n    tag_47:\n        /* \"#utility.yul\":842:866   */\n      tag_64\n        /* \"#utility.yul\":860:865   */\n      dup2\n        /* \"#utility.yul\":842:866   */\n      tag_42\n      jump\t// in\n    tag_64:\n        /* \"#utility.yul\":835:840   */\n      dup2\n        /* \"#utility.yul\":832:867   */\n      eq\n        /* \"#utility.yul\":822:885   */\n      tag_65\n      jumpi\n        /* \"#utility.yul\":881:882   */\n      0x00\n        /* \"#utility.yul\":878:879   */\n      dup1\n        /* \"#utility.yul\":871:883   */\n      revert\n        /* \"#utility.yul\":822:885   */\n    tag_65:\n        /* \"#utility.yul\":769:891   */\n      pop\n      jump\t// out\n        /* \"#utility.yul\":897:1036   */\n    tag_48:\n        /* \"#utility.yul\":943:948   */\n      0x00\n        /* \"#utility.yul\":981:987   */\n      dup2\n        /* \"#utility.yul\":968:988   */\n      calldataload\n        /* \"#utility.yul\":959:988   */\n      swap1\n      pop\n        /* \"#utility.yul\":997:1030   */\n      tag_67\n        /* \"#utility.yul\":1024:1029   */\n      dup2\n        /* \"#utility.yul\":997:1030   */\n      tag_47\n      jump\t// in\n    tag_67:\n        /* \"#utility.yul\":897:1036   */\n      swap3\n      swap2\n      pop\n      pop\n      jump\t// out\n        /* \"#utility.yul\":1042:1371   */\n    tag_14:\n        /* \"#utility.yul\":1101:1107   */\n      0x00\n        /* \"#utility.yul\":1150:1152   */\n      0x20\n        /* \"#utility.yul\":1138:1147   */\n      dup3\n        /* \"#utility.yul\":1129:1136   */\n      dup5\n        /* \"#utility.yul\":1125:1148   */\n      sub\n        /* \"#utility.yul\":1121:1153   */\n      slt\n        /* \"#utility.yul\":1118:1237   */\n      iszero\n      tag_69\n      jumpi\n        /* \"#utility.yul\":1156:1235   */\n      tag_70\n      tag_45\n      jump\t// in\n    tag_70:\n        /* \"#utility.yul\":1118:1237   */\n    tag_69:\n        /* \"#utility.yul\":1276:1277   */\n      0x00\n        /* \"#utility.yul\":1301:1354   */\n      tag_71\n        /* \"#utility.yul\":1346:1353   */\n      dup5\n        /* \"#utility.yul\":1337:1343   */\n      dup3\n        /* \"#utility.yul\":1326:1335   */\n      dup6\n        /* \"#utility.yul\":1322:1344   */\n      add\n        /* \"#utility.yul\":1301:1354   */\n      tag_48\n      jump\t// in\n    tag_71:\n        /* \"#utility.yul\":1291:1354   */\n      swap2\n      pop\n        /* \"#utility.yul\":1247:1364   */\n      pop\n        /* \"#utility.yul\":1042:1371   */\n      swap3\n      swap2\n      pop\n      pop\n      jump\t// out\n        /* \"#utility.yul\":1377:1467   */\n    tag_49:\n        /* \"#utility.yul\":1411:1418   */\n      0x00\n        /* \"#utility.yul\":1454:1459   */\n      dup2\n        /* \"#utility.yul\":1447:1460   */\n      iszero\n        /* \"#utility.yul\":1440:1461   */\n      iszero\n        /* \"#utility.yul\":1429:1461   */\n      swap1\n      pop\n        /* \"#utility.yul\":1377:1467   */\n      swap2\n      swap1\n      pop\n      jump\t// out\n        /* \"#utility.yul\":1473:1582   */\n    tag_50:\n        /* \"#utility.yul\":1554:1575   */\n      tag_74\n        /* \"#utility.yul\":1569:1574   */\n      dup2\n        /* \"#utility.yul\":1554:1575   */\n      tag_49\n      jump\t// in\n    tag_74:\n        /* \"#utility.yul\":1549:1552   */\n      dup3\n        /* \"#utility.yul\":1542:1576   */\n      mstore\n        /* \"#utility.yul\":1473:1582   */\n      pop\n      pop\n      jump\t// out\n        /* \"#utility.yul\":1588:1798   */\n    tag_17:\n        /* \"#utility.yul\":1675:1679   */\n      0x00\n        /* \"#utility.yul\":1713:1715   */\n      0x20\n        /* \"#utility.yul\":1702:1711   */\n      dup3\n        /* \"#utility.yul\":1698:1716   */\n      add\n        /* \"#utility.yul\":1690:1716   */\n      swap1\n      pop\n        /* \"#utility.yul\":1726:1791   */\n      tag_76\n        /* \"#utility.yul\":1788:1789   */\n      0x00\n        /* \"#utility.yul\":1777:1786   */\n      dup4\n        /* \"#utility.yul\":1773:1790   */\n      add\n        /* \"#utility.yul\":1764:1770   */\n      dup5\n        /* \"#utility.yul\":1726:1791   */\n      tag_50\n      jump\t// in\n    tag_76:\n        /* \"#utility.yul\":1588:1798   */\n      swap3\n      swap2\n      pop\n      pop\n      jump\t// out\n        /* \"#utility.yul\":1804:1973   */\n    tag_51:\n        /* \"#utility.yul\":1888:1899   */\n      0x00\n        /* \"#utility.yul\":1922:1928   */\n      dup3\n        /* \"#utility.yul\":1917:1920   */\n      dup3\n        /* \"#utility.yul\":1910:1929   */\n      mstore\n        /* \"#utility.yul\":1962:1966   */\n      0x20\n        /* \"#utility.yul\":1957:1960   */\n      dup3\n        /* \"#utility.yul\":1953:1967   */\n      add\n        /* \"#utility.yul\":1938:1967   */\n      swap1\n      pop\n        /* \"#utility.yul\":1804:1973   */\n      swap3\n      swap2\n      pop\n      pop\n      jump\t// out\n        /* \"#utility.yul\":1979:2156   */\n    tag_52:\n        /* \"#utility.yul\":2119:2148   */\n      0x54686520646f6f727320697320626967676572207468616e2031300000000000\n        /* \"#utility.yul\":2115:2116   */\n      0x00\n        /* \"#utility.yul\":2107:2113   */\n      dup3\n        /* \"#utility.yul\":2103:2117   */\n      add\n        /* \"#utility.yul\":2096:2149   */\n      mstore\n        /* \"#utility.yul\":1979:2156   */\n      pop\n      jump\t// out\n        /* \"#utility.yul\":2162:2528   */\n    tag_53:\n        /* \"#utility.yul\":2304:2307   */\n      0x00\n        /* \"#utility.yul\":2325:2392   */\n      tag_80\n        /* \"#utility.yul\":2389:2391   */\n      0x1b\n        /* \"#utility.yul\":2384:2387   */\n      dup4\n        /* \"#utility.yul\":2325:2392   */\n      tag_51\n      jump\t// in\n    tag_80:\n        /* \"#utility.yul\":2318:2392   */\n      swap2\n      pop\n        /* \"#utility.yul\":2401:2494   */\n      tag_81\n        /* \"#utility.yul\":2490:2493   */\n      dup3\n        /* \"#utility.yul\":2401:2494   */\n      tag_52\n      jump\t// in\n    tag_81:\n        /* \"#utility.yul\":2519:2521   */\n      0x20\n        /* \"#utility.yul\":2514:2517   */\n      dup3\n        /* \"#utility.yul\":2510:2522   */\n      add\n        /* \"#utility.yul\":2503:2522   */\n      swap1\n      pop\n        /* \"#utility.yul\":2162:2528   */\n      swap2\n      swap1\n      pop\n      jump\t// out\n        /* \"#utility.yul\":2534:2953   */\n    tag_30:\n        /* \"#utility.yul\":2700:2704   */\n      0x00\n        /* \"#utility.yul\":2738:2740   */\n      0x20\n        /* \"#utility.yul\":2727:2736   */\n      dup3\n        /* \"#utility.yul\":2723:2741   */\n      add\n        /* \"#utility.yul\":2715:2741   */\n      swap1\n      pop\n        /* \"#utility.yul\":2787:2796   */\n      dup2\n        /* \"#utility.yul\":2781:2785   */\n      dup2\n        /* \"#utility.yul\":2777:2797   */\n      sub\n        /* \"#utility.yul\":2773:2774   */\n      0x00\n        /* \"#utility.yul\":2762:2771   */\n      dup4\n        /* \"#utility.yul\":2758:2775   */\n      add\n        /* \"#utility.yul\":2751:2798   */\n      mstore\n        /* \"#utility.yul\":2815:2946   */\n      tag_83\n        /* \"#utility.yul\":2941:2945   */\n      dup2\n        /* \"#utility.yul\":2815:2946   */\n      tag_53\n      jump\t// in\n    tag_83:\n        /* \"#utility.yul\":2807:2946   */\n      swap1\n      pop\n        /* \"#utility.yul\":2534:2953   */\n      swap2\n      swap1\n      pop\n      jump\t// out\n        /* \"#utility.yul\":2959:3139   */\n    tag_37:\n        /* \"#utility.yul\":3007:3084   */\n      0x4e487b7100000000000000000000000000000000000000000000000000000000\n        /* \"#utility.yul\":3004:3005   */\n      0x00\n        /* \"#utility.yul\":2997:3085   */\n      mstore\n        /* \"#utility.yul\":3104:3108   */\n      0x32\n        /* \"#utility.yul\":3101:3102   */\n      0x04\n        /* \"#utility.yul\":3094:3109   */\n      mstore\n        /* \"#utility.yul\":3128:3132   */\n      0x24\n        /* \"#utility.yul\":3125:3126   */\n      0x00\n        /* \"#utility.yul\":3118:3133   */\n      revert\n\n    auxdata: 0xa26469706673582212200f77d1f08052217d75988f7a0b19b8ed063e6a562f71657362b1a28d3b6aea5e64736f6c63430008160033\n}\n",
				"bytecode": {
					"linkReferences": {},
					"object": "6080604052600a5f556040518060e00160405280600160ff168152602001600260ff168152602001600360ff168152602001600460ff168152602001600560ff168152602001600660ff168152602001600760ff168152506001906007610067929190610079565b50348015610073575f80fd5b506100e4565b828054828255905f5260205f209081019282156100b8579160200282015b828111156100b7578251829060ff16905591602001919060010190610097565b5b5090506100c591906100c9565b5090565b5b808211156100e0575f815f9055506001016100ca565b5090565b610357806100f15f395ff3fe608060405234801561000f575f80fd5b5060043610610055575f3560e01c80631af65ba6146100595780632ce702bc1461007757806386b86910146100a7578063b795407c146100c5578063d394746c146100e3575b5f80fd5b610061610101565b60405161006e91906101d7565b60405180910390f35b610091600480360381019061008c919061021e565b61014d565b60405161009e9190610263565b60405180910390f35b6100af6101a0565b6040516100bc91906101d7565b60405180910390f35b6100cd6101ac565b6040516100da91906101d7565b60405180910390f35b6100eb6101ba565b6040516100f891906101d7565b60405180910390f35b5f600f5f5410610146576040517f08c379a000000000000000000000000000000000000000000000000000000000815260040161013d906102d6565b60405180910390fd5b5f54905090565b5f805f90505f5b600180549050811015610196578360018281548110610176576101756102f4565b5b905f5260205f2001540361018957600191505b8080600101915050610154565b8192505050919050565b5f600f5f819055905090565b5f8061012c90508091505090565b5f5481565b5f819050919050565b6101d1816101bf565b82525050565b5f6020820190506101ea5f8301846101c8565b92915050565b5f80fd5b6101fd816101bf565b8114610207575f80fd5b50565b5f81359050610218816101f4565b92915050565b5f60208284031215610233576102326101f0565b5b5f6102408482850161020a565b91505092915050565b5f8115159050919050565b61025d81610249565b82525050565b5f6020820190506102765f830184610254565b92915050565b5f82825260208201905092915050565b7f54686520646f6f727320697320626967676572207468616e20313000000000005f82015250565b5f6102c0601b8361027c565b91506102cb8261028c565b602082019050919050565b5f6020820190508181035f8301526102ed816102b4565b9050919050565b7f4e487b71000000000000000000000000000000000000000000000000000000005f52603260045260245ffdfea26469706673582212200f77d1f08052217d75988f7a0b19b8ed063e6a562f71657362b1a28d3b6aea5e64736f6c63430008160033",
					"opcodes": "PUSH1 0x80 PUSH1 0x40 MSTORE PUSH1 0xA PUSH0 SSTORE PUSH1 0x40 MLOAD DUP1 PUSH1 0xE0 ADD PUSH1 0x40 MSTORE DUP1 PUSH1 0x1 PUSH1 0xFF AND DUP2 MSTORE PUSH1 0x20 ADD PUSH1 0x2 PUSH1 0xFF AND DUP2 MSTORE PUSH1 0x20 ADD PUSH1 0x3 PUSH1 0xFF AND DUP2 MSTORE PUSH1 0x20 ADD PUSH1 0x4 PUSH1 0xFF AND DUP2 MSTORE PUSH1 0x20 ADD PUSH1 0x5 PUSH1 0xFF AND DUP2 MSTORE PUSH1 0x20 ADD PUSH1 0x6 PUSH1 0xFF AND DUP2 MSTORE PUSH1 0x20 ADD PUSH1 0x7 PUSH1 0xFF AND DUP2 MSTORE POP PUSH1 0x1 SWAP1 PUSH1 0x7 PUSH2 0x67 SWAP3 SWAP2 SWAP1 PUSH2 0x79 JUMP JUMPDEST POP CALLVALUE DUP1 ISZERO PUSH2 0x73 JUMPI PUSH0 DUP1 REVERT JUMPDEST POP PUSH2 0xE4 JUMP JUMPDEST DUP3 DUP1 SLOAD DUP3 DUP3 SSTORE SWAP1 PUSH0 MSTORE PUSH1 0x20 PUSH0 KECCAK256 SWAP1 DUP2 ADD SWAP3 DUP3 ISZERO PUSH2 0xB8 JUMPI SWAP2 PUSH1 0x20 MUL DUP3 ADD JUMPDEST DUP3 DUP2 GT ISZERO PUSH2 0xB7 JUMPI DUP3 MLOAD DUP3 SWAP1 PUSH1 0xFF AND SWAP1 SSTORE SWAP2 PUSH1 0x20 ADD SWAP2 SWAP1 PUSH1 0x1 ADD SWAP1 PUSH2 0x97 JUMP JUMPDEST JUMPDEST POP SWAP1 POP PUSH2 0xC5 SWAP2 SWAP1 PUSH2 0xC9 JUMP JUMPDEST POP SWAP1 JUMP JUMPDEST JUMPDEST DUP1 DUP3 GT ISZERO PUSH2 0xE0 JUMPI PUSH0 DUP2 PUSH0 SWAP1 SSTORE POP PUSH1 0x1 ADD PUSH2 0xCA JUMP JUMPDEST POP SWAP1 JUMP JUMPDEST PUSH2 0x357 DUP1 PUSH2 0xF1 PUSH0 CODECOPY PUSH0 RETURN INVALID PUSH1 0x80 PUSH1 0x40 MSTORE CALLVALUE DUP1 ISZERO PUSH2 0xF JUMPI PUSH0 DUP1 REVERT JUMPDEST POP PUSH1 0x4 CALLDATASIZE LT PUSH2 0x55 JUMPI PUSH0 CALLDATALOAD PUSH1 0xE0 SHR DUP1 PUSH4 0x1AF65BA6 EQ PUSH2 0x59 JUMPI DUP1 PUSH4 0x2CE702BC EQ PUSH2 0x77 JUMPI DUP1 PUSH4 0x86B86910 EQ PUSH2 0xA7 JUMPI DUP1 PUSH4 0xB795407C EQ PUSH2 0xC5 JUMPI DUP1 PUSH4 0xD394746C EQ PUSH2 0xE3 JUMPI JUMPDEST PUSH0 DUP1 REVERT JUMPDEST PUSH2 0x61 PUSH2 0x101 JUMP JUMPDEST PUSH1 0x40 MLOAD PUSH2 0x6E SWAP2 SWAP1 PUSH2 0x1D7 JUMP JUMPDEST PUSH1 0x40 MLOAD DUP1 SWAP2 SUB SWAP1 RETURN JUMPDEST PUSH2 0x91 PUSH1 0x4 DUP1 CALLDATASIZE SUB DUP2 ADD SWAP1 PUSH2 0x8C SWAP2 SWAP1 PUSH2 0x21E JUMP JUMPDEST PUSH2 0x14D JUMP JUMPDEST PUSH1 0x40 MLOAD PUSH2 0x9E SWAP2 SWAP1 PUSH2 0x263 JUMP JUMPDEST PUSH1 0x40 MLOAD DUP1 SWAP2 SUB SWAP1 RETURN JUMPDEST PUSH2 0xAF PUSH2 0x1A0 JUMP JUMPDEST PUSH1 0x40 MLOAD PUSH2 0xBC SWAP2 SWAP1 PUSH2 0x1D7 JUMP JUMPDEST PUSH1 0x40 MLOAD DUP1 SWAP2 SUB SWAP1 RETURN JUMPDEST PUSH2 0xCD PUSH2 0x1AC JUMP JUMPDEST PUSH1 0x40 MLOAD PUSH2 0xDA SWAP2 SWAP1 PUSH2 0x1D7 JUMP JUMPDEST PUSH1 0x40 MLOAD DUP1 SWAP2 SUB SWAP1 RETURN JUMPDEST PUSH2 0xEB PUSH2 0x1BA JUMP JUMPDEST PUSH1 0x40 MLOAD PUSH2 0xF8 SWAP2 SWAP1 PUSH2 0x1D7 JUMP JUMPDEST PUSH1 0x40 MLOAD DUP1 SWAP2 SUB SWAP1 RETURN JUMPDEST PUSH0 PUSH1 0xF PUSH0 SLOAD LT PUSH2 0x146 JUMPI PUSH1 0x40 MLOAD PUSH32 0x8C379A000000000000000000000000000000000000000000000000000000000 DUP2 MSTORE PUSH1 0x4 ADD PUSH2 0x13D SWAP1 PUSH2 0x2D6 JUMP JUMPDEST PUSH1 0x40 MLOAD DUP1 SWAP2 SUB SWAP1 REVERT JUMPDEST PUSH0 SLOAD SWAP1 POP SWAP1 JUMP JUMPDEST PUSH0 DUP1 PUSH0 SWAP1 POP PUSH0 JUMPDEST PUSH1 0x1 DUP1 SLOAD SWAP1 POP DUP2 LT ISZERO PUSH2 0x196 JUMPI DUP4 PUSH1 0x1 DUP3 DUP2 SLOAD DUP2 LT PUSH2 0x176 JUMPI PUSH2 0x175 PUSH2 0x2F4 JUMP JUMPDEST JUMPDEST SWAP1 PUSH0 MSTORE PUSH1 0x20 PUSH0 KECCAK256 ADD SLOAD SUB PUSH2 0x189 JUMPI PUSH1 0x1 SWAP2 POP JUMPDEST DUP1 DUP1 PUSH1 0x1 ADD SWAP2 POP POP PUSH2 0x154 JUMP JUMPDEST DUP2 SWAP3 POP POP POP SWAP2 SWAP1 POP JUMP JUMPDEST PUSH0 PUSH1 0xF PUSH0 DUP2 SWAP1 SSTORE SWAP1 POP SWAP1 JUMP JUMPDEST PUSH0 DUP1 PUSH2 0x12C SWAP1 POP DUP1 SWAP2 POP POP SWAP1 JUMP JUMPDEST PUSH0 SLOAD DUP2 JUMP JUMPDEST PUSH0 DUP2 SWAP1 POP SWAP2 SWAP1 POP JUMP JUMPDEST PUSH2 0x1D1 DUP2 PUSH2 0x1BF JUMP JUMPDEST DUP3 MSTORE POP POP JUMP JUMPDEST PUSH0 PUSH1 0x20 DUP3 ADD SWAP1 POP PUSH2 0x1EA PUSH0 DUP4 ADD DUP5 PUSH2 0x1C8 JUMP JUMPDEST SWAP3 SWAP2 POP POP JUMP JUMPDEST PUSH0 DUP1 REVERT JUMPDEST PUSH2 0x1FD DUP2 PUSH2 0x1BF JUMP JUMPDEST DUP2 EQ PUSH2 0x207 JUMPI PUSH0 DUP1 REVERT JUMPDEST POP JUMP JUMPDEST PUSH0 DUP2 CALLDATALOAD SWAP1 POP PUSH2 0x218 DUP2 PUSH2 0x1F4 JUMP JUMPDEST SWAP3 SWAP2 POP POP JUMP JUMPDEST PUSH0 PUSH1 0x20 DUP3 DUP5 SUB SLT ISZERO PUSH2 0x233 JUMPI PUSH2 0x232 PUSH2 0x1F0 JUMP JUMPDEST JUMPDEST PUSH0 PUSH2 0x240 DUP5 DUP3 DUP6 ADD PUSH2 0x20A JUMP JUMPDEST SWAP2 POP POP SWAP3 SWAP2 POP POP JUMP JUMPDEST PUSH0 DUP2 ISZERO ISZERO SWAP1 POP SWAP2 SWAP1 POP JUMP JUMPDEST PUSH2 0x25D DUP2 PUSH2 0x249 JUMP JUMPDEST DUP3 MSTORE POP POP JUMP JUMPDEST PUSH0 PUSH1 0x20 DUP3 ADD SWAP1 POP PUSH2 0x276 PUSH0 DUP4 ADD DUP5 PUSH2 0x254 JUMP JUMPDEST SWAP3 SWAP2 POP POP JUMP JUMPDEST PUSH0 DUP3 DUP3 MSTORE PUSH1 0x20 DUP3 ADD SWAP1 POP SWAP3 SWAP2 POP POP JUMP JUMPDEST PUSH32 0x54686520646F6F727320697320626967676572207468616E2031300000000000 PUSH0 DUP3 ADD MSTORE POP JUMP JUMPDEST PUSH0 PUSH2 0x2C0 PUSH1 0x1B DUP4 PUSH2 0x27C JUMP JUMPDEST SWAP2 POP PUSH2 0x2CB DUP3 PUSH2 0x28C JUMP JUMPDEST PUSH1 0x20 DUP3 ADD SWAP1 POP SWAP2 SWAP1 POP JUMP JUMPDEST PUSH0 PUSH1 0x20 DUP3 ADD SWAP1 POP DUP2 DUP2 SUB PUSH0 DUP4 ADD MSTORE PUSH2 0x2ED DUP2 PUSH2 0x2B4 JUMP JUMPDEST SWAP1 POP SWAP2 SWAP1 POP JUMP JUMPDEST PUSH32 0x4E487B7100000000000000000000000000000000000000000000000000000000 PUSH0 MSTORE PUSH1 0x32 PUSH1 0x4 MSTORE PUSH1 0x24 PUSH0 REVERT INVALID LOG2 PUSH5 0x6970667358 0x22 SLT KECCAK256 0xF PUSH24 0xD1F08052217D75988F7A0B19B8ED063E6A562F71657362B1 LOG2 DUP14 EXTCODESIZE PUSH11 0xEA5E64736F6C6343000816 STOP CALLER "
				},
				"gasEstimates": {
					"creation": {
						"codeDepositCost": "171000",
						"executionCost": "infinite",
						"totalCost": "infinite"
					},
					"external": {
						"FindNum(uint256)": "infinite",
						"TryRequire()": "4531",
						"doorsNum()": "2490",
						"getDoorsCount()": "389",
						"setDoorsCount()": "22462"
					}
				},
				"methodIdentifiers": {
					"FindNum(uint256)": "2ce702bc",
					"TryRequire()": "1af65ba6",
					"doorsNum()": "d394746c",
					"getDoorsCount()": "b795407c",
					"setDoorsCount()": "86b86910"
				}
			},
			"storageLayout": {
				"storage": [
					{
						"astId": 4,
						"contract": "contracts/Addvalues.sol:Addvalues",
						"label": "doorsNum",
						"offset": 0,
						"slot": "0",
						"type": "t_uint256"
					},
					{
						"astId": 15,
						"contract": "contracts/Addvalues.sol:Addvalues",
						"label": "Salaries",
						"offset": 0,
						"slot": "1",
						"type": "t_array(t_uint256)dyn_storage"
					}
				],
				"types": {
					"t_array(t_uint256)dyn_storage": {
						"base": "t_uint256",
						"encoding": "dynamic_array",
						"label": "uint256[]",
						"numberOfBytes": "32"
					},
					"t_uint256": {
						"encoding": "inplace",
						"label": "uint256",
						"numberOfBytes": "32"
					}
				}
			},
			"userdoc": {
				"kind": "user",
				"methods": {},
				"version": 1
			}
		}
	}
}